:020000040800F2
:1000000000080020AD020008C9020008CD02000867
:10001000D1020008D5020008D90200080000000043
:10002000000000000000000000000000DD020008E9
:10003000E102000800000000E5020008E9020008F3
:10004000ED020008F1020008F5020008F9020008BC
:10005000FD02000801030008050300080903000869
:100060000D03000811030008150300081903000818
:100070001D030008210300082503000829030008C8
:100080002D03000831030008350300083903000878
:100090003D03000841030008450300084903000828
:1000A0004D030008510300085503000859030008D8
:1000B0005D03000861030008650300086903000888
:1000C0006D03000871030008750300087903000838
:1000D0007D030008810300088503000889030008E8
:1000E0008D03000891030008950300089903000898
:1000F0009D030008A1030008A5030008A903000848
:10010000AD030008B1030008B5030008B9030008F7
:10011000BD030008C1030008C5030008C9030008A7
:10012000CD030008D1030008D5030008D903000857
:1001300080B54648006850F00100444908604448D2
:100140000068444908404249086040480068424904
:1001500008403E4908603D48006830F480203B4933
:1001600008603B48006830F4FE00394908605FF4DD
:100170001F003A49086000203949086000F005F87E
:100180005FF000603749086001BD80B500F001F8FC
:1001900001BD82B000200190002000902B48006833
:1001A00050F48030294908602848006810F4003075
:1001B00000900198401C01900098002803D10198FC
:1001C000B0F5A06FF0D121480068800302D501206E
:1001D000009001E0002000900098012833D11C48D5
:1001E00000681B4908601A480068194908601848E7
:1001F0000068174908601648006830F47C101449FC
:1002000008601348006850F49810114908600F48BE
:10021000006850F080700D4908600C48006880014B
:10022000FBD50B4800688008800009490860084831
:10023000006850F00200064908600548006810F0A8
:100240000C000828F9D102B07047000000100240ED
:10025000041002400000FFF8FFFFF6FE0810024005
:100260002C10024008ED00E000F00BF8002801D04F
:10027000C046C0460020C046C04600F004F800F06A
:1002800003F801207047FEE700F000B80746384643
:1002900000F002F8FBE7000080B5C046C046024A05
:1002A00011001820ABBEFBE7260002000148804782
:1002B0000148004731010008BD020008C046C046A1
:1002C000C046C046FFF7D0FFFFF7FEBFFFF7FEBFF7
:1002D000FFF7FEBFFFF7FEBFFFF7FEBFFFF7FEBF52
:1002E000FFF7FEBFFFF7FEBFFFF7FEBFFFF7FEBF42
:1002F000FFF7FEBFFFF7FEBFFFF7FEBFFFF7FEBF32
:10030000FFF7FEBFFFF7FEBFFFF7FEBFFFF7FEBF21
:10031000FFF7FEBFFFF7FEBFFFF7FEBFFFF7FEBF11
:10032000FFF7FEBFFFF7FEBFFFF7FEBFFFF7FEBF01
:10033000FFF7FEBFFFF7FEBFFFF7FEBFFFF7FEBFF1
:10034000FFF7FEBFFFF7FEBFFFF7FEBFFFF7FEBFE1
:10035000FFF7FEBFFFF7FEBFFFF7FEBFFFF7FEBFD1
:10036000FFF7FEBFFFF7FEBFFFF7FEBFFFF7FEBFC1
:10037000FFF7FEBFFFF7FEBFFFF7FEBFFFF7FEBFB1
:10038000FFF7FEBFFFF7FEBFFFF7FEBFFFF7FEBFA1
:10039000FFF7FEBFFFF7FEBFFFF7FEBFFFF7FEBF91
:1003A000FFF7FEBFFFF7FEBFFFF7FEBFFFF7FEBF81
:1003B000FFF7FEBFFFF7FEBFFFF7FEBFFFF7FEBF71
:1003C000FFF7FEBFFFF7FEBFFFF7FEBFFFF7FEBF61
:0C03D000FFF7FEBFFFF7FEBFFFF7FEBF08
:04000005080002BD30
:00000001FF
