:020000040800F2
:10000000A8250020C9A00008D1A00008D3A000089E
:10001000D5A00008D7A00008D9A000080000000063
:10002000000000000000000000000000DBA000084D
:10003000DDA0000800000000DFA00008E1A000082B
:10004000E3A00008E3A00008E3A00008E3A0000884
:10005000E3A00008E3A000085B7300081730000865
:100060008D65000839730008E3A00008E3A00008CC
:10007000E3A00008E3A00008E3A00008E3A0000854
:10008000E3A00008E3A00008E3A00008E3A0000844
:10009000E3A00008E3A00008E3A00008293100085D
:1000A000E3A00008E3A00008E3A00008E3A0000824
:1000B000ED2F0008E3A000080B0F0008E3A00008E4
:1000C000E3A00008CD730008E3A00008E3A0000847
:1000D000E3A00008493400087B350008E3A00008CD
:1000E00039110008E3A00008E3A00008E3A000081D
:1000F000E3A00008E3A00008E3A00008E3A00008D4
:10010000E3A00008E3A00008E3A00008E3A00008C3
:10011000E3A00008E3A00008230F0008E3A0000804
:10012000E3A00008E3A00008E3A00008E3A00008A3
:1001300000F002F800F05CF80AA090E8000C82449D
:100140008344AAF10107DA4501D100F051F8AFF27A
:10015000090EBAE80F0013F0010F18BFFB1A43F0A5
:1001600001031847B0290100D02901000A444FF0CB
:10017000000C10F8013B13F0070408BF10F8014B06
:100180001D1108BF10F8015B641E05D010F8016B4B
:10019000641E01F8016BF9D113F0080F1EBF10F8AF
:1001A000014BAD1C0C1B09D16D1E58BF01F801CBD2
:1001B000FAD505E014F8016B01F8016B6D1EF9D555
:1001C0009142D6D37047000000230024002500266A
:1001D000103A28BF78C1FBD8520728BF30C148BFAA
:1001E0000B6070471FB510F0DEFF1FBD10B510BDCE
:1001F00011F0D8F81146FFF7F5FF00F051FA11F0B1
:10020000F6F803B4FFF7F2FF03BC11F0F7F80000B3
:100210000B49D1F800C04A685CF8043B10681844E8
:1002200042F8040B8C4528BFA1F1DC0C8A4228BFA0
:10023000A1F1DC02C1F800C04A6020F00040704724
:10024000401F00200CB50020019000906C48006811
:1002500040F480306A49086000BF6948006800F4D3
:10026000003000900198401C0190009818B9019846
:10027000B0F5A06FF1D16248006800F4003010B111
:100280000120009001E0002000900098012843D157
:100290005C48006840F010005A4908600846006851
:1002A00020F0030008600846006840F00200086083
:1002B00053484068524948600846406848600846CC
:1002C000406840F4806048600846406820F47C1034
:1002D00048600846406840F4881048600846006856
:1002E00040F08070086000BF4548006800F0007072
:1002F0000028F9D04248406820F003004049486097
:100300000846406840F00200486000BF3C48406832
:1003100000F00C000828F9D10CBD10B5FFF792FFD2
:1003200010BD10B53648006840F00100344908603F
:10033000084640683449084031494860084600682A
:10034000324908402E4908600846006820F48020A1
:1003500008600846406820F4FE0048604FF41F0023
:100360008860FFF7DAFF4FF000602949086010BD90
:1003700010B5002100200022214B5B6803F00C0126
:1003800021B1042906D0082928D107E0214B224CAD
:10039000236027E0214B204C236023E0184B5B684F
:1003A00003F47010164B5B6803F48032022303EBF6
:1003B000904022B91A4B4343174C23600DE0104B79
:1003C0005B6803F4003323B1164B4343124C2360A4
:1003D00003E0124B4343104C236003E00D4B0E4CE3
:1003E000236000BF00BF064B5B68C3F303130E4CD2
:1003F000E15C094B1B68CB40074C236010BD00003B
:1004000000100240002002400000FFF8FFFFF6FE4F
:1004100008ED00E000127A0000000020001BB70089
:1004200000093D00808D5B000400002010B588B0FD
:100430000446694620460CF002FA08B010BD30B5FB
:1004400089B00446257E01A928460CF0EDF909B0D3
:1004500030BDF8B50646002500200090CDB9002437
:1004600000BF694630460DF0E5FB05469DF80000EB
:10047000012800D005B106E0641C304610F077FE7C
:10048000B4F5FA6FEDD300BFB4F5FA6F01D36FF096
:1004900006052846F8BDF8B5064600250020009060
:1004A000BDB9002400BF694630460DF05EFD05462B
:1004B000009800B105B106E0641C304610F057FE0C
:1004C000B4F5FA6FEFD300BFB4F5FA6F01D36FF054
:1004D00006052846F8BD2DE9F0418CB0804605AEF2
:1004E000002434B940460CF05DFC04462046FFF77A
:1004F0009DFF44B901AA02A940460DF01DFB044628
:100500002046FFF793FF44B903AA04A940460DF023
:1005100001FE04462046FFF789FF3CB90121404611
:100520000CF0C9FF04462046FFF780FF34B940466F
:100530000DF05AFA04462046FFF778FF1CBB20272F
:10054000002516E04046FFF784FF04467CB931469B
:1005500040460DF09EFB0446308929F81500042121
:1005600040460CF043FB404610F001FE00E002E084
:100570006D1CBD42E6D300BF24B9002500E06D1C10
:10058000BD42FCD300BF1CB940460DF008FB044639
:100590001CB94046FFF77FFF044624B904214046BA
:1005A0000CF024FB044620460CB0BDE8F0811FB5DA
:1005B000002452203549096881F85C010120334943
:1005C000096881F870014FF4C87030490968A1F8D2
:1005D000720124B92D4800680CF0E7FD044624B9E7
:1005E0002A4800680CF0DEFB044634B96A4601A9CB
:1005F000264800680DF0A0FA044634B902AA03A9FF
:10060000224800680DF086FD04462CB901211F48E0
:1006100000680CF050FF044624B91C4800680DF037
:10062000E3F90446E0B204B010BD10B50024184848
:10063000007800B910BD00201549087015480078F1
:1006400030B9FFF7B4FF10B9012012490870F1E783
:100650000E480068FFF7FDFE0446A4B90E48016885
:100660000A4800680DF015FB04460B480068008935
:100670000A4908800421054800680CF0B7FA0348CD
:10068000006810F074FD00BFD4E7000014000020E3
:100690001E0000201F000020180000201C00002069
:1006A00000F07BFB31E003F0EFF802F0ABFF03F06A
:1006B00055FD04F027F903F0B8FC01F0A1F801F0B2
:1006C00090F901F00CFA01F096FC01F03FFB02F00A
:1006D00016F904F089FF05F01AF900F096FE02F011
:1006E000A6F905F0D7FF06F070F902F01CF900F04A
:1006F000ECFF05F0F9F905F035FC07F0E6FF07F02F
:10070000B7F8FFF792FF06F07FFDCCE7FE480068E0
:10071000FE490860FC48001D00684860FA4808303F
:100720000068886070470EB5012120200AF0BDFEE8
:10073000F7480AF015FF4FF6FF70ADF804004720A8
:10074000ADF800000020ADF80600ADF802006946E3
:10075000EF480AF0D9FF0121ED480BF031FB0EBD47
:1007600000B587B00121C8020AF092FEE9480AF0FC
:10077000F7FE4FF4E150ADF814000020ADF8100082
:10078000ADF81600ADF8120004A9E2480AF0BCFF6B
:100790006020ADF800000120ADF802000020ADF8A7
:1007A0000400ADF80600ADF80800ADF80A004FF4FB
:1007B0008070ADF80C006946D6480AF0E2FF0121CE
:1007C000D4480BF009FB0121D2480BF0F9FA07B02D
:1007D00000BD1FB5012108460AF067FE4FF08040BA
:1007E0000AF0BEFE4FF6FF70ADF808004720ADF8E6
:1007F00004000020ADF80A00ADF8060001A94FF092
:1008000080400AF081FF012188070BF09FFD012243
:10081000114690070BF0EFFA4FF4A06009F074FC5A
:100820001C208DF8000000208DF8010003208DF8B9
:10083000020001208DF80300684609F06AFC0121DE
:1008400088070BF0BDFA1FBD1FB5012110200AF06B
:100850002CFEB1480AF084FE48F6A040ADF808002E
:100860000120ADF804000020ADF80A00ADF8060044
:1008700001A9A9480AF048FF0121A7480BF066FD2D
:1008800001221146A4480BF0B6FA4FF4A06009F01B
:100890003BFC36208DF8000000208DF8010005207B
:1008A0008DF8020001208DF80300684609F031FC44
:1008B000012199480BF084FA1FBD00B587B00121D2
:1008C00002200AF0F2FD95480AF04AFE4FF4E1508A
:1008D000ADF814000020ADF81000ADF81600ADF82A
:1008E000120004A98D480AF00FFF6020ADF8000047
:1008F0000120ADF802000020ADF80400ADF80600BC
:10090000ADF808004FF48070ADF80C0069468348DC
:100910000AF037FF694681480AF075FF69467F484B
:100920000AF0BEFF69467D480BF005F801217B48BF
:100930000BF00CFD012179480BF042FA07B000BD25
:1009400000B589B0012104200AF0AFFD74480AF017
:1009500007FE41F2AF30ADF81C000020ADF81800E2
:10096000ADF81E00ADF81A0006A96D480AF0CCFEDD
:100970006020ADF808000120ADF80A000020ADF8B5
:100980000C00ADF80E00ADF81000ADF8140002A98F
:1009900063480AF0F6FE02A961480AF034FF02A992
:1009A0005F480AF07DFF02A95D480AF0C4FF0121FB
:1009B0005B480BF0CBFC012159480BF025FA0122D2
:1009C000114657480BF017FA4FF4A06009F09CFB52
:1009D0001E208DF8040000208DF8050004208DF8FD
:1009E000060001208DF8070001A809F092FB012103
:1009F0004B480BF0E5F909B000BD0EB501210846E2
:100A00000AF046FD012104200AF042F903210420E6
:100A10000AF03EF9052101200AF03AF902210120ED
:100A20000AF036F90C2104200AF032F90D210420D5
:100A30000AF02EF90E2104200AF02AF90F210420D1
:100A40000AF026F9022009F0A4FF042009F0A1FF12
:100A5000082009F09EFF202009F09BFF4FF48050F2
:100A600009F097FF4FF4005009F093FF4FF48040D6
:100A700009F08FFF4FF4004009F08BFF00208DF844
:100A8000080010208DF809002220019001208DF827
:100A90000A0001A809F006FF00208DF808000C20CC
:100AA0008DF809000820019001208DF80A0001A8A6
:100AB00009F0F8FE00208DF8080010208DF80900DC
:100AC0004FF20400019001208DF80A0001A809F0FE
:100AD000E9FE4FF4A06009F017FB08208DF8000034
:100AE00000208DF8010001208DF802008DF8030030
:100AF000684609F00EFB4FF4A06009F005FB1720D3
:100B00008DF8000000200DE0E8F7FF1FB011002075
:100B100000140040002C0140001000400004004080
:100B2000000800408DF8010002208DF8020001202D
:100B30008DF80300684609F0ECFA4FF4A06009F064
:100B4000E3FA07208DF8000000208DF80100032053
:100B50008DF8020001208DF80300684609F0D9FAEB
:100B60004FF4A06009F0D0FA09208DF800000120B0
:100B70008DF8010000208DF8020001208DF803009F
:100B8000684609F0C6FA4FF4A06009F0BDFA2820C3
:100B90008DF8000001208DF8010002208DF8020080
:100BA00001208DF80300684609F0B3FA0EBD08B5C0
:100BB00001217D200AF06CFC7720ADF800000020B8
:100BC0008DF803006946FD4809F04CFF49F688108E
:100BD000ADF8000003208DF8020010208DF803000E
:100BE0006946F64809F03EFF4FF40070ADF800008A
:100BF00018208DF8030003208DF802006946EF48A5
:100C000009F030FF4FF48060ADF8000048208DF807
:100C1000030003208DF802006946E84809F022FF2E
:100C20003720ADF8000048208DF803006946E448FD
:100C300009F018FF4FF20800ADF8000003208DF80E
:100C4000020010208DF803006946DD4809F00AFF14
:100C50004FF47070ADF8000003208DF802001820EA
:100C60008DF803006946D64809F0FCFE4FF4406059
:100C7000ADF8000003208DF802001C208DF8030061
:100C80006946CF4809F0EEFE0F20ADF800000020C5
:100C90008DF803006946CB4809F0E4FE3020ADF83A
:100CA000000003208DF8020010208DF80300694633
:100CB000C44809F0D7FE4FF47070ADF8000003206F
:100CC0008DF8020018208DF803006946BD4809F030
:100CD000C9FE0121BC4809F096FF4FF47040ADF801
:100CE000000003208DF8020010208DF803006946F3
:100CF000B64809F0B7FE40F6CC70ADF800004820C9
:100D00008DF803006946B14809F0ACFE2020ADF82B
:100D1000000003208DF8020018208DF803006946BA
:100D2000AA4809F09FFE0121082009F06CFF4FF44A
:100D30004860ADF8000003208DF8020010208DF807
:100D400003006946A24809F08DFE4FF20B10ADF882
:100D5000000048208DF8030069469D4809F082FE96
:100D60000220ADF8000004208DF803006946984881
:100D700009F078FE4FF40070ADF8000003208DF804
:100D8000020018208DF803006946914809F06AFEB8
:100D90000121904809F037FF08BD10B5FFF7C1FAEF
:100DA000FFF705FF01229103884809F00CFF01229B
:100DB0005103864809F007FF06F060F8012251024E
:100DC000834809F000FFFFF718FEFFF7B9FDFFF7B2
:100DD00074FDFFF739FDFFF7FCFCFFF7C1FCFFF7DF
:100DE000A2FC00F027FA02F075FA00F0EDFC00F02A
:100DF00099FB04F0FFFD05F0F9FB05F0B7FD04F0E9
:100E00007EFD10F0C1FC0020734908607349087032
:100E100010BD08B54FF6FF70ADF8000004208DF846
:100E200003006946654809F01DFE6946644809F0FB
:100E300019FE6946634809F015FE6946634809F0E2
:100E400011FE6946624809F00DFE4FF48070ADF85E
:100E5000000048208DF8030069465D4809F002FE55
:100E60004FF40070ADF8000048208DF8030069468B
:100E7000564809F0F7FD08BD0EB50821042009F019
:100E800007FF0921032009F003FF00208DF8080067
:100E900010208DF809004FF6FE40019000208DF8DB
:100EA0000A0001A809F0FEFC00208DF808000C20C3
:100EB0008DF809004FF48070019001208DF80A0030
:100EC00001A809F0EFFC00208DF808000C208DF837
:100ED00009004FF40070019001208DF80A0001A86C
:100EE00009F0E0FC4FF4E06009F00EF917208DF8EE
:100EF000000000208DF801008DF8020001208DF81F
:100F00000300684609F005F90EBD10B5012134480B
:100F10000BF01FFA20B1012131480BF02BFA00BF72
:100F200010BD10B501212F480BF013FA00287DD019
:100F300001212C480BF01EFA2B480078401CC0B24F
:100F40002949087032280CDB00200870012027494D
:100F500008702749087027490870274908702749F1
:100F6000087027480078401CC0B225490870254900
:100F70000988884207DB00202149087001202249A6
:100F800008702249087022480078401CC0B22049ED
:100F9000087014280CDB0020087001201D4908701F
:100FA0001D4908701D4908701D4908701D490870C9
:100FB0001D480078401CC0B21B4938E000080140C1
:100FC000000C014000100140000C1A000014014008
:100FD00000180140C0001600280000202C0000204E
:100FE0000008004000100040200000205D000020AC
:100FF000F901002059010020DE0200201E0000201F
:1010000023000020F8000020E8000020E900002074
:101010002100002058010020C7010020AB02002061
:10102000C6010020B20000202200002083E00870EA
:10103000052806DB0020087001206949087069490D
:10104000087069480078401CC0B267490870674959
:101050000978884205DB0020634908700120644953
:10106000087064480088401C80B262490880B0F56E
:101070007A7F08DB002008805F49088001205F49F3
:1010800008705F4908705F480078401CC0B25D4935
:1010900008701E2804DB0020087001205A490870DF
:1010A0005A48007820B154480088401C52490880B2
:1010B00057480088401C564908800120554908704F
:1010C00055480068401C5449086001205349087085
:1010D00002F06DFF012052490870524908705248D1
:1010E000C07F90B15048C07F03280ED04E48C07FCB
:1010F00001280AD04C48C08A401C4B49C882084687
:10110000C08A322801DD0420C8774848C07F90B1EA
:101110004648C07F03280ED04448C07F01280AD02B
:101120004248C08A401C4149C8820846C08A3228C9
:1011300001DD0420C87710BD10B54FF4805009F0D0
:1011400017FC90B14FF4805009F023FC4FF480510C
:10115000374809F01AFD20B10121032005F01DF9DF
:1011600003E00021032005F018F94FF4005009F0C6
:10117000FFFB90B14FF4005009F00BFC4FF400510D
:101180002B4809F002FD20B10121022005F005F9EC
:1011900003E00021022005F000F94FF4804009F03F
:1011A000E7FB18B14FF4804009F0F3FB4FF4004027
:1011B00009F0DEFB90B14FF4004009F0EAFB4FF478
:1011C00000411B4809F0E1FC20B10121084605F06F
:1011D000E4F803E00021012005F0DFF810BD000075
:1011E000420000203C000020250000204A00002092
:1011F0004000002026000020CA010020EA00002054
:101200003C020020240000207B010020C6010020B9
:101210003A02002041000020280000205E0000204B
:101220005F00002077010020B412002090120020FF
:10123000000C014010B590B0012108460AF01BF9DE
:10124000012140F201200AF023F99E4809F0F2F949
:101250009D4800909D480190002002900A20039034
:1012600000200490802005904000069080000790A8
:10127000202008900002099000200A9069469148B9
:1012800009F07AFA01218F4809F0A1FA00200B90A9
:1012900001208DF8300000208DF831004FF46020DF
:1012A0000D9000200E900A208DF83C000BA9864876
:1012B0004C3808F0BEFF00230122022182484C383E
:1012C00009F04FF80023022201217F484C3809F031
:1012D00048F80023032206217B484C3809F041F8E6
:1012E000002304220A2178484C3809F03AF80023F8
:1012F00005220B2174484C3809F033F800230622EC
:101300000C2171484C3809F02CF8002307220D21DC
:101310006D484C3809F025F80023082219466A4820
:101320004C3809F01EF800230922042166484C3885
:1013300009F017F800230A22052163484C3809F008
:1013400010F8012160484C3808F0AAFF01215E48DE
:101350004C3808F09AFF5C484C3808F0B8FF00BFE2
:1013600059484C3808F0B8FF0028F9D156484C3895
:1013700008F0BCFF00BF54484C3808F0BCFF002800
:10138000F9D1012150484C3808F0BFFF002404E097
:1013900000204F490855601CC4B20A2CF8DB00201D
:1013A0004C49087010B010BD02468A4202DD501A46
:1013B00080B27047881A80B2FBE7F0B502460B4650
:1013C00000254FF6FF760024022B01DC0020F0BD43
:1013D000002110E032F81100A84201DD32F811506E
:1013E00032F81100B04201DA32F8116032F811001F
:1013F0000444481CC1B29942ECDBA41B641B981E38
:10140000B4FBF0F087B23846E1E770B532480078B7
:1014100000B970BD002030490870002411E000259B
:101420000BE02A4830F8150005EB45012B4A02EB8A
:10143000810121F81400681CC5B20A2DF1DB601C83
:10144000C4B2062CEBDB002433E004EB4401234A56
:1014500002EB81000621FFF7B0FF214921F81400BB
:10146000204A32F814101E4A32F81400FFF79CFF8D
:101470000646962E15DC1A4830F814001A4921F851
:101480001400084630F8140028B11248007810B94A
:101490000120104908700F480078012801D10C493B
:1014A00008550F4830F814000E4921F81400601C4C
:1014B000C4B20A2CC9DB012103484C3808F025FFCF
:1014C00000BFA6E7080002404C240140C6110020DE
:1014D000BC1100203D0000203C000020DA1100205B
:1014E00052120020661200207A12002000BF00BFB6
:1014F00000BFBFF34F8F00BF00BF00BFFE480068B2
:1015000000F4E060FD490843001DFB49086000BF8E
:1015100000BF00BFBFF34F8F00BF00BF00BF00BFC1
:1015200000BFFDE70020F6490870F6490870F6494B
:101530000870F6490870F6490870F64908700520E9
:10154000F54908700020F5490880F5490880F549FB
:101550000880F5490880F5490860F5490860F549B3
:101560008882F5498882F5490870F5490860F5498F
:101570000880704710B5EF48C07F18B1ED48C07FB4
:10158000042817D10120EB49087700204877887795
:101590000880ED490860ED490870ED4988704FF00A
:1015A00080400AF0C4FEEA4908800020C872012089
:1015B000E049C87710BD70B50446012C00DD012458
:1015C000FFF7D8FF002003F0A5FD4FF42F60D949A5
:1015D0004883084680F8204084B90021DD480AF09D
:1015E0008DFED448408B00EBC005E81705EB50702A
:1015F000C0F3CF01D7480AF07FFE0FE00021D548A5
:101600000AF07AFECB48408B00EBC005E81705EBEB
:101610005070C0F3CF01CF480AF070FE70BD10B516
:10162000C548C07F18B1C448C07F042818D1012024
:10163000C14908770020487788770880C649086044
:10164000C6490870C64988704FF080400AF06FFEA6
:10165000C34908800120B849C8770020C049C87232
:1016600010BD70B50446012C00DD0124FFF7D7FF43
:10167000012003F04FFD4FF42F60AF494883084627
:1016800080F8204084B90021B2480AF031FEAA480F
:10169000408B00EBC005E81705EB5070C0F3CF019D
:1016A000AC480AF027FE0FE00021AA480AF022FE0B
:1016B000A148408B00EBC005E81705EB5070C0F364
:1016C000CF01A4480AF014FE70BD10B5A5480078FB
:1016D00000B910BD0020A34908709748C07FB8B971
:1016E0009448C07FA0B98648007888B1002084491A
:1016F00008709D4908609D4908609D4908609D48A3
:10170000007828B99C48007810B900209B490870DF
:101710007B48007890B99A48007801280ED1994802
:10172000007840B90020964908706E2202214620B8
:1017300003F024F802E00020934908707048007814
:1017400050B98F48007838B99048007820B9012006
:101750008E4908708C4908706A480078012816D1B3
:1017600085480078012812D17348C07F78B988482D
:101770000078FFF776FF874800886F49C88000200F
:101780007D49087001205E4908705E4908705D4817
:101790000078012816D177480078012812D16548D1
:1017A000C07F78B97C480078FFF705FF7B48008848
:1017B0006049C88000206F490870012050490870B6
:1017C0005049087000BF84E700205A49C8775A4939
:1017D000C8775849488358494883564988805649AC
:1017E00088806F4908606F4908606F4908606F49D9
:1017F00008604E4908604E490860604908707047AB
:101800005349097A71B30021514A1172114649684E
:10181000674AB2FBF1F188B24C49097810290CDA19
:10182000494909680144484A11604249888047494A
:101830000978491C454A117010E043490968C1F311
:101840000F113C4A91804049096801443E4A1160A9
:10185000384989881268511A3B4A116001213C4A73
:10186000917251723E49097A71B300213C4A11725A
:10187000114649684E4AB2FBF1F188B237490978FE
:1018800010290CDA344909680144334A11602A49A5
:10189000888032490978491C304A117010E02E497D
:1018A0000968C1F30F11244A91802B49096801444A
:1018B000294A1160204989881268511A264A116004
:1018C0000121274A9172517270472DE9F04F85B07E
:1018D00082468B464FF491700490049810F047FABA
:1018E00006460F46ABEB0A0010F041FA80464FF077
:1018F0003332304B60E000000CED00E00000FA05F0
:101900007C0000207D0000207E0000207F00002061
:1019100041000020A40000204A000020AA0000206E
:10192000AC000020A6000020A80000206C000020D1
:1019300070000020B41200209012002088000020C7
:101940009000002046000020A00000209B00002006
:10195000E4120020000800409C0000209A000020B3
:10196000D81200205F0000208C00002034010020ED
:101970003801002081000020800000205C00002051
:1019800078010020940200207A01002079010020D3
:1019900086000020820000208700002084000020B4
:1019A0005400002050000020640000206800002047
:1019B000703839003333AB3F10F040FA0022FE4B51
:1019C000CDE9000110F03AFA32463B46CDE902017A
:1019D00010F018F8044610F06DF900B205B0BDE83B
:1019E000F08F10B5F548007800B910BDF4480078C4
:1019F00038B1F3480078012804D1F2480078012872
:101A000000D0F2E70020ED490870EF48C07F0128C0
:101A10002FD1ED48408B41F2FE01884204DCEA48B8
:101A2000408B3230E8494883E74890F8200080B97D
:101A30000021E6480AF05CFCE348408B00EBC00460
:101A4000E01704EB5070C0F3CF01E0480AF052FCFD
:101A50000FE00021DD480AF04DFCDB48408B00EB35
:101A6000C004E01704EB5070C0F3CF01D7480AF070
:101A70003FFCD748C07F01282FD1D548408B41F289
:101A8000FE01884204DCD248408B3230D049488382
:101A9000CF4890F8200080B90021CC480AF02EFCF5
:101AA000CB48408B00EBC004E01704EB5070C0F350
:101AB000CF01C6480AF020FC0FE00021C3480AF01D
:101AC0001BFCC348408B00EBC004E01704EB5070D4
:101AD000C0F3CF01BD480AF011FC00BF85E72DE936
:101AE000F041BB48C07F022805D0B748C07F02281C
:101AF00001D0BDE8F081B748007800B9F9E70020CF
:101B0000B4490870B448007800285BD0B348007826
:101B100098BB0120B1490870AD480089B0490880E0
:101B2000AB488088B0F52F7F0BDCA7488088B0F5E4
:101B30002F7F06DC4FF42F70A5490881A249088148
:101B400018E0A3488088A04989880144A0480089FA
:101B5000B1EB400F0EDC9E4989889B4A9288881819
:101B600000EBD071C1F34F01994A118110460089F1
:101B7000954908810A209B49087095480089944935
:101B8000C96808449649098888420EDA9048008955
:101B90008F49898908448E4908818B4800898A4980
:101BA00089890844884908810CE08D480088884963
:101BB00008818B4800888449088100208649087084
:101BC000864908708848007800287DD087480078CA
:101BD00000284DD10120854908708548B0F90000E2
:101BE000844908800A207F4908708248B0F90000C3
:101BF00000283EDD8048B0F90000B0F5E16F04DA5E
:101C00004FF4E1607A4908800CE07B48B0F90000AD
:101C10007749B1F90010884204DC7748B0F9000038
:101C2000734908807248B0F900007249B1F9001098
:101C300088425EDA6648B0F914006D49B1F90010C7
:101C400048436C49B1F9001090FBF1F000B26049D3
:101C500088825D48B0F914006549B1F90010484325
:101C60006449B1F9001090FBF1F000B25649888246
:101C70003FE06148B0F9000010F5E16F04DD4FF678
:101C8000F8005B4908800CE05B48B0F90000584957
:101C9000B1F90010884204DD5748B0F900005449FA
:101CA00008805348B0F900005249B1F90010884249
:101CB0001FDD4748B0F914004D49B1F90010484301
:101CC0004C49B1F9001000E03EE090FBF1F000B2A9
:101CD0003F4988823C48B0F914004549B1F90010E9
:101CE00048434449B1F9001090FBF1F000B2364985
:101CF00088824048B0F9000010F039F821F0004522
:101D00000446334909693A4AB2F90020881810F0AC
:101D10002EF821F00041064622462B4610F052F8DC
:101D200008D22B48008A32490988084400B2304959
:101D3000088009E02F48B0F900002D4908800020F4
:101D4000294908702949087000BFD2E670B51C48BF
:101D5000007838B11A480078012804D11948007871
:101D6000012800D070BD2548007800B9FAE70020AE
:101D7000224908701448C08840F2DC51884207DBD1
:101D80001348C088884203DB05201D4908700CE019
:101D90000D48C08840F21451884203DB0C48C088CB
:101DA000884202DA0A20164908700748C07F0228D4
:101DB00071D11448807A27E000408F405D000020F8
:101DC0007C0000207D0000209012002000080040D0
:101DD000B4120020420000206000002062000020B9
:101DE000C6000020A4000020610000206300002045
:101DF00046000020C80000202E02002040000020E5
:101E00004A000020D8120020012866D10020F9499C
:101E10008872F94A928811B2F74AD28810B2012228
:101E200003F0C6F904B2002C05DDF348408B2044D2
:101E3000F149488311E0604204B2EF48418B04F558
:101E4000FA70814205DDEC48408B001BEA4948836B
:101E500003E04FF4FA70E8494883E748408BB0F557
:101E60008C5F03DD4FF48C50E3494883E24890F8DF
:101E7000200088B90021E1480AF03AFADE48408B98
:101E800000EBC006F01706EB5070C0F3CF01DB4843
:101E90000AF030FA10E020E00021D8480AF02AFACF
:101EA000D548408B00EBC006F01706EB5070C0F32E
:101EB000CF01D2480AF01CFACF48C088C0EBC0005E
:101EC00085B2ED10CC488088A84203DD0120CA49C4
:101ED000887702E00020C8498877C948C07F022877
:101EE00069D1C848807A012865D10020C549887227
:101EF000C34A928811B2C24AD28810B2002203F0BB
:101F000057F904B2002C05DDBD48408B2044BC4984
:101F1000488311E0604204B2B948418B04F5FA707D
:101F2000814205DDB648408B001BB549488303E07C
:101F30004FF4FA70B2494883B148408BB0F58C5FDA
:101F400003DD4FF48C50AE494883AD4890F8200033
:101F500080B90021A9480AF0D1F9A948408B00EBCB
:101F6000C006F01706EB5070C0F3CF01A3480AF08B
:101F7000C3F90FE00021A1480AF0BEF9A048408B48
:101F800000EBC006F01706EB5070C0F3CF019B4882
:101F90000AF0B4F99A48C088C0EBC00085B2ED10D1
:101FA00097488088A84203DD01209549887702E0A0
:101FB00000209349887700BFD4E69148C07F10B1D4
:101FC00003208F49C87770478B48C07F10B103202A
:101FD0008949C877704702460B46D11A002903DAAF
:101FE00048F6A040014404E048F6A040814200DDEC
:101FF000091A88B270472DE9F04F89B082480078FD
:1020000010B909B0BDE8F08F00207F4908707F4803
:102010000078012807D17E480078012803D17D4847
:102020000078012800D0ECE77B48007800B9E8E7A9
:102030007A480078401C794908707148C07F0028B0
:102040007ED06F48C07F0328FAD075480168754874
:102050000068801C814207D873480078032803D0A9
:102060007148007801286CD16F48007858B16E48EB
:102070000078022807D06C480078032803D06A480B
:10208000007801285CD1654800780A2858DB0020D8
:102090006249087065480078401C644908706248CD
:1020A000007890B90846007802281CDB00200870F0
:1020B00003225F48B0F900105E48B0F9000003F059
:1020C00077F800B25C4908800DE057480078022894
:1020D00009D156480078022805DB002053490870D2
:1020E000012007F026FD5448B0F9000044F62061B5
:1020F000884203DD08465049088009E04E48B0F99F
:1021000000004E49884203DA4BF2E0104A49088049
:1021100002224B48B0F900104748B0F9000003F024
:1021200047F805B23648B0F9140042F6E06188423B
:1021300001DB002D27DC3248B0F91400414901E0F1
:10214000B3E1B3E1884201DC002D1CDB3E4800789E
:1021500001280CD12A48808A284400B22849888264
:102160002548808A401B00B2234988820BE024481E
:10217000808A401B00B2224988821F48808A2844F6
:1021800000B21D4988821E48008906B21C48B0F979
:1021900014003044002864DD1948B0F914003044BC
:1021A00041F66411884207DC154800891449898A80
:1021B00008441349C88011E041F664101049C880F2
:1021C0000846008941F66411081A00B20C49888259
:1021D0000846808A404200B2074988821A4800783F
:1021E000A0BB0020064981F82100084680880FFA2C
:1021F00080FA72E0D81200209012002000080040FF
:10220000B4120020E4120020410000207C000020D5
:102210007D0000207E0000205C000020A400002043
:102220004C000020540000207F000020CA00002045
:102230002C0200204400002046000020E0B1FFFFF7
:102240002E02002020D1FFFF88000020FFE70120A0
:10225000FE4981F821000846808840420FFA80FA42
:102260003BE0FA480089F949B1F9141008444042AA
:1022700041F66411884208DCF4480089F349898AF0
:1022800008444042F149C88012E041F66410EF4929
:10229000C8800846008941F664110844404200B2F3
:1022A000EA4988820846808A404200B2E84988822A
:1022B000E848007848B90120E44981F8210008463F
:1022C000808840420FFA80FA07E00020DF4981F859
:1022D0002100084680880FFA80FADC4890F8200038
:1022E000DA4991F82110884216D0D848C07F0228D8
:1022F00012D1D648C088B0F52F7F0DDBFFF75DFE09
:102300000120D5490870D148C088D4490880CF48F9
:1023100090F82100D2490870CD48008906B2CC4817
:10232000B0F914003044002837DDC948B0F9140072
:10233000304441F66411884207DCC5480089C4492D
:10234000898A0844C249C88011E041F66410C04936
:10235000C8800846008941F66411081A00B2BC49D9
:1023600088820846808A404200B2B8498882B948CB
:10237000007840B90020B64981F8210008468088DD
:102380000FFA80F945E00120B14981F821000846A3
:10239000808840420FFA80F93BE0AD480089AC49A3
:1023A000B1F914100844404241F66411884208DC37
:1023B000A7480089A649898A08444042A449C880A0
:1023C00012E041F66410A249C8800846008941F62F
:1023D00064110844404200B29D4988820846808AC0
:1023E000404200B2994988829A48007848B9012051
:1023F000974981F821000846808840420FFA80F909
:1024000007E00020924981F82100084680880FFAF1
:1024100080F98F4890F820008D4991F8211088426A
:1024200016D08B48C07F022812D18948C088B0F5E9
:102430002F7F0DDBFFF7C8FD01208A490870844813
:10244000C08889490880824890F82100874908702F
:1024500009EB0A0000EBD0714910854A11607B48F6
:10246000C08841F66411884203DD08467749C88078
:1024700008E07648C08840F28A21884202DA08469D
:102480007249C8807248C08841F66411884203DDF1
:1024900008466F49C88012E06D48C08840F28A2122
:1024A00088420CDA08466A49C88008E0FFF785FDD3
:1024B000FFF78AFD00206B4908706749087064487F
:1024C000C07FD8B16248C07F032817D06948007820
:1024D000012813D06848016868480068801C814260
:1024E0000CD864480078032808D0FFF76DFDFFF78B
:1024F00064FD00205B490870574908705D4800780A
:1025000001287DD15E48B0F90000002809DD5D4852
:10251000B0F900105C48B0F90000FFF75CFD04461C
:102520000DE05748B0F90000002808DA5648B0F925
:1025300000105448B0F90000FFF74DFD044644F286
:102540005060844206DD48F6B800844202DA012079
:102550004E4908704E48007800280EDD4B48007840
:10256000012809D1C82C07DC0020484908704848D8
:102570000078401E464908706CE14648008848F6DD
:10258000B801884203DB4148007800B939E5414889
:10259000008848F6B801884204DA0846844201DA25
:1025A0003D4804803D480078032806D03C48006838
:1025B00018B13A480078042847D1364800880FF00F
:1025C000EDFBCDE906013748B0F900000FF0CFFB75
:1025D00021F00041074600224FF080430FF012FA2D
:1025E000CDE9020120460FF0D9FBCDE90001DDE97C
:1025F00002230FF053F9CDE90401DDE9062300E0E1
:1026000059E10FF019FD7DD827480078401CC0B271
:10261000254908700A286BDB002008702148B0F9B2
:1026200000000FF0A4FB21F00041074600221F4BE1
:102630000FF002FD3CD81B48B0F90000032190FBCD
:10264000F1F000B21749088052E0B2E0B412002065
:1026500090120020880000208100002084000020CB
:1026600087000020800000208200002086000020DB
:102670008C0000207F0000204C0000205000002033
:102680002E020020440000202C020020CB0000205D
:1026900074000020760000207800002094020020C2
:1026A0005800002046000020CC0000200018B54053
:1026B000F748B0F900000FF05AFB21F0004107463F
:1026C0000022F44B0FF0B8FC12D2F148B0F9000030
:1026D000002804DD4FF4E160ED49088008E0EC4893
:1026E000B0F90000002803DA4FF6F800E849088046
:1026F000E9480088B0F5C87F19DBE7480088C8388A
:10270000A04200E02AE011DCE3480088C83084429F
:102710000CDCFFF752FCFFF757FC0020DF49087084
:10272000DF490870DF490870DF49087092E0DA4835
:102730000088844211DBD8480088C83084420CDC11
:10274000FFF73BFCFFF740FC0020D4490870D44958
:102750000870D4490870D44908707BE0CE480088DE
:102760000FF01CFBCDE90601D048B0F900000FF0D6
:10277000FEFA21F00041074600224FF080430FF09F
:1027800041F9CDE9020120460FF008FBCDE9000137
:10279000DDE902230FF082F8CDE90401DDE906232B
:1027A0000FF010FB56D2C148B0F90000B8490880BC
:1027B00050E0B9480088B0F5C87F26DBB6480088ED
:1027C000C838A04246DCB4480088C830844241DCA6
:1027D000AF48B0F90000B0F57A7F03DD4FF47A70AE
:1027E000AB490880B2480068A0B3B248B0F9140001
:1027F000C010B0498882B048B0F91400C010AE498A
:1028000088820020AA49086024E0A3480088844206
:1028100020DBA1480088C83084421BDC9C48B0F90A
:102820000000B0F57A7F03DD4FF47A709849088094
:102830009F48006870B19F48B0F91400C0109D49CE
:1028400088829D48B0F91400C0109B4988820020FE
:10285000974908609948006860B3964890F820004E
:10286000954991F82010884207D19548006895490C
:10287000096808444FEA500B0EE091490968914AF3
:102880001268881A0FF073FA21F0004107460FF022
:1028900041FA83464FEA5B0B88480068801C8345F9
:1028A00008D3FFF791FBFFF788FB00207D490870F4
:1028B0007D49087000BF00BF68E62DE9F04107467A
:1028C0000C4615461E460A2F00DD0A270A2D00DD9C
:1028D0000A25012C00DD0124012E00DD0126002F38
:1028E00001DDFEF79CFE002D01DDFEF743FE3046C4
:1028F000FEF761FE2046FEF7B4FEBDE8F08110B59C
:102900006C48C07F042804D16A4991F82000FEF782
:1029100052FE6948C07F042804D1674991F820001D
:10292000FEF79FFE10BD10B56748007800B910BDD6
:102930000020654908705F48C07F30B900205D49BC
:10294000087748778880488333E05A48C07F032857
:102950002FD141F224615D4809F0D0FC41F224619D
:102960005A4809F0C9FC00205249488341F2AF306F
:102970004883002008770846407F70B90020C87758
:1029800088800021514809F0B9FC00214F4809F026
:10299000B3FC0020474948830BE04648008B401CAD
:1029A000444908830846008B322802DD002048771E
:1029B00008834148C07F28B900203F4908774877FD
:1029C00088802CE03C48C07F032828D141F2246154
:1029D0003E4809F08FFC41F224613C4809F088FC34
:1029E00000203549488308770846407F58B90020C1
:1029F000C87788800021354809F07CFC00213348E5
:102A000009F076FC0BE02C48008B401C2A49088317
:102A10000846008B322802DD00204877088300BF7B
:102A200085E700B5FFF7D0FAFFF7C7FA00BD10B58C
:102A30002748007800B910BD0020254908702548B6
:102A40000078B0B90120234908700020224908709D
:102A500022490870224908702249087022490870EA
:102A6000224908804FF6FF70214908800020214943
:102A700008701048C07F022840D10F48C07F02284C
:102A80003CD11D480088401C1B49088039E00000EB
:102A90004600002000209C4076000020CC00002052
:102AA000CB00002080000020810000204800002092
:102AB0003C010020B4120020901200205800002099
:102AC00050000020540000205E000020000800405C
:102AD000B2000020CD000020B1000020B000002096
:102AE000B3000020B4000020B5000020C200002088
:102AF000C4000020CE000020D00000200020FE49AD
:102B00000880FD480088322800DA94E73320FA492B
:102B10000880FA4890F8200018B9F94890F8200089
:102B200018B10020F749087085E7F7480078FA28BF
:102B30000CDAF5480078401CF34908700846007824
:102B4000C82811D10120F14908700DE00020EE499C
:102B50000870EC490870EE4908804FF6FF70ED49A7
:102B600008800020E9490870EB48008800F5FA70F9
:102B7000EA490988884226DDE7480188E748008855
:102B800000F5FA7081421EDAE3480088E4490968DA
:102B90000844E3490860E3480078401CE1490870B4
:102BA0000846007840281EDBDD480068C0F38F101F
:102BB000DD4908800020DB490870D9490860012000
:102BC000DA4908700FE00020D6490870D44908603F
:102BD000CC48007810B90020CB490870C94800786B
:102BE000401CC8490870CC480088C94909888842F7
:102BF00003DDC9480088C6490880C7480088C54920
:102C00000988884203DAC4480088C2490880C2485B
:102C10000088C2490880C648B0F90600B0F5FA6FCE
:102C200005DCC348B0F9060010F5FA6F05DA01209B
:102C3000C04908700020C0490870BE48007860B1E3
:102C4000BD480078401CBC490870084600781E2822
:102C500003DD00200870B7490870B848B0F90010CB
:102C6000B748B0F90000FFF7B6F90446B54804804C
:102C700044F2506084420FDD48F6284084420BDA6B
:102C8000AC48007840B10220AF4908700020A74945
:102C90000870AE4908703CE0782C10DD44F25060BA
:102CA00084420CDAA348007848B10120A649087094
:102CB0000020944908700120A449087029E09D482B
:102CC000007830BBA24800689D49B1F90010084463
:102CD0009F4908609F480088FF280DDC9D480088B8
:102CE000401C9C4908809A480068098890FBF1F0D4
:102CF00000B2924908800CE095480068001200B2CA
:102D00008E49088092480068B1F90010401A904935
:102D100008608D480078012802D08B48007818BBE5
:102D200078480078122803DB77480078FA2810DD0D
:102D30007748008840F6B831884242DD7448008800
:102D400074490988401AB0F5FA6F3ADD6F48007887
:102D5000B8B302207C4908700020744908707B4990
:102D600008706A4908702CE077480078022802D081
:102D70007548007828BB6D48007828B16A480088FB
:102D800040F2DC51884210DB61480088B0F5FA6FF0
:102D900017DA5F4800885F490988401A40F2DC5121
:102DA00088420EDA5948007858B101206649087007
:102DB00000205449087001206449087000205349DC
:102DC000087000BF37E630B5634C6488B4F5967F71
:102DD0007EDD614CA488B4F5967FF9DD5E4C648895
:102DE0005D4DAD88AC4256DB5B4C64885A4DAD8876
:102DF000641B21B2B1F52F7F01DD002205E06424C0
:102E00004C430F2594FBF5F422B2C1EBC10421B26F
:102E1000052491FBF4F421B24F4C658801F59674BA
:102E2000A5421DDD642492FBF4F4A3B2282B00DD3F
:102E300028234A4CE35C484C6488641AA4F59674D1
:102E4000474D2C602C4624685C432C602C4624683B
:102E500004EB84042C602C462468A4112C6002E04E
:102E600000243F4D2C603E4C2468B4F57A6F03DD9E
:102E70004FF47A643A4D2C603A4C24881444384D0F
:102E80002D882C4420B244F25064A04202DDA0EB15
:102E9000440420B230BD304CA4882F4D6D88641B93
:102EA00021B2B1F52F7F01DD002205E064244C43FF
:102EB0000F2594FBF5F422B2C1EBC10421B2052425
:102EC00091FBF4F421B2244C658801F5967400E07E
:102ED0007BE0A54256DD642492FBF4F4A3B2282BD8
:102EE00000DD28231D4CE35C1B4C6488641AA4F5A8
:102EF00096741B4D2C6037E0D0000020B4120020E7
:102F000090120020BE000020C1000020CE00002052
:102F1000C2000020C40000207A120020D20000204D
:102F2000B8000020BF000020BC000020C00000202E
:102F3000DB190020B3000020B40000203402002080
:102F40003202002012010020B100002040190020B0
:102F5000D8000020D40000209C0100207D29010819
:102F6000DC0000202C0200202C4624685C432C60EE
:102F70002C46246804EB84042C602C462468A4119D
:102F80002C6002E00024C34D2C60C24C2468B4F5D0
:102F90007A6F03DD4FF47A64BE4D2C60BE4C2488FA
:102FA000A41ABC4D2D882C4420B244F25064A04297
:102FB00003DDA0EB440420B206E0B84CA04203DAE3
:102FC00048F6A044044420B264E7B54C6488B44D8C
:102FD000AD88641B21B264244C430E2594FBF5F2AA
:102FE000AD4C2488144420B200BF53E710B5012132
:102FF000880709F0AEF968B10121880709F0BAF92C
:10300000A8488078401CA7498870A7488078401C51
:10301000A549887010BD70B5022007F0A9FC0028F2
:1030200073D0022007F0B5FCA048007F012807D12B
:103030009E48407F012803D09B4800889C49086037
:103040004FF0804009F073F90446994800688442C3
:1030500003D397480068251A05E0954800684FF6A5
:10306000FF71081A05199148807F08B1962600E083
:1030700096268F480460B54200D270BD8A48C07A57
:10308000401C8949C8720846C07A022802DB002029
:10309000C872F2E78548007F01280CD18348407F41
:1030A000012808D00120814948770846C07F0128BF
:1030B00001D10220C8777D4890F8200028B97D48CA
:1030C0000068401C7B49086009E0784890F82000BF
:1030D000012804D177480068401E76490860764888
:1030E000007820B175480068401C744908600020D1
:1030F0006E490883C8826C480088A04206D26A489C
:103100000088201A6849486008E00BE0664800889B
:103110004FF6FF712144081A634948600120624953
:1031200008720C8000BFA8E770B5202007F020FCD3
:10313000002878D0202007F02CFC4FF0804009F0C8
:10314000F6F804465E48007F012807D15C48407FBE
:10315000012803D0534800885A490860594800683C
:10316000844203D357480068251A05E05548006893
:103170004FF6FF71081A05195148807F08B196264D
:1031800000E096264F480460B54200D270BD454825
:10319000C07A401C4349C8720846C07A022802D14E
:1031A0000020C872F2E74648007F01280CD144484D
:1031B000407F012808D00120414948770846C07F58
:1031C000012801D10220C8773D480088401C3C49B5
:1031D0000880084690F8200028B93B480068401C49
:1031E0003949086009E0364890F82000012804D1E8
:1031F00035480068401E344908602F48007820B1E7
:1032000032480068401C3149086000202C4908837E
:10321000C88224480088A04206D222480088201A8A
:103220002049486008E00BE01E4800884FF6FF7117
:103230002144081A1B49486001201A4908720C8071
:103240004FF4807007F094FB58B14FF4807007F092
:10325000A0FB1F48007820B1012000F015F8FEF710
:1032600045F94FF4007007F083FB58B14FF400703C
:1032700007F08FFB1648007820B1012000F004F819
:10328000FEF734F900BF81E700F0010181F31388F4
:1032900070470000DC0000202C020020B0B9FFFFC6
:1032A0009C010020D8120020E4120020B41200205B
:1032B000E0000020680000205C0000205400002096
:1032C00090120020E4000020640000205000002044
:1032D0002C00002000B585B00121880308F0D8F843
:1032E0000121480408F0E1F84FF4E130019000209A
:1032F000ADF80800ADF80A00ADF80C00ADF810000C
:103300000C20ADF80E0001A9FE4809F07AF801A9D9
:10331000FD4809F076F8012240F22551F94809F0FC
:1033200008F9012240F22661F64809F002F901226B
:1033300040F22551F44809F0FCF8012240F22661E0
:10334000F14809F0F6F84FF4A06006F0DDFE252004
:103350008DF8000001208DF8010002208DF8020098
:1033600001208DF80300684606F0D3FE4FF4A060FC
:1033700006F0CAFE26208DF8000001208DF801001D
:1033800003208DF8020001208DF80300684606F046
:10339000C0FE0121DB4809F0C0F80121DA4809F03C
:1033A000BCF80020D9490870D9490870D94908707B
:1033B000D94908701420D94908800120D8490870DB
:1033C000D84908700020D84908706420D74908807F
:1033D0000020D7490880D74908800120D6490870C5
:1033E0000020D6490870D6490870D64908703620A2
:1033F000D54981F836000020D4490870D4490860C6
:10340000D4490860D4490860D44908704870042041
:1034100008710020D249087005B000BD10B5D14830
:10342000D1490860084600680178B64809F0E2F81A
:1034300010BD10B5CD48CE49086008460068017837
:10344000B14809F0D7F810BD10B540F22551AD488C
:1034500009F054F900286DD040F22551A94809F02F
:1034600077F9A84809F0CAF8C4B2B348007801282F
:1034700024D1AA2C18D1BF480078AA2814D1012041
:10348000AF4908700020AF490870AB4908700120AF
:10349000AA4908700020B7490870B7490870B749B1
:1034A0000870B749087009E0B2480078A52802D032
:1034B000B048047002E00020AE4908700020B14915
:1034C0000880B1490870B148AC4909784454AB4808
:1034D0000078401CA9490870A9480078401CA849F8
:1034E000087096480078012823D1552C17D1A2489E
:1034F0000078552813D10120924908700020904986
:10350000087001208C49087000208C4908709A4985
:1035100008709849087001209D49087009E0964894
:103520000078A52803D100209349087001E0924853
:10353000047000BF40F22661724809F0DFF8D8B18C
:1035400040F226616F4809F003F987480068401C83
:10355000854908608F480078401EC0B28D490870C8
:10356000002806DD804800680178664809F042F8C6
:1035700002E001206A49087010BD10B540F22551E3
:10358000614809F0BBF8D0B140F225515E4809F01E
:10359000DFF85D4809F032F8C4B27F487F49097806
:1035A00044547E480078401C7C4908707C48007870
:1035B000401C7B49087000207A49087000BF40F227
:1035C0002661514809F09AF8D8B140F226614E4878
:1035D00009F0BEF866480068401C654908607248FA
:1035E0000078401EC0B270490870002806DD6048AF
:1035F00000680178444808F0FDFF02E001204949D5
:10360000087010BD70B56948007800B970BD002021
:1036100066490870554CAA20207001206070262051
:10362000A07063480078E0706248017821716248B8
:103630000178617161480178A17161480178E17197
:1036400060480178217260488088011261725E488A
:103650000179A1725D4880880112E1725B480179AD
:1036600021735B480088010A617359480178A1738E
:10367000584800880112E173564801782174564871
:1036800000880112617454480178A174534801788C
:10369000E174534800880112217551480178617521
:1036A00050480088010AA1754E480178E1754E48DE
:1036B000017821764D48C088010A61764B488179AE
:1036C000A1764B4800880112E176494801782177BC
:1036D0004848017861774848C0880112A177464878
:1036E0008179E1773848408B011220200155364816
:1036F000817E212001553548408B01122220015541
:1037000032487BE00038014000440040280100209E
:10371000290100202A0100202B010020F8000020B0
:10372000F6000020F7000020EA0000204C010020F5
:103730004E01002050010020010100200201002064
:103740000301002004010020481500203001002062
:10375000340100203801002058000020070100201B
:10376000FA000020F0120020EC000020EA130020F4
:10377000F00000200501002006010020FF000020CD
:103780000001002024010020270100204E14002009
:1037900026010020F4000020E41700204901002049
:1037A000480100204A010020F5000020E900002027
:1037B0007C00002096020020950200207F0000205F
:1037C0006A0100206B010020B4120020901200203A
:1037D00034020020C4000020C2000020810000202C
:1037E0001201002032020020B1000020DB1900206D
:1037F000BC000020C00000207A120020817E84F8E6
:103800002310F8480088011284F82410F548017844
:1038100084F825104088011284F82610F148817838
:1038200084F82710F048017884F828100026002535
:1038300005E0EE48405D3044C6B2681CC5B2A078D1
:10384000C01CA842F5DCE9484655A078001DE849AF
:103850000870FFF7EEFD0020E649087000BFD5E6CE
:1038600030B503464C1EE1B28A4200DD30BD084649
:1038700004E01D5C441C1D55441EE0B29042F8DA81
:10388000A5249C5400BFF1E72DE9F04F87B0DA483A
:10389000007810B907B0BDE8F08FD848007800B9BB
:1038A000F8E70020D4490870D54CAA202070607039
:1038B0001220A0708320E0700020A0807120C4F846
:1038C0000600002507E0002104F10A0000EB450096
:1038D0000180681CC5B2082DF5DBCA48817A807E5C
:1038E00041EA4000A076C848017804F10A00A4F833
:1038F0001B10C648007810B9C548007818B9C548EB
:103900000178617706E0C4480078C449097840EA44
:1039100041006077C248007818B1607F40F0030131
:103920006177C04800680EF03FFE01900EF0A4FCE5
:103930004FF03332BC4BCDE902010EF07FFACDE9F6
:1039400004010EF0B7F98046B848B0F900004042D3
:103950000EF02AFE01900EF08FFCB54AB54BCDE972
:1039600002010EF06BFACDE904010EF0A3F9064650
:10397000B148B0F9000040420EF016FE01900EF082
:103980007BFCAB4AAB4BCDE902010EF057FACDE917
:1039900004010EF08FF90FFA80F9C4F81E90A748C1
:1039A00000680EF001FE01900EF066FC0022A44BB0
:1039B000CDE902010EF042FACDE904010EF07AF9E8
:1039C000C4F822009F4800680EF0EEFD01900EF052
:1039D00053FC00229A4BCDE902010EF02FFACDE9FB
:1039E00004010EF067F9C4F82600C4F82A80C4F870
:1039F0002E609548017884F832109448017884F854
:103A00003310002184F8341004F10A00A4F83510B2
:103A10008F48018804F10A00A4F837108D48006827
:103A20008D4909680843C4F839008C49B1F906008A
:103A30000EF0BAFD8A4900900EF016FE01900EF0CD
:103A40001BFC4FF03332874BCDE902010EF0F6F943
:103A5000CDE904010EF02EF94FEA204A7F49B1F971
:103A600008000EF0A1FD7E4900900EF0FDFD0190D2
:103A70000EF002FC4FF033327A4BCDE902010EF02A
:103A8000DDF9CDE904010EF015F94FEA204B04F100
:103A90000A00A4F83DA0A4F83FB031B2A4F8411048
:103AA0006E48018804F10A00A4F843106B4841886D
:103AB00004F10A00A4F845106848818804F10A005E
:103AC000A4F84710002184F84910A4F84A10A4F87B
:103AD0004C10A4F84E10A4F85010A4F852106248EC
:103AE000008800EB8000400041F2A86101EBE0009B
:103AF0005E490978484381B204F10A00A4F85410E1
:103B0000002184F8561084F8571084F8581084F86F
:103B100059105748007810B984F85A1002E0012172
:103B200084F85A10534890F8200038B951488188D9
:103B3000C4F85B10418BC4F863100EE04D4890F858
:103B40002000012809D14B4880884142C4F85B100D
:103B50004848408B4142C4F86310474890F8200021
:103B600038B945488188C4F85F10418BC4F86710A4
:103B70000EE0414890F82000012809D13E48808895
:103B80004142C4F85F103C48408B4142C4F8671082
:103B9000002184F86B1084F86C1084F86D102B48A9
:103BA000017884F86E103548008848F6CC514843B7
:103BB000C0F38F2104F10A00A4F86F10B4F85F205D
:103BC00011B2B4F85B2010B2FDF77FFE2C490880DB
:103BD00008460088801B01B204F10A00A4F87110A5
:103BE000002555E07A120020BE000020EA130020D4
:103BF000F5000020F7000020E8000020F60000207B
:103C0000F0120020C0180020A90100207801002037
:103C1000790100206D0100206A0100206B01002065
:103C2000A80100208C0000203333AB3F2E0200207F
:103C3000BC7493180456C63F2C0200206400002078
:103C40000080C93F68000020BE010020BD010020A7
:103C5000AA0100203C01002040010020DB190020C7
:103C60000000FA43337331400E020020FB010020B4
:103C70009402002090120020B4120020DC010020E9
:103C800098000020002104F173004155681CC5B262
:103C9000082DF7DB002084F87B00A0790B30FC496D
:103CA00008700027022505E0FA48405D3844C7B295
:103CB000681CC5B2F64800788542F5DB84F87C7054
:103CC000F3480078401CF24908700A251AE0F148D0
:103CD000405DAA2807D0EF48405D552803D0ED4845
:103CE000405DA5280CD12A46E9480178E948FFF74C
:103CF000B7FDE7480078401CE5490870681CC5B26C
:103D0000681CC5B2E24800788542E0DB5520E149F5
:103D100048555521DF4A681C1154DD480078801C45
:103D2000DB490870FFF77AFB0020DB49087000BF11
:103D3000B0E52DE9F0410024B7E004EB041000EBFE
:103D40004410D649084490F83000002879D0D24871
:103D500000780028FAD0002004EB041101EB441194
:103D6000CE4A114481F83000CA4EAA2030707070DB
:103D700004EB041000EB44101146085CB07004EB37
:103D8000041000EB441008444088B08004EB041099
:103D900000EB441008444068C6F80600012C09D125
:103DA0004FF0180804EB041000EB4410084440786E
:103DB000F07010E004EB041000EB4410B749084425
:103DC00090F8048004EB041000EB441008444078A1
:103DD00040F08000F07000250CE004EB041000EBD4
:103DE0004410AE4908440830415D06F10A004155CF
:103DF000681CC5B24545F0DB012C08D0002106F156
:103E00000A00415508F10B00A149087003E008F1D0
:103E10000A009F4908700027022505E09D48405D83
:103E20003844C7B2681CC5B2994800788542F5DBB2
:103E30009848475596480078401C954908700A25CF
:103E40001BE030E09348405DAA2807D09148405DD0
:103E5000552803D08F48405DA5280CD12A468C48B0
:103E600001788C48FFF7FCFC89480078401C8849A1
:103E70000870681CC5B2681CC5B2854800788542C8
:103E8000E0DB5520834948555521824A681C11546E
:103E90007F480078801C7E490870FFF7BFFA002039
:103EA0007D49087004E0601CC4B2072CFFF645AFE2
:103EB00000BF7B4890F8E800002876D0764800786C
:103EC000002872D00020764981F8E800714EAA20BF
:103ED000307070701220B0700846407840F080005A
:103EE000F07008464088B08008464068C6F8060072
:103EF000002407E06A480830015D06F10A00015518
:103F0000601CC4B266484068A042F3D8002106F1A4
:103F10000A000155624800790B305D49087000279E
:103F2000022405E05B48005D3844C7B2601CC4B29F
:103F3000574800788442F5DB5648075554480078C6
:103F4000401C534908700A241AE05248005DAA2810
:103F500007D05048005D552803D04E48005DA52885
:103F60000CD122464A4801784A48FFF779FC484874
:103F70000078401C46490870601CC4B2601CC4B282
:103F8000434800788442E0DB5520424908555521DA
:103F9000404A601C11543E480078801C3C4908701F
:103FA000FFF73CFA00203C490870BDE8F0813D482D
:103FB00000884FF6FF7188421FDA3A480088401C9B
:103FC000384908800846008864280EDB00203649FE
:103FD00008703649087001203549087000203549BD
:103FE000087035490870354908702E480088B0F5CA
:103FF0007A7F02DB01203249087032480078FF28BE
:1040000012DA30480078401C2E49087008460078C3
:104010000A2809DD2C480078002802DD01202B4900
:10402000087000202A490870704710B5274B1B788C
:1040300003B910BD0023254C237026480378AA2B12
:1040400003D00023204C2370F3E70022002105E079
:10405000204B5B5C1344DAB24B1CD9B28378DB1C77
:104060008B42F5DC1B4B5B5C934203D00023164C68
:104070002370DEE70123184C23704378012B2FD1E6
:104080008378002B02DDC378144C237029E00000F4
:10409000F4000020F0120020F60000207F15002020
:1040A000D616002024010020040100200301002076
:1040B000010100200201002005010020060100206E
:1040C000270100204A010020480100204B01002068
:1040D00049010020E4170020DB020020DA02002062
:1040E00000BF00BF0023FE4C237000BFA1E710B546
:1040F000014609B9042004E0012901D1062000E0AD
:1041000010BD002200EB001303EB4013F54C2344D9
:104110005A70202200EB001303EB4013E2540022FC
:1041200000EB001303EB401323445A80012200EB01
:10413000001303EB401323445A6000EB001202EB20
:10414000401223461A441172012200EB001303EBC4
:104150004013234483F8302000BFD1E710B5E24874
:10416000007800B910BD0020DF490870DD486230DA
:104170000DF0E8FA20B10121DA4880F8921003E04E
:104180000021D84880F892100020FFF7B0FF00BF50
:10419000E8E72DE9F04104460D4616461F46207912
:1041A000A84203DDA8192179884202DD0020BDE87C
:1041B000F0816019324639460DF04EF80120F6E7DD
:1041C00001460A46002A02DA484202B200E00A46E4
:1041D00090B270472DE9F0478046894644464D46E7
:1041E00074B96DB9C148007840B1FDF7E6FEFDF73E
:1041F000EBFE0020BE490870BE490870BDE8F0879C
:10420000002C01DB002602E0002C00DA012620460B
:10421000FFF7D6FF04B2002D01DB002702E0002DDE
:1042200000DA01272846FFF7CBFF05B23CB9FDF7BE
:10423000CBFE0020B049C880AD49087031E041F2A2
:104240007070844201DD044606E0B4F52F7F02DA87
:104250004FF42F7400E000BFA74890F82000B04250
:1042600002D0A548C07F40B9A34890F82000B042D2
:104270000FD1A148C07F03280BD1FDF7A5FE012077
:104280009B4908709D490C809D4806709A49CC80D6
:1042900007E09949CC800846C07F10B93046FDF749
:1042A000E0F92DB9FDF789FE00209649C88031E07C
:1042B00041F27070854201DD054606E0B5F52F7FBD
:1042C00002DA4FF42F7500E000BF8E4890F820000E
:1042D000B84202D08B48C07F40B98A4890F820008D
:1042E000B8420FD18748C07F03280BD1FDF765FE88
:1042F00001208049087084490D808249CD8083481F
:10430000077007E07F49CD800846C07F10B9384666
:10431000FDF751F90120754908707D4908700020AA
:104320007C49087000BF69E72DE9FF5F04468A46B3
:1043300050460EF039F9834658460DF09DFF764AF7
:10434000764BCDE902010DF079FD07460DF0B2FC88
:1043500005B2601906B2601B0FFA80F9C82E03DAA5
:1043600016F1C80F00DD0026B9F1C80F04DA19F103
:10437000C80F01DD4FF0000949463046FFF72AFF1C
:10438000002E07DB00205C4981F821000846C08828
:1043900006B207E00120584981F821000846C0888C
:1043A000404206B2B9F1000F08DB0020554981F800
:1043B00021000846C0880FFA80F908E00120514921
:1043C00081F821000846C08840420FFA80F906EBC8
:1043D000090000EBD07149100CB2A6EB090000EB0C
:1043E000D07149100DB2002C0CDB43490C814549BA
:1043F0000C81684200B288823F488582002048498B
:1044000008700EE060423C49088160423D490881E5
:1044100008468582684200B23749888201204049B7
:10442000087028460EF0C0F801900DF025FF3D4AB7
:104430003D4BCDE902010DF001FD07460DF0FCF901
:10444000834658460EF074F800B2384908800220BE
:1044500000F060FE032000F05DFE3548B0F900007A
:1044600034490880012034490870204908702849DF
:10447000087028490870032030490870BDE8FF9F84
:104480002DE9F047044620460EF08EF882460DF0E6
:10449000F3FE07464FF01432294B0DF0CFFC0546D2
:1044A0000DF008FC81464846BDE8F0872DE9F04153
:1044B00006460F4614461D4648F6A04094FBF0F011
:1044C000204908700846007848F6A04101FB1040DA
:1044D0001D4908802846FFF7D3FF1C49086037E0D4
:1044E000480100207F150020EA0000207C00002009
:1044F0008000002081000020901200208200002017
:1045000086000020B41200208400002087000020D4
:104510007D0000207E000020639AD693E67CDE3F7B
:104520008800002038732B2D26CB00404600002049
:104530002C020020440000205C0000207F000020AE
:10454000141414407400002076000020580000204D
:1045500039463046FFF7E8FE0020F7490860F74982
:104560000860F7490880F748B0F90000F64908806C
:104570000120F6490870BDE8F0812DE9F0470446B6
:1045800020460EF011F882460DF076FE0746F04AFE
:10459000F04B0DF053FC05460DF08CFB8146484670
:1045A000BDE8F0872DE9FF4F87B09B46DDF81C8002
:1045B000099C089806905F46022F00DD0027B8F19D
:1045C000000F70DD4FF4B47098FBF0F0E249087012
:1045D0004FF4B47098FBF0F100FB1180DF490880C4
:1045E0000846008800EBC00101EB00104FF6FF7198
:1045F00001EA8000D94908804046FFF7BEFF1FFA54
:1046000080F82046FFF7B9FFC0EB0010C0F38D041F
:104610001FB14FF6FF7000EA440441F2707084420B
:1046200001DD044606E0B4F52F7F02DA4FF42F7463
:1046300000E000BF0698012811D127B926B225B2A3
:10464000684205B21FE0012F02D126B200251AE010
:10465000022F18D125B2684205B2002613E0069851
:10466000022810D127B925B226B2704206B20AE05C
:10467000012F02D1002625B205E0022F03D126B278
:10468000704206B20025022000F044FD032000F035
:1046900041FDB348B0F90000B249088027B9B248DB
:1046A000C0F8008004E066E04FEA4800AE490860C8
:1046B00031462846FFF78EFDA81900EBD07149104E
:1046C0000FFA81F9A81B00EBD07149100FFA81FA9B
:1046D00050460DF069FF01900DF0CEFDA34AA44BAA
:1046E000CDE902010DF0AAFBCDE904010DF0E2FADB
:1046F00000B2944908800846B0F900009249088049
:10470000B9F1000F10DB9B49A1F808909A49A1F874
:104710000890CAF1000000B288829648A0F814A060
:1047200000209649087012E0C9F100009149088103
:10473000C9F10000904908810846A0F814A0CAF108
:10474000000000B28B49888201208C49087000204B
:104750007949086079490860894908607849088082
:10476000012088490870884908708849087088497C
:104770000870764908700BB0BDE8F08F2DE9F0475E
:1047800006468846914637464C46C246002F62DDB3
:104790003846FFF775FE87B22046FFF771FEC0EB83
:1047A0000010C0F38F0441F27070844201DD0446B2
:1047B00006E0B4F52F7F02DA4FF42F7400E000BF5B
:1047C000BAF1010F0AD125B200206B4981F821000E
:1047D000684981F82100694908700EE0BAF1020FBA
:1047E0000BD125B2684205B20120634981F821004E
:1047F000604981F821006149087029462846FFF781
:10480000E9FC5C4804815C48048100205A498882A4
:1048100058498882022000F07DFC032000F07AFCD9
:104820000020484908804E48B0F900004D490880F2
:104830004D48076000204049086040490860012059
:104840005049087050490870504908705049087024
:1048500000203E490870BDE8F0872DE9F047824608
:10486000BAF1000F1CD050460DF081FA0646494AB5
:10487000494B0DF0E3FA04460022484B0DF0C2F814
:1048800080460DF017FA3C49C8600846C0683949AF
:10489000C86001204249087000204249087004E0C5
:1048A00000203F4908703F490870BDE8F0872DE9B6
:1048B000F04104460D4616461F4694F83600A842BD
:1048C00004DDA81994F83610884202DD0020BDE806
:1048D000F0816019324639460CF0BEFC0120F6E743
:1048E00010B503464C1EE1B28A4200DB10BD1046F3
:1048F00004E0441C1C5D1C54441CE0B28842F8DBFC
:1049000000BFF3E72DE9FC5F2748007840B1274856
:10491000007810B92648007808B9BDE8FC9FFCE78C
:104920002448007800B9F8E7002022490870224C9A
:104930002078AA2842D079E35000002054000020BB
:104940007A00002046000020480000207F00002060
:10495000FDD5327B156829407400002076000020C8
:104960002C020020440000204C00002038732B2D26
:1049700026CB004090120020B412002088000020B6
:10498000580000205C0000207C0000207D000020FA
:104990007E000020D3D2D2D2D2D232400000694071
:1049A0006000002062000020270100207801002024
:1049B00079010020260100204E1400204FF001094B
:1049C00017E0FE4810F80900A5280ED14A46FC4819
:1049D0000178FA48FFF784FFF9480078401EF8494B
:1049E000087009F1010000F0FF0909F1010000F071
:1049F000FF09F3480078801E4845E2DC4FF0000ACA
:104A00004FF0010909E0ED4810F80900504400F0AA
:104A1000FF0A09F1010000F0FF09E9480078001FD2
:104A20004845F0DAE54810F80900504500D0FDE2AD
:104A3000E3480078401EE149085C552800D0F5E2C3
:104A4000607812287ED1A07808287CD2DFE800F0B8
:104A50007B0464EFEE7B7BED0120DA4981F83000C6
:104A6000487012200870B4F803004880D4F805009C
:104A70004860D54800680DF097FD00900DF0FCFBF4
:104A800007464FF03332D14B0DF0D8F905460DF003
:104A900011F98346CE48B0F9000040420DF084FD84
:104AA00000900DF0E9FB0746CA4ACB4B0DF0C6F962
:104AB00005460DF0FFF80190C2484088C149496899
:104AC0000844082827D8BF4988781CE004280CDA55
:104AD000C0F10301C9004BFA01F1CAB2B9494988D2
:104AE000431AB8490831CA540BE0C0F10701CA00A3
:104AF00001991141CAB2B3494988431AB1490831F1
:104B0000CA54411CC8B2AF494968AE4A52881144E0
:104B10008142DBD800BF7AE26279E17804F10903CF
:104B2000AE48FFF7C4FE00287ED0AC4908680DF0FF
:104B30003BFD83460DF0A0FB0746A94AA94B0DF0AB
:104B40007DF901E064E261E205460DF0B3F8A649A3
:104B50000860A249496848420DF026FD83460DF0E1
:104B60008BFB0746A14AA24B0DF068F905460DF0F4
:104B7000A1F8A04908609949B1F9151048420DF013
:104B800013FD83460DF078FB0746984A984B0DF0CD
:104B900055F905460DF08EF8974908608F48C07E9C
:104BA0009649097888421FD09448007820B901209E
:104BB00093490870934908708848C07E502803DAEA
:104BC0000A209149088003E04FF461608E49088013
:104BD0008248C07E20B90020894908708949087040
:104BE0007E48C07E854908707C4890F8250087493A
:104BF0000978884211D08548007810B9012084498D
:104C00000870764890F8250010B900208049087097
:104C1000724890F825007D490870704890F824008B
:104C20007C490978884203E0B6E1DEE1B6E1B4E10F
:104C300004D06A4890F824007649087076480078D5
:104C400010B97648007800B967E66448007A20B168
:104C500001286FD003286BD178E07148007878B9CB
:104C60006F480078002863D16E4800686149096880
:104C7000884205D15C4800686B490968884257D072
:104C80005C48008801B25848008800B2FFF74CFB2E
:104C900000206649087066490870664908606049E6
:104CA00008704E49D1F809000DF061F84C4A4D4B9F
:104CB000CDE900010DF0C2F8054600225E4B0CF074
:104CC000A1FE07460CF0F6FF5C49C8600846C068C4
:104CD0005B49C8604149D1F80D1048420DF064FCB1
:104CE00083460DF0C9FA414A414BCDE900010DF070
:104CF000A5F805460022504B0CF084FE07460CF048
:104D0000D9FF4E490861084600694D4908614B4882
:104D1000C06828B101204B49087000204A4908703A
:104D2000344800683F4908602F4800683E490860E1
:104D300031E1FFE703203D49087000203C4908703D
:104D40003C49086001203649087024E13848007861
:104D500060B13E48007840B93D48007828B93D48E8
:104D6000007810B90020334908605FE10020FFF7A8
:104D700074FD01202E49087000202C490870032082
:104D80002749087001202B4908601B48006898B922
:104D90001248D0F8110078B11049D1F811000CF088
:104DA000E6FF21F0004105460CF084FF0B49C1F8F5
:104DB00011000D4800684FE07EE000004E14002016
:104DC000000100207F1500208C0000203333AB3F12
:104DD0002E020020BC7493180456C63F48150020CC
:104DE000D3D2D2D2D2D2324090000020EC51B81EA1
:104DF00085EB1640940000200C01002010020020DA
:104E0000FB010020401900200E02002012020020A9
:104E1000FA01002011020020780100207901002011
:104E200030010020380100203401002094020020CD
:104E30002F0100203C01002000006940B412002036
:104E40009012002060000020620000207C00002002
:104E50008100002080000020002811DD08680CF08F
:104E600086FF21F0004105460CF054FF87B29A49B5
:104E7000B1F8111088B23A460121FFF77FFC89E0B2
:104E800096480068002812DA934908680CF06FFF12
:104E900021F0004105460CF03DFF87B28E49B1F884
:104EA000111088B23A460221FFF768FC72E0002137
:104EB0000846FFF78FF96DE089480068E8B3864837
:104EC000D0F81100C8BB864800680CF050FF21F0F4
:104ED000004105460CF0EEFE8149086081480068FB
:104EE000002812DD7F48008880B2642190FBF1F039
:104EF00085B27B48006890FBF1F086B200232A4619
:104F000002213046FFF74EFB44E076480068002857
:104F100014DA74480088404280B2642190FBF1F0BA
:104F200085B26F48006890FBF1F086B200232A46F4
:104F300001213046FFF736FB2CE004E00021084653
:104F4000FFF748F926E06648006818B36248D0F8D1
:104F50001100F8B16049D1F811000CF008FF21F000
:104F6000004105460CF0D6FE07465D4800680CF08F
:104F7000FEFE21F0004105460CF0CCFE1FFA80F841
:104F80003B4642465748008801B25448008800B268
:104F9000FFF78CFA00BF00BF39E038E00420524927
:104FA000487012200870B4F803004880D4F8050057
:104FB00048600846408849680844E02814D84A49AF
:104FC000887809E049490A5C47494988431A4649B3
:104FD0000831CA54411CC8B243494988424A526800
:104FE00011448142EED800BF11E04149601C0CF031
:104FF0007FFB28B101213E48313880F8611004E080
:1050000000213B48313880F8611000E000BF0CE01F
:105010006078202809D1A078012806D16279E1784A
:1050200004F109033348FFF7B4F800BF0020324908
:10503000087000BF71E400222D49313981F89420B5
:10504000FD212B4A313A82F8931000222849313948
:10505000A1F895200422C1F8972081F89B00021244
:1050600081F89C20021481F89D20021681F89E2070
:10507000012281F8C320704701211D48313880F892
:10508000F61020201A49313981F8F500002118481E
:105090003138A0F8F7100121C0F8F910174801784D
:1050A0001348313880F8FD10012180F82511704730
:1050B00058B1C82190FBF1F1114A11610121114A47
:1050C00011700021104A117004E000210F4A117084
:1050D0000F4A117070470000481500209000002012
:1050E0000C01002094000020D6160020A6290108FB
:1050F000B01500200701002000010020FA00002068
:10510000B412002060000020620000206100002036
:1051100063000020042800DD70470021984A42F80F
:105120002010984A22F8101002280CDA9649974A63
:1051300042F820109649974A42F820109649974A1B
:1051400042F8201032E002280CD195498F4A42F8EB
:10515000201094498F4A42F8201000218F4A42F8CB
:10516000201023E003280DD14FF07F51874A42F8E9
:1051700020108D49874A42F820100021874A42F8C2
:10518000201013E0042811D18849804A42F82010E9
:105190008749804A42F820100021804A42F82010B6
:1051A0008449098809B2774A22F8101000BFB3E792
:1051B0002DE9F74F82B089461446042C03DD002008
:1051C00005B0BDE8F08F0298A0EB0905032C0CD1C7
:1051D00044F25060854202DDA5EB400505E07648CB
:1051E000854202DA48F6A040054440F2DC5B2846DE
:1051F0000DF0DAF98246654850F8241050460DF05B
:1052000033FA824657465D451BDCCBF100008542F0
:1052100017DB5B4850F824002844594941F8240022
:1052200051F824000DF0C0F901905C4850F82410AA
:1052300001980DF019FA8246514638460DF048F8AB
:105240000746504830F91400A0EB090528460DF038
:10525000ABF982464F4850F8241050460DF004FA3E
:105260008246514638460DF033F80746454820F847
:105270001490032C06DA3226454938460DF096F88C
:10528000074608E0032C02D143F6982603E0042CDD
:1052900001D143F69826002138460DF0B1FA0FD817
:1052A00030460DF081F9394601900DF0A9F901D28F
:1052B000B04615E038460DF03BF90FFA80F80FE0E4
:1052C00070420DF071F9394601900DF099FA02D251
:1052D000C6F1000804E038460DF02AF90FFA80F80C
:1052E00040466DE770B505463448B0F900000DF052
:1052F0005BF90446324920460DF0B6F904462646CD
:1053000028460DF051F904462E4920460DF0ACF91F
:105310000446214630460CF0DBFF06462A48B0F929
:1053200000000DF041F90446284920460DF09CF993
:105330000446214630460CF0CBFF06462448B0F91F
:1053400000000DF031F90446224920460DF08CF999
:105350000446214630460CF0BBFF06461A48B0F919
:1053600000001B4908801848058030460DF0E0F821
:1053700000B21249088030460DF0DAF800B270BD74
:10538000481800205C180020000070410C18002014
:105390000000C84220180020CDCCCC3D341800209D
:1053A0000000A03F00004841000090410000A040E4
:1053B0000000C843AA010020B0B9FFFF520100203D
:1053C0006F12833A1F85EB3F540100207B14EE3FA0
:1053D00056010020B29DEF3E00BF00BF00BFBFF3EB
:1053E0004F8F00BF00BF00BFFE48006800F4E060C0
:1053F000FD490843001DFB49086000BF00BF00BF16
:10540000BFF34F8F00BF00BF00BF00BF00BFFDE76D
:1054100010B5F648007809287ED2DFE800F0E205F2
:105420000AE23D42E2E2500040F6B830FFF703FEE8
:10543000D8E0EF48007838B3EE480078E0B9802231
:105440000021032001F01AFEFBF7E3FCFBF714FD3B
:105450000021E94804F019FF0021481E06F025F854
:1054600000216FF0410006F013F80121084605F015
:1054700059FE0120DF490870DE48007858B101204C
:1054800000F09CFAFFF7A8FFDC48007818B140F65E
:10549000BA30FFF7D0FDA5E040F6B930FFF7CBFDFD
:1054A000A0E0D348007848B1D548007830B9012051
:1054B000D349087040F6BC30FFF7BDFD92E0CC4800
:1054C000007840B3CB480078E0B980220021032067
:1054D00001F0D4FDFBF79DFCFBF7CEFC0021C64894
:1054E00004F0D3FE0021481E05F0DFFF00216FF01D
:1054F000410005F0CDFF0121084605F013FE012013
:10550000BC490870BB480078002869D0012000F031
:1055100055FAFFF761FF00E063E0B8480078002823
:105520005ED0B8480078F8B90420B6490870002069
:10553000B5490870B54908704FF6FF70B449088046
:105540000020B4490870B448B0F90000B34908809D
:105550000020B34908700120B2490870B248B0F980
:105560000000B24908800DE00020A6490870A64955
:105570000870A849087000210846FEF72BFE00209D
:10558000A8490870A748007898B100209E49087083
:105590004FF6FF709E4908800020A1490870012045
:1055A000A0490870A2490870A2490870A249087071
:1055B00016E00020934908709349087000210846BE
:1055C000FEF708FE00209A4908709A4908709B4926
:1055D00008709B490870934908700220964908702A
:1055E00000BF00BF00BF10BD10B59648007800B9DD
:1055F00010BD0020934908708048007800B9F7E793
:105600004FF48071904805F0C0FA30B18F480078AF
:1056100020F001008D49087005E08C48007840F0CA
:1056200001008A4908704FF40071874805F0ADFA0F
:1056300030B18648007820F002008449087005E007
:105640008248007840F00200804908704FF4806181
:105650007D4805F09AFA30B17C48007820F00400CB
:105660007A49087005E07948007840F004007749ED
:1056700008704FF48071764805F087FA30B17348AE
:10568000007820F008007149087005E06F48007844
:1056900040F008006D4908706C4800786D4908704A
:1056A0006D48007820B1012817D002285AD127E090
:1056B00000206A4908706A4908704D4908706548B9
:1056C0000078002805DD4948007810B901206249BA
:1056D000087000204A49087048E05E480078434955
:1056E0000978084040B102205B4908705B480078A7
:1056F000401C5A49087002E000205749087035E004
:105700005448007848B939480078002805DD002061
:1057100051490870FFF77CFE23E04E48007800B343
:1057200032480078E8B14D480078401C4B49087079
:1057300008460078282814DB01202D4908704848C5
:105740000078401C4649087008460078092801DDA9
:1057500009200870424800781E3040490870FFF761
:1057600057FE03E000203C49087000BF00BF3948E5
:1057700000781E49087000BF3AE770B5044600255E
:1057800075E004F0010028B101221021354805F030
:105790001AFA04E000221021324805F014FA00221F
:1057A0002021304805F00FFA00BF00BF00BF00BF46
:1057B00000BF00BF00BF00BF00BF00BF00BF00BFF1
:1057C00000BF00BF00BF00BF00BF00BF00BF00BFE1
:1057D00000BF00BF00BF00BF01222021214805F00B
:1057E000F2F941E00CED00E00000FA055E01002056
:1057F0005A0100202C000020002401403702002024
:105800005B010020940200209502002096020020F7
:1058100098020020A10200202C0200209C020020FF
:10582000AF02002040190020320200203402002084
:10583000FA010020FB010020DD020020FC01002015
:10584000F801002058010020001401405C010020F4
:10585000001801405D0100205F0100206001002070
:1058600061010020001001406410681CC5B2082DC1
:1058700087DB70BD10B5044601221146524805F081
:10588000A2F900220121504805F09DF92046FFF7BA
:1058900074FF10BD30B5024652B949B900244B4DD2
:1058A0002C706C70AC70EC70494C24782C7130BD4D
:1058B00004200FE00A2492FBF4F504FB1524A3B2A4
:1058C000434CE45C414D2C540A2492FBF4F4A2B204
:1058D000441EA0B20A28EDDB79B900200AE03B4C57
:1058E000245C5F2C03D10024384D2C5400E003E0ED
:1058F000441CA0B20528F2DB00BF00BFD7E7704709
:1059000010B5002400212046FFF7C4FF10BD10B5DC
:105910003048007800B910BD00202E4908702E488C
:10592000007828B14FF4E1512C4806F0E1FC25E065
:105930002B480188294806F0DBFC2A48008870B90A
:1059400027480088B0F57A7F05DD25480088FA38B9
:105950002349088012E00120224908800EE02048F7
:10596000008841F27071884205DA1D480088FA30DB
:105970001B49088002E000201A4908801A48007874
:1059800028B101229102194805F01DF905E0002215
:105990004FF48061154805F016F91548007828B1D4
:1059A0000122D102114805F00EF905E000224FF462
:1059B00000610E4805F007F900BFACE700F00101F7
:1059C00081F3138870470000000C01406618002026
:1059D000862A01085901002037020020002C0140CE
:1059E00064010020660100206B01002000180140C6
:1059F0006A0100200021FE4A1170FE4A1170FE4A21
:105A00001170FE4A1170FE4A1170FE4A1170FE4A72
:105A10001170FE4A11700121FD4A11700021FD4AEA
:105A20001170FD4A1170FD4A1170FD4A1170FD4A56
:105A30001170FD4A1170FD4A1170FD4A118010214C
:105A4000FC4A116000201AE00021FB4A02EB001220
:105A50009180F94A02EB00121160F74A02EB001242
:105A60009172F54A02EB00125172F34A02EB0012F6
:105A70001172F14A02EB0012D180411CC8B2052814
:105A8000E2DB002020E04FF6FF71EC4A02EB00124F
:105A900091800021E94A02EB00121160E74A02EB13
:105AA00000129172E54A02EB00125172E34A02EBD6
:105AB00000121172E14A02EB0012D180DF4A02EBC0
:105AC00000129181411CC8B20228DCDB70470146FC
:105AD000DB4AB1F53C6F04DCB2FBF1F0A0F1D80277
