:020000040800F2
:10000000C025002059A0000861A0000863A00008D6
:1000100065A0000867A0000869A0000800000000B3
:100020000000000000000000000000006BA00008BD
:100030006DA00008000000006FA0000871A000087B
:1000400073A0000873A0000873A0000873A0000844
:1000500073A0000873A000087F7200082330000816
:10006000416400086172000873A0000873A00008D2
:1000700073A0000873A0000873A0000873A0000814
:1000800073A0000873A0000873A0000873A0000804
:1000900073A0000873A0000873A0000835310008A1
:1000A00073A0000873A0000873A0000873A00008E4
:1000B000F92F000873A000086F0F000873A0000854
:1000C00073A000080773000873A0000873A000085D
:1000D00073A000086D3400089F35000873A0000865
:1000E0009D11000873A0000873A0000873A0000809
:1000F00073A0000873A0000873A0000873A0000894
:1001000073A0000873A0000873A0000873A0000883
:1001100073A0000873A00008870F000873A00008F0
:1001200073A0000873A0000873A0000873A0000863
:1001300000F002F800F05CF80AA090E8000C82449D
:100140008344AAF10107DA4501D100F051F8AFF27A
:10015000090EBAE80F0013F0010F18BFFB1A43F0A5
:100160000103184740290100602901000A444FF0AB
:10017000000C10F8013B13F0070408BF10F8014B06
:100180001D1108BF10F8015B641E05D010F8016B4B
:10019000641E01F8016BF9D113F0080F1EBF10F8AF
:1001A000014BAD1C0C1B09D16D1E58BF01F801CBD2
:1001B000FAD505E014F8016B01F8016B6D1EF9D555
:1001C0009142D6D37047000000230024002500266A
:1001D000103A28BF78C1FBD8520728BF30C148BFAA
:1001E0000B6070471FB510F0A6FF1FBD10B510BD06
:1001F00011F0A0F81146FFF7F5FF00F067FA11F0D3
:10020000BEF803B4FFF7F2FF03BC11F0BFF8000023
:100210000B49D1F800C04A685CF8043B10681844E8
:1002200042F8040B8C4528BFA1F1DC0C8A4228BFA0
:10023000A1F1DC02C1F800C04A6020F00040704724
:10024000541F00200CB50020019000906C480068FD
:1002500040F480306A49086000BF6948006800F4D3
:10026000003000900198401C0190009818B9019846
:10027000B0F5A06FF1D16248006800F4003010B111
:100280000120009001E0002000900098012843D157
:100290005C48006840F010005A4908600846006851
:1002A00020F0030008600846006840F00200086083
:1002B00053484068524948600846406848600846CC
:1002C000406840F4806048600846406820F47C1034
:1002D00048600846406840F4881048600846006856
:1002E00040F08070086000BF4548006800F0007072
:1002F0000028F9D04248406820F003004049486097
:100300000846406840F00200486000BF3C48406832
:1003100000F00C000828F9D10CBD10B5FFF792FFD2
:1003200010BD10B53648006840F00100344908603F
:10033000084640683449084031494860084600682A
:10034000324908402E4908600846006820F48020A1
:1003500008600846406820F4FE0048604FF41F0023
:100360008860FFF7DAFF4FF000602949086010BD90
:1003700010B5002100200022214B5B6803F00C0126
:1003800021B1042906D0082928D107E0214B224CAD
:10039000236027E0214B204C236023E0184B5B684F
:1003A00003F47010164B5B6803F48032022303EBF6
:1003B000904022B91A4B4343174C23600DE0104B79
:1003C0005B6803F4003323B1164B4343124C2360A4
:1003D00003E0124B4343104C236003E00D4B0E4CE3
:1003E000236000BF00BF064B5B68C3F303130E4CD2
:1003F000E15C094B1B68CB40074C236010BD00003B
:1004000000100240002002400000FFF8FFFFF6FE4F
:1004100008ED00E000127A0000000020001BB70089
:1004200000093D00808D5B000400002010B588B0FD
:100430000446694620460CF0CAF908B010BD30B534
:1004400089B00446257E01A928460CF0B5F909B00B
:1004500030BDF8B50646002500200090CDB9002437
:1004600000BF694630460DF0ADFB05469DF8000023
:10047000012800D005B106E0641C304610F03FFEB4
:10048000B4F5FA6FEDD300BFB4F5FA6F01D36FF096
:1004900006052846F8BDF8B5064600250020009060
:1004A000BDB9002400BF694630460DF026FD054663
:1004B000009800B105B106E0641C304610F01FFE44
:1004C000B4F5FA6FEFD300BFB4F5FA6F01D36FF054
:1004D00006052846F8BD2DE9F0418CB0804605AEF2
:1004E000002434B940460CF025FC04462046FFF7B2
:1004F0009DFF44B901AA02A940460DF0E5FA044661
:100500002046FFF793FF44B903AA04A940460DF023
:10051000C9FD04462046FFF789FF3CB9012140464A
:100520000CF091FF04462046FFF780FF34B94046A7
:100530000DF022FA04462046FFF778FF1CBB202767
:10054000002516E04046FFF784FF04467CB931469B
:1005500040460DF066FB0446308929F81500042159
:1005600040460CF00BFB404610F0C9FD00E002E0F5
:100570006D1CBD42E6D300BF24B9002500E06D1C10
:10058000BD42FCD300BF1CB940460DF0D0FA044672
:100590001CB94046FFF77FFF044624B904214046BA
:1005A0000CF0ECFA044620460CB0BDE8F0811FB513
:1005B000002452203C49096881F85C0101203A4935
:1005C000096881F870014FF4C87037490968A1F8CB
:1005D000720124B9344800680CF0AFFD044624B918
:1005E000314800680CF0A6FB044634B96A4601A9FC
:1005F0002D4800680DF068FA044634B902AA03A930
:10060000294800680DF04EFD04462CB9012126480A
:1006100000680CF018FF044624B9234800680DF068
:10062000ABF90446E0B204B010BD70B500241F4819
:10063000007800B970BD1E48007800B1FAE71D4887
:10064000007800B1F6E71C48007838B9FFF7AFFF33
:1006500045B215B9012018490870EBE71748007832
:1006600000B9E7E7002015490870154801680E48F1
:1006700000680DF0D6FA04468CB91148006800896C
:10068000104908800421084800680CF077FA0648F1
:10069000006810F034FD01200B49087002E00120D1
:1006A0000649087000BFC5E7140000201F000020A5
:1006B0003202002033020020210000201E00002012
:1006C000180000201C0000202000002000F097FBF4
:1006D00035E003F0E8F802F0A7FF03F04FFD04F067
:1006E00021F903F0B2FC01F0A1F801F08DF901F05D
:1006F00009FA01F091FC01F03CFB02F010F904F062
:1007000037FF05F0ADF800F0B2FE02F0A0F905F0F9
:1007100011FF06F0AAF802F016F900F0ECFF05F060
:100720008CF905F068FB07F070FFFFF77EFF06F01D
:1007300049FC06F086FD07F03CF806F0D8FCC8E757
:10074000FE480068FE490860FC48001D00684860DB
:10075000FA4808300068886070470EB501212020F3
:100760000AF06BFEF7480AF0C3FE4FF6FF70ADF8D3
:1007700004004720ADF800000020ADF80600ADF8F9
:1007800002006946EF480AF087FF0121ED480BF0AF
:10079000DFFA0EBD00B587B00121C8020AF040FEA5
:1007A000E9480AF0A5FE4FF4E150ADF8140000202E
:1007B000ADF81000ADF81600ADF8120004A9E2483B
:1007C0000AF06AFF6020ADF800000120ADF80200D9
:1007D0000020ADF80400ADF80600ADF80800ADF853
:1007E0000A004FF48070ADF80C006946D6480AF054
:1007F00090FF0121D4480BF0B7FA0121D2480BF049
:10080000A7FA07B000BD1FB5012108460AF015FE82
:100810004FF080400AF06CFE4FF6FF70ADF8080014
:100820004720ADF804000020ADF80A00ADF806003E
:1008300001A94FF080400AF02FFF012188070BF03B
:100840004DFD0122114690070BF09DFA4FF4A06078
:1008500009F022FC1C208DF8000000208DF801001A
:1008600003208DF8020001208DF80300684609F08E
:1008700018FC012188070BF06BFA1FBD1FB5012181
:1008800010200AF0DAFDB1480AF032FE48F6A04026
:10089000ADF808000120ADF804000020ADF80A0012
:1008A000ADF8060001A9A9480AF0F6FE0121A74803
:1008B0000BF014FD01221146A4480BF064FA4FF42A
:1008C000A06009F0E9FB36208DF8000000208DF8CB
:1008D000010005208DF8020001208DF80300684614
:1008E00009F0DFFB012199480BF032FA1FBD00B57A
:1008F00087B0012102200AF0A0FD95480AF0F8FD1A
:100900004FF4E150ADF814000020ADF81000ADF840
:100910001600ADF8120004A98D480AF0BDFE602053
:10092000ADF800000120ADF802000020ADF8040091
:10093000ADF80600ADF808004FF48070ADF80C007B
:10094000694683480AF0E5FE694681480AF023FFBC
:1009500069467F480AF06CFF69467D480AF0B3FF9C
:1009600001217B480BF0BAFC012179480BF0F0F92A
:1009700007B000BD00B589B0012104200AF05DFD7B
:1009800074480AF0B5FD41F2AF30ADF81C0000200C
:10099000ADF81800ADF81E00ADF81A0006A96D48B4
:1009A0000AF07AFE6020ADF808000120ADF80A00D8
:1009B0000020ADF80C00ADF80E00ADF81000ADF859
:1009C000140002A963480AF0A4FE02A961480AF0D3
:1009D000E2FE02A95F480AF02BFF02A95D480AF077
:1009E00072FF01215B480BF079FC012159480BF0A3
:1009F000D3F90122114657480BF0C5F94FF4A06016
:100A000009F04AFB1E208DF8040000208DF8050037
:100A100004208DF8060001208DF8070001A809F0D8
:100A200040FB01214B480BF093F909B000BD0EB516
:100A3000012108460AF0F4FC012104200AF0F0F834
:100A4000032104200AF0ECF8052101200AF0E8F85F
:100A5000082103200AF0E4F8022101200AF0E0F85E
:100A60000C2104200AF0DCF80D2104200AF0D8F84B
:100A70000E2104200AF0D4F80F2104200AF0D0F847
:100A8000022009F04EFF042009F04BFF082009F076
:100A900048FF202009F045FF4FF4807009F041FF26
:100AA0004FF4805009F03DFF4FF4005009F039FF3A
:100AB0004FF4804009F035FF4FF4004009F031FF5A
:100AC00000208DF8080010208DF8090022200190E8
:100AD00001208DF80A0001A809F0ACFE00208DF875
:100AE00008000C208DF809000820019001208DF8E5
:100AF0000A0001A809F09EFE00208DF808000C20D5
:100B00008DF809004FF48070019001208DF80A00E3
:100B100001A809F08FFE00208DF8080010208DF844
:100B200009004FF20400019001208DF80A0001A88D
:100B300009F080FE4FF4A0600EE00000E8F7FF1F10
:100B4000C411002000140040002C0140001000409F
:100B5000000400400008004009F09EFA08208DF8CB
:100B6000000000208DF8010001208DF802008DF8B2
:100B70000300684609F095FA4FF4A06009F08CFA7A
:100B800017208DF8000000208DF8010002208DF85C
:100B9000020001208DF80300684609F082FA4FF444
:100BA000A06009F079FA07208DF8000000208DF888
:100BB000010003208DF8020001208DF80300684633
:100BC00009F06FFA4FF4A06009F066FA09208DF879
:100BD000000001208DF8010000208DF802000120A6
:100BE0008DF80300684609F05CFA4FF4A06009F044
:100BF00053FA28208DF8000001208DF80100022012
:100C00008DF8020001208DF80300684609F049FACA
:100C10000EBD08B501217D200AF002FC7720ADF859
:100C2000000000208DF803006946FD4809F0E2FE4F
:100C300049F68810ADF8000003208DF8020010205E
:100C40008DF803006946F64809F0D4FE4FF40070B1
:100C5000ADF8000018208DF8030003208DF8020085
:100C60006946EF4809F0C6FE4FF48060ADF8000019
:100C700048208DF8030003208DF802006946E848FB
:100C800009F0B8FE3720ADF8000048208DF80300C9
:100C90006946E44809F0AEFE4FF20800ADF80000E6
:100CA00003208DF8020010208DF803006946DD480E
:100CB00009F0A0FE4FF47070ADF8000003208DF82D
:100CC000020018208DF803006946D64809F092FE0C
:100CD0004FF44060ADF8000003208DF802001C20A6
:100CE0008DF803006946CF4809F084FE0F20ADF867
:100CF000000000208DF803006946CB4809F07AFE19
:100D00003020ADF8000003208DF8020010208DF88F
:100D100003006946C44809F06DFE4FF47070ADF8E9
:100D2000000003208DF8020018208DF803006946AA
:100D3000BD4809F05FFE0121BC4809F02CFF4FF4CB
:100D40007040ADF8000003208DF8020010208DF8EF
:100D500003006946B64809F04DFE40F6CC70ADF888
:100D6000000048208DF803006946B14809F042FEB2
:100D70002020ADF8000003208DF8020018208DF827
:100D800003006946AA4809F035FE0121082009F050
:100D900002FF4FF44860ADF8000003208DF8020018
:100DA00010208DF803006946A24809F023FE4FF297
:100DB0000B10ADF8000048208DF8030069469D48EF
:100DC00009F018FE0220ADF8000004208DF80300A1
:100DD0006946984809F00EFE4FF40070ADF8000027
:100DE00003208DF8020018208DF803006946914811
:100DF00009F000FE0121904809F0CDFE08BD10B5B4
:100E0000FFF78FFAFFF705FF01229103884809F0E9
:100E1000A2FE01225103864809F09DFE05F07EFFE7
:100E200001225102834809F096FEFFF700FEFFF70A
:100E3000A1FDFFF75CFDFFF721FDFFF7E4FCFFF7E5
:100E4000A9FCFFF78AFC00F027FA02F055FA00F03F
:100E5000D1FC00F07DFB04F083FD05F017FB05F0ED
:100E6000D5FC04F0F5FC10F057FC00207349086035
:100E70007349087010BD08B54FF6FF70ADF800005B
:100E800004208DF803006946654809F0B3FD694602
:100E9000644809F0AFFD6946634809F0ABFD694657
:100EA000634809F0A7FD6946624809F0A3FD4FF4C5
:100EB0008070ADF8000048208DF8030069465D4859
:100EC00009F098FD4FF40070ADF8000048208DF84F
:100ED00003006946564809F08DFD08BD0EB508218E
:100EE000042009F09DFE0921032009F099FE00204D
:100EF0008DF8080010208DF809004FF6FE40019093
:100F000000208DF80A0001A809F094FC00208DF85B
:100F100008000C208DF809004FF48070019001202A
:100F20008DF80A0001A809F085FC00208DF8080062
:100F30000C208DF809004FF40070019001208DF80D
:100F40000A0001A809F076FC4FF4E06009F0A4F86B
:100F500017208DF8000000208DF801008DF80200A8
:100F600001208DF80300684609F09BF80EBD10B50E
:100F7000012134480BF0B5F920B1012131480BF0C3
:100F8000C1F900BF10BD10B501212F480BF0A9F920
:100F900000287DD001212C480BF0B4F92B480078B3
:100FA000401CC0B22949087032280CDB00200870B0
:100FB00001202749087027490870274908702749E8
:100FC00008702749087027480078401CC0B225499E
:100FD000087025490988884207DB002021490870EC
:100FE0000120224908702249087022480078401CDC
:100FF000C0B22049087014280CDB002008700120C2
:101000001D4908701D4908701D4908701D49087068
:101010001D4908701D480078401CC0B21B4938E0CB
:1010200000080140000C014000100140000C1A00B3
:101030000014014000180140C00016002C000020E0
:101040003000002000080040001000402400002074
:101050008D0000201002002065010020EF0200201A
:101060001F0000202700002000010020F0000020C9
:10107000F10000202500002064010020E50100208F
:10108000DC020020E4010020E20000202600002015
:1010900083E00870052806DB0020087001206949FC
:1010A00008706949087069480078401CC0B26749F7
:1010B000087067490978884205DB00206349087099
:1010C00001206449087064480088401C80B262496D
:1010D0000880B0F57A7F08DB002008805F4908802F
:1010E00001205F4908705F4908705F480078401C24
:1010F000C0B25D4908701E2804DB00200870012082
:101100005A4908705A48007820B154480088401C59
:101110005249088057480088401C564908800120E1
:101120005549087055480068401C54490860012022
:101130005349087002F04BFF012052490870524990
:1011400008705248C07F90B15048C07F03280ED02D
:101150004E48C07F01280AD04C48C08A401C4B49E9
:10116000C8820846C08A322801DD0420C877484872
:10117000C07F90B14648C07F03280ED04448C07F4E
:1011800001280AD04248C08A401C4149C88208460A
:10119000C08A322801DD0420C87710BD10B54FF495
:1011A000805009F0ADFB90B14FF4805009F0B9FBCD
:1011B0004FF48051374809F0B0FC20B101210320E1
:1011C00005F038F803E00021032005F033F84FF470
:1011D000005009F095FB90B14FF4005009F0A1FBCD
:1011E0004FF400512B4809F098FC20B10121022056
:1011F00005F020F803E00021022005F01BF84FF471
:10120000804009F07DFB18B14FF4804009F089FB64
:101210004FF4004009F074FB90B14FF4004009F026
:1012200080FB4FF400411B4809F077FC20B10121FD
:10123000084604F0FFFF03E00021012004F0FAFF5C
:1012400010BD000072000020400000202900002096
:101250007A000020700000202A000020E801002011
:10126000F2000020850200202800002093010020C9
:10127000E401002030020020710000202C0000203A
:101280008E0000208F0000208F010020C812002057
:10129000A4120020000C014010B590B001210846B6
:1012A0000AF0B1F8012140F201200AF0B9F89E4895
:1012B00009F088F99D4800909D4801900020029017
:1012C0000A200390002004908020059040000690A2
:1012D00080000790202008900002099000200A90CA
:1012E0006946914809F010FA01218F4809F037FA50
:1012F00000200B9001208DF8300000208DF8310087
:101300004FF460200D9000200E900A208DF83C00D4
:101310000BA986484C3808F054FF00230122022113
:1013200082484C3808F0E5FF0023022201217F4863
:101330004C3808F0DEFF0023032206217B484C389E
:1013400008F0D7FF002304220A2178484C3808F01F
:10135000D0FF002305220B2174484C3808F0C9FF48
:10136000002306220C2171484C3808F0C2FF0023EC
:1013700007220D216D484C3808F0BBFF00230822DE
:1013800019466A484C3808F0B4FF002309220421AA
:1013900066484C3808F0ADFF00230A220521634857
:1013A0004C3808F0A6FF012160484C3808F040FF97
:1013B00001215E484C3808F030FF5C484C3808F09A
:1013C0004EFF00BF59484C3808F04EFF0028F9D1B5
:1013D00056484C3808F052FF00BF54484C3808F0CB
:1013E00052FF0028F9D1012150484C3808F055FF30
:1013F000002404E000204F490855601CC4B20A2CA8
:10140000F8DB00204C49087010B010BD02468A423B
:1014100002DD501A80B27047881A80B2FBE7F0B53F
:1014200002460B4600254FF6FF760024022B01DC16
:101430000020F0BD002110E032F81100A84201DDCB
:1014400032F8115032F81100B04201DA32F811606E
:1014500032F811000444481CC1B29942ECDBA41BD1
:10146000641B981EB4FBF0F087B23846E1E770B514
:101470003248007800B970BD00203049087000245F
:1014800011E000250BE02A4830F8150005EB450176
:101490002B4A02EB810121F81400681CC5B20A2D09
:1014A000F1DB601CC4B2062CEBDB002433E004EB60
:1014B0004401234A02EB81000621FFF7B0FF2149D6
:1014C00021F81400204A32F814101E4A32F8140091
:1014D000FFF79CFF0646962E15DC1A4830F81400DC
:1014E0001A4921F81400084630F8140028B11248AF
:1014F000007810B90120104908700F4800780128C1
:1015000001D10C4908550F4830F814000E4921F854
:101510001400601CC4B20A2CC9DB012103484C38FA
:1015200008F0BBFE00BFA6E7080002404C240140C3
:10153000DA110020D01100204100002040000020DE
:10154000EE110020661200207A1200208E12002078
:101550000020FE490870FE490870FE490870FE49E7
:101560000870FE490870FE4908700520FD490870A2
:101570000020FD490880FD490880FD490880FD499B
:101580000880FD490860FD490860FD498882FD49E1
:101590008882FD490870FD490860FD490880704750
:1015A00010B5F748C07F18B1F548C07F042817D19F
:1015B0000120F34908770020487788770880F549AB
:1015C0000860F5490870F54988704FF080400AF0CE
:1015D00076FEF24908800020C8720120E849C877E9
:1015E00010BD70B50446012C00DD0124FFF7D8FFC3
:1015F000002003F09FFD4FF42F60E1494883084627
:1016000080F8204084B90021E5480AF03FFEDC481C
:10161000408B00EBC005E81705EB5070C0F3CF011D
:10162000DF480AF031FE0FE00021DD480AF02CFE11
:10163000D348408B00EBC005E81705EB5070C0F3B2
:10164000CF01D7480AF022FE70BD10B5CD48C07F4B
:1016500018B1CC48C07F042818D10120C9490877A7
:101660000020487788770880CE490860CE49087006
:10167000CE4988704FF080400AF021FECB490880A7
:101680000120C049C8770020C849C87210BD70B594
:101690000446012C00DD0124FFF7D7FF012003F0F1
:1016A00049FD4FF42F60B7494883084680F8204031
:1016B00084B90021BA480AF0E3FDB248408B00EB40
:1016C000C005E81705EB5070C0F3CF01B4480AF02D
:1016D000D9FD0FE00021B2480AF0D4FDA948408BA3
:1016E00000EBC005E81705EB5070C0F3CF01AC4824
:1016F0000AF0C6FD70BD10B5AD48007800B910BD48
:101700000020AB4908709F48C07FB8B99C48C07F93
:10171000A0B98E48007888B100208C490870A5498E
:101720000860A5490860A5490860A548007828B95F
:10173000A448007810B90020A349087083480078B5
:1017400090B9A248007801280ED1A148007840B98C
:1017500000209E4908706E220221462003F01EF8E8
:1017600002E000209B4908707848007850B99748FB
:10177000007838B99848007820B901209649087057
:101780009449087072480078012816D18D48007875
:10179000012812D17B48C07F78B990480078FFF7C4
:1017A00076FF8F4800887749C880002085490870F7
:1017B000012066490870664908706548007801286C
:1017C00016D17F480078012812D16D48C07F78B9C2
:1017D00084480078FFF705FF834800886849C8807F
:1017E000002077490870012058490870584908704E
:1017F00000BF84E700206249C8776249C877604922
:101800004883604948835E4988805E49888077497B
:101810000860774908607749086077490860564949
:101820000860564908606849087070475B49097A42
:1018300071B30021594A1172114649686F4AB2FBCF
:10184000F1F188B25449097810290CDA5149096834
:101850000144504A11604A4988804F490978491C1F
:101860004D4A117010E04B490968C1F30F11444A09
:101870009180484909680144464A11604049898875
:101880001268511A434A11600121444A91725172FF
:101890004649097A71B30021444A117211464968D8
:1018A000564AB2FBF1F188B23F49097810290CDAA7
:1018B0003C49096801443B4A1160324988803A49F1
:1018C0000978491C384A117010E036490968C1F39B
:1018D0000F112C4A9180334909680144314A116043
:1018E000284989881268511A2E4A116001212F4A0D
:1018F0009172517270472DE9F04F85B082468B4648
:101900004FF491700490049810F0F9F906460F46D0
:10191000ABEB0A0010F0F3F980464FF03332384B4E
:1019200010F054FA0022374BCDE9000110F04EFAC6
:1019300032463B46CDE9020110F02CF8044610F087
:1019400081F900B205B0BDE8F08F0000AC000020C6
:10195000AD000020AE000020AF000020710000208C
:10196000D40000207A000020DA000020DC000020F3
:10197000D6000020D80000209C000020A0000020FD
:10198000C8120020A4120020B8000020C0000020CF
:1019900076000020D0000020CB000020F8120020AC
:1019A00000080040CC000020CA000020EC120020FB
:1019B0008F000020BC000020380100203C010020E6
:1019C000B1000020B00000208C0000209001002019
:1019D000CA0200209201002091010020B6000020E0
:1019E000B2000020B7000020B400002084000020D6
:1019F00080000020940000209800002070383900FA
:101A00003333AB3F00408F4010B5FE48007800B93B
:101A100010BDFD48007838B1FB480078012804D19A
:101A2000FA480078012800D0F2E70020F549087054
:101A3000F748C07F01282FD1F548408B41F2FE01C5
:101A4000884204DCF248408B3230F1494883F04848
:101A500090F8200080B90021EE480AF011FCEC4813
:101A6000408B00EBC004E01704EB5070C0F3CF01D3
:101A7000E8480AF007FC0FE00021E6480AF002FC03
:101A8000E348408B00EBC004E01704EB5070C0F358
:101A9000CF01E0480AF0F4FBDF48C07F01282FD1D6
:101AA000DD48408B41F2FE01884204DCDA48408B7D
:101AB0003230D9494883D84890F8200080B90021B5
:101AC000D4480AF0E3FBD448408B00EBC004E01795
:101AD00004EB5070C0F3CF01CE480AF0D5FB0FE005
:101AE0000021CC480AF0D0FBCB48408B00EBC0046F
:101AF000E01704EB5070C0F3CF01C6480AF0C6FBF4
:101B000000BF85E72DE9F041C348C07F022805D01A
:101B1000BF48C07F022801D0BDE8F081BF480078EF
:101B200000B9F9E70020BD490870BD4800780028D9
:101B30005BD0BC48007898BB0120BA490870B64811
:101B40000089B9490880B4488088B0F52F7F0BDC44
:101B5000AF488088B0F52F7F06DC4FF42F70AE4978
:101B60000881AB49088118E0AB488088A84989887A
:101B70000144A9480089B1EB400F0EDCA6498988D1
:101B8000A34A9288881800EBD071C1F34F01A24A92
:101B90001181104600899E4908810A20A3490870D6
:101BA0009D4800899C49C96808449F490988884222
:101BB0000EDA99480089984989890844964908812C
:101BC00093480089924989890844914908810CE029
:101BD0009548008890490881934800888C4908817D
:101BE00000208F4908708F490870914800780028BC
:101BF0007DD09048007800284DD101208D49087093
:101C00008D48B0F900008D4908800A208749087086
:101C10008A48B0F9000000283EDD8948B0F900008C
:101C2000B0F5E16F04DA4FF4E160834908800CE01D
:101C30008348B0F900008049B1F90010884204DC03
:101C40007F48B0F900007C4908807B48B0F900006B
:101C50007A49B1F9001088425EDA6F48B0F9140091
:101C60007549B1F9001048437449B1F9001090FB6F
:101C7000F1F000B2684988826548B0F914006E49F5
:101C8000B1F9001048436D49B1F9001090FBF1F033
:101C900000B25F4988823FE06948B0F9000010F562
:101CA000E16F04DD4FF6F800634908800CE06448FA
:101CB000B0F900006049B1F90010884204DD6048C5
:101CC000B0F900005C4908805B48B0F900005B494E
:101CD000B1F9001088421FDD4F48B0F91400564991
:101CE000B1F9001048435549B1F9001000E03EE059
:101CF00090FBF1F000B2484988824548B0F91400E1
:101D00004D49B1F9001048434C49B1F9001090FB1E
:101D1000F1F000B23E4988824848B0F900000FF067
:101D2000EEFF21F0004504463B490969424AB2F9F9
:101D3000002088180FF0E3FF21F0004106462246FC
:101D40002B4610F007F808D23348008A3A49098830
:101D5000084400B23849088009E03848B0F900006A
:101D6000354908800020324908703249087000BFA8
:101D7000D2E670B52448007838B1234800780128AD
:101D800004D122480078012800D070BD2D48007889
:101D900000B9FAE700202B4908701D48C08840F2BE
:101DA000DC51884207DB1C48C088884203DB0520E1
:101DB000254908700CE01648C08840F2145188424A
:101DC00003DB1548C088884202DA0A201E490870E1
:101DD0000F48C07F02286FD11C48807A01286BD140
:101DE00000201A4988720A4A928811B2084AD28899
:101DF00010B2012203F0ECF904B2002C2CDD0448EF
:101E0000408B25E08D000020AC000020AD000020BC
:101E1000A412002000080040C81200207200002018
:101E2000900000204400002050000020D40000203A
:101E30009100002045000020760000205200002084
:101E40007A020020700000207A000020EC120020AE
:101E50002044FE49488311E0604204B2FB48418BB4
:101E600004F5FA70814205DDF848408B001BF74904
:101E7000488303E04FF4FA70F4494883F348408BF9
:101E8000B0F58C5F03DD4FF48C50F0494883EF4888
:101E900090F8200088B90021ED480AF0F1F9EB48EC
:101EA000408B00EBC006F01706EB5070C0F3CF017B
:101EB000E7480AF0E7F910E020E00021E4480AF0E2
:101EC000E1F9E248408B00EBC006F01706EB5070DA
:101ED000C0F3CF01DE480AF0D3F9DC48C088C0EB7C
:101EE000C00085B2ED10D9488088A84203DD0120EA
:101EF000D649887702E00020D4498877D548C07F4A
:101F0000022869D1D448807A012865D10020D249BD
:101F10008872D04A928811B2CE4AD28810B200227A
:101F200003F056F904B2002C05DDCA48408B20446A
:101F3000C849488311E0604204B2C648418B04F5A9
:101F4000FA70814205DDC348408B001BC1494883BC
:101F500003E04FF4FA70BF494883BE48408BB0F5A8
:101F60008C5F03DD4FF48C50BA494883B94890F830
:101F7000200080B90021B6480AF088F9B548408BA6
:101F800000EBC006F01706EB5070C0F3CF01B0486D
:101F90000AF07AF90FE00021AD480AF075F9AD4872
:101FA000408B00EBC006F01706EB5070C0F3CF017A
:101FB000A7480AF06BF9A748C088C0EBC00085B2FB
:101FC000ED10A4488088A84203DD0120A14988774C
:101FD00002E000209F49887700BFD6E69D48C07F79
:101FE00010B103209B49C87770479848C07F10B153
:101FF00003209649C877704702460B46D11A00293C
:1020000003DA48F6A040014404E048F6A0408142CB
:1020100000DD091A88B270472DE9F04F89B08F486A
:10202000007810B909B0BDE8F08F00208B49087026
:102030008B480078012807D18A480078012803D10D
:1020400089480078012800D0ECE78848007800B97A
:10205000E8E787480078401C854908707D48C07FC4
:1020600000287DD07B48C07F0328FAD081480168D2
:1020700081480068801C814207D880480078032886
:1020800003D07E48007801286BD17C48007858B195
:102090007A480078022807D078480078032803D0CF
:1020A0007648007801285BD1714800780A2857DB10
:1020B00000206F49087072480078401C7049087011
:1020C0006E48007890B90846007802281CDB002092
:1020D000087003226B48B0F900106B48B0F900009B
:1020E00003F076F800B2694908800DE06348007893
:1020F000022809D162480078042805DB00206049E5
:102100000870012007F0B7FC6048B0F9000044F601
:102110002061884203DD08465C49088009E05B488D
:10212000B0F900005A49884203DA4BF2E0105749EF
:10213000088002225748B0F900105448B0F9000056
:1021400003F046F805B24348B0F9140042F6E061E6
:10215000884201DB002D27DC3E48B0F9140001E085
:10216000B2E1B2E14C49884201DC002D1CDB4B4856
:10217000007801280CD13748808A284400B23549BC
:1021800088823248808A401B00B2304988820BE046
:102190003048808A401B00B22E4988822B48808AB2
:1021A000284400B2294988822A48008906B2294871
:1021B000B0F914003044002837DD2648B0F9140087
:1021C000304441F66411884207DC224800892149E5
:1021D000898A08441F49C88011E041F664101D49EE
:1021E000C8800846008941F66411081A00B21949EE
:1021F00088820846808A404200B214498882274873
:10220000007840B90020134981F8210008468088F1
:102210000FFA80FA70E001200E4981F8210008468B
:10222000808840420FFA80FA66E00A48008909492E
:10223000B1F914100844404241F66411884233DC7D
:10224000044800890349898A084429E0A41200202F
:1022500000080040C8120020F81200207100002081
:10226000AC000020AD000020AE0000208C0000205B
:10227000D40000207C00002084000020AF0000205B
:102280005400002078020020740000207600002016
:10229000E0B1FFFF7A02002020D1FFFFB80000204C
:1022A0004042FD49C88012E041F66410FA49C880F6
:1022B0000846008941F664110844404200B2F649DC
:1022C00088820846808A404200B2F4498882F448F5
:1022D000007848B90120F04981F82100084680883B
:1022E00040420FFA80FA07E00020EB4981F8210014
:1022F000084680880FFA80FAE74890F82000E649FF
:1023000091F82110884216D0E348C07F022812D1EC
:10231000E148C088B0F52F7F0DDBFFF75FFE01209D
:10232000E0490870DC48C088DF490880DA4890F846
:102330002100DE490870D948008906B2D748B0F9B3
:1023400014003044002837DDD448B0F9140030447C
:1023500041F66411884207DCD0480089CF49898A58
:102360000844CE49C88011E041F66410CB49C880CA
:102370000846008941F66411081A00B2C7498882EC
:102380000846808A404200B2C3498882C448007827
:1023900040B90020C14981F82100084680880FFA21
:1023A00080F945E00120BD4981F821000846808878
:1023B00040420FFA80F93BE0B8480089B749B1F9CB
:1023C00014100844404241F66411884208DCB348C6
:1023D0000089B249898A08444042B049C88012E065
:1023E00041F66410AD49C8800846008941F6641181
:1023F0000844404200B2A94988820846808A404287
:1024000000B2A5498882A648007848B90120A349AE
:1024100081F821000846808840420FFA80F907E0E1
:1024200000209E4981F82100084680880FFA80F933
:102430009A4890F82000994991F82110884216D0C6
:102440009648C07F022812D19448C088B0F52F7FEB
:102450000DDBFFF7CAFD0120954908708F48C08841
:10246000944908808D4890F821009349087009EB41
:102470000A0000EBD0714910904A11608648C0886C
:1024800041F66411884203DD08468349C88008E0AC
:102490008148C08840F28A21884202DA08467E4993
:1024A000C8807E48C08841F66411884203DD084632
:1024B0007A49C88012E07948C08840F28A2188426F
:1024C0000CDA08467549C88008E0FFF787FDFFF77A
:1024D0008CFD002076490870724908706F48C07FF3
:1024E000D8B16E48C07F032817D0754800780128FE
:1024F00013D07448016874480068801C81420CD86D
:102500006F480078032808D0FFF76FFDFFF766FDDE
:1025100000206749087063490870694800780128FD
:102520007DD16A48B0F90000002809DD6848B0F99B
:1025300000106848B0F90000FFF75EFD04460DE0AA
:102540006248B0F90000002808DA6248B0F90010CB
:102550005F48B0F90000FFF74FFD044644F25060B9
:10256000844206DD48F6B800844202DA01205A4966
:1025700008705A48007800280EDD57480078012876
:1025800009D1C82C07DC0020534908705348007853
:10259000401E524908706DE15148008848F6B80164
:1025A000884203DB4C48007800B93BE54C48008882
:1025B00048F6B801884204DA0846844201DA4948FC
:1025C000048049480078032806D04848006818B1BC
:1025D0004548007804285ED1414800880FF0A6FBEA
:1025E000CDE906014248B0F900000FF088FB21F068
:1025F0000041074600224FF080430FF0CBF9CDE9B0
:10260000020120460FF092FBCDE90001DDE9022333
:102610000FF00CF9CDE90401DDE9062300E05AE1F1
:102620000FF0D2FC6CD833480078401CC0B231495E
:1026300008700A286EDB002008702D48B0F90000F1
:102640000FF05DFB21F00041074600222A4B0FF0FE
:10265000BBFC09D82648B0F90000032190FBF1F03B
:1026600000B22349088055E02148B0F900000FF07E
:1026700046FB21F0004107460022204B0FF0A4FC4E
:1026800048D21B48B0F9000000283ADD4FF4E16061
:10269000174908803EE09CE0C8120020A4120020E8
:1026A000B8000020B1000020B4000020B7000020D6
:1026B000B0000020B2000020B6000020BC000020C6
:1026C000AF0000207C000020800000207A02002063
:1026D000740000207802002055000020A400002093
:1026E000A6000020A8000020CA02002088000020C8
:1026F00076000020560000200018B54000209C40C5
:102700003CE0F648B0F90000002803DA4FF6F80084
:10271000F2490880F2480088B0F5C87F17DBF0481E
:102720000088C838A04211DCED480088C8308442D7
:102730000CDCFFF753FCFFF758FC0020E949087058
:10274000E9490870E9490870E949087092E0E448ED
:102750000088844211DBE2480088C83084420CDCE7
:10276000FFF73CFCFFF741FC0020DE490870DE4922
:102770000870DE490870DE4908707BE0D8480088A0
:102780000FF0D4FACDE90601DA48B0F900000FF0F5
:10279000B6FA21F00041074600224FF080430FF0C7
:1027A000F9F8CDE9020120460FF0C0FACDE90001A9
:1027B000DDE902230FF03AF8CDE90401DDE9062353
:1027C0000FF0C8FA56D2CB48B0F90000C3490880D0
:1027D00050E0C3480088B0F5C87F26DBC0480088B9
:1027E000C838A04246DCBE480088C830844241DC7C
:1027F000BA48B0F90000B0F57A7F03DD4FF47A7083
:10280000B6490880BC480068A0B3BC48B0F91400C1
:10281000C010BA498882BA48B0F91400C010B8494B
:1028200088820020B449086024E0AD4800888442D2
:1028300020DBAB480088C83084421BDCA748B0F9D5
:102840000000B0F57A7F03DD4FF47A70A349088069
:10285000A948006870B1A948B0F91400C010A74990
:102860008882A748B0F91400C010A54988820020CA
:10287000A1490860A348006860B3A04890F8200010
:102880009F4991F82010884207D19F4800689F49CE
:10289000096808444FEA500B0EE09B4909689B4ABF
:1028A0001268881A0FF02BFA21F0004107460FF04A
:1028B000F9F983464FEA5B0B92480068801C834518
:1028C00008D3FFF792FBFFF789FB002087490870C8
:1028D0008749087000BF00BF67E62DE9F041074651
:1028E0000C4615461E460A2F00DD0A270A2D00DD7C
:1028F0000A25012C00DD0124012E00DD0126002F18
:1029000001DDFEF7A2FE002D01DDFEF749FE304697
:10291000FEF767FE2046FEF7BAFEBDE8F08110B56F
:102920007648C07F042804D1744991F82000FEF74E
:1029300058FE7348C07F042804D1714991F82000E3
:10294000FEF7A5FE10BD10B57148007800B910BDA6
:1029500000206F4908706948C07F30B9002067497E
:10296000087748778880488333E06448C07F03282D
:102970002FD141F22461674809F088FC41F22461BB
:10298000644809F081FC00205C49488341F2AF3083
:102990004883002008770846407F70B90020C87738
:1029A000888000215B4809F071FC0021594809F03A
:1029B0006BFC0020514948830BE05048008B401CC1
:1029C0004E4908830846008B322802DD00204877F4
:1029D00008834B48C07F28B90020494908774877C9
:1029E00088802CE04648C07F032828D141F224612A
:1029F000484809F047FC41F22461464809F040FC90
:102A000000203F49488308770846407F58B9002096
:102A1000C877888000213F4809F034FC00213D48F8
:102A200009F02EFC0BE03648008B401C344908832B
:102A30000846008B322802DD00204877088300BF5B
:102A400085E700B5FFF7D1FAFFF7C8FA00BD10B56A
:102A50003148007800B910BD00202F4908702F4878
:102A60000078B0B901202D49087000202C49087069
:102A70002C4908702C4908702C4908702C490870A2
:102A80002C4908804FF6FF702B49088000202B4905
:102A900008701A48C07F022809D11948C07F02284F
:102AA00005D127480088401C2549088002E0002005
:102AB0002349088022480088322800DACBE73320F7
:102AC0001F4908800D4890F8200018B90C4890F86C
:102AD0002000C8B300201B490870BCE77600002026
:102AE000A60000205600002055000020B000002065
:102AF000B10000207800002040010020C812002012
:102B0000A412002088000020800000208400002003
:102B10008E00002000080040E20000205700002046
:102B2000E1000020E0000020E3000020E40000209D
:102B3000E5000020E8000020EA0000205800002006
:102B40005A0000204C000020FFE7F9480078FA28DE
:102B50000CDAF7480078401CF54908700846007800
:102B6000C82811D10120F34908700DE00020F04978
:102B70000870F1490870F14908804FF6FF70F0497C
:102B800008800020EB490870EE48008800F5FA70D4
:102B9000ED490988884226DDEA480188EA4800882C
:102BA00000F5FA7081421EDAE6480088E7490968B4
:102BB0000844E6490860E6480078401CE44908708B
:102BC0000846007840281EDBE0480068C0F38F10FC
:102BD000E04908800020DE490870DC4908600120D7
:102BE000DD4908700FE00020D9490870D749086016
:102BF000D148007810B90020CD490870CE4800783F
:102C0000401CCD490870CF480088CC4909888842CB
:102C100003DDCC480088C9490880CA480088C849F3
:102C20000988884203DAC7480088C5490880C54832
:102C30000088C5490880C948B0F90600B0F5FA6FA8
:102C400005DCC648B0F9060010F5FA6F05DA012078
:102C5000C34908700020C3490870C148007860B1BA
:102C6000C0480078401CBF490870084600781E28FC
:102C700003DD00200870BA490870BB48B0F90010A5
:102C8000BA48B0F90000FFF7B7F9044644F25060C3
:102C900084420FDD48F6284084420BDAB0480078C1
:102CA00040B10220B24908700020AB490870B14918
:102CB00008703CE0782C10DD44F2506084420CDA5D
:102CC000A748007848B10120A949087000209A4916
:102CD00008700120A749087029E0A148007830BB9E
:102CE000A5480068A149B1F900100844A24908604C
:102CF000A2480088FF280DDCA0480088401C9F499E
:102D000008809D480068098890FBF1F000B2964960
:102D100008800CE098480068001200B292490880D0
:102D200095480068B1F90010401A9349086090482E
:102D30000078012802D08E48007818BB7E480078C1
:102D4000122803DB7A480078FA2810DD7B480088D7
:102D500040F6B831884242DD7848008878490988D1
:102D6000401AB0F5FA6F3ADD72480078B8B3022025
:102D70007F4908700020784908707E4908706D49C5
:102D800008702CE07A480078022802D07848007851
:102D900028BB7148007828B16E48008840F2DC51A9
:102DA000884210DB65480088B0F5FA6F17DA63488F
:102DB000008863490988401A40F2DC5188420EDAE3
:102DC0005C48007858B101206949087000205A49D0
:102DD000087001206749087000205649087000BF3C
:102DE00039E630B5664C6488B4F5967F7EDD644C78
:102DF000A488B4F5967FF9DD614C6488604DAD8898
:102E0000AC4256DB5E4C64885D4DAD88641B21B2DC
:102E1000B1F52F7F01DD002205E064244C430F252E
:102E200094FBF5F422B2C1EBC10421B2052491FB5D
:102E3000F4F421B2524C658801F59674A5421DDD6B
:102E4000642492FBF4F4A3B2282B00DD28234D4C1C
:102E5000E35C4B4C6488641AA4F596744A4D2C606C
:102E60002C4624685C432C602C46246804EB8404C4
:102E70002C602C462468A4112C6002E00024424DF2
:102E80002C60414C2468B4F57A6F03DD4FF47A640A
:102E90003D4D2C603D4C248814443B4D2D882C44E2
:102EA00020B244F25064A04202DDA0EB440420B200
:102EB00030BD334CA488324D6D88641B21B2B1F50E
:102EC0002F7F01DD002205E064244C430F2594FB95
:102ED000F5F422B2C1EBC10421B2052491FBF4F454
:102EE00021B2274C658801F5967400E073E0A54295
:102EF0004EDD642492FBF4F4A3B2282B00DD2823DA
:102F0000204CE35C1E4C6488641AA4F596741E4D34
:102F10002C602C4624685C432C602C46246804EB0F
:102F200084042C602C462468A4112C6033E000003B
:102F30004F000020580000204C000020E800002036
:102F4000EA0000208E1200205C00002048000020D3
:102F50004D000020E60000204E000020071A00204F
:102F6000E3000020E4000020800200207E02002018
:102F7000E100002054190020600000205E000020C5
:102F8000B20100200D290108640000207802002011
:102F90000024C64D2C60C54C2468B4F57A6F03DD5F
:102FA0004FF47A64C14D2C60C14C2488A41ABF4DE3
:102FB0002D882C4420B244F25064A04203DDA0EBE3
:102FC000440420B206E0BB4CA04203DA48F6A04419
:102FD000044420B26CE7B84C6488B74DAD88641BDC
:102FE00021B264244C430E2594FBF5F2B04C2488A6
:102FF000144420B200BF5BE710B50121880709F037
:1030000070F968B10121880709F07CF9AB48807834
:10301000401CAA498870AA488078401CA84988703A
:1030200010BD70B5022007F06BFC002873D00220A1
:1030300007F077FCA348007F012807D1A148407F13
:10304000012803D09E4800889F4908604FF08040C7
:1030500009F035F904469C480068844203D39A4835
:103060000068251A05E0984800684FF6FF71081AB5
:1030700005199448807F08B1962600E0962692486C
:103080000460B54200D270BD8D48C07A401C8C49A6
:10309000C8720846C07A022802DB0020C872F2E734
:1030A0008848007F01280CD18648407F012808D03D
:1030B0000120844948770846C07F012801D10220B9
:1030C000C877804890F8200028B980480068401CE4
:1030D0007E49086009E07B4890F82000012804D16F
:1030E0007A480068401E794908607948007820B124
:1030F00078480068401C77490860002071490883BF
:10310000C8826F480088A04206D26D480088201A05
:103110006B49486008E00BE0694800884FF6FF7192
:103120002144081A664948600120654908720C80EC
:1031300000BFA8E770B5202007F0E2FB002878D098
:10314000202007F0EEFB4FF0804009F0B8F804466D
:103150006148007F012807D15F48407F012803D0E4
:10316000564800885D4908605C480068844203D383
:103170005A480068251A05E0584800684FF6FF7164
:10318000081A05195448807F08B1962600E0962653
:1031900052480460B54200D270BD4848C07A401C15
:1031A0004649C8720846C07A022802D10020C87277
:1031B000F2E74948007F01280CD14748407F0128A9
:1031C00008D00120444948770846C07F012801D132
:1031D0000220C87740480088401C3F4908800846C4
:1031E00090F8200028B93E480068401C3C4908601F
:1031F00009E0394890F82000012804D138480068D7
:10320000401E374908603248007820B135480068D0
:10321000401C3449086000202F490883C882274891
:103220000088A04206D225480088201A2349486019
:1032300008E00BE0214800884FF6FF712144081A8E
:103240001E49486001201D4908720C804FF48070AF
:1032500007F056FB30B14FF4807007F062FB01209D
:10326000214908704FF4007007F04AFBD8B14FF4C1
:10327000007007F056FB1D480078A0B1012080F3D4
:10328000138800BF00BFBFF34F8F1948006800F4D8
:10329000E06018490843001D15490860BFF34F8FCF
:1032A00000BF00BFFEE700BF76E70000640000201B
:1032B00078020020B0B9FFFFB2010020EC1200201C
:1032C000F8120020C812002068000020980000209A
:1032D0008C00002084000020A41200206C0000203C
:1032E00094000020800000201E00002030000020FC
:1032F0000CED00E00000FA0500B585B0012188035F
:1033000008F08EF80121480408F097F84FF4E130F6
:1033100001900020ADF80800ADF80A00ADF80C00EF
:10332000ADF810000C20ADF80E0001A9FE4809F020
:1033300030F801A9FD4809F02CF8012240F225518E
:10334000F94809F0BEF8012240F22661F64809F07A
:10335000B8F8012240F22551F44809F0B2F80122F0
:1033600040F22661F14809F0ACF84FF4A06006F095
:1033700093FE25208DF8000001208DF80100022029
:103380008DF8020001208DF80300684606F089FEE2
:103390004FF4A06006F080FE26208DF8000001208A
:1033A0008DF8010003208DF8020001208DF8030044
:1033B000684606F076FE0121DB4809F076F8012127
:1033C000DA4809F072F80020D9490870D949087024
:1033D000D9490870D94908701420D94908800120BA
:1033E000D8490870D84908700020D849087064206E
:1033F000D74908800020D7490880D7490880012094
:10340000D64908700020D6490870D6490870D649B8
:1034100008703620D54981F836000020D44908705C
:10342000D4490860D4490860D4490860D449087078
:103430004870042008710020D249087005B000BD12
:1034400010B5D148D1490860084600680178B648EF
:1034500009F098F810BD10B5CD48CE49086008466F
:1034600000680178B14809F08DF810BD10B540F240
:103470002551AD4809F00AF900286DD040F22551D8
:10348000A94809F02DF9A84809F080F8C4B2B3485A
:103490000078012824D1AA2C18D1BF480078AA2886
:1034A00014D10120AF4908700020AF490870AB4922
:1034B00008700120AA4908700020B7490870B74970
:1034C0000870B7490870B749087009E0B248007839
:1034D000A52802D0B048047002E00020AE49087070
:1034E0000020B1490880B1490870B148AC49097859
:1034F0004454AB480078401CA9490870A94800789A
:10350000401CA849087096480078012823D1552C02
:1035100017D1A2480078552813D10120924908708C
:1035200000209049087001208C49087000208C49C7
:1035300008709A4908709849087001209D490870E0
:1035400009E096480078A52803D100209349087027
:1035500001E09248047000BF40F22661724809F011
:1035600095F8D8B140F226616F4809F0B9F887485C
:103570000068401C854908608F480078401EC0B232
:103580008D490870002806DD80480068017866488B
:1035900008F0F8FF02E001206A49087010BD10B57C
:1035A00040F22551614809F071F8D0B140F225513F
:1035B0005E4809F095F85D4808F0E8FFC4B27F481E
:1035C0007F49097844547E480078401C7C49087043
:1035D0007C480078401C7B49087000207A490870BC
:1035E00000BF40F22661514809F050F8D8B140F2CE
:1035F00026614E4809F074F866480068401C654929
:10360000086072480078401EC0B2704908700028F7
:1036100006DD604800680178444808F0B3FF02E026
:1036200001204949087010BD70B56948007800B99B
:1036300070BD00206649087066490868544CAA218C
:103640002170012161702621A17063490988091246
:10365000E17061490A782271604909880A12627131
:103660005E490A78A2715E4909880A12E2715C49D2
:103670000A7822725B490A7862725B490A78A27200
:103680005A490A78E272C27A2273427B6273027BE1
:10369000A273574909880A12E27355490A782274BD
:1036A000544909880A12627452490A78A27452492C
:1036B0000A78E2744A4909880A12227548490A7848
:1036C00062754E4909880A0AA2754C490A78E27562
:1036D0004B490A7822764B49C9880A0A62764949D9
:1036E0008A79A276484909880A12E27646490A7818
:1036F000227746490A7862774549C9880A12A27733
:1037000043498A79E2774349498B0A1220210A55B5
:1037100040498A7E21210A553F49498B0A122221BC
:103720000A553D498A7E79E0003801400044004056
:103730002E0100202F010020300100203101002047
:1037400000010020FE000020FF000020F200002009
:1037500050010020520100205401002009010020E6
:103760000A0100200B0100200C0100205C15002044
:1037700036010020380100203C0100208800002094
:103780000D0100200201002004130020F40000209D
:10379000FE130020F8000020EC000020ED000020C7
:1037A0000701002008010020EE0000202D0100206C
:1037B000621400202C010020FC000020F8170020DB
:1037C0004D0100204C0100204E010020FD00002092
:1037D000F10000209C0200201C000020C0010020FD
:1037E0001A010020320200201C0100208202002069
:1037F000EA000020E8000020B10000207E02002046
:10380000E1000020071A0020E60000204E00002002
:103810008E120020C8120020A412002084F8232059
:10382000F84909880A1284F82420F6490A7884F8AD
:10383000252049880A1284F82620F2498A7884F8DB
:103840002720F1490A7884F828200026002505E081
:10385000EE49495D3144CEB2691CCDB2A178C91C94
:10386000A942F5DCE9494E55A178091DE84A1170D5
:10387000FFF7F1FD0020E749087000BFD8E630B53A
:1038800003464C1EE1B28A4200DD30BD084604E02A
:103890001D5C441C1D55441EE0B29042F8DAA5247C
:1038A0009C5400BFF1E72DE9F04F87B0DA4800786B
:1038B00010B907B0BDE8F08FD848007800B9F8E734
:1038C0000020D5490870D64CAA20207060701220C4
:1038D000A0708320E0700020A0807120C4F8060052
:1038E000002507E0002104F10A0000EB45000180FB
:1038F000681CC5B2082DF5DBCA48817A807E41EA92
:103900004000A076C848017804F10A00A4F81B1012
:10391000C648007810B9C648007818B9C54801787B
:10392000617706E0C4480078C449097840EA41005C
:103930006077C348007818B1607F40F00301617779
:10394000C04800680EF0F8FD01900EF05DFC4FF0ED
:103950003332BD4BCDE902010EF038FACDE9040156
:103960000EF070F98046B948B0F9000040420EF000
:10397000E3FD01900EF048FCB54AB64BCDE90201DB
:103980000EF024FACDE904010EF05CF90646B248C7
:10399000B0F9000040420EF0CFFD01900EF034FC73
:1039A000AB4AAC4BCDE902010EF010FACDE90401AF
:1039B0000EF048F90FFA80F9C4F81E90A748006885
:1039C0000EF0BAFD01900EF01FFC0022A44BCDE9D1
:1039D00002010EF0FBF9CDE904010EF033F9C4F851
:1039E0002200A04800680EF0A7FD01900EF00CFC2C
:1039F00000229B4BCDE902010EF0E8F9CDE904016C
:103A00000EF020F9C4F82600C4F82A80C4F82E600D
:103A10009548017884F832109448017884F833107E
:103A2000002184F8341004F10A00A4F835109048FD
:103A3000018804F10A00A4F837108E4800688E4906
:103A400009680843C4F839008C49B1F906000EF042
:103A500073FD8B4900900EF0CFFD01900EF0D4FB6A
:103A60004FF03332874BCDE902010EF0AFF9CDE9CB
:103A700004010EF0E7F84FEA204A8049B1F9080046
:103A80000EF05AFD7E4900900EF0B6FD01900EF04A
:103A9000BBFB4FF033327B4BCDE902010EF096F9C0
:103AA000CDE904010EF0CEF84FEA204B04F10A00F4
:103AB000A4F83DA0A4F83FB031B2A4F841106F487B
:103AC000018804F10A00A4F843106C48418804F10D
:103AD0000A00A4F845106948818804F10A00A4F896
:103AE0004710002184F84910A4F84A10A4F84C109B
:103AF000A4F84E10A4F85010A4F8521062480088A0
:103B000000EB8000400041F2A86101EBE0005F495A
:103B10000978484381B204F10A00A4F85410002146
:103B200084F8561084F8571084F8581084F8591007
:103B30005748007810B984F85A1002E0012184F83F
:103B40005A10544890F8200038B952488188C4F877
:103B50005B10418BC4F863100EE04E4890F82000D3
:103B6000012809D14B4880884142C4F85B1049487C
:103B7000408B4142C4F86310474890F8200038B9A0
:103B800045488188C4F85F10418BC4F867100EE087
:103B9000414890F82000012809D13F4880884142DF
:103BA000C4F85F103C48408B4142C4F867100021C4
:103BB00084F86B1084F86C1084F86D102B48017831
:103BC00084F86E103548008848F6CC514843C0F35D
:103BD0008F2104F10A00A4F86F10B4F85F2011B22D
:103BE000B4F85B2010B2FDF786FE2D490880084628
:103BF0000088801B01B204F10A00A4F871100025AE
:103C000056E000008E1200204C000020FE13002021
:103C1000FD000020FF000020F0000020FE0000203A
:103C200004130020E0180020BF01002090010020B4
:103C300091010020850100208201002083010020E5
:103C4000BE010020BC0000203333AB3F7A020020CD
:103C5000BC7493180456C63F7802002094000020DC
:103C60000080C93F98000020DC010020DB0100201B
:103C7000C00100204001002044010020071A00205C
:103C80000000FA4333733140220200201202002068
:103C9000CA020020A4120020C8120020FA0100204D
:103CA000C8000020002104F173004155681CC5B212
:103CB000082DF7DB002084F87B00A0790B30FC494D
:103CC00008700027022505E0FA48405D3844C7B275
:103CD000681CC5B2F64800788542F5DB84F87C7034
:103CE000F3480078401CF24908700A251AE0F148B0
:103CF000405DAA2807D0EF48405D552803D0ED4825
:103D0000405DA5280CD12A46E9480178E948FFF72B
:103D1000B6FDE7480078401CE5490870681CC5B24C
:103D2000681CC5B2E24800788542E0DB5520E149D5
:103D300048555521DF4A681C1154DD480078801C25
:103D4000DB490870FFF77CFB0020DB49087000BFEF
:103D5000AFE52DE9F0410024B7E004EB041000EBDF
:103D60004410D649084490F83000002879D0D24851
:103D700000780028FAD0002004EB041101EB441174
:103D8000CE4A114481F83000CA4EAA2030707070BB
:103D900004EB041000EB44101146085CB07004EB17
:103DA000041000EB441008444088B08004EB041079
:103DB00000EB441008444068C6F80600012C09D105
:103DC0004FF0180804EB041000EB4410084440784E
:103DD000F07010E004EB041000EB4410B749084405
:103DE00090F8048004EB041000EB44100844407881
:103DF00040F08000F07000250CE004EB041000EBB4
:103E00004410AE4908440830415D06F10A004155AE
:103E1000681CC5B24545F0DB012C08D0002106F135
:103E20000A00415508F10B00A149087003E008F1B0
:103E30000A009F4908700027022505E09D48405D63
:103E40003844C7B2681CC5B2994800788542F5DB92
:103E50009848475596480078401C954908700A25AF
:103E60001BE030E09348405DAA2807D09148405DB0
:103E7000552803D08F48405DA5280CD12A468C4890
:103E800001788C48FFF7FBFC89480078401C884982
:103E90000870681CC5B2681CC5B2854800788542A8
:103EA000E0DB5520834948555521824A681C11544E
:103EB0007F480078801C7E490870FFF7C1FA002017
:103EC0007D49087004E0601CC4B2072CFFF645AFC2
:103ED00000BF7B4890F8E800002876D0764800784C
:103EE000002872D00020764981F8E800714EAA209F
:103EF000307070701220B0700846407840F080003A
:103F0000F07008464088B08008464068C6F8060051
:103F1000002407E06A480830015D06F10A000155F7
:103F2000601CC4B266484068A042F3D8002106F184
:103F30000A000155624800790B305D49087000277E
:103F4000022405E05B48005D3844C7B2601CC4B27F
:103F5000574800788442F5DB5648075554480078A6
:103F6000401C534908700A241AE05248005DAA28F0
:103F700007D05048005D552803D04E48005DA52865
:103F80000CD122464A4801784A48FFF778FC484855
:103F90000078401C46490870601CC4B2601CC4B262
:103FA000434800788442E0DB5520424908555521BA
:103FB000404A601C11543E480078801C3C490870FF
:103FC000FFF73EFA00203C490870BDE8F0813D480B
:103FD00000884FF6FF7188421FDA3A480088401C7B
:103FE000384908800846008864280EDB00203649DE
:103FF000087036490870012035490870002035499D
:10400000087035490870354908702E480088B0F5A9
:104010007A7F02DB01203249087032480078FF289D
:1040200012DA30480078401C2E49087008460078A3
:104030000A2809DD2C480078002802DD01202B49E0
:10404000087000202A490870704710B5274B1B786C
:1040500003B910BD0023254C237026480378AA2BF2
:1040600003D00023204C2370F3E70022002105E059
:10407000204B5B5C1344DAB24B1CD9B28378DB1C57
:104080008B42F5DC1B4B5B5C934203D00023164C48
:104090002370DEE70123184C23704378012B2FD1C6
:1040A0008378002B02DDC378144C237029E00000D4
:1040B000FC00002004130020FE00002093150020C7
:1040C000EA160020EE0000200C0100200B01002069
:1040D000090100200A010020EC000020ED00002072
:1040E0002D0100204E0100204C0100204F01002036
:1040F0004D010020F8170020EC020020EB02002008
:1041000000BF00BF0023FE4C237000BFA1E710B525
:10411000014609B9042004E0012901D1062000E08C
:1041200010BD002200EB001303EB4013F54C2344B9
:104130005A70202200EB001303EB4013E2540022DC
:1041400000EB001303EB401323445A80012200EBE1
:10415000001303EB401323445A6000EB001202EB00
:10416000401223461A441172012200EB001303EBA4
:104170004013234483F8302000BFD1E710B5E24854
:10418000007800B910BD0020DF490870DD486230BA
:104190000DF0A0FA20B10121DA4880F8921003E076
:1041A0000021D84880F892100020FFF7B0FF00BF30
:1041B000E8E72DE9F04104460D4616461F462079F2
:1041C000A84203DDA8192179884202DD0020BDE85C
:1041D000F0816019324639460DF006F80120F6E705
:1041E00001460A46002A02DA484202B200E00A46C4
:1041F00090B270472DE9F0478046894644464D46C7
:1042000074B96DB9C148007840B1FDF7E7FEFDF71C
:10421000ECFE0020BE490870BE490870BDE8F0877A
:10422000002C01DB002602E0002C00DA01262046EB
:10423000FFF7D6FF04B2002D01DB002702E0002DBE
:1042400000DA01272846FFF7CBFF05B23CB9FDF79E
:10425000CCFE0020B049C880AD49087031E041F281
:104260007070844201DD044606E0B4F52F7F02DA67
:104270004FF42F7400E000BFA74890F82000B04230
:1042800002D0A548C07F40B9A34890F82000B042B2
:104290000FD1A148C07F03280BD1FDF7A6FE012056
:1042A0009B4908709D490C809D4806709A49CC80B6
:1042B00007E09949CC800846C07F10B93046FDF729
:1042C000E6F92DB9FDF78AFE00209649C88031E055
:1042D00041F27070854201DD054606E0B5F52F7F9D
:1042E00002DA4FF42F7500E000BF8E4890F82000EE
:1042F000B84202D08B48C07F40B98A4890F820006D
:10430000B8420FD18748C07F03280BD1FDF766FE66
:1043100001208049087084490D808249CD808348FE
:10432000077007E07F49CD800846C07F10B9384646
:10433000FDF757F90120754908707D490870002084
:104340007C49087000BF69E72DE9FF5F04468A4693
:1043500050460EF0F1F8834658460DF055FF764A68
:10436000764BCDE902010DF031FD07460DF06AFCF8
:1043700005B2601906B2601B0FFA80F9C82E03DA85
:1043800016F1C80F00DD0026B9F1C80F04DA19F1E3
:10439000C80F01DD4FF0000949463046FFF72AFFFC
:1043A000002E07DB00205C4981F821000846C08808
:1043B00006B207E00120584981F821000846C0886C
:1043C000404206B2B9F1000F08DB0020554981F8E0
:1043D00021000846C0880FFA80F908E00120514901
:1043E00081F821000846C08840420FFA80F906EBA8
:1043F000090000EBD07149100CB2A6EB090000EBEC
:10440000D07149100DB2002C0CDB43490C81454999
:104410000C81684200B288823F488582002048496A
:1044200008700EE060423C49088160423D490881C5
:1044300008468582684200B2374988820120404997
:10444000087028460EF078F801900DF0DDFE3D4A28
:104450003D4BCDE902010DF0B9FC07460DF0B4F972
:10446000834658460EF02CF800B2384908800220E6
:1044700000F060FE032000F05DFE3548B0F900005A
:1044800034490880012034490870204908702849BF
:10449000087028490870032030490870BDE8FF9F64
:1044A0002DE9F047044620460EF046F882460DF00E
:1044B000ABFE07464FF01432294B0DF087FC054642
:1044C0000DF0C0FB81464846BDE8F0872DE9F0417C
:1044D00006460F4614461D4648F6A04094FBF0F0F1
:1044E000204908700846007848F6A04101FB1040BA
:1044F0001D4908802846FFF7D3FF1C49086037E0B4
:104500004C01002093150020F2000020AC00002098
:10451000B0000020B1000020A4120020B200002052
:10452000B6000020C8120020B4000020B700002010
:10453000AD000020AE000020639AD693E67CDE3FFB
:10454000B800002038732B2D26CB004076000020C9
:1045500078020020740000208C000020AF000020B2
:1045600014141440A4000020A6000020880000209D
:1045700039463046FFF7E8FE0020F7490860F74962
:104580000860F7490880F748B0F90000F64908804C
:104590000120F6490870BDE8F0812DE9F047044696
:1045A00020460DF0C9FF82460DF02EFE0746F04A68
:1045B000F04B0DF00BFC05460DF044FB81464846E0
:1045C000BDE8F0872DE9FF4F87B09B46DDF81C80E2
:1045D000099C089806905F46022F00DD0027B8F17D
:1045E000000F70DD4FF4B47098FBF0F0E2490870F2
:1045F0004FF4B47098FBF0F100FB1180DF490880A4
:104600000846008800EBC00101EB00104FF6FF7177
:1046100001EA8000D94908804046FFF7BEFF1FFA33
:1046200080F82046FFF7B9FFC0EB0010C0F38D04FF
:104630001FB14FF6FF7000EA440441F270708442EB
:1046400001DD044606E0B4F52F7F02DA4FF42F7443
:1046500000E000BF0698012811D127B926B225B283
:10466000684205B21FE0012F02D126B200251AE0F0
:10467000022F18D125B2684205B2002613E0069831
:10468000022810D127B925B226B2704206B20AE03C
:10469000012F02D1002625B205E0022F03D126B258
:1046A000704206B20025022000F044FD032000F015
:1046B00041FDB348B0F90000B249088027B9B248BB
:1046C000C0F8008004E066E04FEA4800AE490860A8
:1046D00031462846FFF78EFDA81900EBD07149102E
:1046E0000FFA81F9A81B00EBD07149100FFA81FA7B
:1046F00050460DF021FF01900DF086FDA34AA44B1A
:10470000CDE902010DF062FBCDE904010DF09AFA4A
:1047100000B2944908800846B0F900009249088028
:10472000B9F1000F10DB9B49A1F808909A49A1F854
:104730000890CAF1000000B288829648A0F814A040
:1047400000209649087012E0C9F1000091490881E3
:10475000C9F10000904908810846A0F814A0CAF1E8
:10476000000000B28B49888201208C49087000202B
:104770007949086079490860894908607849088062
:10478000012088490870884908708849087088495C
:104790000870764908700BB0BDE8F08F2DE9F0473E
:1047A00006468846914637464C46C246002F62DD93
:1047B0003846FFF775FE87B22046FFF771FEC0EB63
:1047C0000010C0F38F0441F27070844201DD044692
:1047D00006E0B4F52F7F02DA4FF42F7400E000BF3B
:1047E000BAF1010F0AD125B200206B4981F82100EE
:1047F000684981F82100694908700EE0BAF1020F9A
:104800000BD125B2684205B20120634981F821002D
:10481000604981F821006149087029462846FFF760
:10482000E9FC5C4804815C48048100205A49888284
:1048300058498882022000F07DFC032000F07AFCB9
:104840000020484908804E48B0F900004D490880D2
:104850004D48076000204049086040490860012039
:104860005049087050490870504908705049087004
:1048700000203E490870BDE8F0872DE9F0478246E8
:10488000BAF1000F1CD050460DF039FA0646494ADD
:10489000494B0DF09BFA04460022484B0DF07AF884
:1048A00080460DF0CFF93C49C8600846C0683949D8
:1048B000C86001204249087000204249087004E0A5
:1048C00000203F4908703F490870BDE8F0872DE996
:1048D000F04104460D4616461F4694F83600A8429D
:1048E00004DDA81994F83610884202DD0020BDE8E6
:1048F000F0816019324639460CF076FC0120F6E76B
:1049000010B503464C1EE1B28A4200DB10BD1046D2
:1049100004E0441C1C5D1C54441CE0B28842F8DBDB
:1049200000BFF3E72DE9FC5F2748007840B1274836
:10493000007810B92648007808B9BDE8FC9FFCE76C
:104940002448007800B9F8E7002022490870224C7A
:104950002078AA2842D079E380000020840000203B
:10496000AA0000207600002078000020AF00002080
:10497000FDD5327B15682940A4000020A600002048
:1049800078020020740000207C00002038732B2D5A
:1049900026CB0040A4120020C8120020B80000203E
:1049A000880000208C000020AC000020AD0000201A
:1049B000AE000020D3D2D2D2D2D232400000694021
:1049C00090000020440000202D01002090010020D4
:1049D000910100202C010020621400204FF00109F9
:1049E00017E0FE4810F80900A5280ED14A46FC48F9
:1049F0000178FA48FFF784FFF9480078401EF8492B
:104A0000087009F1010000F0FF0909F1010000F050
:104A1000FF09F3480078801E4845E2DC4FF0000AA9
:104A20004FF0010909E0ED4810F80900504400F08A
:104A3000FF0A09F1010000F0FF09E9480078001FB2
:104A40004845F0DAE54810F80900504500D0FDE28D
:104A5000E3480078401EE149085C552800D0F5E2A3
:104A6000607812287ED1A07808287CD2DFE800F098
:104A70007B0464EFEE7B7BED0120DA4981F83000A6
:104A8000487012200870B4F803004880D4F805007C
:104A90004860D54800680DF04FFD00900DF0B4FB64
:104AA00007464FF03332D14B0DF090F905460DF02B
:104AB000C9F88346CE48B0F9000040420DF03CFDF5
:104AC00000900DF0A1FB0746CA4ACB4B0DF07EF9D2
:104AD00005460DF0B7F80190C2484088C1494968C1
:104AE0000844082827D8BF4988781CE004280CDA35
:104AF000C0F10301C9004BFA01F1CAB2B9494988B2
:104B0000431AB8490831CA540BE0C0F10701CA0082
:104B100001991141CAB2B3494988431AB1490831D0
:104B2000CA54411CC8B2AF494968AE4A52881144C0
:104B30008142DBD800BF7AE26279E17804F10903AF
:104B4000AE48FFF7C4FE00287ED0AC4908680DF0DF
:104B5000F3FC83460DF058FB0746A94AA94B0DF01C
:104B600035F901E064E261E205460DF06BF8A64913
:104B70000860A249496848420DF0DEFC83460DF00A
:104B800043FB0746A14AA24B0DF020F905460DF064
:104B900059F8A04908609949B1F9151048420DF03B
:104BA000CBFC83460DF030FB0746984A984B0DF03E
:104BB0000DF905460DF046F8974908608F48C07E0C
:104BC0009649097888421FD09448007820B901207E
:104BD00093490870934908708848C07E502803DACA
:104BE0000A209149088003E04FF461608E490880F3
:104BF0008248C07E20B90020894908708949087020
:104C00007E48C07E854908707C4890F82500874919
:104C10000978884211D08548007810B9012084496C
:104C20000870764890F8250010B900208049087077
:104C3000724890F825007D490870704890F824006B
:104C40007C490978884203E0B6E1DEE1B6E1B4E1EF
:104C500004D06A4890F824007649087076480078B5
:104C600010B97648007800B967E66448007A20B148
:104C700001286FD003286BD178E07148007878B9AB
:104C80006F480078002863D16E4800686149096860
:104C9000884205D15C4800686B490968884257D052
:104CA0005C48008801B25848008800B2FFF74CFB0E
:104CB00000206649087066490870664908606049C6
:104CC00008704E49D1F809000DF019F84C4A4D4BC7
:104CD000CDE900010DF07AF8054600225E4B0CF09C
:104CE00059FE07460CF0AEFF5C49C8600846C06834
:104CF0005B49C8604149D1F80D1048420DF01CFCD9
:104D000083460DF081FA414A414BCDE900010DF097
:104D10005DF805460022504B0CF03CFE07460CF0B7
:104D200091FF4E490861084600694D4908614B48AA
:104D3000C06828B101204B49087000204A4908701A
:104D4000344800683F4908602F4800683E490860C1
:104D500031E1FFE703203D49087000203C4908701D
:104D60003C49086001203649087024E13848007841
:104D700060B13E48007840B93D48007828B93D48C8
:104D8000007810B90020334908605FE10020FFF788
:104D900074FD01202E49087000202C490870032062
:104DA0002749087001202B4908601B48006898B902
:104DB0001248D0F8110078B11049D1F811000CF068
:104DC0009EFF21F0004105460CF03CFF0B49C1F865
:104DD00011000D4800684FE07EE0000062140020E2
:104DE0000801002093150020BC0000203333AB3FA6
:104DF0007A020020BC7493180456C63F5C1500204C
:104E0000D3D2D2D2D2D23240C0000020EC51B81E50
:104E100085EB1640C400002014010020240200206D
:104E20001202002054190020220200202602002035
:104E30001102002025020020900100209101002095
:104E4000360100203C01002038010020CA02002069
:104E5000350100204001002000006940C8120020F8
:104E6000A41200209000002044000020AC0000208C
:104E7000B1000020B0000020002811DD08680CF00F
:104E80003EFF21F0004105460CF00CFF87B29A4925
:104E9000B1F8111088B23A460121FFF77FFC89E092
:104EA00096480068002812DA934908680CF027FF3A
:104EB00021F0004105460CF0F5FE87B28E49B1F8AD
:104EC000111088B23A460221FFF768FC72E0002117
:104ED0000846FFF78FF96DE089480068E8B3864817
:104EE000D0F81100C8BB864800680CF008FF21F01C
:104EF000004105460CF0A6FE814908608148006823
:104F0000002812DD7F48008880B2642190FBF1F018
:104F100085B27B48006890FBF1F086B200232A46F8
:104F200002213046FFF74EFB44E076480068002837
:104F300014DA74480088404280B2642190FBF1F09A
:104F400085B26F48006890FBF1F086B200232A46D4
:104F500001213046FFF736FB2CE004E00021084633
:104F6000FFF748F926E06648006818B36248D0F8B1
:104F70001100F8B16049D1F811000CF0C0FE21F029
:104F8000004105460CF08EFE07465D4800680CF0B7
:104F9000B6FE21F0004105460CF084FE1FFA80F8B1
:104FA0003B4642465748008801B25448008800B248
:104FB000FFF78CFA00BF00BF39E038E00420524907
:104FC000487012200870B4F803004880D4F8050037
:104FD00048600846408849680844E02814D84A498F
:104FE000887809E049490A5C47494988431A464993
:104FF0000831CA54411CC8B243494988424A5268E0
:1050000011448142EED800BF11E04149601C0CF010
:1050100037FB28B101213E48313880F8611004E0A7
:1050200000213B48313880F8611000E000BF0CE0FF
:105030006078202809D1A078012806D16279E1782A
:1050400004F109033348FFF7B4F800BF00203249E8
:10505000087000BF71E400222D49313981F8942095
:10506000FD212B4A313A82F8931000222849313928
:10507000A1F895200422C1F8972081F89B00021224
:1050800081F89C20021481F89D20021681F89E2050
:10509000012281F8C320704701211D48313880F872
:1050A000F61020201A49313981F8F50000211848FE
:1050B0003138A0F8F7100121C0F8F910174801782D
:1050C0001348313880F8FD10012180F82511704710
:1050D00058B1C82190FBF1F1114A11610121114A27
:1050E00011700021104A117004E000210F4A117064
:1050F0000F4A1170704700005C150020C0000020AE
:1051000014010020C4000020EA16002036290108FE
:10511000C41500200D01002008010020020100201C
:10512000C8120020900000204400002091000020C0
:1051300045000020042800DD70470021984A42F80D
:105140002010984A22F8101002280CDA9649974A43
:1051500042F820109649974A42F820109649974AFB
:1051600042F8201032E002280CD195498F4A42F8CB
:10517000201094498F4A42F8201000218F4A42F8AB
:10518000201023E003280DD14FF07F51874A42F8C9
:1051900020108D49874A42F820100021874A42F8A2
:1051A000201013E0042811D18849804A42F82010C9
:1051B0008749804A42F820100021804A42F8201096
:1051C0008449098809B2774A22F8101000BFB3E772
:1051D0002DE9F74F82B089461446042C03DD0020E8
:1051E00005B0BDE8F08F0298A0EB0905032C0CD1A7
:1051F00044F25060854202DDA5EB400505E07648AB
:10520000854202DA48F6A040054440F2DC5B2846BD
:105210000DF092F98246654850F8241050460DF082
:10522000EBF9824657465D451BDCCBF10000854219
:1052300017DB5B4850F824002844594941F8240002
:1052400051F824000DF078F901905C4850F82410D2
:1052500001980DF0D1F98246514638460DF000F81C
:105260000746504830F91400A0EB090528460DF018
:1052700063F982464F4850F8241050460DF0BCF9AF
:105280008246514638460CF0EBFF0746454820F869
:105290001490032C06DA3226454938460DF04EF8B4
:1052A000074608E0032C02D143F6982603E0042CBD
:1052B00001D143F69826002138460DF069FA0FD83F
:1052C00030460DF039F9394601900DF061F901D2FF
:1052D000B04615E038460DF0F3F80FFA80F80FE00D
:1052E00070420DF029F9394601900DF051FA02D2C1
:1052F000C6F1000804E038460DF0E2F80FFA80F835
:1053000040466DE770B505463448B0F900000DF031
:1053100013F90446324920460DF06EF9044626463C
:1053200028460DF009F904462E4920460DF064F98F
:105330000446214630460CF093FF06462A48B0F951
:1053400000000DF0F9F80446284920460DF054F904
:105350000446214630460CF083FF06462448B0F947
:1053600000000DF0E9F80446224920460DF044F90A
:105370000446214630460CF073FF06461A48B0F941
:1053800000001B4908801848058030460DF098F849
:1053900000B21249088030460DF092F800B270BD9C
:1053A0005C180020701800200000704120180020B8
:1053B0000000C84234180020CDCCCC3D4818002055
:1053C0000000A03F00004841000090410000A041C3
:1053D0000080A244C0010020B0B9FFFF56010020A8
:1053E0006F12833A1F85EB3F580100207B14EE3F7C
:1053F0005A010020B29DEF3E10B5F8480078092808
:105400007ED2DFE800F0B2050AB23D42B2B25000EF
:1054100040F6B830FFF71FFEA8E0F148007838B337
:10542000F0480078E0B980220021032001F08EFDD1
:10543000FBF721FDFBF752FD0021EB4804F0EDFEE8
:105440000021481E05F0F9FF00216FF0410005F032
:10545000E7FF0121084605F02DFE0120E149087013
:10546000E048007858B1012000F051FA00F054FAF9
:10547000DE48007818B140F6BA30FFF7ECFD75E071
:1054800040F6B930FFF7E7FD70E0D548007848B145
:10549000D748007830B90120D549087040F6BC30B3
:1054A000FFF7D9FD62E0CE48007838B3CD480078E8
:1054B000E0B980220021032001F048FDFBF7DBFC6E
:1054C000FBF70CFD0021C84804F0A7FE0021481E90
:1054D00005F0B3FF00216FF0410005F0A1FF0121AD
:1054E000084605F0E7FD0120BE490870BD48007878
:1054F00058B3012000F00BFA00F00EFABB4800E0B0
:1055000033E0007808B3BB480078F8B90320B94904
:1055100008700020B8490870B84908704FF6FF704D
:10552000B74908800020B7490870B748B0F90000B3
:10553000B64908800020B64908700120B5490870B6
:10554000B548B0F90000B54908800DE00020A94930
:105550000870A9490870AB49087000210846FEF799
:1055600049FE0020AB49087000BF00BF00BF10BD5E
:1055700010B5AB48007800B910BD0020A8490870EC
:105580009A48007800B9F7E74FF40071A54805F094
:10559000C4FA30B1A448007820F00200A249087093
:1055A00005E0A148007840F002009F4908704FF4E0
:1055B00080619C4805F0B1FA30B19B48007820F03A
:1055C00004009949087005E09748007840F004000D
:1055D000954908704FF48071944805F09EFA30B1F7
:1055E0009148007820F008008F49087005E08E4847
:1055F000007840F008008C4908708B4800788C498E
:1056000008708C48007820B1012817D002285AD1A0
:1056100027E00020884908708849087070490870A0
:1056200083480078002805DD6C48007810B9012017
:105630008049087000206E49087048E07C48007876
:1056400066490978084208D002207A4908707A48E9
:105650000078401C7849087002E000207549087005
:1056600035E07348007848B95C480078002805DDCB
:10567000002070490870FFF7BFFE23E06C480078F7
:1056800000B356480078E8B16B480078401C6A497E
:10569000087008460078282814DB0120504908705B
:1056A00066480078401C654908700846007809285B
:1056B00001DD09200870614800781E305E490870DD
:1056C000FFF79AFE03E000205A49087000BF00BFB0
:1056D000574800784149087000BF4DE770B504464F
:1056E000002532E014F0010F05D0012210215448AA
:1056F00005F031FA04E000221021514805F02BFAA0
:10570000002220214E4805F026FA00BF00BF00BF4E
:1057100000BF00BF00BF00BF00BF00BF00BF00BF91
:1057200000BF00BF00BF00BF00BF00BF00BF00BF81
:1057300000BF00BF00BF00BF00BF012220214048C2
:1057400005F009FA6410681CC5B2082DCADB70BDEB
:1057500010B50446012211463A4805F0FCF9002232
:105760000121384805F0F7F92046FFF7B7FF10BDD3
:1057700030B5024652B949B90024334D2C706C70D3
:10578000AC70EC70314C24782C7130BD04200FE0EB
:105790000A2492FBF4F504FB1524A3B22B4CE45C21
:1057A000294D2C540A2492FBF4F4A2B2441EA0B258
:1057B0000A28EDDB79B900200AE0234C245C5F2C39
:1057C00003D10024204D2C5400E003E0441CA0B27F
:1057D0000528F2DB00BF00BFD7E700006901002009
:1057E00066010020300000200024014083020020D8
:1057F00067010020CA020020CB020020A002002086
:10580000A2020020A402002078020020CE02002084
:10581000E0020020541900207E02002080020020B7
:1058200064010020001401405C01002000180140C8
:10583000680100205D0100205E0100206A01002057
:1058400000100140000C01407A180020162A0108BF
:10585000704710B5002400212046FFF789FF10BDD6
:1058600010B53548007800B910BD002032490870E5
:105870003248007828B14FF4E151314806F000FD7C
:1058800025E0304801882E4806F0FAFC2E480088B2
:1058900070B92C480088B0F57A7F05DD294800886A
:1058A000FA382849088012E00120274908800EE0D4
:1058B0002448008841F27071884205DA2148008846
:1058C000FA302049088002E000201F4908801F4864
:1058D000007828B1012291021D4805F03CF905E04D
:1058E00000224FF480611A4805F035F91948007814
:1058F00028B10122D102164805F02DF905E0002259
:105900004FF40061124805F026F900BFACE700F043
:10591000010181F313887047BFF34F8F0E48006871
:1059200000F4E0600D490843001D0B490860BFF317
:105930004F8F00BFFEE700006501002083020020BA
:10594000002C014060010020620100208301002042
:1059500000180140820100200CED00E00000FA0573
:105960000021FE4A1170FE4A1170FE4A1170FE4A73
:105970001170FE4A1170FE4A1170FE4A1170FE4A03
:1059800011700121FD4A11700021FD4A1170FD4A7C
:105990001170FD4A1170FD4A1170FD4A1170FD4AE7
:1059A0001170FD4A1170FD4A11801021FC4A1160EE
:1059B00000201AE00021FB4A02EB00129180F94A14
:1059C00002EB00121160F74A02EB00129172F54AE5
:1059D00002EB00125172F34A02EB00121172F14A0B
:1059E00002EB0012D180411CC8B20528E2DB002086
:1059F00020E04FF6FF71EC4A02EB0012918000218B
:105A0000E94A02EB00121160E74A02EB00129172C0
:105A1000E54A02EB00125172E34A02EB00121172E6
:105A2000E14A02EB0012D180DF4A02EB00129181C1
:105A3000411CC8B20228DCDB70472DE9FC41DB4881
:105A4000007808B9BDE8FC810020D8490870C44836
:105A50000678C2480578C6480778002407E0D14890
:105A600000EB0410807A0DF80400601CC4B2052C11
:105A7000F5DB0121CE4805F050F818B10020B849F7
:105A8000087002E00120B64908700221C84805F0FC
:105A900044F818B10020B149087002E00120AF4974
:105AA0000870AF480078B0421AD0AD48007801289D
:105AB00016D1FCF793FAFCF798FA0020BD4908705C
:105AC000BD4908700120B24908700020AB49087038
:105AD000AB490870AF48007840F00200AD4908704B
