:020000040800F2
:10000000B025002081A0000889A000088BA000086E
:100010008DA000088FA0000891A00008000000003B
:1000200000000000000000000000000093A0000895
:1000300095A000080000000097A0000899A0000803
:100040009BA000089BA000089BA000089BA00008A4
:100050009BA000089BA00008D7720008233000086E
:1000600099640008B97200089BA000089BA00008D2
:100070009BA000089BA000089BA000089BA0000874
:100080009BA000089BA000089BA000089BA0000864
:100090009BA000089BA000089BA000083531000829
:1000A0009BA000089BA000089BA000089BA0000844
:1000B000F92F00089BA000086F0F00089BA0000804
:1000C0009BA000085F7300089BA000089BA000088D
:1000D0009BA0000885340008B73500089BA00008E5
:1000E0009D1100089BA000089BA000089BA0000891
:1000F0009BA000089BA000089BA000089BA00008F4
:100100009BA000089BA000089BA000089BA00008E3
:100110009BA000089BA00008870F00089BA0000878
:100120009BA000089BA000089BA000089BA00008C3
:1001300000F002F800F05CF80AA090E8000C82449D
:100140008344AAF10107DA4501D100F051F8AFF27A
:10015000090EBAE80F0013F0010F18BFFB1A43F0A5
:100160000103184770290100902901000A444FF04B
:10017000000C10F8013B13F0070408BF10F8014B06
:100180001D1108BF10F8015B641E05D010F8016B4B
:10019000641E01F8016BF9D113F0080F1EBF10F8AF
:1001A000014BAD1C0C1B09D16D1E58BF01F801CBD2
:1001B000FAD505E014F8016B01F8016B6D1EF9D555
:1001C0009142D6D37047000000230024002500266A
:1001D000103A28BF78C1FBD8520728BF30C148BFAA
:1001E0000B6070471FB510F0BAFF1FBD10B510BDF2
:1001F00011F0B4F81146FFF7F5FF00F067FA11F0BF
:10020000D2F803B4FFF7F2FF03BC11F0D7F80000F7
:100210000B49D1F800C04A685CF8043B10681844E8
:1002200042F8040B8C4528BFA1F1DC0C8A4228BFA0
:10023000A1F1DC02C1F800C04A6020F00040704724
:10024000481F00200CB50020019000906C48006809
:1002500040F480306A49086000BF6948006800F4D3
:10026000003000900198401C0190009818B9019846
:10027000B0F5A06FF1D16248006800F4003010B111
:100280000120009001E0002000900098012843D157
:100290005C48006840F010005A4908600846006851
:1002A00020F0030008600846006840F00200086083
:1002B00053484068524948600846406848600846CC
:1002C000406840F4806048600846406820F47C1034
:1002D00048600846406840F4881048600846006856
:1002E00040F08070086000BF4548006800F0007072
:1002F0000028F9D04248406820F003004049486097
:100300000846406840F00200486000BF3C48406832
:1003100000F00C000828F9D10CBD10B5FFF792FFD2
:1003200010BD10B53648006840F00100344908603F
:10033000084640683449084031494860084600682A
:10034000324908402E4908600846006820F48020A1
:1003500008600846406820F4FE0048604FF41F0023
:100360008860FFF7DAFF4FF000602949086010BD90
:1003700010B5002100200022214B5B6803F00C0126
:1003800021B1042906D0082928D107E0214B224CAD
:10039000236027E0214B204C236023E0184B5B684F
:1003A00003F47010164B5B6803F48032022303EBF6
:1003B000904022B91A4B4343174C23600DE0104B79
:1003C0005B6803F4003323B1164B4343124C2360A4
:1003D00003E0124B4343104C236003E00D4B0E4CE3
:1003E000236000BF00BF064B5B68C3F303130E4CD2
:1003F000E15C094B1B68CB40074C236010BD00003B
:1004000000100240002002400000FFF8FFFFF6FE4F
:1004100008ED00E000127A0000000020001BB70089
:1004200000093D00808D5B000400002010B588B0FD
:100430000446694620460CF0DEF908B010BD30B520
:1004400089B00446257E01A928460CF0C9F909B0F7
:1004500030BDF8B50646002500200090CDB9002437
:1004600000BF694630460DF0C1FB05469DF800000F
:10047000012800D005B106E0641C304610F053FEA0
:10048000B4F5FA6FEDD300BFB4F5FA6F01D36FF096
:1004900006052846F8BDF8B5064600250020009060
:1004A000BDB9002400BF694630460DF03AFD05464F
:1004B000009800B105B106E0641C304610F033FE30
:1004C000B4F5FA6FEFD300BFB4F5FA6F01D36FF054
:1004D00006052846F8BD2DE9F0418CB0804605AEF2
:1004E000002434B940460CF039FC04462046FFF79E
:1004F0009DFF44B901AA02A940460DF0F9FA04464D
:100500002046FFF793FF44B903AA04A940460DF023
:10051000DDFD04462046FFF789FF3CB90121404636
:100520000CF0A5FF04462046FFF780FF34B9404693
:100530000DF036FA04462046FFF778FF1CBB202753
:10054000002516E04046FFF784FF04467CB931469B
:1005500040460DF07AFB0446308929F81500042145
:1005600040460CF01FFB404610F0DDFD00E002E0CD
:100570006D1CBD42E6D300BF24B9002500E06D1C10
:10058000BD42FCD300BF1CB940460DF0E4FA04465E
:100590001CB94046FFF77FFF044624B904214046BA
:1005A0000CF000FB044620460CB0BDE8F0811FB5FE
:1005B000002452203C49096881F85C0101203A4935
:1005C000096881F870014FF4C87037490968A1F8CB
:1005D000720124B9344800680CF0C3FD044624B904
:1005E000314800680CF0BAFB044634B96A4601A9E8
:1005F0002D4800680DF07CFA044634B902AA03A91C
:10060000294800680DF062FD04462CB901212648F6
:1006100000680CF02CFF044624B9234800680DF054
:10062000BFF90446E0B204B010BD70B500241F4805
:10063000007800B970BD1E48007800B1FAE71D4887
:10064000007800B1F6E71C48007838B9FFF7AFFF33
:1006500045B215B9012018490870EBE71748007832
:1006600000B9E7E7002015490870154801680E48F1
:1006700000680DF0EAFA04468CB911480068008958
:10068000104908800421084800680CF08BFA0648DD
:10069000006810F048FD01200B49087002E00120BD
:1006A0000649087000BFC5E7140000201F000020A5
:1006B0005802002059020020210000201E000020C6
:1006C000180000201C0000202000002000F097FBF4
:1006D00035E003F0F4F802F0B3FF03F05BFD04F043
:1006E0002DF903F0BEFC01F0A1F801F08DF901F045
:1006F00009FA01F091FC01F03CFB02F010F904F062
:1007000060FF05F0DAF800F0B2FE02F0A0F905F0A3
:100710003DFF06F0D6F802F016F900F0ECFF05F008
:10072000A8F905F092FB07F0ACFFFFF77EFF06F09B
:1007300075FC06F0B2FD07F068F806F004FDC8E7A6
:10074000FE480068FE490860FC48001D00684860DB
:10075000FA4808300068886070470EB501212020F3
:100760000AF07FFEF7480AF0D7FE4FF6FF70ADF8AB
:1007700004004720ADF800000020ADF80600ADF8F9
:1007800002006946EF480AF09BFF0121ED480BF09B
:10079000F3FA0EBD00B587B00121C8020AF054FE7D
:1007A000E9480AF0B9FE4FF4E150ADF8140000201A
:1007B000ADF81000ADF81600ADF8120004A9E2483B
:1007C0000AF07EFF6020ADF800000120ADF80200C5
:1007D0000020ADF80400ADF80600ADF80800ADF853
:1007E0000A004FF48070ADF80C006946D6480AF054
:1007F000A4FF0121D4480BF0CBFA0121D2480BF021
:10080000BBFA07B000BD1FB5012108460AF029FE5A
:100810004FF080400AF080FE4FF6FF70ADF8080000
:100820004720ADF804000020ADF80A00ADF806003E
:1008300001A94FF080400AF043FF012188070BF027
:1008400061FD0122114690070BF0B1FA4FF4A06050
:1008500009F036FC1C208DF8000000208DF8010006
:1008600003208DF8020001208DF80300684609F08E
:100870002CFC012188070BF07FFA1FBD1FB5012159
:1008800010200AF0EEFDB1480AF046FE48F6A040FE
:10089000ADF808000120ADF804000020ADF80A0012
:1008A000ADF8060001A9A9480AF00AFF0121A748EE
:1008B0000BF028FD01221146A4480BF078FA4FF402
:1008C000A06009F0FDFB36208DF8000000208DF8B7
:1008D000010005208DF8020001208DF80300684614
:1008E00009F0F3FB012199480BF046FA1FBD00B552
:1008F00087B0012102200AF0B4FD95480AF00CFEF1
:100900004FF4E150ADF814000020ADF81000ADF840
:100910001600ADF8120004A98D480AF0D1FE60203F
:10092000ADF800000120ADF802000020ADF8040091
:10093000ADF80600ADF808004FF48070ADF80C007B
:10094000694683480AF0F9FE694681480AF037FF94
:1009500069467F480AF080FF69467D480AF0C7FF74
:1009600001217B480BF0CEFC012179480BF004FA01
:1009700007B000BD00B589B0012104200AF071FD67
:1009800074480AF0C9FD41F2AF30ADF81C000020F8
:10099000ADF81800ADF81E00ADF81A0006A96D48B4
:1009A0000AF08EFE6020ADF808000120ADF80A00C4
:1009B0000020ADF80C00ADF80E00ADF81000ADF859
:1009C000140002A963480AF0B8FE02A961480AF0BF
:1009D000F6FE02A95F480AF03FFF02A95D480AF04F
:1009E00086FF01215B480BF08DFC012159480BF07B
:1009F000E7F90122114657480BF0D9F94FF4A060EE
:100A000009F05EFB1E208DF8040000208DF8050023
:100A100004208DF8060001208DF8070001A809F0D8
:100A200054FB01214B480BF0A7F909B000BD0EB5EE
:100A3000012108460AF008FD012104200AF004F90A
:100A4000032104200AF000F9052101200AF0FCF836
:100A5000082103200AF0F8F8022101200AF0F4F836
:100A60000C2104200AF0F0F80D2104200AF0ECF823
:100A70000E2104200AF0E8F80F2104200AF0E4F81F
:100A8000022009F062FF042009F05FFF082009F04E
:100A90005CFF202009F059FF4FF4807009F055FFEA
:100AA0004FF4805009F051FF4FF4005009F04DFF12
:100AB0004FF4804009F049FF4FF4004009F045FF32
:100AC00000208DF8080010208DF8090022200190E8
:100AD00001208DF80A0001A809F0C0FE00208DF861
:100AE00008000C208DF809000820019001208DF8E5
:100AF0000A0001A809F0B2FE00208DF808000C20C1
:100B00008DF809004FF48070019001208DF80A00E3
:100B100001A809F0A3FE00208DF8080010208DF830
:100B200009004FF20400019001208DF80A0001A88D
:100B300009F094FE4FF4A0600EE00000E8F7FF1FFC
:100B4000B811002000140040002C014000100040AB
:100B5000000400400008004009F0B2FA08208DF8B7
:100B6000000000208DF8010001208DF802008DF8B2
:100B70000300684609F0A9FA4FF4A06009F0A0FA52
:100B800017208DF8000000208DF8010002208DF85C
:100B9000020001208DF80300684609F096FA4FF430
:100BA000A06009F08DFA07208DF8000000208DF874
:100BB000010003208DF8020001208DF80300684633
:100BC00009F083FA4FF4A06009F07AFA09208DF851
:100BD000000001208DF8010000208DF802000120A6
:100BE0008DF80300684609F070FA4FF4A06009F030
:100BF00067FA28208DF8000001208DF801000220FE
:100C00008DF8020001208DF80300684609F05DFAB6
:100C10000EBD08B501217D200AF016FC7720ADF845
:100C2000000000208DF803006946FD4809F0F6FE3B
:100C300049F68810ADF8000003208DF8020010205E
:100C40008DF803006946F64809F0E8FE4FF400709D
:100C5000ADF8000018208DF8030003208DF8020085
:100C60006946EF4809F0DAFE4FF48060ADF8000005
:100C700048208DF8030003208DF802006946E848FB
:100C800009F0CCFE3720ADF8000048208DF80300B5
:100C90006946E44809F0C2FE4FF20800ADF80000D2
:100CA00003208DF8020010208DF803006946DD480E
:100CB00009F0B4FE4FF47070ADF8000003208DF819
:100CC000020018208DF803006946D64809F0A6FEF8
:100CD0004FF44060ADF8000003208DF802001C20A6
:100CE0008DF803006946CF4809F098FE0F20ADF853
:100CF000000000208DF803006946CB4809F08EFE05
:100D00003020ADF8000003208DF8020010208DF88F
:100D100003006946C44809F081FE4FF47070ADF8D5
:100D2000000003208DF8020018208DF803006946AA
:100D3000BD4809F073FE0121BC4809F040FF4FF4A3
:100D40007040ADF8000003208DF8020010208DF8EF
:100D500003006946B64809F061FE40F6CC70ADF874
:100D6000000048208DF803006946B14809F056FE9E
:100D70002020ADF8000003208DF8020018208DF827
:100D800003006946AA4809F049FE0121082009F03C
:100D900016FF4FF44860ADF8000003208DF8020004
:100DA00010208DF803006946A24809F037FE4FF283
:100DB0000B10ADF8000048208DF8030069469D48EF
:100DC00009F02CFE0220ADF8000004208DF803008D
:100DD0006946984809F022FE4FF40070ADF8000013
:100DE00003208DF8020018208DF803006946914811
:100DF00009F014FE0121904809F0E1FE08BD10B58C
:100E0000FFF78FFAFFF705FF01229103884809F0E9
:100E1000B6FE01225103864809F0B1FE05F0AAFF93
:100E200001225102834809F0AAFEFFF700FEFFF7F6
:100E3000A1FDFFF75CFDFFF721FDFFF7E4FCFFF7E5
:100E4000A9FCFFF78AFC00F027FA02F061FA00F033
:100E5000D1FC00F07DFB04F09FFD05F043FB05F0A5
:100E600001FD04F022FD10F06FFC002073490860C2
:100E70007349087010BD08B54FF6FF70ADF800005B
:100E800004208DF803006946654809F0C7FD6946EE
:100E9000644809F0C3FD6946634809F0BFFD69462F
:100EA000634809F0BBFD6946624809F0B7FD4FF49D
:100EB0008070ADF8000048208DF8030069465D4859
:100EC00009F0ACFD4FF40070ADF8000048208DF83B
:100ED00003006946564809F0A1FD08BD0EB508217A
:100EE000042009F0B1FE0921032009F0ADFE002025
:100EF0008DF8080010208DF809004FF6FE40019093
:100F000000208DF80A0001A809F0A8FC00208DF847
:100F100008000C208DF809004FF48070019001202A
:100F20008DF80A0001A809F099FC00208DF808004E
:100F30000C208DF809004FF40070019001208DF80D
:100F40000A0001A809F08AFC4FF4E06009F0B8F843
:100F500017208DF8000000208DF801008DF80200A8
:100F600001208DF80300684609F0AFF80EBD10B5FA
:100F7000012134480BF0C9F920B1012131480BF0AF
:100F8000D5F900BF10BD10B501212F480BF0BDF9F8
:100F900000287DD001212C480BF0C8F92B4800789F
:100FA000401CC0B22949087032280CDB00200870B0
:100FB00001202749087027490870274908702749E8
:100FC00008702749087027480078401CC0B225499E
:100FD000087025490988884207DB002021490870EC
:100FE0000120224908702249087022480078401CDC
:100FF000C0B22049087014280CDB002008700120C2
:101000001D4908701D4908701D4908701D49087068
:101010001D4908701D480078401CC0B21B4938E0CB
:1010200000080140000C014000100140000C1A00B3
:101030000014014000180140C000160024000020E8
:101040002800002000080040001000402900002077
:1010500061000020FD0100205D010020E60200206B
:101060001F0000202C000020FC000020EC000020CD
:10107000ED0000202A0000205C010020CB010020B0
:10108000B3020020CA010020B60000202B0000207F
:1010900083E00870052806DB0020087001206949FC
:1010A00008706949087069480078401CC0B26749F7
:1010B000087067490978884205DB00206349087099
:1010C00001206449087064480088401C80B262496D
:1010D0000880B0F57A7F08DB002008805F4908802F
:1010E00001205F4908705F4908705F480078401C24
:1010F000C0B25D4908701E2804DB00200870012082
:101100005A4908705A48007820B154480088401C59
:101110005249088057480088401C564908800120E1
:101120005549087055480068401C54490860012022
:101130005349087002F057FF012052490870524984
:1011400008705248C07F90B15048C07F03280ED02D
:101150004E48C07F01280AD04C48C08A401C4B49E9
:10116000C8820846C08A322801DD0420C877484872
:10117000C07F90B14648C07F03280ED04448C07F4E
:1011800001280AD04248C08A401C4149C88208460A
:10119000C08A322801DD0420C87710BD10B54FF495
:1011A000805009F0C1FB90B14FF4805009F0CDFBA5
:1011B0004FF48051374809F0C4FC20B101210320CD
:1011C00005F064F803E00021032005F05FF84FF418
:1011D000005009F0A9FB90B14FF4005009F0B5FBA5
:1011E0004FF400512B4809F0ACFC20B10121022042
:1011F00005F04CF803E00021022005F047F84FF419
:10120000804009F091FB18B14FF4804009F09DFB3C
:101210004FF4004009F088FB90B14FF4004009F012
:1012200094FB4FF400411B4809F08BFC20B10121D5
:10123000084605F02BF803E00021012005F026F810
:1012400010BD000046000020400000202E000020BD
:101250004E0000204400002030000020CE0100207D
:10126000EE000020400200202D0000207F01002021
:10127000CA0100203E02002045000020240000207A
:1012800062000020630000207B010020BC120020CF
:1012900098120020000C014010B590B001210846C2
:1012A0000AF0C5F8012140F201200AF0CDF89E486D
:1012B00009F09CF99D4800909D4801900020029003
:1012C0000A200390002004908020059040000690A2
:1012D00080000790202008900002099000200A90CA
:1012E0006946914809F024FA01218F4809F04BFA28
:1012F00000200B9001208DF8300000208DF8310087
:101300004FF460200D9000200E900A208DF83C00D4
:101310000BA986484C3808F068FF002301220221FF
:1013200082484C3808F0F9FF0023022201217F484F
:101330004C3808F0F2FF0023032206217B484C388A
:1013400008F0EBFF002304220A2178484C3808F00B
:10135000E4FF002305220B2174484C3808F0DDFF20
:10136000002306220C2171484C3808F0D6FF0023D8
:1013700007220D216D484C3808F0CFFF00230822CA
:1013800019466A484C3808F0C8FF00230922042196
:1013900066484C3808F0C1FF00230A220521634843
:1013A0004C3808F0BAFF012160484C3808F054FF6F
:1013B00001215E484C3808F044FF5C484C3808F086
:1013C00062FF00BF59484C3808F062FF0028F9D18D
:1013D00056484C3808F066FF00BF54484C3808F0B7
:1013E00066FF0028F9D1012150484C3808F069FF08
:1013F000002404E000204F490855601CC4B20A2CA8
:10140000F8DB00204C49087010B010BD02468A423B
:1014100002DD501A80B27047881A80B2FBE7F0B53F
:1014200002460B4600254FF6FF760024022B01DC16
:101430000020F0BD002110E032F81100A84201DDCB
:1014400032F8115032F81100B04201DA32F811606E
:1014500032F811000444481CC1B29942ECDBA41BD1
:10146000641B981EB4FBF0F087B23846E1E770B514
:101470003248007800B970BD00203049087000245F
:1014800011E000250BE02A4830F8150005EB450176
:101490002B4A02EB810121F81400681CC5B20A2D09
:1014A000F1DB601CC4B2062CEBDB002433E004EB60
:1014B0004401234A02EB81000621FFF7B0FF2149D6
:1014C00021F81400204A32F814101E4A32F8140091
:1014D000FFF79CFF0646962E15DC1A4830F81400DC
:1014E0001A4921F81400084630F8140028B11248AF
:1014F000007810B90120104908700F4800780128C1
:1015000001D10C4908550F4830F814000E4921F854
:101510001400601CC4B20A2CC9DB012103484C38FA
:1015200008F0CFFE00BFA6E7080002404C240140AF
:10153000CE110020C41100204100002040000020F6
:10154000E21100205A1200206E12002082120020A8
:101550000020FE490870FE490870FE490870FE49E7
:101560000870FE490870FE4908700520FD490870A2
:101570000020FD490880FD490880FD490880FD499B
:101580000880FD490860FD490860FD498882FD49E1
:101590008882FD490870FD490860FD490880704750
:1015A00010B5F748C07F18B1F548C07F042817D19F
:1015B0000120F34908770020487788770880F549AB
:1015C0000860F5490870F54988704FF080400AF0CE
:1015D0008AFEF24908800020C8720120E849C877D5
:1015E00010BD70B50446012C00DD0124FFF7D8FFC3
:1015F000002003F0ABFD4FF42F60E149488308461B
:1016000080F8204084B90021E5480AF053FEDC4808
:10161000408B00EBC005E81705EB5070C0F3CF011D
:10162000DF480AF045FE0FE00021DD480AF040FEE9
:10163000D348408B00EBC005E81705EB5070C0F3B2
:10164000CF01D7480AF036FE70BD10B5CD48C07F37
:1016500018B1CC48C07F042818D10120C9490877A7
:101660000020487788770880CE490860CE49087006
:10167000CE4988704FF080400AF035FECB49088093
:101680000120C049C8770020C849C87210BD70B594
:101690000446012C00DD0124FFF7D7FF012003F0F1
:1016A00055FD4FF42F60B7494883084680F8204025
:1016B00084B90021BA480AF0F7FDB248408B00EB2C
:1016C000C005E81705EB5070C0F3CF01B4480AF02D
:1016D000EDFD0FE00021B2480AF0E8FDA948408B7B
:1016E00000EBC005E81705EB5070C0F3CF01AC4824
:1016F0000AF0DAFD70BD10B5AD48007800B910BD34
:101700000020AB4908709F48C07FB8B99C48C07F93
:10171000A0B98E48007888B100208C490870A5498E
:101720000860A5490860A5490860A548007828B95F
:10173000A448007810B90020A349087083480078B5
:1017400090B9A248007801280ED1A148007840B98C
:1017500000209E4908706E220221462003F02AF8DC
:1017600002E000209B4908707848007850B99748FB
:10177000007838B99848007820B901209649087057
:101780009449087072480078012816D18D48007875
:10179000012812D17B48C07F78B990480078FFF7C4
:1017A00076FF8F4800887749C880002085490870F7
:1017B000012066490870664908706548007801286C
:1017C00016D17F480078012812D16D48C07F78B9C2
:1017D00084480078FFF705FF834800886849C8807F
:1017E000002077490870012058490870584908704E
:1017F00000BF84E700206249C8776249C877604922
:101800004883604948835E4988805E49888077497B
:101810000860774908607749086077490860564949
:101820000860564908606849087070475B49097A42
:1018300071B30021594A1172114649686F4AB2FBCF
:10184000F1F188B25449097810290CDA5149096834
:101850000144504A11604A4988804F490978491C1F
:101860004D4A117010E04B490968C1F30F11444A09
:101870009180484909680144464A11604049898875
:101880001268511A434A11600121444A91725172FF
:101890004649097A71B30021444A117211464968D8
:1018A000564AB2FBF1F188B23F49097810290CDAA7
:1018B0003C49096801443B4A1160324988803A49F1
:1018C0000978491C384A117010E036490968C1F39B
:1018D0000F112C4A9180334909680144314A116043
:1018E000284989881268511A2E4A116001212F4A0D
:1018F0009172517270472DE9F04F85B082468B4648
:101900004FF491700490049810F011FA06460F46B7
:10191000ABEB0A0010F00BFA80464FF03332384B35
:1019200010F06CFA0022374BCDE9000110F066FA96
:1019300032463B46CDE9020110F044F8044610F06F
:1019400099F900B205B0BDE8F08F000080000020DA
:10195000810000208200002083000020450000203C
:10196000A80000204E000020AE000020B0000020A3
:10197000AA000020AC0000207000002074000020AD
:10198000BC120020981200208C000020940000203F
:101990004A000020A40000209F000020EC1200203C
:1019A00000080040A00000209E000020E01200205F
:1019B0006300002090000020380100203C0100203E
:1019C0008500002084000020600000207C010020B1
:1019D0009C0200207E0100207D0100208A00002062
:1019E000860000208B000020880000205800002086
:1019F00054000020680000206C000020703839007E
:101A00003333AB3F00408F4010B5FE48007800B93B
:101A100010BDFD48007838B1FB480078012804D19A
:101A2000FA480078012800D0F2E70020F549087054
:101A3000F748C07F01282FD1F548408B41F2FE01C5
:101A4000884204DCF248408B3230F1494883F04848
:101A500090F8200080B90021EE480AF025FCEC48FF
:101A6000408B00EBC004E01704EB5070C0F3CF01D3
:101A7000E8480AF01BFC0FE00021E6480AF016FCDB
:101A8000E348408B00EBC004E01704EB5070C0F358
:101A9000CF01E0480AF008FCDF48C07F01282FD1C1
:101AA000DD48408B41F2FE01884204DCDA48408B7D
:101AB0003230D9494883D84890F8200080B90021B5
:101AC000D4480AF0F7FBD448408B00EBC004E01781
:101AD00004EB5070C0F3CF01CE480AF0E9FB0FE0F1
:101AE0000021CC480AF0E4FBCB48408B00EBC0045B
:101AF000E01704EB5070C0F3CF01C6480AF0DAFBE0
:101B000000BF85E72DE9F041C348C07F022805D01A
:101B1000BF48C07F022801D0BDE8F081BF480078EF
:101B200000B9F9E70020BD490870BD4800780028D9
:101B30005BD0BC48007898BB0120BA490870B64811
:101B40000089B9490880B4488088B0F52F7F0BDC44
:101B5000AF488088B0F52F7F06DC4FF42F70AE4978
:101B60000881AB49088118E0AB488088A84989887A
:101B70000144A9480089B1EB400F0EDCA6498988D1
:101B8000A34A9288881800EBD071C1F34F01A24A92
:101B90001181104600899E4908810A20A3490870D6
:101BA0009D4800899C49C96808449F490988884222
:101BB0000EDA99480089984989890844964908812C
:101BC00093480089924989890844914908810CE029
:101BD0009548008890490881934800888C4908817D
:101BE00000208F4908708F490870914800780028BC
:101BF0007DD09048007800284DD101208D49087093
:101C00008D48B0F900008D4908800A208749087086
:101C10008A48B0F9000000283EDD8948B0F900008C
:101C2000B0F5E16F04DA4FF4E160834908800CE01D
:101C30008348B0F900008049B1F90010884204DC03
:101C40007F48B0F900007C4908807B48B0F900006B
:101C50007A49B1F9001088425EDA6F48B0F9140091
:101C60007549B1F9001048437449B1F9001090FB6F
:101C7000F1F000B2684988826548B0F914006E49F5
:101C8000B1F9001048436D49B1F9001090FBF1F033
:101C900000B25F4988823FE06948B0F9000010F562
:101CA000E16F04DD4FF6F800634908800CE06448FA
:101CB000B0F900006049B1F90010884204DD6048C5
:101CC000B0F900005C4908805B48B0F900005B494E
:101CD000B1F9001088421FDD4F48B0F91400564991
:101CE000B1F9001048435549B1F9001000E03EE059
:101CF00090FBF1F000B2484988824548B0F91400E1
:101D00004D49B1F9001048434C49B1F9001090FB1E
:101D1000F1F000B23E4988824848B0F9000010F066
:101D200006F821F0004504463B490969424AB2F9E8
:101D3000002088180FF0FBFF21F0004106462246E4
:101D40002B4610F01FF808D23348008A3A49098818
:101D5000084400B23849088009E03848B0F900006A
:101D6000354908800020324908703249087000BFA8
:101D7000D2E670B52448007838B1234800780128AD
:101D800004D122480078012800D070BD2D48007889
:101D900000B9FAE700202B4908701D48C08840F2BE
:101DA000DC51884207DB1C48C088884203DB0520E1
:101DB000254908700CE01648C08840F2145188424A
:101DC00003DB1548C088884202DA0A201E490870E1
:101DD0000F48C07F02286FD11C48807A01286BD140
:101DE00000201A4988720A4A928811B2084AD28899
:101DF00010B2012203F0F8F904B2002C2CDD0448E3
:101E0000408B25E061000020800000208100002040
:101E10009812002000080040BC120020460000205C
:101E20006400002066000020CA000020A8000020F6
:101E300065000020670000204A000020CC00002040
:101E400032020020440000204E000020E01200205A
:101E50002044FE49488311E0604204B2FB48418BB4
:101E600004F5FA70814205DDF848408B001BF74904
:101E7000488303E04FF4FA70F4494883F348408BF9
:101E8000B0F58C5F03DD4FF48C50F0494883EF4888
:101E900090F8200088B90021ED480AF005FAEB48D7
:101EA000408B00EBC006F01706EB5070C0F3CF017B
:101EB000E7480AF0FBF910E020E00021E4480AF0CE
:101EC000F5F9E248408B00EBC006F01706EB5070C6
:101ED000C0F3CF01DE480AF0E7F9DC48C088C0EB68
:101EE000C00085B2ED10D9488088A84203DD0120EA
:101EF000D649887702E00020D4498877D548C07F4A
:101F0000022869D1D448807A012865D10020D249BD
:101F10008872D04A928811B2CE4AD28810B200227A
:101F200003F062F904B2002C05DDCA48408B20445E
:101F3000C849488311E0604204B2C648418B04F5A9
:101F4000FA70814205DDC348408B001BC1494883BC
:101F500003E04FF4FA70BF494883BE48408BB0F5A8
:101F60008C5F03DD4FF48C50BA494883B94890F830
:101F7000200080B90021B6480AF09CF9B548408B92
:101F800000EBC006F01706EB5070C0F3CF01B0486D
:101F90000AF08EF90FE00021AD480AF089F9AD484A
:101FA000408B00EBC006F01706EB5070C0F3CF017A
:101FB000A7480AF07FF9A748C088C0EBC00085B2E7
:101FC000ED10A4488088A84203DD0120A14988774C
:101FD00002E000209F49887700BFD6E69D48C07F79
:101FE00010B103209B49C87770479848C07F10B153
:101FF00003209649C877704702460B46D11A00293C
:1020000003DA48F6A040014404E048F6A0408142CB
:1020100000DD091A88B270472DE9F04F89B08F486A
:10202000007810B909B0BDE8F08F00208B49087026
:102030008B480078012807D18A480078012803D10D
:1020400089480078012800D0ECE78848007800B97A
:10205000E8E787480078401C854908707D48C07FC4
:1020600000287DD07B48C07F0328FAD081480168D2
:1020700081480068801C814207D880480078032886
:1020800003D07E48007801286BD17C48007858B195
:102090007A480078022807D078480078032803D0CF
:1020A0007648007801285BD1714800780A2857DB10
:1020B00000206F49087072480078401C7049087011
:1020C0006E48007890B90846007802281CDB002092
:1020D000087003226B48B0F900106B48B0F900009B
:1020E00003F082F800B2694908800DE06348007887
:1020F000022809D162480078042805DB00206049E5
:102100000870012007F0F1FC6048B0F9000044F6C7
:102110002061884203DD08465C49088009E05B488D
:10212000B0F900005A49884203DA4BF2E0105749EF
:10213000088002225748B0F900105448B0F9000056
:1021400003F052F805B24348B0F9140042F6E061DA
:10215000884201DB002D27DC3E48B0F9140001E085
:10216000B2E1B2E14C49884201DC002D1CDB4B4856
:10217000007801280CD13748808A284400B23549BC
:1021800088823248808A401B00B2304988820BE046
:102190003048808A401B00B22E4988822B48808AB2
:1021A000284400B2294988822A48008906B2294871
:1021B000B0F914003044002837DD2648B0F9140087
:1021C000304441F66411884207DC224800892149E5
:1021D000898A08441F49C88011E041F664101D49EE
:1021E000C8800846008941F66411081A00B21949EE
:1021F00088820846808A404200B214498882274873
:10220000007840B90020134981F8210008468088F1
:102210000FFA80FA70E001200E4981F8210008468B
:10222000808840420FFA80FA66E00A48008909492E
:10223000B1F914100844404241F66411884233DC7D
:10224000044800890349898A084429E0981200203B
:1022500000080040BC120020EC12002045000020C5
:10226000800000208100002082000020600000200B
:10227000A80000205000002058000020830000200B
:10228000CE00002030020020480000204A0000203C
:10229000E0B1FFFF3202002020D1FFFF8C000020C0
:1022A0004042FD49C88012E041F66410FA49C880F6
:1022B0000846008941F664110844404200B2F649DC
:1022C00088820846808A404200B2F4498882F448F5
:1022D000007848B90120F04981F82100084680883B
:1022E00040420FFA80FA07E00020EB4981F8210014
:1022F000084680880FFA80FAE74890F82000E649FF
:1023000091F82110884216D0E348C07F022812D1EC
:10231000E148C088B0F52F7F0DDBFFF75FFE01209D
:10232000E0490870DC48C088DF490880DA4890F846
:102330002100DE490870D948008906B2D748B0F9B3
:1023400014003044002837DDD448B0F9140030447C
:1023500041F66411884207DCD0480089CF49898A58
:102360000844CE49C88011E041F66410CB49C880CA
:102370000846008941F66411081A00B2C7498882EC
:102380000846808A404200B2C3498882C448007827
:1023900040B90020C14981F82100084680880FFA21
:1023A00080F945E00120BD4981F821000846808878
:1023B00040420FFA80F93BE0B8480089B749B1F9CB
:1023C00014100844404241F66411884208DCB348C6
:1023D0000089B249898A08444042B049C88012E065
:1023E00041F66410AD49C8800846008941F6641181
:1023F0000844404200B2A94988820846808A404287
:1024000000B2A5498882A648007848B90120A349AE
:1024100081F821000846808840420FFA80F907E0E1
:1024200000209E4981F82100084680880FFA80F933
:102430009A4890F82000994991F82110884216D0C6
:102440009648C07F022812D19448C088B0F52F7FEB
:102450000DDBFFF7CAFD0120954908708F48C08841
:10246000944908808D4890F821009349087009EB41
:102470000A0000EBD0714910904A11608648C0886C
:1024800041F66411884203DD08468349C88008E0AC
:102490008148C08840F28A21884202DA08467E4993
:1024A000C8807E48C08841F66411884203DD084632
:1024B0007A49C88012E07948C08840F28A2188426F
:1024C0000CDA08467549C88008E0FFF787FDFFF77A
:1024D0008CFD002076490870724908706F48C07FF3
:1024E000D8B16E48C07F032817D0754800780128FE
:1024F00013D07448016874480068801C81420CD86D
:102500006F480078032808D0FFF76FFDFFF766FDDE
:1025100000206749087063490870694800780128FD
:102520007DD16A48B0F90000002809DD6848B0F99B
:1025300000106848B0F90000FFF75EFD04460DE0AA
:102540006248B0F90000002808DA6248B0F90010CB
:102550005F48B0F90000FFF74FFD044644F25060B9
:10256000844206DD48F6B800844202DA01205A4966
:1025700008705A48007800280EDD57480078012876
:1025800009D1C82C07DC0020534908705348007853
:10259000401E524908706DE15148008848F6B80164
:1025A000884203DB4C48007800B93BE54C48008882
:1025B00048F6B801884204DA0846844201DA4948FC
:1025C000048049480078032806D04848006818B1BC
:1025D0004548007804285ED1414800880FF0BEFBD2
:1025E000CDE906014248B0F900000FF0A0FB21F050
:1025F0000041074600224FF080430FF0E3F9CDE998
:10260000020120460FF0AAFBCDE90001DDE902231B
:102610000FF024F9CDE90401DDE9062300E05AE1D9
:102620000FF0EAFC6CD833480078401CC0B2314946
:1026300008700A286EDB002008702D48B0F90000F1
:102640000FF075FB21F00041074600222A4B0FF0E6
:10265000D3FC09D82648B0F90000032190FBF1F023
:1026600000B22349088055E02148B0F900000FF07E
:102670005EFB21F0004107460022204B0FF0BCFC1E
:1026800048D21B48B0F9000000283ADD4FF4E16061
:10269000174908803EE09CE0BC1200209812002000
:1026A0008C00002085000020880000208B00002086
:1026B00084000020860000208A0000209000002076
:1026C000830000205000002054000020320200202F
:1026D0004800002030020020CF00002078000020B9
:1026E0007A0000207C0000209C0200205C0000207A
:1026F0004A000020D00000200018B54000209C4077
:102700003CE0F648B0F90000002803DA4FF6F80084
:10271000F2490880F2480088B0F5C87F17DBF0481E
:102720000088C838A04211DCED480088C8308442D7
:102730000CDCFFF753FCFFF758FC0020E949087058
:10274000E9490870E9490870E949087092E0E448ED
:102750000088844211DBE2480088C83084420CDCE7
:10276000FFF73CFCFFF741FC0020DE490870DE4922
:102770000870DE490870DE4908707BE0D8480088A0
:102780000FF0ECFACDE90601DA48B0F900000FF0DD
:10279000CEFA21F00041074600224FF080430FF0AF
:1027A00011F9CDE9020120460FF0D8FACDE9000178
:1027B000DDE902230FF052F8CDE90401DDE906233B
:1027C0000FF0E0FA56D2CB48B0F90000C3490880B8
:1027D00050E0C3480088B0F5C87F26DBC0480088B9
:1027E000C838A04246DCBE480088C830844241DC7C
:1027F000BA48B0F90000B0F57A7F03DD4FF47A7083
:10280000B6490880BC480068A0B3BC48B0F91400C1
:10281000C010BA498882BA48B0F91400C010B8494B
:1028200088820020B449086024E0AD4800888442D2
:1028300020DBAB480088C83084421BDCA748B0F9D5
:102840000000B0F57A7F03DD4FF47A70A349088069
:10285000A948006870B1A948B0F91400C010A74990
:102860008882A748B0F91400C010A54988820020CA
:10287000A1490860A348006860B3A04890F8200010
:102880009F4991F82010884207D19F4800689F49CE
:10289000096808444FEA500B0EE09B4909689B4ABF
:1028A0001268881A0FF043FA21F0004107460FF032
:1028B00011FA83464FEA5B0B92480068801C8345FF
:1028C00008D3FFF792FBFFF789FB002087490870C8
:1028D0008749087000BF00BF67E62DE9F041074651
:1028E0000C4615461E460A2F00DD0A270A2D00DD7C
:1028F0000A25012C00DD0124012E00DD0126002F18
:1029000001DDFEF7A2FE002D01DDFEF749FE304697
:10291000FEF767FE2046FEF7BAFEBDE8F08110B56F
:102920007648C07F042804D1744991F82000FEF74E
:1029300058FE7348C07F042804D1714991F82000E3
:10294000FEF7A5FE10BD10B57148007800B910BDA6
:1029500000206F4908706948C07F30B9002067497E
:10296000087748778880488333E06448C07F03282D
:102970002FD141F22461674809F09CFC41F22461A7
:10298000644809F095FC00205C49488341F2AF306F
:102990004883002008770846407F70B90020C87738
:1029A000888000215B4809F085FC0021594809F026
:1029B0007FFC0020514948830BE05048008B401CAD
:1029C0004E4908830846008B322802DD00204877F4
:1029D00008834B48C07F28B90020494908774877C9
:1029E00088802CE04648C07F032828D141F224612A
:1029F000484809F05BFC41F22461464809F054FC68
:102A000000203F49488308770846407F58B9002096
:102A1000C877888000213F4809F048FC00213D48E4
:102A200009F042FC0BE03648008B401C3449088317
:102A30000846008B322802DD00204877088300BF5B
:102A400085E700B5FFF7D1FAFFF7C8FA00BD10B56A
:102A50003148007800B910BD00202F4908702F4878
:102A60000078B0B901202D49087000202C49087069
:102A70002C4908702C4908702C4908702C490870A2
:102A80002C4908804FF6FF702B49088000202B4905
:102A900008701A48C07F022809D11948C07F02284F
:102AA00005D127480088401C2549088002E0002005
:102AB0002349088022480088322800DACBE73320F7
:102AC0001F4908800D4890F8200018B90C4890F86C
:102AD0002000C8B300201B490870BCE74A00002052
:102AE0007A000020D0000020CF00002084000020C9
:102AF000850000204C00002040010020BC12002076
:102B0000981200205C000020540000205800002093
:102B10006200002000080040B6000020D100002024
:102B2000B5000020B4000020B7000020B80000204D
:102B3000B9000020C6000020C8000020D2000020FC
:102B4000D4000020C2000020FFE7F9480078FA28EE
:102B50000CDAF7480078401CF54908700846007800
:102B6000C82811D10120F34908700DE00020F04978
:102B70000870F1490870F14908804FF6FF70F0497C
:102B800008800020EB490870EE48008800F5FA70D4
:102B9000ED490988884226DDEA480188EA4800882C
:102BA00000F5FA7081421EDAE6480088E7490968B4
:102BB0000844E6490860E6480078401CE44908708B
:102BC0000846007840281EDBE0480068C0F38F10FC
:102BD000E04908800020DE490870DC4908600120D7
:102BE000DD4908700FE00020D9490870D749086016
:102BF000D148007810B90020CD490870CE4800783F
:102C0000401CCD490870CF480088CC4909888842CB
:102C100003DDCC480088C9490880CA480088C849F3
:102C20000988884203DAC7480088C5490880C54832
:102C30000088C5490880C948B0F90600B0F5FA6FA8
:102C400005DCC648B0F9060010F5FA6F05DA012078
:102C5000C34908700020C3490870C148007860B1BA
:102C6000C0480078401CBF490870084600781E28FC
:102C700003DD00200870BA490870BB48B0F90010A5
:102C8000BA48B0F90000FFF7B7F9044644F25060C3
:102C900084420FDD48F6284084420BDAB0480078C1
:102CA00040B10220B24908700020AB490870B14918
:102CB00008703CE0782C10DD44F2506084420CDA5D
:102CC000A748007848B10120A949087000209A4916
:102CD00008700120A749087029E0A148007830BB9E
:102CE000A5480068A149B1F900100844A24908604C
:102CF000A2480088FF280DDCA0480088401C9F499E
:102D000008809D480068098890FBF1F000B2964960
:102D100008800CE098480068001200B292490880D0
:102D200095480068B1F90010401A9349086090482E
:102D30000078012802D08E48007818BB7E480078C1
:102D4000122803DB7A480078FA2810DD7B480088D7
:102D500040F6B831884242DD7848008878490988D1
:102D6000401AB0F5FA6F3ADD72480078B8B3022025
:102D70007F4908700020784908707E4908706D49C5
:102D800008702CE07A480078022802D07848007851
:102D900028BB7148007828B16E48008840F2DC51A9
:102DA000884210DB65480088B0F5FA6F17DA63488F
:102DB000008863490988401A40F2DC5188420EDAE3
:102DC0005C48007858B101206949087000205A49D0
:102DD000087001206749087000205649087000BF3C
:102DE00039E630B5664C6488B4F5967F7EDD644C78
:102DF000A488B4F5967FF9DD614C6488604DAD8898
:102E0000AC4256DB5E4C64885D4DAD88641B21B2DC
:102E1000B1F52F7F01DD002205E064244C430F252E
:102E200094FBF5F422B2C1EBC10421B2052491FB5D
:102E3000F4F421B2524C658801F59674A5421DDD6B
:102E4000642492FBF4F4A3B2282B00DD28234D4C1C
:102E5000E35C4B4C6488641AA4F596744A4D2C606C
:102E60002C4624685C432C602C46246804EB8404C4
:102E70002C602C462468A4112C6002E00024424DF2
:102E80002C60414C2468B4F57A6F03DD4FF47A640A
:102E90003D4D2C603D4C248814443B4D2D882C44E2
:102EA00020B244F25064A04202DDA0EB440420B200
:102EB00030BD334CA488324D6D88641B21B2B1F50E
:102EC0002F7F01DD002205E064244C430F2594FB95
:102ED000F5F422B2C1EBC10421B2052491FBF4F454
:102EE00021B2274C658801F5967400E073E0A54295
:102EF0004EDD642492FBF4F4A3B2282B00DD2823DA
:102F0000204CE35C1E4C6488641AA4F596741E4D34
:102F10002C602C4624685C432C602C46246804EB0F
:102F200084042C602C462468A4112C6033E000003B
:102F3000C5000020D2000020C2000020C6000020F2
:102F4000C800002082120020D6000020BC00002013
:102F5000C3000020C0000020C4000020E3190020AE
:102F6000B7000020B8000020380200203602002000
:102F7000B500002048190020DC000020D800002007
:102F8000A00100203D290108E000002030020020BF
:102F90000024CC4D2C60CB4C2468B4F57A6F03DD53
:102FA0004FF47A64C74D2C60C74C2488A41AC54DD1
:102FB0002D882C4420B244F25064A04203DDA0EBE3
:102FC000440420B206E0C14CA04203DA48F6A04413
:102FD000044420B26CE7BE4C6488BD4DAD88641BD0
:102FE00021B264244C430E2594FBF5F2B64C2488A0
:102FF000144420B200BF5BE710B50121880709F037
:1030000084F968B10121880709F090F9B148807806
:10301000401CB0498870B0488078401CAE49887028
:1030200010BD70B5022007F07FFC002873D002208D
:1030300007F08BFCA948007F012807D1A748407FF3
:10304000012803D0A4480088A54908604FF08040BB
:1030500009F049F90446A2480068844203D3A04815
:103060000068251A05E09E4800684FF6FF71081AAF
:1030700005199A48807F08B1962600E09626984860
:103080000460B54200D270BD9348C07A401C92499A
:10309000C8720846C07A022802DB0020C872F2E734
:1030A0008E48007F01280CD18C48407F012808D031
:1030B00001208A4948770846C07F012801D10220B3
:1030C000C877864890F8200028B986480068401CD8
:1030D0008449086009E0814890F82000012804D163
:1030E00080480068401E7F4908607F48007820B112
:1030F0007E480068401C7D490860002077490883AD
:10310000C88275480088A04206D273480088201AF9
:103110007149486008E00BE06F4800884FF6FF7186
:103120002144081A6C49486001206B4908720C80E0
:1031300000BFA8E770B5202007F0F6FB002878D084
:10314000202007F002FC4FF0804009F0CCF8044644
:103150006748007F012807D16548407F012803D0D8
:103160005C4800886349086062480068844203D371
:1031700060480068251A05E05E4800684FF6FF7158
:10318000081A05195A48807F08B1962600E096264D
:1031900058480460B54200D270BD4E48C07A401C09
:1031A0004C49C8720846C07A022802D10020C87271
:1031B000F2E74F48007F01280CD14D48407F01289D
:1031C00008D001204A4948770846C07F012801D12C
:1031D0000220C87746480088401C454908800846B8
:1031E00090F8200028B944480068401C4249086013
:1031F00009E03F4890F82000012804D13E480068CB
:10320000401E3D4908603848007820B13B480068BE
:10321000401C3A490860002035490883C8822D487F
:103220000088A04206D22B480088201A294948600D
:1032300008E00BE0274800884FF6FF712144081A88
:10324000244948600120234908720C804FF48070A3
:1032500007F06AFB30B14FF4807007F076FB012075
:10326000274908704FF4007007F05EFB40B34FF43D
:10327000007007F06AFB2348007808B3012080F350
:10328000138800BF00BF00BF00BF00BF00BFBFF377
:103290004F8F00BF00BF00BF1B48006800F4E06014
:1032A0001A490843001D1849086000BF00BF00BF4D
:1032B000BFF34F8F00BF00BF00BF00BF00BFFDE7DF
:1032C00000BF69E7E000002030020020B0B9FFFF36
:1032D000A0010020E0120020EC120020BC1200200F
:1032E000E40000206C000020600000205800002056
:1032F00098120020E8000020680000205400002000
:103300001E000020280000200CED00E00000FA055F
:1033100000B585B00121880308F096F80121480422
:1033200008F09FF84FF4E13001900020ADF808005C
:10333000ADF80A00ADF80C00ADF810000C20ADF8A7
:103340000E0001A9FE4809F038F801A9FD4809F06E
:1033500034F8012240F22551F94809F0C6F801225B
:1033600040F22661F64809F0C0F8012240F22551EA
:10337000F44809F0BAF8012240F22661F14809F058
:10338000B4F84FF4A06006F09BFE25208DF80000F5
:1033900001208DF8010002208DF8020001208DF837
:1033A0000300684606F091FE4FF4A06006F088FE28
:1033B00026208DF8000001208DF8010003208DF8F3
:1033C000020001208DF80300684606F07EFE012110
:1033D000DB4809F07EF80121DA4809F07AF800208C
:1033E000D9490870D9490870D9490870D949087075
:1033F0001420D94908800120D8490870D84908709C
:103400000020D84908706420D74908800020D74997
:103410000880D74908800120D64908700020D64985
:103420000870D6490870D64908703620D54981F809
:1034300036000020D4490870D4490860D449086097
:10344000D4490860D44908704870042008710020ED
:10345000D249087005B000BD10B5D148D149086007
:10346000084600680178B64809F0A0F810BD10B50C
:10347000CD48CE490860084600680178B14809F097
:1034800095F810BD10B540F22551AD4809F012F97C
:1034900000286DD040F22551A94809F035F9A84817
:1034A00009F088F8C4B2B3480078012824D1AA2CC6
:1034B00018D1BF480078AA2814D10120AF4908705C
:1034C0000020AF490870AB4908700120AA49087074
:1034D0000020B7490870B7490870B7490870B74964
:1034E000087009E0B2480078A52802D0B0480470FE
:1034F00002E00020AE4908700020B1490880B149BF
:103500000870B148AC4909784454AB480078401C75
:10351000A9490870A9480078401CA8490870964835
:103520000078012823D1552C17D1A24800785528BE
:1035300013D10120924908700020904908700120A1
:103540008C49087000208C4908709A490870984985
:10355000087001209D49087009E096480078A52868
:1035600003D100209349087001E09248047000BF25
:1035700040F22661724809F09DF8D8B140F2266108
:103580006F4809F0C1F887480068401C8549086009
:103590008F480078401EC0B28D490870002806DDB3
:1035A000804800680178664809F000F802E00120D0
:1035B0006A49087010BD10B540F22551614809F004
:1035C00079F8D0B140F225515E4809F09DF85D4888
:1035D00008F0F0FFC4B27F487F49097844547E4820
:1035E0000078401C7C4908707C480078401C7B496E
:1035F000087000207A49087000BF40F226615148E7
:1036000009F058F8D8B140F226614E4809F07CF82C
:1036100066480068401C6549086072480078401E92
:10362000C0B270490870002806DD60480068017863
:10363000444808F0BBFF02E001204949087010BD72
:1036400070B56948007800B970BD002066490870FF
:1036500066490868544CAA21217001216170262115
:10366000A170634909880912E17061490A782271E1
:10367000604909880A1262715E490A78A2715E493E
:1036800009880A12E2715C490A7822725B490A7859
:1036900062725B490A78A2725A490A78E272C27A67
:1036A0002273427B6273027BA273574909880A1214
:1036B000E27355490A782274544909880A126274DF
:1036C00052490A78A27452490A78E2744A49098830
:1036D0000A12227548490A7862754E4909880A0A11
:1036E000A2754C490A78E2754B490A7822764B4913
:1036F000C9880A0A627649498A79A27648490988BE
:103700000A12E27646490A78227746490A786277B1
:103710004549C9880A12A27743498A79E277434921
:10372000498B0A1220210A5540498A7E21210A55D7
:103730003F49498B0A1222210A553D498A7E79E088
:1037400000380140004400402C0100202D010020E1
:103750002E0100202F010020FC000020FA00002094
:10376000FB000020EE00002050010020520100204C
:10377000540100200501002006010020070100205F
:1037800008010020501500203401002038010020DD
:103790003C0100205C0000200B010020FE00002006
:1037A000F8120020F0000020F2130020F4000020A6
:1037B000090100200A01002003010020040100206B
:1037C000280100202B010020561400202A0100208F
:1037D000F8000020EC1700204D0100204C010020D3
:1037E0004E010020F9000020ED00002054020020CE
:1037F0001C000020AE01002016010020580200200D
:10380000180100203A020020C8000020C600002055
:103810008500002036020020B5000020E3190020BA
:10382000C0000020C400002082120020BC12002032
:103830009812002084F82320F84909880A1284F895
:103840002420F6490A7884F8252049880A1284F849
:103850002620F2498A7884F82720F1490A7884F8EA
:1038600028200026002505E0EE49495D3144CEB20E
:10387000691CCDB2A178C91CA942F5DCE9494E55B5
:10388000A178091DE84A1170FFF7F1FD0020E74912
:10389000087000BFD8E630B503464C1EE1B28A423C
:1038A00000DD30BD084604E01D5C441C1D55441E6F
:1038B000E0B29042F8DAA5249C5400BFF1E72DE96C
:1038C000F04F87B0DA48007810B907B0BDE8F08F44
:1038D000D848007800B9F8E70020D5490870D64CE0
:1038E000AA20207060701220A0708320E070002059
:1038F000A0807120C4F80600002507E0002104F133
:103900000A0000EB45000180681CC5B2082DF5DBFC
:10391000CA48817A807E41EA4000A076C848017892
:1039200004F10A00A4F81B10C648007810B9C64874
:10393000007818B9C5480178617706E0C448007876
:10394000C449097840EA41006077C348007818B15B
:10395000607F40F003016177C04800680EF004FE0C
:1039600001900EF069FC4FF03332BD4BCDE90201FE
:103970000EF044FACDE904010EF07CF98046B94816
:10398000B0F9000040420EF0EFFD01900EF054FC43
:10399000B54AB64BCDE902010EF030FACDE904018B
:1039A0000EF068F90646B248B0F9000040420EF049
:1039B000DBFD01900EF040FCAB4AAC4BCDE90201BF
:1039C0000EF01CFACDE904010EF054F90FFA80F95B
:1039D000C4F81E90A74800680EF0C6FD01900EF0D6
:1039E0002BFC0022A44BCDE902010EF007FACDE931
:1039F00004010EF03FF9C4F82200A04800680EF060
:103A0000B3FD01900EF018FC00229B4BCDE90201A2
:103A10000EF0F4F9CDE904010EF02CF9C4F82600FB
:103A2000C4F82A80C4F82E609548017884F83210D2
:103A30009448017884F83310002184F8341004F19C
:103A40000A00A4F835109048018804F10A00A4F88F
:103A500037108E4800688E4909680843C4F8390059
:103A60008C49B1F906000EF07FFD8B4900900EF0F5
:103A7000DBFD01900EF0E0FB4FF03332874BCDE9D8
:103A800002010EF0BBF9CDE904010EF0F3F84FEAA4
:103A9000204A8049B1F908000EF066FD7E49009089
:103AA0000EF0C2FD01900EF0C7FB4FF033327B4B9E
:103AB000CDE902010EF0A2F9CDE904010EF0DAF829
:103AC0004FEA204B04F10A00A4F83DA0A4F83FB04F
:103AD00031B2A4F841106F48018804F10A00A4F83B
:103AE00043106C48418804F10A00A4F84510694865
:103AF000818804F10A00A4F84710002184F84910D5
:103B0000A4F84A10A4F84C10A4F84E10A4F85010D1
:103B1000A4F852106248008800EB8000400041F297
:103B2000A86101EBE0005F490978484381B204F1E4
:103B30000A00A4F85410002184F8561084F8571095
:103B400084F8581084F859105748007810B984F850
:103B50005A1002E0012184F85A10544890F82000CD
:103B600038B952488188C4F85B10418BC4F863109F
:103B70000EE04E4890F82000012809D14B4880887B
:103B80004142C4F85B104948408B4142C4F863107D
:103B9000474890F8200038B945488188C4F85F103C
:103BA000418BC4F867100EE0414890F820000128CE
:103BB00009D13F4880884142C4F85F103C48408B9F
:103BC0004142C4F86710002184F86B1084F86C102F
:103BD00084F86D102B48017884F86E103548008801
:103BE00048F6CC514843C0F38F2104F10A00A4F8F1
:103BF0006F10B4F85F2011B2B4F85B2010B2FDF77B
:103C00007AFE2D49088008460088801B01B204F125
:103C10000A00A4F87110002556E00000821200206E
:103C2000C2000020F2130020F9000020FB00002059
:103C3000EC000020FA000020F8120020C818002034
:103C4000AD0100207C0100207D01002071010020D9
:103C50006E0100206F010020AC01002090000020C8
:103C60003333AB3F32020020BC7493180456C63F76
:103C700030020020680000200080C93F6C00002056
:103C8000C2010020C1010020AE010020400100203F
:103C900044010020E31900200000FA43337331404F
:103CA00012020020FF0100209C0200209812002038
:103CB000BC120020E00100209C000020002104F143
:103CC00073004155681CC5B2082DF7DB002084F84D
:103CD0007B00A0790B30FC4908700027022505E025
:103CE000FA48405D3844C7B2681CC5B2F64800784F
:103CF0008542F5DB84F87C70F3480078401CF2497B
:103D000008700A251AE0F148405DAA2807D0EF485C
:103D1000405D552803D0ED48405DA5280CD12A46CA
:103D2000E9480178E948FFF7B6FDE7480078401C0C
:103D3000E5490870681CC5B2681CC5B2E248007845
:103D40008542E0DB5520E14948555521DF4A681C92
:103D50001154DD480078801CDB490870FFF77CFBBC
:103D60000020DB49087000BFAFE52DE9F0410024D9
:103D7000B7E004EB041000EB4410D649084490F877
:103D80003000002879D0D24800780028FAD00020EE
:103D900004EB041101EB4411CE4A114481F83000C8
:103DA000CA4EAA203070707004EB041000EB44106F
:103DB0001146085CB07004EB041000EB441008449A
:103DC0004088B08004EB041000EB441008444068C5
:103DD000C6F80600012C09D14FF0180804EB0410B6
:103DE00000EB441008444078F07010E004EB04103D
:103DF00000EB4410B749084490F8048004EB041029
:103E000000EB44100844407840F08000F07000253A
:103E10000CE004EB041000EB4410AE4908440830F9
:103E2000415D06F10A004155681CC5B24545F0DB0D
:103E3000012C08D0002106F10A00415508F10B00C1
:103E4000A149087003E008F10A009F4908700027A3
:103E5000022505E09D48405D3844C7B2681CC5B2E4
:103E6000994800788542F5DB984847559648007890
:103E7000401C954908700A251BE030E09348405DDE
:103E8000AA2807D09148405D552803D08F48405D4F
:103E9000A5280CD12A468C4801788C48FFF7FBFCFA
:103EA00089480078401C88490870681CC5B2681CA5
:103EB000C5B2854800788542E0DB552083494855E6
:103EC0005521824A681C11547F480078801C7E4925
:103ED0000870FFF7C1FA00207D49087004E0601CFB
:103EE000C4B2072CFFF645AF00BF7B4890F8E8004E
:103EF000002876D076480078002872D000207649D5
:103F000081F8E800714EAA20307070701220B070F5
:103F10000846407840F08000F07008464088B08045
:103F200008464068C6F80600002407E06A480830E2
:103F3000015D06F10A000155601CC4B26648406884
:103F4000A042F3D8002106F10A0001556248007929
:103F50000B305D4908700027022405E05B48005DD6
:103F60003844C7B2601CC4B2574800788442F5DBBD
:103F70005648075554480078401C534908700A2495
:103F80001AE05248005DAA2807D05048005D552825
:103F900003D04E48005DA5280CD122464A4801783E
:103FA0004A48FFF778FC48480078401C46490870AA
:103FB000601CC4B2601CC4B2434800788442E0DB99
:103FC0005520424908555521404A601C11543E482D
:103FD0000078801C3C490870FFF73EFA00203C49FD
:103FE0000870BDE8F0813D4800884FF6FF718842B7
:103FF0001FDA3A480088401C384908800846008883
:1040000064280EDB0020364908703649087001200C
:104010003549087000203549087035490870354920
:1040200008702E480088B0F57A7F02DB0120324903
:10403000087032480078FF2812DA30480078401CB7
:104040002E490870084600780A2809DD2C480078B7
:10405000002802DD01202B49087000202A49087041
:10406000704710B5274B1B7803B910BD0023254CB2
:10407000237026480378AA2B03D00023204C2370FA
:10408000F3E70022002105E0204B5B5C1344DAB229
:104090004B1CD9B28378DB1C8B42F5DC1B4B5B5C81
:1040A000934203D00023164C2370DEE70123184C03
:1040B00023704378012B2FD18378002B02DDC37846
:1040C000144C237029E00000F8000020F8120020B2
:1040D000FA00002087150020DE16002028010020AD
:1040E0000801002007010020050100200601002032
:1040F000090100200A0100202B0100204E010020B0
:104100004C0100204F0100204D010020EC17002041
:10411000E3020020E202002000BF00BF0023FE4CAB
:10412000237000BFA1E710B5014609B9042004E0DF
:10413000012901D1062000E010BD002200EB001390
:1041400003EB4013F54C23445A70202200EB00137C
:1041500003EB4013E254002200EB001303EB401387
:1041600023445A80012200EB001303EB4013234445
:104170005A6000EB001202EB401223461A441172FF
:10418000012200EB001303EB4013234483F830209B
:1041900000BFD1E710B5E248007800B910BD00209B
:1041A000DF490870DD4862300DF0ACFA20B1012122
:1041B000DA4880F8921003E00021D84880F8921085
:1041C0000020FFF7B0FF00BFE8E72DE9F04104460B
:1041D0000D4616461F462079A84203DDA81921790D
:1041E000884202DD0020BDE8F08160193246394680
:1041F0000DF00EF80120F6E701460A46002A02DA21
:10420000484202B200E00A4690B270472DE9F047FA
:104210008046894644464D4674B96DB9C148007818
:1042200040B1FDF7DBFEFDF7E0FE0020BE4908705F
:10423000BE490870BDE8F087002C01DB002602E0D3
:10424000002C00DA01262046FFF7D6FF04B2002D2D
:1042500001DB002702E0002D00DA01272846FFF7E6
:10426000CBFF05B23CB9FDF7C0FE0020B049C880C5
:10427000AD49087031E041F27070844201DD0446BE
:1042800006E0B4F52F7F02DA4FF42F7400E000BF90
:10429000A74890F82000B04202D0A548C07F40B99E
:1042A000A34890F82000B0420FD1A148C07F032856
:1042B0000BD1FDF79AFE01209B4908709D490C80A7
:1042C0009D4806709A49CC8007E09949CC80084601
:1042D000C07F10B93046FDF7DAF92DB9FDF77EFE43
:1042E00000209649C88031E041F27070854201DDBE
:1042F000054606E0B5F52F7F02DA4FF42F7500E092
:1043000000BF8E4890F82000B84202D08B48C07F92
:1043100040B98A4890F82000B8420FD18748C07F42
:1043200003280BD1FDF75AFE01208049087084490B
:104330000D808249CD808348077007E07F49CD809A
:104340000846C07F10B93846FDF74BF90120754982
:1043500008707D49087000207C49087000BF69E73B
:104360002DE9FF5F04468A4650460EF0FDF883466D
:1043700058460DF061FF764A764BCDE902010DF00B
:104380003DFD07460DF076FC05B2601906B2601BD4
:104390000FFA80F9C82E03DA16F1C80F00DD0026E7
:1043A000B9F1C80F04DA19F1C80F01DD4FF00009A7
:1043B00049463046FFF72AFF002E07DB00205C4904
:1043C00081F821000846C08806B207E0012058495C
:1043D00081F821000846C088404206B2B9F1000FBA
:1043E00008DB0020554981F821000846C0880FFAF3
:1043F00080F908E00120514981F821000846C08871
:1044000040420FFA80F906EB090000EBD071491029
:104410000CB2A6EB090000EBD07149100DB2002CD4
:104420000CDB43490C8145490C81684200B288820B
:104430003F4885820020484908700EE060423C49B0
:10444000088160423D49088108468582684200B281
:104450003749888201204049087028460EF084F8C8
:1044600001900DF0E9FE3D4A3D4BCDE902010DF012
:10447000C5FC07460DF0C0F9834658460EF038F8E3
:1044800000B238490880022000F060FE032000F0EE
:104490005DFE3548B0F900003449088001203449F8
:1044A00008702049087028490870284908700320BE
:1044B00030490870BDE8FF9F2DE9F04704462046CB
:1044C0000EF052F882460DF0B7FE07464FF0143258
:1044D000294B0DF093FC05460DF0CCFB8146484678
:1044E000BDE8F0872DE9F04106460F4614461D460B
:1044F00048F6A04094FBF0F0204908700846007888
:1045000048F6A04101FB10401D4908802846FFF7EE
:10451000D3FF1C49086037E04C01002087150020BC
:10452000EE00002080000020840000208500002094
:1045300098120020860000208A000020BC12002073
:10454000880000208B0000208100002082000020D5
:10455000639AD693E67CDE3F8C00002038732B2DC7
:1045600026CB00404A0000203002002048000020F6
:104570006000002083000020141414407800002004
:104580007A0000205C00002039463046FFF7E8FE44
:104590000020F7490860F7490860F7490880F748A4
:1045A000B0F90000F64908800120F6490870BDE81E
:1045B000F0812DE9F047044620460DF0D5FF8246F4
:1045C0000DF03AFE0746F04AF04B0DF017FC054699
:1045D0000DF050FB81464846BDE8F0872DE9FF4FBE
:1045E00087B09B46DDF81C80099C089806905F46C2
:1045F000022F00DD0027B8F1000F70DD4FF4B4701A
:1046000098FBF0F0E24908704FF4B47098FBF0F1B9
:1046100000FB1180DF4908800846008800EBC001DC
:1046200001EB00104FF6FF7101EA8000D9490880C4
:104630004046FFF7BEFF1FFA80F82046FFF7B9FF9C
:10464000C0EB0010C0F38D041FB14FF6FF7000EAFD
:10465000440441F27070844201DD044606E0B4F582
:104660002F7F02DA4FF42F7400E000BF0698012874
:1046700011D127B926B225B2684205B21FE0012F39
:1046800002D126B200251AE0022F18D125B26842C5
:1046900005B2002613E00698022810D127B925B2EA
:1046A00026B2704206B20AE0012F02D1002625B2DE
:1046B00005E0022F03D126B2704206B20025022087
:1046C00000F044FD032000F041FDB348B0F90000C4
:1046D000B249088027B9B248C0F8008004E066E01B
:1046E0004FEA4800AE49086031462846FFF78EFD84
:1046F000A81900EBD07149100FFA81F9A81B00EB43
:10470000D07149100FFA81FA50460DF02DFF01903B
:104710000DF092FDA34AA44BCDE902010DF06EFB12
:10472000CDE904010DF0A6FA00B2944908800846CC
:10473000B0F9000092490880B9F1000F10DB9B49E5
:10474000A1F808909A49A1F80890CAF1000000B2B7
:1047500088829648A0F814A000209649087012E0BC
:10476000C9F1000091490881C9F100009049088110
:104770000846A0F814A0CAF1000000B28B49888254
:1047800001208C4908700020794908607949086047
:10479000894908607849088001208849087088495B
:1047A00008708849087088490870764908700BB00D
:1047B000BDE8F08F2DE9F04706468846914637461A
:1047C0004C46C246002F62DD3846FFF775FE87B2C1
:1047D0002046FFF771FEC0EB0010C0F38F0441F2DA
:1047E0007070844201DD044606E0B4F52F7F02DAE2
:1047F0004FF42F7400E000BFBAF1010F0AD125B2C7
:1048000000206B4981F82100684981F8210069493D
:1048100008700EE0BAF1020F0BD125B2684205B262
:104820000120634981F82100604981F82100614934
:10483000087029462846FFF7E9FC5C4804815C487B
:10484000048100205A49888258498882022000F059
:104850007DFC032000F07AFC0020484908804E4887
:10486000B0F900004D4908804D48076000204049DC
:10487000086040490860012050490870504908709C
:10488000504908705049087000203E490870BDE842
:10489000F0872DE9F0478246BAF1000F1CD0504650
:1048A0000DF045FA0646494A494B0DF0A7FA044671
:1048B0000022484B0DF086F880460DF0DBF93C49AC
:1048C000C8600846C0683949C8600120424908707C
:1048D00000204249087004E000203F4908703F4929
:1048E0000870BDE8F0872DE9F04104460D461646F4
:1048F0001F4694F83600A84204DDA81994F8361033
:10490000884202DD0020BDE8F08160193246394658
:104910000CF07EFC0120F6E710B503464C1EE1B218
:104920008A4200DB10BD104604E0441C1C5D1C5490
:10493000441CE0B28842F8DB00BFF3E72DE9FC5FDE
:104940002748007840B12748007810B926480078F9
:1049500008B9BDE8FC9FFCE72448007800B9F8E7F7
:10496000002022490870224C2078AA2842D079E3FE
:1049700054000020580000207E0000204A00002043
:104980004C00002083000020FDD5327B15682940B3
:10499000780000207A00002030020020480000202B
:1049A0005000002038732B2D26CB00409812002099
:1049B000BC1200208C0000205C0000206000002061
:1049C000800000208100002082000020D3D2D2D2BB
:1049D000D2D232400000694064000020660000200E
:1049E0002B0100207C0100207D0100202A010020F5
:1049F000561400204FF0010917E0FE4810F8090096
:104A0000A5280ED14A46FC480178FA48FFF784FFF2
:104A1000F9480078401EF849087009F1010000F0DB
:104A2000FF0909F1010000F0FF09F3480078801E3A
:104A30004845E2DC4FF0000A4FF0010909E0ED487B
:104A400010F80900504400F0FF0A09F1010000F0DD
:104A5000FF09E9480078001F4845F0DAE54810F8FA
:104A60000900504500D0FDE2E3480078401EE149CE
:104A7000085C552800D0F5E2607812287ED1A07835
:104A800008287CD2DFE800F07B0464EFEE7B7BED4E
:104A90000120DA4981F83000487012200870B4F81B
:104AA00003004880D4F805004860D54800680DF040
:104AB0005BFD00900DF0C0FB07464FF03332D14B49
:104AC0000DF09CF905460DF0D5F88346CE48B0F9B7
:104AD000000040420DF048FD00900DF0ADFB074690
:104AE000CA4ACB4B0DF08AF905460DF0C3F8019088
:104AF000C2484088C14949680844082827D8BF49A6
:104B000088781CE004280CDAC0F10301C9004BFAD4
:104B100001F1CAB2B9494988431AB8490831CA549F
:104B20000BE0C0F10701CA0001991141CAB2B349B3
:104B30004988431AB1490831CA54411CC8B2AF4927
:104B40004968AE4A528811448142DBD800BF7AE2FC
:104B50006279E17804F10903AE48FFF7C4FE00284A
:104B60007ED0AC4908680DF0FFFC83460DF064FB75
:104B70000746A94AA94B0DF041F901E064E261E260
:104B800005460DF077F8A6490860A24949684842F1
:104B90000DF0EAFC83460DF04FFB0746A14AA24BFD
:104BA0000DF02CF905460DF065F8A049086099490B
:104BB000B1F9151048420DF0D7FC83460DF03CFBCF
:104BC0000746984A984B0DF019F905460DF052F832
:104BD000974908608F48C07E9649097888421FD05F
:104BE0009448007820B901209349087093490870CF
:104BF0008848C07E502803DA0A209149088003E0E3
:104C00004FF461608E4908808248C07E20B9002040
:104C100089490870894908707E48C07E85490870B6
:104C20007C4890F8250087490978884211D085484A
:104C3000007810B9012084490870764890F8250062
:104C400010B9002080490870724890F825007D490D
:104C50000870704890F824007C490978884203E085
:104C6000B6E1DEE1B6E1B4E104D06A4890F8240090
:104C7000764908707648007810B97648007800B90F
:104C800067E66448007A20B101286FD003286BD111
:104C900078E07148007878B96F480078002863D1CF
:104CA0006E48006861490968884205D15C4800681F
:104CB0006B490968884257D05C48008801B258485F
:104CC000008800B2FFF74CFB002066490870664977
:104CD000087066490860604908704E49D1F80900BB
:104CE0000DF025F84C4A4D4BCDE900010DF086F84A
:104CF000054600225E4B0CF065FE07460CF0BAFF3D
:104D00005C49C8600846C0685B49C8604149D1F841
:104D10000D1048420DF028FC83460DF08DFA414AF3
:104D2000414BCDE900010DF069F805460022504BDA
:104D30000CF048FE07460CF09DFF4E4908610846FE
:104D400000694D4908614B48C06828B101204B49B2
:104D5000087000204A490870344800683F490860DC
:104D60002F4800683E49086031E1FFE703203D49D4
:104D7000087000203C4908703C4908600120364911
:104D8000087024E13848007860B13E48007840B9A6
:104D90003D48007828B93D48007810B900203349D3
:104DA00008605FE10020FFF774FD01202E490870C4
:104DB00000202C49087003202749087001202B4946
:104DC00008601B48006898B91248D0F8110078B103
:104DD0001049D1F811000CF0AAFF21F0004105465E
:104DE0000CF048FF0B49C1F811000D4800684FE076
:104DF0007EE00000561400200401002087150020EA
:104E0000900000203333AB3F32020020BC74931873
:104E10000456C63F50150020D3D2D2D2D2D232404F
:104E200094000020EC51B81E85EB1640980000203D
:104E30001001002014020020FF010020481900206A
:104E40001202002016020020FE01002015020020A0
:104E50007C0100207D010020340100203C01002065
:104E6000380100209C020020330100204001002076
:104E700000006940BC12002098120020640000204D
:104E800066000020800000208500002084000020B3
:104E9000002811DD08680CF04AFF21F000410546AA
:104EA0000CF018FF87B29A49B1F8111088B23A464F
:104EB0000121FFF77FFC89E096480068002812DA9C
:104EC000934908680CF033FF21F0004105460CF0CF
:104ED00001FF87B28E49B1F8111088B23A4602211B
:104EE000FFF768FC72E000210846FFF78FF96DE0DC
:104EF00089480068E8B38648D0F81100C8BB8648E6
:104F000000680CF014FF21F0004105460CF0B2FEE1
:104F10008149086081480068002812DD7F480088C8
:104F200080B2642190FBF1F085B27B48006890FB71
:104F3000F1F086B200232A4602213046FFF74EFBED
:104F400044E076480068002814DA7448008840423B
:104F500080B2642190FBF1F085B26F48006890FB4D
:104F6000F1F086B200232A4601213046FFF736FBD6
:104F70002CE004E000210846FFF748F926E06648E7
:104F8000006818B36248D0F81100F8B16049D1F850
:104F900011000CF0CCFE21F0004105460CF09AFE09
:104FA00007465D4800680CF0C2FE21F0004105464E
:104FB0000CF090FE1FFA80F83B46424657480088A6
:104FC00001B25448008800B2FFF78CFA00BF00BF5E
:104FD00039E038E004205249487012200870B4F8D3
:104FE00003004880D4F805004860084640884968B6
:104FF0000844E02814D84A49887809E049490A5CFD
:1050000047494988431A46490831CA54411CC8B225
:1050100043494988424A526811448142EED800BF50
:1050200011E04149601C0CF043FB28B101213E48CE
:10503000313880F8611004E000213B48313880F8B5
:10504000611000E000BF0CE06078202809D1A07852
:10505000012806D16279E17804F109033348FFF7AA
:10506000B4F800BF00203249087000BF71E400228C
:105070002D49313981F89420FD212B4A313A82F8AB
:105080009310002228493139A1F895200422C1F853
:10509000972081F89B00021281F89C20021481F86D
:1050A0009D20021681F89E20012281F8C3207047BE
:1050B00001211D48313880F8F61020201A49313975
:1050C00081F8F500002118483138A0F8F7100121C7
:1050D000C0F8F910174801781348313880F8FD10EE
:1050E000012180F82511704758B1C82190FBF1F1DA
:1050F000114A11610121114A11700021104A1170E9
:1051000004E000210F4A11700F4A1170704700002F
:10511000501500209400002010010020980000206D
:10512000DE16002066290108B81500200B010020BA
:1051300004010020FE000020BC12002064000020BA
:10514000660000206500002067000020042800DDC4
:1051500070470021984A42F82010984A22F810100F
:1051600002280CDA9649974A42F820109649974A45
:1051700042F820109649974A42F8201032E002285F
:105180000CD195498F4A42F8201094498F4A42F831
:10519000201000218F4A42F8201023E003280DD16F
:1051A0004FF07F51874A42F820108D49874A42F8D4
:1051B00020100021874A42F8201013E0042811D162
:1051C0008849804A42F820108749804A42F82010D6
:1051D0000021804A42F820108449098809B2774AA0
:1051E00022F8101000BFB3E72DE9F74F82B08946CF
:1051F0001446042C03DD002005B0BDE8F08F0298B2
:10520000A0EB0905032C0CD144F25060854202DD6D
:10521000A5EB400505E07648854202DA48F6A04055
:10522000054440F2DC5B28460DF09EF98246654855
:1052300050F8241050460DF0F7F9824657465D4568
:105240001BDCCBF10000854217DB5B4850F82400E3
:105250002844594941F8240051F824000DF084F9FC
:1052600001905C4850F8241001980DF0DDF9824659
:10527000514638460DF00CF80746504830F91400F6
:10528000A0EB090528460DF06FF982464F4850F80B
:10529000241050460DF0C8F98246514638460CF0AD
:1052A000F7FF0746454820F81490032C06DA32260B
:1052B000454938460DF05AF8074608E0032C02D15C
:1052C00043F6982603E0042C01D143F698260021EA
:1052D00038460DF075FA0FD830460DF045F93946CD
:1052E00001900DF06DF901D2B04615E038460DF091
:1052F000FFF80FFA80F80FE070420DF035F93946EB
:1053000001900DF05DFA02D2C6F1000804E03846C3
:105310000DF0EEF80FFA80F840466DE770B50546DF
:105320003448B0F900000DF01FF904463249204618
:105330000DF07AF90446264628460DF015F9044684
:105340002E4920460DF070F90446214630460CF0F7
:105350009FFF06462A48B0F900000DF005F9044603
:10536000284920460DF060F90446214630460CF0ED
:105370008FFF06462448B0F900000DF0F5F804460A
:10538000224920460DF050F90446214630460CF0E3
:105390007FFF06461A48B0F900001B4908801848EC
:1053A000058030460DF0A4F800B21249088030465E
:1053B0000DF09EF800B270BD501800206418002057
:1053C00000007041141800200000C8422818002076
:1053D000CDCCCC3D3C1800200000A03F000048414F
:1053E00000009041000020410000C843AE010020B1
:1053F000B0B9FFFF560100206F12833A1F85EB3FC3
:10540000580100207B14EE3F5A010020B29DEF3E70
:1054100000BF00BF00BFBFF34F8F00BF00BF00BF82
:10542000FA48006800F4E060F9490843001DF749B4
:10543000086000BF00BF00BFBFF34F8F00BF00BFB9
:1054400000BF00BF00BFFDE710B5F2480078092893
:105450007ED2DFE800F0B3050AB33D42B3B350009B
:1054600040F6B830FFF703FEA9E0EB48007838B308
:10547000EA480078E0B980220021032001F092FD83
:10548000FBF7F9FCFBF72AFD0021E54804F0D9FE03
:105490000021481E05F0E5FF00216FF0410005F0F6
:1054A000D3FF0121084605F019FE0120DB490870F1
:1054B000DA48007858B1012000F056FAFFF7A8FF4B
:1054C000D848007818B140F6BA30FFF7D0FD76E042
:1054D00040F6B930FFF7CBFD71E0CF48007848B116
:1054E000D148007830B90120CF49087040F6BC306F
:1054F000FFF7BDFD63E0C848007838B3C7480078BF
:10550000E0B980220021032001F04CFDFBF7B3FC41
:10551000FBF7E4FC0021C24804F093FE0021481E82
:1055200005F09FFF00216FF0410005F08DFF012184
:10553000084605F0D3FD0120B8490870B748007847
:1055400060B3012000F010FAFFF762FFB54800E0F9
:1055500034E0007810B3B548007800BB0320B349AD
:1055600008700520B24908700020B24908704FF653
:10557000FF70B14908800020B0490870B048B0F908
:105580000000B04908800020AF4908700120AF49F1
:105590000870AF48B0F90000AE4908800DE0002067
:1055A000A2490870A2490870A44908700021084661
:1055B000FEF72CFE0020A549087000BF00BF00BF09
:1055C00010BD10B5A448007800B910BD0020A24954
:1055D00008709448007800B9F7E74FF400719F48CD
:1055E00005F0AFFA30B19E48007820F002009C49E7
:1055F000087005E09A48007840F002009849087069
:105600004FF48061954805F09CFA30B194480078D9
:1056100020F004009249087005E09148007840F0BD
:1056200004008F4908704FF480718E4805F089FAA4
:1056300030B18B48007820F008008949087005E0F7
:105640008748007840F00800854908708448007851
:10565000854908708548007820B1012817D00228B4
:105660005AD127E0002082490870824908706A49AF
:1056700008707D480078002805DD6648007810B97C
:1056800001207A49087000206749087048E0764890
:10569000007860490978084040B1022073490870D9
:1056A00073480078401C7249087002E000206F497E
:1056B000087035E06C48007848B9564800780028F2
:1056C00005DD002069490870FFF7BEFE23E066484B
:1056D000007800B34F480078E8B165480078401C76
:1056E0006349087008460078282814DB01204A49DD
:1056F000087060480078401C5E49087008460078D1
:10570000092801DD092008705A4800781E305849E0
:105710000870FFF799FE03E000205449087000BFAD
:1057200000BF514800783B49087000BF4DE770B595
:105730000446002532E004F0010028B101221021C6
:105740004D4805F01CFA04E0002210214A4805F0FB
:1057500016FA00222021484805F011FA00BF00BFC8
:1057600000BF00BF00BF00BF00BF00BF00BF00BF41
:1057700000BF00BF00BF00BF00BF00BF00BF00BF31
:1057800000BF00BF00BF00BF00BF00BF012220213B
:10579000394805F0F4F96410681CC5B2082DCADB5D
:1057A00070BD10B5044601221146344805F0E7F9F2
:1057B00000220121314805F0E2F92046FFF7B7FF4A
:1057C00010BD30B5024652B949B900242C4D2C7099
:1057D0006C70AC70EC702B4C24782C7130BD0420B4
:1057E0000FE00A2492FBF4F504FB1524A3B2254C28
:1057F000E45C234D2C540A2492FBF4F4A2B2441E20
:10580000A0B20A28EDDBF9BB002049E00CED00E076
:105810000000FA05620100205E010020280000203F
:10582000002401403B0200205F0100209C02002078
:105830009D0200209E020020A0020020A90200205C
:1058400030020020A4020020B702002048190020E6
:1058500036020020380200205C01002000140140C4
:105860006001002000180140610100206301002058
:10587000640100206501002000100140000C01407F
:105880006E180020462A01080DE03A4C245C5F2C7B
:1058900003D10024374D2C5400E003E0441CA0B297
:1058A0000528F2DB00BF00BF98E7704710B5002461
:1058B00000212046FFF785FF10BD10B52E48007867
:1058C00000B910BD00202C4908702C48007828B180
:1058D0004FF4E1512A4806F0E7FC25E02948018809
:1058E000274806F0E1FC2848008870B92548008860
:1058F000B0F57A7F05DD23480088FA382149088011
:1059000012E00120204908800EE01E48008841F284
:105910007071884205DA1B480088FA3019490880FE
:1059200002E00020184908801848007828B10122B8
:105930009102174805F023F905E000224FF4806139
:10594000134805F01CF91348007828B10122D10250
:105950000F4805F014F905E000224FF400610C48EF
:1059600005F00DF900BFACE700F0010181F31388E9
:10597000704700006E1800205D0100203B020020EF
:10598000002C0140680100206A0100206F01002006
:10599000001801406E0100200021FE4A1170FE4AED
:1059A0001170FE4A1170FE4A1170FE4A1170FE4AD3
:1059B0001170FE4A1170FE4A11700121FD4A1170EA
:1059C0000021FD4A1170FD4A1170FD4A1170FD4A17
:1059D0001170FD4A1170FD4A1170FD4A1170FD4AA7
:1059E00011801021FC4A116000201AE00021FB4ABE
:1059F00002EB00129180F94A02EB00121160F74AA3
:105A000002EB00129172F54A02EB00125172F34A56
:105A100002EB00121172F14A02EB0012D180411C1C
:105A2000C8B20528E2DB002020E04FF6FF71EC4A07
:105A300002EB001291800021E94A02EB0012116092
:105A4000E74A02EB00129172E54A02EB0012517232
:105A5000E34A02EB00121172E14A02EB0012D1801C
:105A6000DF4A02EB00129181411CC8B20228DCDB44
:105A700070472DE9FC41DB48007808B9BDE8FC819E
:105A80000020D8490870C4480678C2480578C6483E
:105A90000778002407E0D14800EB0410807A0DF865
:105AA0000400601CC4B2052CF5DB0121CE4805F0D2
:105AB00048F818B10020B849087002E00120B64942
:105AC00008700221C84805F03CF818B10020B1491F
:105AD000087002E00120AF490870AF480078B0427A
