:020000040800F2
:10000000A8250020F9A0000801A1000803A100080C
:1000100005A1000807A1000809A1000800000000D0
:100020000000000000000000000000000BA100081C
:100030000DA10008000000000FA1000811A1000898
:1000400013A1000813A1000813A1000813A10008C0
:1000500013A1000813A100088B73000817300008D3
:10006000BD6500086973000813A1000813A100080A
:1000700013A1000813A1000813A1000813A1000890
:1000800013A1000813A1000813A1000813A1000880
:1000900013A1000813A1000813A1000829310008CA
:1000A00013A1000813A1000813A1000813A1000860
:1000B000ED2F000813A10008610F000813A100082C
:1000C00013A10008FD73000813A1000813A1000884
:1000D00013A1000879340008AB35000813A100080B
:1000E0008B11000813A1000813A1000813A1000838
:1000F00013A1000813A1000813A1000813A1000810
:1001000013A1000813A1000813A1000813A10008FF
:1001100013A1000813A10008790F000813A100081B
:1001200013A1000813A1000813A1000813A10008DF
:1001300000F002F800F05CF80AA090E8000C82449D
:100140008344AAF10107DA4501D100F051F8AFF27A
:10015000090EBAE80F0013F0010F18BFFB1A43F0A5
:1001600001031847E8290100082A01000A444FF05A
:10017000000C10F8013B13F0070408BF10F8014B06
:100180001D1108BF10F8015B641E05D010F8016B4B
:10019000641E01F8016BF9D113F0080F1EBF10F8AF
:1001A000014BAD1C0C1B09D16D1E58BF01F801CBD2
:1001B000FAD505E014F8016B01F8016B6D1EF9D555
:1001C0009142D6D37047000000230024002500266A
:1001D000103A28BF78C1FBD8520728BF30C148BFAA
:1001E0000B6070471FB510F0F6FF1FBD10B510BDB6
:1001F00011F0F0F81146FFF7F5FF00F061FA11F089
:100200000EF903B4FFF7F2FF03BC11F013F900007D
:100210000B49D1F800C04A685CF8043B10681844E8
:1002200042F8040B8C4528BFA1F1DC0C8A4228BFA0
:10023000A1F1DC02C1F800C04A6020F00040704724
:10024000401F00200CB50020019000906C48006811
:1002500040F480306A49086000BF6948006800F4D3
:10026000003000900198401C0190009818B9019846
:10027000B0F5A06FF1D16248006800F4003010B111
:100280000120009001E0002000900098012843D157
:100290005C48006840F010005A4908600846006851
:1002A00020F0030008600846006840F00200086083
:1002B00053484068524948600846406848600846CC
:1002C000406840F4806048600846406820F47C1034
:1002D00048600846406840F4881048600846006856
:1002E00040F08070086000BF4548006800F0007072
:1002F0000028F9D04248406820F003004049486097
:100300000846406840F00200486000BF3C48406832
:1003100000F00C000828F9D10CBD10B5FFF792FFD2
:1003200010BD10B53648006840F00100344908603F
:10033000084640683449084031494860084600682A
:10034000324908402E4908600846006820F48020A1
:1003500008600846406820F4FE0048604FF41F0023
:100360008860FFF7DAFF4FF000602949086010BD90
:1003700010B5002100200022214B5B6803F00C0126
:1003800021B1042906D0082928D107E0214B224CAD
:10039000236027E0214B204C236023E0184B5B684F
:1003A00003F47010164B5B6803F48032022303EBF6
:1003B000904022B91A4B4343174C23600DE0104B79
:1003C0005B6803F4003323B1164B4343124C2360A4
:1003D00003E0124B4343104C236003E00D4B0E4CE3
:1003E000236000BF00BF064B5B68C3F303130E4CD2
:1003F000E15C094B1B68CB40074C236010BD00003B
:1004000000100240002002400000FFF8FFFFF6FE4F
:1004100008ED00E000127A0000000020001BB70089
:1004200000093D00808D5B000400002010B588B0FD
:100430000446694620460CF01AFA08B010BD30B5E3
:1004400089B00446257E01A928460CF005FA09B0BA
:1004500030BDF8B50646002500200090CDB9002437
:1004600000BF694630460DF0FDFB05469DF80000D3
:10047000012800D005B106E0641C304610F08FFE64
:10048000B4F5FA6FEDD300BFB4F5FA6F01D36FF096
:1004900006052846F8BDF8B5064600250020009060
:1004A000BDB9002400BF694630460DF076FD054613
:1004B000009800B105B106E0641C304610F06FFEF4
:1004C000B4F5FA6FEFD300BFB4F5FA6F01D36FF054
:1004D00006052846F8BD2DE9F0418CB0804605AEF2
:1004E000002434B940460CF075FC04462046FFF762
:1004F0009DFF44B901AA02A940460DF035FB044610
:100500002046FFF793FF44B903AA04A940460DF023
:1005100019FE04462046FFF789FF3CB901214046F9
:100520000CF0E1FF04462046FFF780FF34B9404657
:100530000DF072FA04462046FFF778FF1CBB202717
:10054000002516E04046FFF784FF04467CB931469B
:1005500040460DF0B6FB0446308929F81500042109
:1005600040460CF05BFB404610F019FE00E002E054
:100570006D1CBD42E6D300BF24B9002500E06D1C10
:10058000BD42FCD300BF1CB940460DF020FB044621
:100590001CB94046FFF77FFF044624B904214046BA
:1005A0000CF03CFB044620460CB0BDE8F0811FB5C2
:1005B000002452203D49096881F85C0101203B4933
:1005C000096881F870014FF4C87038490968A1F8CA
:1005D000720124B9354800680CF0FFFD044624B9C7
:1005E000324800680CF0F6FB044634B96A4601A9AB
:1005F0002E4800680DF0B8FA044634B902AA03A9DF
:100600002A4800680DF09EFD04462CB901212748B8
:1006100000680CF068FF044624B9244800680DF017
:10062000FBF90446E0B204B010BD10B50024204828
:10063000007800B910BD00201D4908701D480078E1
:1006400030B9FFF7B4FF10B901201A490870F1E77B
:10065000A4B919480168154800680DF032FB04463A
:100660001548006800891549088004210F48006872
:100670000CF0D4FA0D48006810F091FD00BFD9E7E6
:1006800010B50D480168094800680DF01AFB0A48CA
:1006900000680089094908800421044800680CF0BA
:1006A000BDFA0248006810F07AFD10BD1400002069
:1006B0001E0000201F000020180000201C00002049
:1006C00000F093FB31E003F0F6F802F0B3FF03F023
:1006D0005DFD04F02FF903F0C0FC01F09DF801F07E
:1006E00089F901F005FA01F08DFC01F038FB02F008
:1006F0000CF904F091FF05F022F900F0AEFE02F0D3
:100700009CF905F0DFFF06F078F902F012F900F02D
:10071000E8FF05F001FA05F03DFC07F0EEFF07F0F9
:10072000BFF8FFF782FF06F087FDCCE7FE480068C0
:10073000FE490860FC48001D00684860FA4808301F
:100740000068886070470EB5012120200AF0C5FEC0
:10075000F7480AF01DFF4FF6FF70ADF80400472080
:10076000ADF800000020ADF80600ADF802006946C3
:10077000EF480AF0E1FF0121ED480BF039FB0EBD17
:1007800000B587B00121C8020AF09AFEE9480AF0D4
:10079000FFFE4FF4E150ADF814000020ADF810005A
:1007A000ADF81600ADF8120004A9E2480AF0C4FF43
:1007B0006020ADF800000120ADF802000020ADF887
:1007C0000400ADF80600ADF80800ADF80A004FF4DB
:1007D0008070ADF80C006946D6480AF0EAFF0121A6
:1007E000D4480BF011FB0121D2480BF001FB07B0FC
:1007F00000BD1FB5012108460AF06FFE4FF0804092
:100800000AF0C6FE4FF6FF70ADF808004720ADF8BD
:1008100004000020ADF80A00ADF8060001A94FF071
:1008200080400AF089FF012188070BF0A7FD012213
:10083000114690070BF0F7FA4FF4A06009F07CFC2A
:100840001C208DF8000000208DF8010003208DF899
:10085000020001208DF80300684609F072FC0121B6
:1008600088070BF0C5FA1FBD1FB5012110200AF043
:1008700034FEB1480AF08CFE48F6A040ADF80800FE
:100880000120ADF804000020ADF80A00ADF8060024
:1008900001A9A9480AF050FF0121A7480BF06EFDFD
:1008A00001221146A4480BF0BEFA4FF4A06009F0F3
:1008B00043FC36208DF8000000208DF80100052053
:1008C0008DF8020001208DF80300684609F039FC1C
:1008D000012199480BF08CFA1FBD00B587B00121AA
:1008E00002200AF0FAFD95480AF052FE4FF4E1505A
:1008F000ADF814000020ADF81000ADF81600ADF80A
:10090000120004A98D480AF017FF6020ADF800001E
:100910000120ADF802000020ADF80400ADF806009B
:10092000ADF808004FF48070ADF80C0069468348BC
:100930000AF03FFF694681480AF07DFF69467F481B
:100940000AF0C6FF69467D480BF00DF801217B488F
:100950000BF014FD012179480BF04AFA07B000BDF5
:1009600000B589B0012104200AF0B7FD74480AF0EF
:100970000FFE41F2AF30ADF81C000020ADF81800BA
:10098000ADF81E00ADF81A0006A96D480AF0D4FEB5
:100990006020ADF808000120ADF80A000020ADF895
:1009A0000C00ADF80E00ADF81000ADF8140002A96F
:1009B00063480AF0FEFE02A961480AF03CFF02A962
:1009C0005F480AF085FF02A95D480AF0CCFF0121CB
:1009D0005B480BF0D3FC012159480BF02DFA0122A2
:1009E000114657480BF01FFA4FF4A06009F0A4FB22
:1009F0001E208DF8040000208DF8050004208DF8DD
:100A0000060001208DF8070001A809F09AFB0121DA
:100A10004B480BF0EDF909B000BD0EB501210846B9
:100A20000AF04EFD012104200AF04AF903210420B6
:100A30000AF046F9052101200AF042F908210320B5
:100A40000AF03EF9022101200AF03AF90C210420B3
:100A50000AF036F90D2104200AF032F90E210420A3
:100A60000AF02EF90F2104200AF02AF9022009F0D9
:100A7000A8FF042009F0A5FF082009F0A2FF20200C
:100A800009F09FFF4FF4807009F09BFF4FF48050F6
:100A900009F097FF4FF4005009F093FF4FF48040A6
:100AA00009F08FFF4FF4004009F08BFF00208DF814
:100AB000080010208DF809002220019001208DF8F7
:100AC0000A0001A809F006FF00208DF808000C209C
:100AD0008DF809000820019001208DF80A0001A876
:100AE00009F0F8FE00208DF808000C208DF80900B0
:100AF0004FF48070019001208DF80A0001A809F0E0
:100B0000E9FE00208DF8080010208DF809004FF252
:100B10000400019001208DF80A0001A809F0DAFE16
:100B20004FF4A0600EE00000E8F7FF1FB0110020B6
:100B300000140040002C0140001000400004004060
:100B40000008004009F0F8FA08208DF800000020A5
:100B50008DF8010001208DF802008DF80300684631
:100B600009F0EFFA4FF4A06009F0E6FA17208DF8CB
:100B7000000000208DF8010002208DF80200012005
:100B80008DF80300684609F0DCFA4FF4A06009F024
:100B9000D3FA07208DF8000000208DF80100032013
:100BA0008DF8020001208DF80300684609F0C9FAAB
:100BB0004FF4A06009F0C0FA09208DF80000012070
:100BC0008DF8010000208DF8020001208DF803004F
:100BD000684609F0B6FA4FF4A06009F0ADFA282093
:100BE0008DF8000001208DF8010002208DF8020030
:100BF00001208DF80300684609F0A3FA0EBD08B580
:100C000001217D200AF05CFC7720ADF80000002077
:100C10008DF803006946FE4809F03CFF49F688104C
:100C2000ADF8000003208DF8020010208DF80300BD
:100C30006946F74809F02EFF4FF40070ADF8000048
:100C400018208DF8030003208DF802006946F04853
:100C500009F020FF4FF48060ADF8000048208DF8C7
:100C6000030003208DF802006946E94809F012FFED
:100C70003720ADF8000048208DF803006946E548AC
:100C800009F008FF4FF20800ADF8000003208DF8CE
:100C9000020010208DF803006946DE4809F0FAFED4
:100CA0004FF47070ADF8000003208DF8020018209A
:100CB0008DF803006946D74809F0ECFE4FF4406018
:100CC000ADF8000003208DF802001C208DF8030011
:100CD0006946D04809F0DEFE0F20ADF80000002084
:100CE0008DF803006946CC4809F0D4FE3020ADF8F9
:100CF000000003208DF8020010208DF803006946E3
:100D0000C54809F0C7FE4FF47070ADF8000003202D
:100D10008DF8020018208DF803006946BE4809F0DE
:100D2000B9FE0121BD4809F086FF4FF47040ADF8CF
:100D3000000003208DF8020010208DF803006946A2
:100D4000B74809F0A7FE40F6CC70ADF80000482087
:100D50008DF803006946B24809F09CFE2020ADF8EA
:100D6000000003208DF8020018208DF8030069466A
:100D7000AB4809F08FFE0121082009F05CFF4FF419
:100D80004860ADF8000003208DF8020010208DF8B7
:100D900003006946A34809F07DFE4FF20B10ADF841
:100DA000000048208DF8030069469E4809F072FE55
:100DB0000220ADF8000004208DF803006946994830
:100DC00009F068FE4FF40070ADF8000003208DF8C4
:100DD000020018208DF803006946924809F05AFE77
:100DE0000121914809F027FF08BD10B5FFF799FAD6
:100DF000FFF705FF01229103894809F0FCFE01225B
:100E00005103874809F0F7FE06F050F8012251021D
:100E1000844809F0F0FEFFF700FEFFF7A1FDFFF7A1
:100E20005CFDFFF721FDFFF7E4FCFFF7A9FCFFF7EE
:100E30008AFC00F027FA02F065FA00F0D1FC00F01D
:100E40007DFB04F0EFFD05F0E9FB05F0A7FD04F0E4
:100E50006EFD10F0B5FC0120744908700020744943
:100E600008607449087010BD08B54FF6FF70ADF802
:100E7000000004208DF803006946654809F00AFE69
:100E80006946644809F006FE6946634809F002FEB7
:100E90006946634809F0FEFD6946624809F0FAFDBB
:100EA0004FF48070ADF8000048208DF803006946CB
:100EB0005C4809F0EFFD4FF40070ADF800004820E9
:100EC0008DF803006946564809F0E4FD08BD0EB5EB
:100ED0000821042009F0F4FE0921032009F0F0FEA6
:100EE00000208DF8080010208DF809004FF6FE4014
:100EF000019000208DF80A0001A809F0EBFC002009
:100F00008DF808000C208DF809004FF480700190D6
:100F100001208DF80A0001A809F0DCFC00208DF802
:100F200008000C208DF809004FF40070019001209A
:100F30008DF80A0001A809F0CDFC4FF4E06009F03B
:100F4000FBF817208DF8000000208DF801008DF8C7
:100F5000020001208DF80300684609F0F2F80EBD8A
:100F600010B5012134480BF00CFA20B101213248B0
:100F70000BF018FA00BF10BD10B501212F480BF07F
:100F800000FA00287CD001212C480BF00BFA2C48E9
:100F90000078401CC0B22A49087032280ADB0020C1
:100FA00008700120274908702749087027490870F0
:100FB0002749087027480078401CC0B225490870AE
:100FC00025490988884207DB002022490870012052
:100FD000224908702249087022480078401CC0B29B
:100FE0002049087014280CDB0020087001201E49DD
:100FF00008701E4908701E4908701E4908701E4975
:1010000008701E480078401CC0B21C49087038E0C7
:1010100000080140000C014000100140000C1A00C3
:101020000014014000180140C00016001E000020FE
:101030002000002024000020000800400010004094
:10104000250000205D000020F9010020590100204A
:10105000DE02002028000020F8000020E800002028
:10106000E90000202600002058010020C7010020D0
:10107000AB020020C6010020B200002027000020A3
:1010800082E0052806DB002008700120684908700E
:101090006849087068480078401CC0B2664908700A
:1010A00066490978884205DB002063490870012001
:1010B0006349087063480088401C80B26149088019
:1010C000B0F57A7F08DB002008805F4908800120A6
:1010D0005E4908705E4908705E480078401CC0B2E6
:1010E0005C4908701E2804DB0020087001205A4962
:1010F00008705A48007820B153480088401C524973
:10110000088057480088401C5549088001205549EF
:10111000087055480068401C534908600120534935
:10112000087002F05CFF01205149087051490870B5
:101130005148C07F90B15048C07F03280ED04E4820
:10114000C07F01280AD04C48C08A401C4A49C88246
:101150000846C08A322801DD0420C8774748C07F8E
:1011600090B14648C07F03280ED04448C07F012874
:101170000AD04248C08A401C4049C8820846C08AFA
:10118000322801DD0420C87710BD10B54FF480501F
:1011900009F006FC90B14FF4805009F012FC4FF4B6
:1011A0008051374809F009FD20B10121032005F0E5
:1011B0000CF903E00021032005F007F94FF400507B
:1011C00009F0EEFB90B14FF4005009F0FAFB4FF438
:1011D00000512B4809F0F1FC20B10121022005F05B
:1011E000F4F803E00021022005F0EFF84FF480400E
:1011F00009F0D6FB18B14FF4804009F0E2FB4FF440
:10120000004009F0CDFB90B14FF4004009F0D9FB4C
:101210004FF400411A4809F0D0FC20B101210846E2
:1012200005F0D3F803E00021012005F0CEF810BD51
:10123000420000203C0000202A0000204A0000203C
:10124000400000202C000020CA010020EA000020FD
:101250003C020020290000207B010020C601002064
:101260003A02002041000020200000205E00002003
:101270005F00002077010020B412002090120020AF
:10128000000C014010B590B0012108460AF00BF99E
:10129000012140F201200AF013F99E4809F0E2F919
:1012A0009D4800909D480190002002900A200390E4
:1012B0000020049080200590400006908000079058
:1012C000202008900002099000200A906946914869
:1012D00009F06AFA01218F4809F091FA00200B9079
:1012E00001208DF8300000208DF831004FF460208F
:1012F0000D9000200E900A208DF83C000BA9864826
:101300004C3808F0AEFF00230122022182484C38FD
:1013100009F03FF80023022201217F484C3809F0F0
:1013200038F80023032206217B484C3809F031F8B5
:10133000002304220A2178484C3809F02AF80023B7
:1013400005220B2174484C3809F023F800230622AB
:101350000C2171484C3809F01CF8002307220D219C
:101360006D484C3809F015F80023082219466A48E0
:101370004C3809F00EF800230922042166484C3845
:1013800009F007F800230A22052163484C3809F0C8
:1013900000F8012160484C3808F09AFF01215E48AE
:1013A0004C3808F08AFF5C484C3808F0A8FF00BFB2
:1013B00059484C3808F0A8FF0028F9D156484C3855
:1013C00008F0ACFF00BF54484C3808F0ACFF0028D0
:1013D000F9D1012150484C3808F0AFFF002404E057
:1013E00000204F490855601CC4B20A2CF8DB0020CD
:1013F0004C49087010B010BD02468A4202DD501AF6
:1014000080B27047881A80B2FBE7F0B502460B46FF
:1014100000254FF6FF760024022B01DC0020F0BDF2
:10142000002110E032F81100A84201DD32F811501D
:1014300032F81100B04201DA32F8116032F81100CE
:101440000444481CC1B29942ECDBA41B641B981EE7
:10145000B4FBF0F087B23846E1E770B53248007867
:1014600000B970BD002030490870002411E000254B
:101470000BE02A4830F8150005EB45012B4A02EB3A
:10148000810121F81400681CC5B20A2DF1DB601C33
:10149000C4B2062CEBDB002433E004EB4401234A06
:1014A00002EB81000621FFF7B0FF214921F814006B
:1014B000204A32F814101E4A32F81400FFF79CFF3D
:1014C0000646962E15DC1A4830F814001A4921F801
:1014D0001400084630F8140028B11248007810B9FA
:1014E0000120104908700F480078012801D10C49EB
:1014F00008550F4830F814000E4921F81400601CFC
:10150000C4B20A2CC9DB012103484C3808F015FF8E
:1015100000BFA6E7080002404C240140C61100208D
:10152000BC1100203D0000203C000020DA1100200A
:1015300052120020661200207A1200200020FE497C
:101540000870FE490870FE490870FE490870FE499F
:101550000870FE4908700520FD4908700020FD490B
:101560000880FD490880FD490880FD490880FD4943
:101570000860FD490860FD498882FD498882FD496F
:101580000870FD490860FD490880704710B5F748AC
:10159000C07F18B1F548C07F042817D10120F34956
:1015A00008770020487788770880F5490860F54972
:1015B0000870F54988704FF080400AF0D0FEF2497B
:1015C00008800020C8720120E849C87710BD70B5B6
:1015D0000446012C00DD0124FFF7D8FF002003F0B2
:1015E000B1FD4FF42F60E1494883084680F8204060
:1015F00084B90021E5480AF099FEDC48408B00EBF5
:10160000C005E81705EB5070C0F3CF01DF480AF0C2
:101610008BFE0FE00021DD480AF086FED348408BA8
:1016200000EBC005E81705EB5070C0F3CF01D748B9
:101630000AF07CFE70BD10B5CD48C07F18B1CC4813
:10164000C07F042818D10120C949087700204877B5
:1016500088770880CE490860CE490870CE498870E6
:101660004FF080400AF07BFECB4908800120C04942
:10167000C8770020C849C87210BD70B50446012C57
:1016800000DD0124FFF7D7FF012003F05BFD4FF4DD
:101690002F60B7494883084680F8204084B900216C
:1016A000BA480AF03DFEB248408B00EBC005E8178F
:1016B00005EB5070C0F3CF01B4480AF033FE0FE0E1
:1016C0000021B2480AF02EFEA948408B00EBC0056D
:1016D000E81705EB5070C0F3CF01AC480AF020FECC
:1016E00070BD10B5AD48007800B910BD0020AB4901
:1016F00008709F48C07FB8B99C48C07FA0B98E4889
:10170000007888B100208C490870A5490860A54977
:101710000860A5490860A548007828B9A448007861
:1017200010B90020A34908708348007890B9A248F6
:10173000007801280ED1A148007840B900209E49C8
:1017400008706E220221462003F030F802E00020EB
:101750009B4908707848007850B99748007838B9A4
:101760009848007820B9012096490870944908707B
:1017700072480078012816D18D480078012812D1CE
:101780007B48C07F78B990480078FFF776FF8F4894
:1017900000887749C8800020854908700120664983
:1017A00008706649087065480078012816D17F489E
:1017B0000078012812D16D48C07F78B9844800783C
:1017C000FFF705FF834800886849C88000207749F3
:1017D00008700120584908705849087000BF84E714
:1017E00000206249C8776249C877604948836049E8
:1017F00048835E4988805E498880774908607749D8
:10180000086077490860774908605649086056497A
:1018100008606849087070475B49097A71B3002114
:10182000594A1172114649686F4AB2FBF1F188B208
:101830005449097810290CDA514909680144504A81
:1018400011604A4988804F490978491C4D4A1170F6
:1018500010E04B490968C1F30F11444A918048498F
:1018600009680144464A1160404989881268511A42
:10187000434A11600121444A917251724649097AE2
:1018800071B30021444A117211464968564AB2FBAD
:10189000F1F188B23F49097810290CDA3C4909680E
:1018A00001443B4A1160324988803A490978491C11
:1018B000384A117010E036490968C1F30F112C4AFB
:1018C0009180334909680144314A11602849898867
:1018D0001268511A2E4A116001212F4A91725172D9
:1018E00070472DE9F04F85B082468B464FF49170DA
:1018F0000490049810F057FA06460F46ABEB0A0026
:1019000010F051FA80464FF03332384B10F0B2FAF3
:101910000022374BCDE9000110F0ACFA32463B46CD
:10192000CDE9020110F08AF8044610F0DFF900B2A8
:1019300005B0BDE8F08F00007C0000207D00002095
:101940007E0000207F00002041000020A400002035
:101950004A000020AA000020AC000020A6000020C1
:10196000A80000206C00002070000020B4120020AD
:1019700090120020880000209000002046000020E7
:10198000A00000209B000020E4120020000800407E
:101990009C0000209A000020D81200205F00002048
:1019A0008C0000203401002038010020810000203C
:1019B000800000205C0000207801002094020020BC
:1019C0007A0100207901002086000020820000209A
:1019D00087000020840000205400002050000020D8
:1019E0006400002068000020703839003333AB3FBA
:1019F00000408F4010B5FE48007800B910BDFD488A
:101A0000007838B1FB480078012804D1FA48007802
:101A1000012800D0F2E70020F5490870F748C07FA0
:101A200001282FD1F548408B41F2FE01884204DCA9
:101A3000F248408B3230F1494883F04890F820005A
:101A400080B90021EE480AF06BFCEC48408B00EBBB
:101A5000C004E01704EB5070C0F3CF01E8480AF06F
:101A600061FC0FE00021E6480AF05CFCE348408B93
:101A700000EBC004E01704EB5070C0F3CF01E04866
:101A80000AF04EFCDF48C07F01282FD1DD48408B93
:101A900041F2FE01884204DCDA48408B3230D949F9
:101AA0004883D84890F8200080B90021D4480AF033
:101AB0003DFCD448408B00EBC004E01704EB5070B1
:101AC000C0F3CF01CE480AF02FFC0FE00021CC4834
:101AD0000AF02AFCCB48408B00EBC004E01704EB73
:101AE0005070C0F3CF01C6480AF020FC00BF85E764
:101AF0002DE9F041C348C07F022805D0BF48C07F10
:101B0000022801D0BDE8F081BF48007800B9F9E7AC
:101B10000020BD490870BD48007800285BD0BC4853
:101B2000007898BB0120BA490870B6480089B949C5
:101B30000880B4488088B0F52F7F0BDCAF488088E0
:101B4000B0F52F7F06DC4FF42F70AE490881AB490A
:101B5000088118E0AB488088A84989880144A948D1
:101B60000089B1EB400F0EDCA6498988A34A928810
:101B7000881800EBD071C1F34F01A24A11811046C1
:101B800000899E4908810A20A34908709D48008960
:101B90009C49C96808449F49098888420EDA9948D7
:101BA00000899849898908449649088193480089A1
:101BB000924989890844914908810CE09548008838
:101BC00090490881934800888C49088100208F49FA
:101BD00008708F4908709148007800287DD090489F
:101BE000007800284DD101208D4908708D48B0F94A
:101BF00000008D4908800A20874908708A48B0F99A
:101C0000000000283EDD8948B0F90000B0F5E16F22
:101C100004DA4FF4E160834908800CE08348B0F9AE
:101C200000008049B1F90010884204DC7F48B0F917
:101C300000007C4908807B48B0F900007A49B1F97E
:101C4000001088425EDA6F48B0F914007549B1F9A6
:101C5000001048437449B1F9001090FBF1F000B254
:101C6000684988826548B0F914006E49B1F90010DE
:101C700048436D49B1F9001090FBF1F000B25F49A3
:101C800088823FE06948B0F9000010F5E16F04DD9B
:101C90004FF6F800634908800CE06448B0F9000092
:101CA0006049B1F90010884204DD6048B0F90000D5
:101CB0005C4908805B48B0F900005B49B1F900104D
:101CC00088421FDD4F48B0F914005649B1F90010A1
:101CD00048435549B1F9001000E03EE090FBF1F0B7
:101CE00000B2484988824548B0F914004D49B1F91D
:101CF000001048434C49B1F9001090FBF1F000B2DC
:101D00003E4988824848B0F9000010F04CF821F0B4
:101D1000004504463B490969424AB2F90020881847
:101D200010F041F821F00041064622462B4610F003
:101D300065F808D23348008A3A490988084400B255
:101D40003849088009E03848B0F900003549088072
:101D50000020324908703249087000BFD2E670B5E1
:101D60002448007838B123480078012804D122485B
:101D70000078012800D070BD2D48007800B9FAE73E
:101D800000202B4908701D48C08840F2DC51884271
:101D900007DB1C48C088884203DB05202549087002
:101DA0000CE01648C08840F21451884203DB154805
:101DB000C088884202DA0A201E4908700F48C07F96
:101DC00002286FD11C48807A01286BD100201A4963
:101DD00088720A4A928811B2084AD28810B2012247
:101DE00003F0FEF904B2002C2CDD0448408B25E002
:101DF0005D0000207C0000207D000020901200206B
:101E000000080040B41200204200002060000020C2
:101E100062000020C6000020A40000206100002015
:101E20006300002046000020C80000202E02002091
:101E3000400000204A000020D81200202044FE4923
:101E4000488311E0604204B2FB48418B04F5FA700C
:101E5000814205DDF848408B001BF749488303E0C9
:101E60004FF4FA70F4494883F348408BB0F58C5F27
:101E700003DD4FF48C50F0494883EF4890F8200080
:101E800088B90021ED480AF04BFAEB48408B00EB93
:101E9000C006F01706EB5070C0F3CF01E7480AF018
:101EA00041FA10E020E00021E4480AF03BFAE24861
:101EB000408B00EBC006F01706EB5070C0F3CF016B
:101EC000DE480AF02DFADC48C088C0EBC00085B2BD
:101ED000ED10D9488088A84203DD0120D6498877D3
:101EE00002E00020D4498877D548C07F022869D114
:101EF000D448807A012865D10020D2498872D04A1E
:101F0000928811B2CE4AD28810B2002203F068F94A
:101F100004B2002C05DDCA48408B2044C8494883E0
:101F200011E0604204B2C648418B04F5FA70814268
:101F300005DDC348408B001BC149488303E04FF4D3
:101F4000FA70BF494883BE48408BB0F58C5F03DD13
:101F50004FF48C50BA494883B94890F8200080B9B2
:101F60000021B6480AF0E2F9B548408B00EBC00604
:101F7000F01706EB5070C0F3CF01B0480AF0D4F967
:101F80000FE00021AD480AF0CFF9AD48408B00EBDF
:101F9000C006F01706EB5070C0F3CF01A7480AF057
:101FA000C5F9A748C088C0EBC00085B2ED10A448B1
:101FB0008088A84203DD0120A149887702E0002043
:101FC0009F49887700BFD6E69D48C07F10B10320A7
:101FD0009B49C87770479848C07F10B10320964945
:101FE000C877704702460B46D11A002903DA48F633
:101FF000A040014404E048F6A040814200DD091AF7
:1020000088B270472DE9F04F89B08F48007810B939
:1020100009B0BDE8F08F00208B4908708B4800782C
:10202000012807D18A480078012803D1894800781F
:10203000012800D0ECE78848007800B9E8E7874835
:102040000078401C854908707D48C07F00287DD0FD
:102050007B48C07F0328FAD0814801688148006826
:10206000801C814207D880480078032803D07E482E
:10207000007801286BD17C48007858B17A48007804
:10208000022807D078480078032803D076480078E3
:1020900001285BD1714800780A2857DB00206F497E
:1020A000087072480078401C704908706E480078CB
:1020B00090B90846007802281CDB00200870032233
:1020C0006B48B0F900106B48B0F9000003F088F8D5
:1020D00000B2694908800DE063480078022809D100
:1020E00062480078022805DB002060490870012062
:1020F00007F037FD6048B0F9000044F620618842DF
:1021000003DD08465C49088009E05B48B0F900003F
:102110005A49884203DA4BF2E010574908800222FC
:102120005748B0F900105448B0F9000003F058F8CF
:1021300005B24348B0F9140042F6E061884201DB81
:10214000002D27DC3E48B0F9140001E0B2E1B2E115
:102150004C49884201DC002D1CDB4B4800780128EB
:102160000CD13748808A284400B2354988823248E9
:10217000808A401B00B2304988820BE03048808A58
:10218000401B00B22E4988822B48808A284400B226
:10219000294988822A48008906B22948B0F91400E2
:1021A0003044002837DD2648B0F91400304441F6A9
:1021B0006411884207DC224800892149898A084441
:1021C0001F49C88011E041F664101D49C8800846C7
:1021D000008941F66411081A00B21949888208463C
:1021E000808A404200B2144988822748007840B96A
:1021F0000020134981F82100084680880FFA80FAF0
:1022000070E001200E4981F8210008468088404294
:102210000FFA80FA66E00A4800890949B1F91410FA
:102220000844404241F66411884233DC0448008986
:102230000349898A084429E09012002000080040E0
:10224000B4120020E4120020410000207C00002095
:102250007D0000207E0000205C000020A400002003
:102260004C000020540000207F000020CA00002005
:102270002C0200204400002046000020E0B1FFFFB7
:102280002E02002020D1FFFF880000204042FD499F
:10229000C88012E041F66410FA49C88008460089F7
:1022A00041F664110844404200B2F649888208466B
:1022B000808A404200B2F4498882F448007848B9E4
:1022C0000120F04981F821000846808840420FFA39
:1022D00080FA07E00020EB4981F821000846808859
:1022E0000FFA80FAE74890F82000E64991F82110AB
:1022F000884216D0E348C07F022812D1E148C08846
:10230000B0F52F7F0DDBFFF75FFE0120E04908707D
:10231000DC48C088DF490880DA4890F82100DE49AF
:102320000870D948008906B2D748B0F91400304483
:10233000002837DDD448B0F91400304441F6641168
:10234000884207DCD0480089CF49898A0844CE49B1
:10235000C88011E041F66410CB49C8800846008966
:1023600041F66411081A00B2C74988820846808A7B
:10237000404200B2C3498882C448007840B9002076
:10238000C14981F82100084680880FFA80F945E0AC
:102390000120BD4981F821000846808840420FFA9B
:1023A00080F93BE0B8480089B749B1F914100844F6
:1023B000404241F66411884208DCB3480089B249C2
:1023C000898A08444042B049C88012E041F664104E
:1023D000AD49C8800846008941F66411084440426E
:1023E00000B2A94988820846808A404200B2A549C5
:1023F0008882A648007848B90120A34981F82100C5
:102400000846808840420FFA80F907E000209E4984
:1024100081F82100084680880FFA80F99A4890F8E0
:102420002000994991F82110884216D09648C07F23
:10243000022812D19448C088B0F52F7F0DDBFFF73A
:10244000CAFD0120954908708F48C08894490880CA
:102450008D4890F821009349087009EB0A0000EBC1
:10246000D0714910904A11608648C08841F66411C5
:10247000884203DD08468349C88008E08148C08857
:1024800040F28A21884202DA08467E49C8807E48A6
:10249000C08841F66411884203DD08467A49C88045
:1024A00012E07948C08840F28A2188420CDA084656
:1024B0007549C88008E0FFF787FDFFF78CFD002015
:1024C00076490870724908706F48C07FD8B16E486D
:1024D000C07F032817D075480078012813D07448AE
:1024E000016874480068801C81420CD86F480078ED
:1024F000032808D0FFF76FFDFFF766FD002067494E
:102500000870634908706948007801287DD16A48DD
:10251000B0F90000002809DD6848B0F900106848EB
:10252000B0F90000FFF75EFD04460DE06248B0F927
:102530000000002808DA6248B0F900105F48B0F9DE
:102540000000FFF74FFD044644F25060844206DD70
:1025500048F6B800844202DA01205A4908705A4805
:10256000007800280EDD57480078012809D1C82CD2
:1025700007DC00205349087053480078401E524938
:1025800008706DE15148008848F6B801884203DBC5
:102590004C48007800B93BE54C48008848F6B80143
:1025A000884204DA0846844201DA494804804948EE
:1025B0000078032806D04848006818B145480078DC
:1025C00004285ED1414800880FF004FCCDE90601E3
:1025D0004248B0F900000FF0E6FB21F00041074649
:1025E00000224FF080430FF029FACDE90201204686
:1025F0000FF0F0FBCDE90001DDE902230FF06AF9ED
:10260000CDE90401DDE9062300E05AE10FF030FDD9
:102610006CD833480078401CC0B2314908700A2891
:102620006EDB002008702D48B0F900000FF0BBFBF6
:1026300021F00041074600222A4B0FF019FD09D86E
:102640002648B0F90000032190FBF1F000B22349C5
:10265000088055E02148B0F900000FF0A4FB21F0FC
:10266000004107460022204B0FF002FD48D21B48D4
:10267000B0F9000000283ADD4FF4E1601749088006
:102680003EE09CE0B4120020901200208800002060
:1026900081000020840000208700002080000020AE
:1026A00082000020860000208C0000207F00002097
:1026B0004C000020500000202E020020440000208A
:1026C0002C020020CB0000207400002076000020A7
:1026D00078000020940200205800002046000020CE
:1026E000CC0000200018B54000209C403CE0F6489B
:1026F000B0F90000002803DA4FF6F800F24908802C
:10270000F2480088B0F5C87F17DBF0480088C83869
:10271000A04211DCED480088C83084420CDCFFF791
:1027200053FCFFF758FC0020E9490870E94908709C
:10273000E9490870E949087092E0E4480088844259
:1027400011DBE2480088C83084420CDCFFF73CFC17
:10275000FFF741FC0020DE490870DE490870DE49C1
:102760000870DE4908707BE0D84800880FF032FB23
:10277000CDE90601DA48B0F900000FF014FB21F0B2
:102780000041074600224FF080430FF057F9CDE992
:10279000020120460FF01EFBCDE90001DDE9022316
:1027A0000FF098F8CDE90401DDE906230FF026FBD0
:1027B00056D2CB48B0F90000C349088050E0C34866
:1027C0000088B0F5C87F26DBC0480088C838A04222
:1027D00046DCBE480088C830844241DCBA48B0F9C3
:1027E0000000B0F57A7F03DD4FF47A70B6490880B7
:1027F000BC480068A0B3BC48B0F91400C010BA4986
:102800008882BA48B0F91400C010B8498882002004
:10281000B449086024E0AD480088844220DBAB481E
:102820000088C83084421BDCA748B0F90000B0F52E
:102830007A7F03DD4FF47A70A3490880A9480068C5
:1028400070B1A948B0F91400C010A7498882A74800
:10285000B0F91400C010A54988820020A149086081
:10286000A348006860B3A04890F820009F4991F801
:102870002010884207D19F4800689F490968084492
:102880004FEA500B0EE09B4909689B4A1268881A70
:102890000FF089FA21F0004107460FF057FA8346FE
:1028A0004FEA5B0B92480068801C834508D3FFF712
:1028B00092FBFFF789FB0020874908708749087061
:1028C00000BF00BF67E62DE9F04107460C461546FC
:1028D0001E460A2F00DD0A270A2D00DD0A25012CDD
:1028E00000DD0124012E00DD0126002F01DDFEF7B1
:1028F000A2FE002D01DDFEF749FE3046FEF767FE21
:102900002046FEF7BAFEBDE8F08110B57648C07FDC
:10291000042804D1744991F82000FEF758FE73484A
:10292000C07F042804D1714991F82000FEF7A5FE6C
:1029300010BD10B57148007800B910BD00206F4976
:1029400008706948C07F30B9002067490877487728
:102950008880488333E06448C07F03282FD141F248
:102960002461674809F0E2FC41F22461644809F0FF
:10297000DBFC00205C49488341F2AF3048830020F3
:1029800008770846407F70B90020C877888000210A
:102990005B4809F0CBFC0021594809F0C5FC002038
:1029A000514948830BE05048008B401C4E49088336
:1029B0000846008B322802DD0020487708834B4808
:1029C000C07F28B9002049490877487788802CE0E3
:1029D0004648C07F032828D141F22461484809F0C5
:1029E000A1FC41F22461464809F09AFC00203F49CD
:1029F000488308770846407F58B90020C877888008
:102A000000213F4809F08EFC00213D4809F088FC78
:102A10000BE03648008B401C344908830846008B85
:102A2000322802DD00204877088300BF85E700B523
:102A3000FFF7D1FAFFF7C8FA00BD10B531480078AA
:102A400000B910BD00202F4908702F480078B0B998
:102A500001202D49087000202C4908702C4908706D
:102A60002C4908702C4908702C4908702C490880A2
:102A70004FF6FF702B49088000202B4908701A4838
:102A8000C07F022809D11948C07F022805D12748F4
:102A90000088401C2549088002E000202349088066
:102AA00022480088322800DACBE733201F4908800B
:102AB0000D4890F8200018B90C4890F82000C8B3D1
:102AC00000201B490870BCE746000020760000206B
:102AD000CC000020CB0000208000002081000020DE
:102AE000480000203C010020B41200209012002079
:102AF0005800002050000020540000205E000020FC
:102B000000080040B2000020CD000020B1000020ED
:102B1000B0000020B3000020B4000020B500002069
:102B2000C2000020C4000020CE000020D000002001
:102B3000BE000020FFE7FA480078FA280CDAF848CF
:102B40000078401CF649087008460078C82811D162
:102B50000120F44908700DE00020F1490870F249A5
:102B60000870F24908804FF6FF70F1490880002094
:102B7000EC490870EF48008800F5FA70EE490988C2
:102B8000884226DDEB480188EB48008800F5FA70A2
:102B900081421EDAE7480088E84909680844E749A5
:102BA0000860E7480078401CE5490870084600784E
:102BB00040281EDBE1480068C0F38F10E14908801F
:102BC0000020DF490870DD4908600120DE490870F7
:102BD0000FE00020DA490870D8490860D248007830
:102BE00010B90020CE490870CF480078401CCE496B
:102BF0000870D0480088CD490988884203DDCD4857
:102C00000088CA490880CB480088C9490988884299
:102C100003DAC8480088C6490880C6480088C64903
:102C20000880CA48B0F90600B0F5FA6F05DCC7485D
:102C3000B0F9060010F5FA6F05DA0120C4490870F2
:102C40000020C4490870C248007860B1C1480078CB
:102C5000401CC0490870084600781E2803DD00208B
:102C60000870BB490870BC48B0F90010BB48B0F907
:102C70000000FFF7B7F90446B948048044F25060F9
:102C800084420FDD48F6284084420BDAB0480078D1
:102C900040B10220B34908700020AB490870B24926
:102CA00008703CE0782C10DD44F2506084420CDA6D
:102CB000A748007848B10120AA49087000209A4925
:102CC00008700120A849087029E0A148007830BBAD
:102CD000A6480068A149B1F900100844A34908605A
:102CE000A3480088FF280DDCA1480088401CA049AB
:102CF00008809E480068098890FBF1F000B2964970
:102D000008800CE099480068001200B292490880DF
:102D100096480068B1F90010401A9449086091483B
:102D20000078012802D08F48007818BB7E480078D0
:102D3000122803DB7A480078FA2810DD7B480088E7
:102D400040F6B831884242DD7848008878490988E1
:102D5000401AB0F5FA6F3ADD72480078B8B3022035
:102D6000804908700020784908707F4908706D49D3
:102D700008702CE07B480078022802D0794800785F
:102D800028BB7148007828B16E48008840F2DC51B9
:102D9000884210DB65480088B0F5FA6F17DA63489F
:102DA000008863490988401A40F2DC5188420EDAF3
:102DB0005C48007858B101206A49087000205A49DF
:102DC000087001206849087000205649087000BF4B
:102DD00037E630B5674C6488B4F5967F7EDD654C88
:102DE000A488B4F5967FF9DD624C6488614DAD88A6
:102DF000AC4256DB5F4C64885E4DAD88641B21B2EB
:102E0000B1F52F7F01DD002205E064244C430F253E
:102E100094FBF5F422B2C1EBC10421B2052491FB6D
:102E2000F4F421B2534C658801F59674A5421DDD7A
:102E3000642492FBF4F4A3B2282B00DD28234E4C2B
:102E4000E35C4C4C6488641AA4F596744B4D2C607A
:102E50002C4624685C432C602C46246804EB8404D4
:102E60002C602C462468A4112C6002E00024434D01
:102E70002C60424C2468B4F57A6F03DD4FF47A6419
:102E80003E4D2C603E4C248814443C4D2D882C44EF
:102E900020B244F25064A04202DDA0EB440420B210
:102EA00030BD344CA488334D6D88641B21B2B1F51C
:102EB0002F7F01DD002205E064244C430F2594FBA5
:102EC000F5F422B2C1EBC10421B2052491FBF4F464
:102ED00021B2284C658801F5967400E075E0A542A2
:102EE00050DD642492FBF4F4A3B2282B00DD2823E8
:102EF000214CE35C1F4C6488641AA4F596741F4D42
:102F00002C602C4624685C432C602C46246804EB1F
:102F100084042C602C462468A4112C6035E0000049
:102F2000C1000020CE000020BE000020C200002012
:102F3000C40000207A120020D2000020B800002037
:102F4000BF000020BC000020C0000020DB190020D2
:102F5000B3000020B4000020340200203202002020
:102F600012010020B100002040190020D8000020EC
:102F7000D40000209C010020B5290108DC000020BD
:102F80002C0200200024CC4D2C60CB4C2468B4F5DE
:102F90007A6F03DD4FF47A64C74D2C60C74C2488E8
:102FA000A41AC54D2D882C4420B244F25064A0428E
:102FB00003DDA0EB440420B206E0C14CA04203DADA
:102FC00048F6A044044420B26AE7BE4C6488BD4D74
:102FD000AD88641B21B264244C430E2594FBF5F2AA
:102FE000B64C2488144420B200BF59E710B5012123
:102FF000880709F0C6F968B10121880709F0D2F9FC
:10300000B1488078401CB0498870B0488078401C36
:10301000AE49887010BD70B5022007F0C1FC0028D1
:1030200073D0022007F0CDFCA948007F012807D10A
:10303000A748407F012803D0A4480088A54908601C
:103040004FF0804009F08BF90446A24800688442A2
:1030500003D3A0480068251A05E09E4800684FF693
:10306000FF71081A05199A48807F08B1962600E07A
:10307000962698480460B54200D270BD9348C07A45
:10308000401C9249C8720846C07A022802DB002020
:10309000C872F2E78E48007F01280CD18C48407F2F
:1030A000012808D001208A4948770846C07F0128B6
:1030B00001D10220C877864890F8200028B98648B8
:1030C0000068401C8449086009E0814890F82000AD
:1030D000012804D180480068401E7F4908607F486D
:1030E000007820B17E480068401C7D4908600020BF
:1030F00077490883C88275480088A04206D2734881
:103100000088201A7149486008E00BE06F48008889
:103110004FF6FF712144081A6C49486001206B4941
:1031200008720C8000BFA8E770B5202007F038FCBB
:10313000002878D0202007F044FC4FF0804009F0B0
:103140000EF904466748007F012807D16548407F93
:10315000012803D05C480088634908606248006821
:10316000844203D360480068251A05E05E48006881
:103170004FF6FF71081A05195A48807F08B1962644
:1031800000E0962658480460B54200D270BD4E4813
:10319000C07A401C4C49C8720846C07A022802D145
:1031A0000020C872F2E74F48007F01280CD14D483B
:1031B000407F012808D001204A4948770846C07F4F
:1031C000012801D10220C87746480088401C4549A3
:1031D0000880084690F8200028B944480068401C40
:1031E0004249086009E03F4890F82000012804D1D6
:1031F0003E480068401E3D4908603848007820B1CC
:103200003B480068401C3A49086000203549088363
:10321000C8822D480088A04206D22B480088201A78
:103220002949486008E00BE0274800884FF6FF7105
:103230002144081A244948600120234908720C805F
:103240004FF4807007F0ACFB30B14FF4807007F0A2
:10325000B8FB0120274908704FF4007007F0A0FB6D
:1032600040B34FF4007007F0ACFB2348007808B37C
:10327000012080F3138800BF00BF00BF00BF00BF64
:1032800000BFBFF34F8F00BF00BF00BF1B480068E7
:1032900000F4E0601A490843001D1849086000BFA7
:1032A00000BF00BFBFF34F8F00BF00BF00BF00BF14
:1032B00000BFFDE700BF69E7DC0000202C02002012
:1032C000B0B9FFFF9C010020D8120020E4120020BA
:1032D000B4120020E0000020680000205C00002004
:1032E0005400002090120020E40000206400002020
:1032F000500000201E000020240000200CED00E003
:103300000000FA0500B585B00121880308F0D8F85F
:103310000121480408F0E1F84FF4E1300190002069
:10332000ADF80800ADF80A00ADF80C00ADF81000DB
:103330000C20ADF80E0001A9FE4809F07AF801A9A9
:10334000FD4809F076F8012240F22551F94809F0CC
:1033500008F9012240F22661F64809F002F901223B
:1033600040F22551F44809F0FCF8012240F22661B0
:10337000F14809F0F6F84FF4A06006F0DDFE2520D4
:103380008DF8000001208DF8010002208DF8020068
:1033900001208DF80300684606F0D3FE4FF4A060CC
:1033A00006F0CAFE26208DF8000001208DF80100ED
:1033B00003208DF8020001208DF80300684606F016
:1033C000C0FE0121DB4809F0C0F80121DA4809F00C
:1033D000BCF80020D9490870D9490870D94908704B
:1033E000D94908701420D94908800120D8490870AB
:1033F000D84908700020D84908706420D74908804F
:103400000020D7490880D74908800120D649087094
:103410000020D6490870D6490870D6490870362071
:10342000D54981F836000020D4490870D449086095
:10343000D4490860D4490860D44908704870042011
:1034400008710020D249087005B000BD10B5D14800
:10345000D1490860084600680178B64809F0E2F8EA
:1034600010BD10B5CD48CE49086008460068017807
:10347000B14809F0D7F810BD10B540F22551AD485C
:1034800009F054F900286DD040F22551A94809F0FF
:1034900077F9A84809F0CAF8C4B2B34800780128FF
:1034A00024D1AA2C18D1BF480078AA2814D1012011
:1034B000AF4908700020AF490870AB49087001207F
:1034C000AA4908700020B7490870B7490870B74981
:1034D0000870B749087009E0B2480078A52802D002
:1034E000B048047002E00020AE4908700020B149E5
:1034F0000880B1490870B148AC4909784454AB48D8
:103500000078401CA9490870A9480078401CA849C7
:10351000087096480078012823D1552C17D1A2486D
:103520000078552813D10120924908700020904955
:10353000087001208C49087000208C4908709A4955
:1035400008709849087001209D49087009E0964864
:103550000078A52803D100209349087001E0924823
:10356000047000BF40F22661724809F0DFF8D8B15C
:1035700040F226616F4809F003F987480068401C53
:10358000854908608F480078401EC0B28D49087098
:10359000002806DD804800680178664809F042F896
:1035A00002E001206A49087010BD10B540F22551B3
:1035B000614809F0BBF8D0B140F225515E4809F0EE
:1035C000DFF85D4809F032F8C4B27F487F490978D6
:1035D00044547E480078401C7C4908707C48007840
:1035E000401C7B49087000207A49087000BF40F2F7
:1035F0002661514809F09AF8D8B140F226614E4848
:1036000009F0BEF866480068401C654908607248C9
:103610000078401EC0B270490870002806DD60487E
:1036200000680178444808F0FDFF02E001204949A4
:10363000087010BD70B56948007800B970BD0020F1
:1036400066490870554CAA20207001206070262021
:10365000A070634800880012E07061480178217111
:1036600060480178617160480178A1715F48017814
:10367000E1715F48017821725E48808801126172B1
:103680005C480179A1725C4880880112E1725A4855
:103690000179217359480088010A617357480178FC
:1036A000A173574800880112E173554801782174CD
:1036B000544800880112617452480178A17452483C
:1036C0000178E17451480088011221754F48017852
:1036D00061754F480088010AA1754D480178E17570
:1036E0004C48017821764C48C088010A61764A48E6
:1036F0008179A176494800880112E176474801782E
:1037000021774748017861774648C0880112A17740
:1037100044488179E1773748408B011220200155D8
:103720003448817E212001553348408B01122220EC
:10373000015579E000380140004400402801002094
:10374000290100202A0100202B010020F800002080
:10375000F6000020F7000020EA0000204C010020C5
:103760004E01002050010020010100200201002034
:103770000301002004010020481500203001002032
:1037800034010020380100205800002007010020EB
:10379000FA000020F0120020EC000020EA130020C4
:1037A000F00000200501002006010020FF0000209D
:1037B0000001002024010020270100204E140020D9
:1037C00026010020F4000020E41700204901002019
:1037D000480100204A010020F5000020E9000020F7
:1037E0001C000020950200207F0000206A010020BC
:1037F0006B010020B412002090120020340200203F
:10380000C4000020C200002081000020120100201E
:1038100032020020B1000020DB190020BC00002093
:10382000C00000207A120020FA48817E84F823101C
:10383000F9480088011284F82410F748017884F8C8
:1038400025104088011284F82610F348817884F806
:103850002710F248017884F828100026002505E09A
:10386000EF48405D3044C6B2681CC5B2A078C01CA9
:10387000A842F5DCEA484655A078001DE9490870E1
:10388000FFF7EFFD0020E849087000BFD6E630B52D
:1038900003464C1EE1B28A4200DD30BD084604E01A
:1038A0001D5C441C1D55441EE0B29042F8DAA5246C
:1038B0009C5400BFF1E72DE9F04F87B0DB4800785A
:1038C00010B907B0BDE8F08FD948007800B9F8E723
:1038D0000020D6490870D74CAA20207060701220B2
:1038E000A0708320E0700020A0807120C4F8060042
:1038F000002507E0002104F10A0000EB45000180EB
:10390000681CC5B2082DF5DBCB48817A807E41EA80
:103910004000A076C948017804F10A00A4F81B1001
:10392000C748007810B9C748007818B9C648017868
:10393000617706E0C5480078C549097840EA41004A
:103940006077C448007818B1607F40F00301617768
:10395000C14800680EF044FE01900EF0A9FC4FF043
:103960003332BE4BCDE902010EF084FACDE90401F9
:103970000EF0BCF98046BA48B0F9000040420EF0A3
:103980002FFE01900EF094FCB64AB74BCDE9020130
:103990000EF070FACDE904010EF0A8F90646B3481E
:1039A000B0F9000040420EF01BFE01900EF080FCCA
:1039B000AC4AAD4BCDE902010EF05CFACDE9040151
:1039C0000EF094F90FFA80F9C4F81E90A848006828
:1039D0000EF006FE01900EF06BFC0022A54BCDE927
:1039E00002010EF047FACDE904010EF07FF9C4F8A8
:1039F0002200A14800680EF0F3FD01900EF058FC83
:103A000000229C4BCDE902010EF034FACDE904010D
:103A10000EF06CF9C4F82600C4F82A80C4F82E60B1
:103A20009648017884F832109548017884F833106C
:103A3000002184F8341004F10A00A4F835109148EC
:103A4000018804F10A00A4F837108F4800688F49F4
:103A500009680843C4F839008D49B1F906000EF031
:103A6000BFFD8C4900900EF01BFE01900EF020FC73
:103A70004FF03332884BCDE902010EF0FBF9CDE96E
:103A800004010EF033F94FEA204A8149B1F90800E8
:103A90000EF0A6FD7F4900900EF002FE01900EF0A0
:103AA00007FC4FF033327C4BCDE902010EF0E2F916
:103AB000CDE904010EF01AF94FEA204B04F10A0097
:103AC000A4F83DA0A4F83FB031B2A4F8411070486A
:103AD000018804F10A00A4F843106D48418804F1FC
:103AE0000A00A4F845106A48818804F10A00A4F885
:103AF0004710002184F84910A4F84A10A4F84C108B
:103B0000A4F84E10A4F85010A4F85210634800888E
:103B100000EB8000400041F2A86101EBE000604949
:103B20000978484381B204F10A00A4F85410002136
:103B300084F8561084F8571084F8581084F85910F7
:103B40005848007810B984F85A1002E0012184F82E
:103B50005A10304890F8200038B92E488188C4F8AF
:103B60005B10418BC4F863100EE02A4890F82000E7
:103B7000012809D1274880884142C4F85B102548B4
:103B8000408B4142C4F86310474890F8200038B990
:103B900045488188C4F85F10418BC4F867100EE077
:103BA000414890F82000012809D13F4880884142CF
:103BB000C4F85F103C48408B4142C4F867100021B4
:103BC00084F86B1084F86C1084F86D102C48017820
:103BD00084F86E103548008848F6CC514843C0F34D
:103BE0008F2104F10A00A4F86F10B4F85F2011B21D
:103BF000B4F85B2010B2FDF774FE2D49088008462A
:103C00000088801B01B204F10A00A4F8711000259D
:103C100056E00000901200207A120020BE00002022
:103C2000EA130020F5000020F7000020E800002043
:103C3000F6000020F0120020C0180020A90100208A
:103C400078010020790100206D0100206A01002028
:103C50006B010020A80100208C0000203333AB3F13
:103C60002E020020BC7493180456C63F2C0200207C
:103C7000640000200080C93F68000020BE010020D1
:103C8000BD010020AA0100203C01002040010020CD
:103C9000DB1900200000FA43337331400E0200208C
:103CA000FB01002094020020B4120020DC0100205F
:103CB00098000020002104F173004155681CC5B232
:103CC000082DF7DB002084F87B00A0790B30FC493D
:103CD00008700027022505E0FA48405D3844C7B265
:103CE000681CC5B2F64800788542F5DB84F87C7024
:103CF000F3480078401CF24908700A251AE0F148A0
:103D0000405DAA2807D0EF48405D552803D0ED4814
:103D1000405DA5280CD12A46E9480178E948FFF71B
:103D2000B6FDE7480078401CE5490870681CC5B23C
:103D3000681CC5B2E24800788542E0DB5520E149C5
:103D400048555521DF4A681C1154DD480078801C15
:103D5000DB490870FFF77AFB0020DB49087000BFE1
:103D6000AFE52DE9F0410024B7E004EB041000EBCF
:103D70004410D649084490F83000002879D0D24841
:103D800000780028FAD0002004EB041101EB441164
:103D9000CE4A114481F83000CA4EAA2030707070AB
:103DA00004EB041000EB44101146085CB07004EB07
:103DB000041000EB441008444088B08004EB041069
:103DC00000EB441008444068C6F80600012C09D1F5
:103DD0004FF0180804EB041000EB4410084440783E
:103DE000F07010E004EB041000EB4410B7490844F5
:103DF00090F8048004EB041000EB44100844407871
:103E000040F08000F07000250CE004EB041000EBA3
:103E10004410AE4908440830415D06F10A0041559E
:103E2000681CC5B24545F0DB012C08D0002106F125
:103E30000A00415508F10B00A149087003E008F1A0
:103E40000A009F4908700027022505E09D48405D53
:103E50003844C7B2681CC5B2994800788542F5DB82
:103E60009848475596480078401C954908700A259F
:103E70001BE030E09348405DAA2807D09148405DA0
:103E8000552803D08F48405DA5280CD12A468C4880
:103E900001788C48FFF7FBFC89480078401C884972
:103EA0000870681CC5B2681CC5B285480078854298
:103EB000E0DB5520834948555521824A681C11543E
:103EC0007F480078801C7E490870FFF7BFFA002009
:103ED0007D49087004E0601CC4B2072CFFF645AFB2
:103EE00000BF7B4890F8E800002876D0764800783C
:103EF000002872D00020764981F8E800714EAA208F
:103F0000307070701220B0700846407840F0800029
:103F1000F07008464088B08008464068C6F8060041
:103F2000002407E06A480830015D06F10A000155E7
:103F3000601CC4B266484068A042F3D8002106F174
:103F40000A000155624800790B305D49087000276E
:103F5000022405E05B48005D3844C7B2601CC4B26F
:103F6000574800788442F5DB564807555448007896
:103F7000401C534908700A241AE05248005DAA28E0
:103F800007D05048005D552803D04E48005DA52855
:103F90000CD122464A4801784A48FFF778FC484845
:103FA0000078401C46490870601CC4B2601CC4B252
:103FB000434800788442E0DB5520424908555521AA
:103FC000404A601C11543E480078801C3C490870EF
:103FD000FFF73CFA00203C490870BDE8F0813D48FD
:103FE00000884FF6FF7188421FDA3A480088401C6B
:103FF000384908800846008864280EDB00203649CE
:10400000087036490870012035490870002035498C
:10401000087035490870354908702E480088B0F599
:104020007A7F02DB01203249087032480078FF288D
:1040300012DA30480078401C2E4908700846007893
:104040000A2809DD2C480078002802DD01202B49D0
:10405000087000202A490870704710B5274B1B785C
:1040600003B910BD0023254C237026480378AA2BE2
:1040700003D00023204C2370F3E70022002105E049
:10408000204B5B5C1344DAB24B1CD9B28378DB1C47
:104090008B42F5DC1B4B5B5C934203D00023164C38
:1040A0002370DEE70123184C23704378012B2FD1B6
:1040B0008378002B02DDC378144C237029E00000C4
:1040C000F4000020F0120020F60000207F150020F0
:1040D000D616002024010020040100200301002046
:1040E000010100200201002005010020060100203E
:1040F000270100204A010020480100204B01002038
:1041000049010020E4170020DB020020DA02002031
:1041100000BF00BF0023FE4C237000BFA1E710B515
:10412000014609B9042004E0012901D1062000E07C
:1041300010BD002200EB001303EB4013F54C2344A9
:104140005A70202200EB001303EB4013E2540022CC
:1041500000EB001303EB401323445A80012200EBD1
:10416000001303EB401323445A6000EB001202EBF0
:10417000401223461A441172012200EB001303EB94
:104180004013234483F8302000BFD1E710B5E24844
:10419000007800B910BD0020DF490870DD486230AA
:1041A0000DF0ECFA20B10121DA4880F8921003E01A
:1041B0000021D84880F892100020FFF7B0FF00BF20
:1041C000E8E72DE9F04104460D4616461F462079E2
:1041D000A84203DDA8192179884202DD0020BDE84C
:1041E000F0816019324639460DF04EF80120F6E7AD
:1041F00001460A46002A02DA484202B200E00A46B4
:1042000090B270472DE9F0478046894644464D46B6
:1042100074B96DB9C148007840B1FDF7D5FEFDF71E
:10422000DAFE0020BE490870BE490870BDE8F0877C
:10423000002C01DB002602E0002C00DA01262046DB
:10424000FFF7D6FF04B2002D01DB002702E0002DAE
:1042500000DA01272846FFF7CBFF05B23CB9FDF78E
:10426000BAFE0020B049C880AD49087031E041F283
:104270007070844201DD044606E0B4F52F7F02DA57
:104280004FF42F7400E000BFA74890F82000B04220
:1042900002D0A548C07F40B9A34890F82000B042A2
:1042A0000FD1A148C07F03280BD1FDF794FE012058
:1042B0009B4908709D490C809D4806709A49CC80A6
:1042C00007E09949CC800846C07F10B93046FDF719
:1042D000D4F92DB9FDF778FE00209649C88031E069
:1042E00041F27070854201DD054606E0B5F52F7F8D
:1042F00002DA4FF42F7500E000BF8E4890F82000DE
:10430000B84202D08B48C07F40B98A4890F820005C
:10431000B8420FD18748C07F03280BD1FDF754FE68
:1043200001208049087084490D808249CD808348EE
:10433000077007E07F49CD800846C07F10B9384636
:10434000FDF745F90120754908707D490870002086
:104350007C49087000BF69E72DE9FF5F04468A4683
:1043600050460EF03DF9834658460DF0A1FF764ABF
:10437000764BCDE902010DF07DFD07460DF0B6FC50
:1043800005B2601906B2601B0FFA80F9C82E03DA75
:1043900016F1C80F00DD0026B9F1C80F04DA19F1D3
:1043A000C80F01DD4FF0000949463046FFF72AFFEC
:1043B000002E07DB00205C4981F821000846C088F8
:1043C00006B207E00120584981F821000846C0885C
:1043D000404206B2B9F1000F08DB0020554981F8D0
:1043E00021000846C0880FFA80F908E001205149F1
:1043F00081F821000846C08840420FFA80F906EB98
:10440000090000EBD07149100CB2A6EB090000EBDB
:10441000D07149100DB2002C0CDB43490C81454989
:104420000C81684200B288823F488582002048495A
:1044300008700EE060423C49088160423D490881B5
:1044400008468582684200B2374988820120404987
:10445000087028460EF0C4F801900DF029FF3D4A7F
:104460003D4BCDE902010DF005FD07460DF000FAC8
:10447000834658460EF078F800B23849088002208A
:1044800000F060FE032000F05DFE3548B0F900004A
:1044900034490880012034490870204908702849AF
:1044A000087028490870032030490870BDE8FF9F54
:1044B0002DE9F047044620460EF092F882460DF0B2
:1044C000F7FE07464FF01432294B0DF0D3FC05469A
:1044D0000DF00CFC81464846BDE8F0872DE9F0411F
:1044E00006460F4614461D4648F6A04094FBF0F0E1
:1044F000204908700846007848F6A04101FB1040AA
:104500001D4908802846FFF7D3FF1C49086037E0A3
:10451000480100207F150020EA0000207C000020D8
:1045200080000020810000209012002082000020E6
:1045300086000020B41200208400002087000020A4
:104540007D0000207E000020639AD693E67CDE3F4B
:104550008800002038732B2D26CB00404600002019
:104560002C020020440000205C0000207F0000207E
:10457000141414407400002076000020580000201D
:1045800039463046FFF7E8FE0020F7490860F74952
:104590000860F7490880F748B0F90000F64908803C
:1045A0000120F6490870BDE8F0812DE9F047044686
:1045B00020460EF015F882460DF07AFE0746F04AC6
:1045C000F04B0DF057FC05460DF090FB8146484638
:1045D000BDE8F0872DE9FF4F87B09B46DDF81C80D2
:1045E000099C089806905F46022F00DD0027B8F16D
:1045F000000F70DD4FF4B47098FBF0F0E2490870E2
:104600004FF4B47098FBF0F100FB1180DF49088093
:104610000846008800EBC00101EB00104FF6FF7167
:1046200001EA8000D94908804046FFF7BEFF1FFA23
:1046300080F82046FFF7B9FFC0EB0010C0F38D04EF
:104640001FB14FF6FF7000EA440441F270708442DB
:1046500001DD044606E0B4F52F7F02DA4FF42F7433
:1046600000E000BF0698012811D127B926B225B273
:10467000684205B21FE0012F02D126B200251AE0E0
:10468000022F18D125B2684205B2002613E0069821
:10469000022810D127B925B226B2704206B20AE02C
:1046A000012F02D1002625B205E0022F03D126B248
:1046B000704206B20025022000F044FD032000F005
:1046C00041FDB348B0F90000B249088027B9B248AB
:1046D000C0F8008004E066E04FEA4800AE49086098
:1046E00031462846FFF78EFDA81900EBD07149101E
:1046F0000FFA81F9A81B00EBD07149100FFA81FA6B
:1047000050460DF06DFF01900DF0D2FDA34AA44B71
:10471000CDE902010DF0AEFBCDE904010DF0E6FAA2
:1047200000B2944908800846B0F900009249088018
:10473000B9F1000F10DB9B49A1F808909A49A1F844
:104740000890CAF1000000B288829648A0F814A030
:1047500000209649087012E0C9F1000091490881D3
:10476000C9F10000904908810846A0F814A0CAF1D8
:10477000000000B28B49888201208C49087000201B
:104780007949086079490860894908607849088052
:10479000012088490870884908708849087088494C
:1047A0000870764908700BB0BDE8F08F2DE9F0472E
:1047B00006468846914637464C46C246002F62DD83
:1047C0003846FFF775FE87B22046FFF771FEC0EB53
:1047D0000010C0F38F0441F27070844201DD044682
:1047E00006E0B4F52F7F02DA4FF42F7400E000BF2B
:1047F000BAF1010F0AD125B200206B4981F82100DE
:10480000684981F82100694908700EE0BAF1020F89
:104810000BD125B2684205B20120634981F821001D
:10482000604981F821006149087029462846FFF750
:10483000E9FC5C4804815C48048100205A49888274
:1048400058498882022000F07DFC032000F07AFCA9
:104850000020484908804E48B0F900004D490880C2
:104860004D48076000204049086040490860012029
:1048700050490870504908705049087050490870F4
:1048800000203E490870BDE8F0872DE9F0478246D8
:10489000BAF1000F1CD050460DF085FA0646494A81
:1048A000494B0DF0E7FA04460022484B0DF0C6F8DC
:1048B00080460DF01BFA3C49C8600846C06839497B
:1048C000C86001204249087000204249087004E095
:1048D00000203F4908703F490870BDE8F0872DE986
:1048E000F04104460D4616461F4694F83600A8428D
:1048F00004DDA81994F83610884202DD0020BDE8D6
:10490000F0816019324639460CF0BEFC0120F6E712
:1049100010B503464C1EE1B28A4200DB10BD1046C2
:1049200004E0441C1C5D1C54441CE0B28842F8DBCB
:1049300000BFF3E72DE9FC5F2748007840B1274826
:10494000007810B92648007808B9BDE8FC9FFCE75C
:104950002448007800B9F8E7002022490870224C6A
:104960002078AA2842D079E350000020540000208B
:104970007A00002046000020480000207F00002030
:10498000FDD5327B15682940740000207600002098
:104990002C020020440000204C00002038732B2DF6
:1049A00026CB004090120020B41200208800002086
:1049B000580000205C0000207C0000207D000020CA
:1049C0007E000020D3D2D2D2D2D232400000694041
:1049D00060000020620000202701002078010020F4
:1049E00079010020260100204E1400204FF001091B
:1049F00017E0FE4810F80900A5280ED14A46FC48E9
:104A00000178FA48FFF784FFF9480078401EF8491A
:104A1000087009F1010000F0FF0909F1010000F040
:104A2000FF09F3480078801E4845E2DC4FF0000A99
:104A30004FF0010909E0ED4810F80900504400F07A
:104A4000FF0A09F1010000F0FF09E9480078001FA2
:104A50004845F0DAE54810F80900504500D0FDE27D
:104A6000E3480078401EE149085C552800D0F5E293
:104A7000607812287ED1A07808287CD2DFE800F088
:104A80007B0464EFEE7B7BED0120DA4981F8300096
:104A9000487012200870B4F803004880D4F805006C
:104AA0004860D54800680DF09BFD00900DF000FCBB
:104AB00007464FF03332D14B0DF0DCF905460DF0CF
:104AC00015F98346CE48B0F9000040420DF088FD4C
:104AD00000900DF0EDFB0746CA4ACB4B0DF0CAF92A
:104AE00005460DF003F90190C2484088C149496864
:104AF0000844082827D8BF4988781CE004280CDA25
:104B0000C0F10301C9004BFA01F1CAB2B9494988A1
:104B1000431AB8490831CA540BE0C0F10701CA0072
:104B200001991141CAB2B3494988431AB1490831C0
:104B3000CA54411CC8B2AF494968AE4A52881144B0
:104B40008142DBD800BF7AE26279E17804F109039F
:104B5000AE48FFF7C4FE00287ED0AC4908680DF0CF
:104B60003FFD83460DF0A4FB0746A94AA94B0DF073
:104B700081F901E064E261E205460DF0B7F8A6496B
:104B80000860A249496848420DF02AFD83460DF0AD
:104B90008FFB0746A14AA24B0DF06CF905460DF0BC
:104BA000A5F8A04908609949B1F9151048420DF0DF
:104BB00017FD83460DF07CFB0746984A984B0DF095
:104BC00059F905460DF092F8974908608F48C07E64
:104BD0009649097888421FD09448007820B901206E
:104BE00093490870934908708848C07E502803DABA
:104BF0000A209149088003E04FF461608E490880E3
:104C00008248C07E20B9002089490870894908700F
:104C10007E48C07E854908707C4890F82500874909
:104C20000978884211D08548007810B9012084495C
:104C30000870764890F8250010B900208049087067
:104C4000724890F825007D490870704890F824005B
:104C50007C490978884203E0B6E1DEE1B6E1B4E1DF
:104C600004D06A4890F824007649087076480078A5
:104C700010B97648007800B967E66448007A20B138
:104C800001286FD003286BD178E07148007878B99B
:104C90006F480078002863D16E4800686149096850
:104CA000884205D15C4800686B490968884257D042
:104CB0005C48008801B25848008800B2FFF74CFBFE
:104CC00000206649087066490870664908606049B6
:104CD00008704E49D1F809000DF065F84C4A4D4B6B
:104CE000CDE900010DF0C6F8054600225E4B0CF040
:104CF000A5FE07460CF0FAFF5C49C8600846C0688C
:104D00005B49C8604149D1F80D1048420DF068FC7C
:104D100083460DF0CDFA414A414BCDE900010DF03B
:104D2000A9F805460022504B0CF088FE07460CF00F
:104D3000DDFF4E490861084600694D4908614B484E
:104D4000C06828B101204B49087000204A4908700A
:104D5000344800683F4908602F4800683E490860B1
:104D600031E1FFE703203D49087000203C4908700D
:104D70003C49086001203649087024E13848007831
:104D800060B13E48007840B93D48007828B93D48B8
:104D9000007810B90020334908605FE10020FFF778
:104DA00074FD01202E49087000202C490870032052
:104DB0002749087001202B4908601B48006898B9F2
:104DC0001248D0F8110078B11049D1F811000CF058
:104DD000EAFF21F0004105460CF088FF0B49C1F8BD
:104DE00011000D4800684FE07EE000004E140020E6
:104DF000000100207F1500208C0000203333AB3FE2
:104E00002E020020BC7493180456C63F481500209B
:104E1000D3D2D2D2D2D2324090000020EC51B81E70
:104E200085EB1640940000200C01002010020020A9
:104E3000FB010020401900200E0200201202002079
:104E4000FA010020110200207801002079010020E1
:104E5000300100203801002034010020940200209D
:104E60002F0100203C01002000006940B412002006
:104E70009012002060000020620000207C000020D2
:104E80008100002080000020002811DD08680CF05F
:104E90008AFF21F0004105460CF058FF87B29A497D
:104EA000B1F8111088B23A460121FFF77FFC89E082
:104EB00096480068002812DA934908680CF073FFDE
:104EC00021F0004105460CF041FF87B28E49B1F850
:104ED000111088B23A460221FFF768FC72E0002107
:104EE0000846FFF78FF96DE089480068E8B3864807
:104EF000D0F81100C8BB864800680CF054FF21F0C0
:104F0000004105460CF0F2FE8149086081480068C6
:104F1000002812DD7F48008880B2642190FBF1F008
:104F200085B27B48006890FBF1F086B200232A46E8
:104F300002213046FFF74EFB44E076480068002827
:104F400014DA74480088404280B2642190FBF1F08A
:104F500085B26F48006890FBF1F086B200232A46C4
:104F600001213046FFF736FB2CE004E00021084623
:104F7000FFF748F926E06648006818B36248D0F8A1
:104F80001100F8B16049D1F811000CF00CFF21F0CC
:104F9000004105460CF0DAFE07465D4800680CF05B
:104FA00002FF21F0004105460CF0D0FE1FFA80F808
:104FB0003B4642465748008801B25448008800B238
:104FC000FFF78CFA00BF00BF39E038E004205249F7
:104FD000487012200870B4F803004880D4F8050027
:104FE00048600846408849680844E02814D84A497F
:104FF000887809E049490A5C47494988431A464983
:105000000831CA54411CC8B243494988424A5268CF
:1050100011448142EED800BF11E04149601C0CF000
:1050200083FB28B101213E48313880F8611004E04B
:1050300000213B48313880F8611000E000BF0CE0EF
:105040006078202809D1A078012806D16279E1781A
:1050500004F109033348FFF7B4F800BF00203249D8
:10506000087000BF71E400222D49313981F8942085
:10507000FD212B4A313A82F8931000222849313918
:10508000A1F895200422C1F8972081F89B00021214
:1050900081F89C20021481F89D20021681F89E2040
:1050A000012281F8C320704701211D48313880F862
:1050B000F61020201A49313981F8F50000211848EE
:1050C0003138A0F8F7100121C0F8F910174801781D
:1050D0001348313880F8FD10012180F82511704700
:1050E00058B1C82190FBF1F1114A11610121114A17
:1050F00011700021104A117004E000210F4A117054
:105100000F4A1170704700004815002090000020E1
:105110000C01002094000020D6160020DE29010892
:10512000B01500200701002000010020FA00002037
:10513000B412002060000020620000206100002006
:1051400063000020042800DD70470021984A42F8DF
:105150002010984A22F8101002280CDA9649974A33
:1051600042F820109649974A42F820109649974AEB
:1051700042F8201032E002280CD195498F4A42F8BB
:10518000201094498F4A42F8201000218F4A42F89B
:10519000201023E003280DD14FF07F51874A42F8B9
:1051A00020108D49874A42F820100021874A42F892
:1051B000201013E0042811D18849804A42F82010B9
:1051C0008749804A42F820100021804A42F8201086
:1051D0008449098809B2774A22F8101000BFB3E762
:1051E0002DE9F74F82B089461446042C03DD0020D8
:1051F00005B0BDE8F08F0298A0EB0905032C0CD197
:1052000044F25060854202DDA5EB400505E076489A
:10521000854202DA48F6A040054440F2DC5B2846AD
:105220000DF0DEF98246654850F8241050460DF026
:1052300037FA824657465D451BDCCBF100008542BC
:1052400017DB5B4850F824002844594941F82400F2
:1052500051F824000DF0C4F901905C4850F8241076
:1052600001980DF01DFA8246514638460DF04CF873
:105270000746504830F91400A0EB090528460DF008
:10528000AFF982464F4850F8241050460DF008FA06
:105290008246514638460DF037F80746454820F813
:1052A0001490032C06DA3226454938460DF09AF858
:1052B000074608E0032C02D143F6982603E0042CAD
:1052C00001D143F69826002138460DF0B5FA0FD8E3
:1052D00030460DF085F9394601900DF0ADF901D257
:1052E000B04615E038460DF03FF90FFA80F80FE0B0
:1052F00070420DF075F9394601900DF09DFA02D219
:10530000C6F1000804E038460DF02EF90FFA80F8D7
:1053100040466DE770B505463448B0F900000DF021
:105320005FF90446324920460DF0BAF90446264694
:1053300028460DF055F904462E4920460DF0B0F9E7
:105340000446214630460CF0DFFF06462A48B0F9F5
:1053500000000DF045F90446284920460DF0A0F95B
:105360000446214630460CF0CFFF06462448B0F9EB
:1053700000000DF035F90446224920460DF090F961
:105380000446214630460CF0BFFF06461A48B0F9E5
:1053900000001B4908801848058030460DF0E4F8ED
:1053A00000B21249088030460DF0DEF800B270BD40
:1053B000481800205C180020000070410C180020E4
:1053C0000000C84220180020CDCCCC3D341800206D
:1053D0000000A03F00004841000090410000A040B4
:1053E0000000C843AA010020B0B9FFFF520100200D
:1053F0006F12833A1F85EB3F540100207B14EE3F70
:1054000056010020B29DEF3E00BF00BF00BFBFF3BA
:105410004F8F00BF00BF00BFFE48006800F4E0608F
:10542000FD490843001DFB49086000BF00BF00BFE5
:10543000BFF34F8F00BF00BF00BF00BF00BFFDE73D
:1054400010B5F648007809287ED2DFE800F0E205C2
:105450000AE23D42E2E2500040F6B830FFF703FEB8
:10546000D8E0EF48007838B3EE480078E0B9802201
:105470000021032001F01AFEFBF7F6FCFBF727FDE5
:105480000021E94804F019FF0021481E06F025F824
:1054900000216FF0410006F013F80121084605F0E5
:1054A00059FE0120DF490870DE48007858B101201C
:1054B00000F09CFAFFF7A8FFDC48007818B140F62E
:1054C000BA30FFF7D0FDA5E040F6B930FFF7CBFDCD
:1054D000A0E0D348007848B1D548007830B9012021
:1054E000D349087040F6BC30FFF7BDFD92E0CC48D0
:1054F000007840B3CB480078E0B980220021032037
:1055000001F0D4FDFBF7B0FCFBF7E1FC0021C6483D
:1055100004F0D3FE0021481E05F0DFFF00216FF0EC
:10552000410005F0CDFF0121084605F013FE0120E2
:10553000BC490870BB480078002869D0012000F001
:1055400055FAFFF761FF00E063E0B84800780028F3
:105550005ED0B8480078F8B90420B6490870002039
:10556000B5490870B54908704FF6FF70B449088016
:105570000020B4490870B448B0F90000B34908806D
:105580000020B34908700120B2490870B248B0F950
:105590000000B24908800DE00020A6490870A64925
:1055A0000870A849087000210846FEF72BFE00206D
:1055B000A8490870A748007898B100209E49087053
:1055C0004FF6FF709E4908800020A1490870012015
:1055D000A0490870A2490870A2490870A249087041
:1055E00016E000209349087093490870002108468E
:1055F000FEF708FE00209A4908709A4908709B49F6
:1056000008709B49087093490870022096490870F9
:1056100000BF00BF00BF10BD10B59648007800B9AC
:1056200010BD0020934908708048007800B9F7E762
:105630004FF48071904805F0C0FA30B18F4800787F
:1056400020F001008D49087005E08C48007840F09A
:1056500001008A4908704FF40071874805F0ADFADF
:1056600030B18648007820F002008449087005E0D7
:105670008248007840F00200804908704FF4806151
:105680007D4805F09AFA30B17C48007820F004009B
:105690007A49087005E07948007840F004007749BD
:1056A00008704FF48071764805F087FA30B173487E
:1056B000007820F008007149087005E06F48007814
:1056C00040F008006D4908706C4800786D4908701A
:1056D0006D48007820B1012817D002285AD127E060
:1056E00000206A4908706A4908704D490870654889
:1056F0000078002805DD4948007810B9012062498A
:10570000087000204A49087048E05E480078434924
:105710000978084040B102205B4908705B48007876
:10572000401C5A49087002E000205749087035E0D3
:105730005448007848B939480078002805DD002031
:1057400051490870FFF77CFE23E04E48007800B313
:1057500032480078E8B14D480078401C4B49087049
:1057600008460078282814DB01202D490870484895
:105770000078401C4649087008460078092801DD79
:1057800009200870424800781E3040490870FFF731
:1057900057FE03E000203C49087000BF00BF3948B5
:1057A00000781E49087000BF3AE770B5044600252E
:1057B00075E004F0010028B101221021354805F000
:1057C0001AFA04E000221021324805F014FA0022EF
:1057D0002021304805F00FFA00BF00BF00BF00BF16
:1057E00000BF00BF00BF00BF00BF00BF00BF00BFC1
:1057F00000BF00BF00BF00BF00BF00BF00BF00BFB1
:1058000000BF00BF00BF00BF01222021214805F0DA
:10581000F2F941E00CED00E00000FA055E01002025
:105820005A010020240000200024014037020020FB
:105830005B010020940200209502002096020020C7
:1058400098020020A10200202C0200209C020020CF
:10585000AF02002040190020320200203402002054
:10586000FA010020FB010020DD020020FC010020E5
:10587000F801002058010020001401405C010020C4
:10588000001801405D0100205F0100206001002040
:1058900061010020001001406410681CC5B2082D91
:1058A00087DB70BD10B5044601221146524805F051
:1058B000A2F900220121504805F09DF92046FFF78A
:1058C00074FF10BD30B5024652B949B900244B4DA2
:1058D0002C706C70AC70EC70494C24782C7130BD1D
:1058E00004200FE00A2492FBF4F504FB1524A3B274
:1058F000434CE45C414D2C540A2492FBF4F4A2B2D4
:10590000441EA0B20A28EDDB79B900200AE03B4C26
:10591000245C5F2C03D10024384D2C5400E003E0BC
:10592000441CA0B20528F2DB00BF00BFD7E77047D8
:1059300010B5002400212046FFF7C4FF10BD10B5AC
:105940003048007800B910BD00202E4908702E485C
:10595000007828B14FF4E1512C4806F0E1FC25E035
:105960002B480188294806F0DBFC2A48008870B9DA
:1059700027480088B0F57A7F05DD25480088FA3889
:105980002349088012E00120224908800EE02048C7
:10599000008841F27071884205DA1D480088FA30AB
:1059A0001B49088002E000201A4908801A48007844
:1059B00028B101229102194805F01DF905E00022E5
:1059C0004FF48061154805F016F91548007828B1A4
:1059D0000122D102114805F00EF905E000224FF432
:1059E00000610E4805F007F900BFACE700F00101C7
:1059F00081F3138870470000000C014066180020F6
:105A0000BE2A01085901002037020020002C014065
:105A100064010020660100206B0100200018014095
:105A20006A0100200021FE4A1170FE4A1170FE4AF0
:105A30001170FE4A1170FE4A1170FE4A1170FE4A42
:105A40001170FE4A11700121FD4A11700021FD4ABA
:105A50001170FD4A1170FD4A1170FD4A1170FD4A26
:105A60001170FD4A1170FD4A1170FD4A118010211C
:105A7000FC4A116000201AE00021FB4A02EB0012F0
:105A80009180F94A02EB00121160F74A02EB001212
:105A90009172F54A02EB00125172F34A02EB0012C6
:105AA0001172F14A02EB0012D180411CC8B20528E4
:105AB000E2DB002020E04FF6FF71EC4A02EB00121F
:105AC00091800021E94A02EB00121160E74A02EBE3
:105AD00000129172E54A02EB00125172E34A02EBA6
