:020000040800F2
:10000000D0210020E19D0008E99D0008EB9D00083B
:10001000ED9D0008EF9D0008F19D00080000000024
:10002000000000000000000000000000F39D000838
:10003000F59D000800000000F79D0008F99D0008EC
:10004000FB9D0008FB9D0008FB9D0008FB9D000830
:10005000FB9D0008FB9D00087F700008332D000801
:10006000B16200085D700008FB9D0008FB9D000860
:10007000FB9D0008FB9D0008FB9D0008FB9D000800
:10008000FB9D0008FB9D0008FB9D0008FB9D0008F0
:10009000FB9D0008FB9D0008FB9D0008452E000805
:1000A000FB9D0008FB9D0008FB9D0008FB9D0008D0
:1000B000092D0008FB9D0008770C0008FB9D000837
:1000C000FB9D0008EF700008FB9D0008FB9D0008E9
:1000D000FB9D000889310008BB320008FB9D000829
:1000E000A30E0008FB9D0008FB9D0008FB9D000877
:1000F000FB9D0008FB9D0008FB9D0008FB9D000880
:10010000FB9D0008FB9D0008FB9D0008FB9D00086F
:10011000FB9D0008FB9D00088F0C0008FB9D00085C
:10012000FB9D0008FB9D0008FB9D0008FB9D00084F
:1001300000F002F800F04CF80AA090E8000C8244AD
:100140008344AAF10107DA4501D100F041F8AFF28A
:10015000090EBAE80F0013F0010F18BFFB1A43F0A5
:100160000103184730DC000050DC00000A4410F89E
:10017000014B14F00F0508BF10F8015B240908BFFC
:1001800010F8014B6D1E05D010F8013B6D1E01F8F3
:10019000013BF9D1641E03D0641E01F8015BFBD161
:1001A0009142E4D37047000000230024002500267C
:1001B000103A28BF78C1FBD8520728BF30C148BFCA
:1001C0000B6070471FB50CF07AF91FBD10B510BD5C
:1001D0000CF028FA1146FFF7F5FF00F015F90CF0C6
:1001E00046FA03B4FFF7F2FF03BC0CF047FA000035
:1001F0000B49D1F800C04A685CF8043B1068184409
:1002000042F8040B8C4528BFA1F1DC0C8A4228BFC0
:10021000A1F1DC02C1F800C04A6020F00040704744
:10022000681B00200CB50020019000906B4800680E
:1002300040F480306949086000BF6848006800F4F5
:10024000003000900198401C0190009818B9019866
:10025000B0F5A06FF1D16148006810F4003F02D002
:100260000120009001E0002000900098012842D178
:100270005B48006840F01000594908600846006873
:1002800020F0030008600846006840F002000860A3
:1002900052484068514948600846406848600846EE
:1002A000406840F4806048600846406820F47C1054
:1002B00048600846406840F4881048600846006876
:1002C00040F08070086000BF4448006810F0007F74
:1002D000FAD04248406820F0030040494860084690
:1002E000406840F00200486000BF3C48406800F0B1
:1002F0000C000828F9D10CBD10B5FFF793FF10BD15
:1003000010B53648006840F00100344908600846DE
:10031000406834490840314948600846006832491D
:1003200008402E4908600846006820F480200860D4
:100330000846406820F4FE0048604FF41F008860C3
:10034000FFF7DAFF4FF000602849086010BD10B5D4
:10035000002100200022214B5B6803F00C0121B139
:10036000042906D0082928D107E0214B214C23601D
:1003700027E0214B1F4C236023E0184B5B6803F4FC
:100380007010164B5B6803F48032022303EB90403D
:1003900022B91A4B4343174C23600DE00F4B5B68A7
:1003A00013F4003F04D0164B4343124C236003E088
:1003B000114B43430F4C236003E00D4B0D4C236066
:1003C00000BF00BF054B5B68C3F303130D4CE15C3A
:1003D000084B1B68CB40074C236010BD0010024047
:1003E000002002400000FFF8FFFFF6FE08ED00E0ED
:1003F00000127A0000000020001BB70000093D0039
:10040000808D5B000400002000F07DFB33E003F0F2
:10041000DBF802F097FF03F041FD04F013F903F05D
:10042000A4FC01F087F801F073F901F0EFF901F095
:1004300077FC01F022FB02F0F6F804F059FF05F01A
:10044000E6F800F098FE02F086F905F0B5FF06F038
:100450004EF902F0FCF800F0D2FF05F0D7F905F0F4
:1004600013FC07F0BEFF06F0CCFC07F08DF806F099
:1004700032FC06F05BFDCAE7FE480068FE490860F2
:10048000FC48001D00684860FA4808300068886031
:1004900070470EB5012120200AF08BFEF7480AF0C4
:1004A000E7FE4FF6FF70ADF804004720ADF80000FE
:1004B0000020ADF80600ADF802006946EF480AF0EA
:1004C000ABFF0121ED480BF003FB0EBD00B587B07B
:1004D0000121C8020AF060FEE9480AF0C9FE4FF4A3
:1004E000E150ADF814000020ADF81000ADF8160092
:1004F000ADF8120004A9E2480AF08EFF6020ADF8C2
:1005000000000120ADF802000020ADF80400ADF8B5
:100510000600ADF80800ADF80A004FF48070ADF8A1
:100520000C006946D6480AF0B4FF0121D4480BF00C
:10053000DBFA0121D2480BF0CBFA07B000BD1FB5A2
:10054000012108460AF035FE4FF080400AF090FE87
:100550004FF6FF70ADF808004720ADF8040000200A
:10056000ADF80A00ADF8060001A94FF080400AF08E
:1005700053FF012188070BF071FD012211469007FE
:100580000BF0C1FA4FF4A06009F04AFC1C208DF872
:10059000000000208DF8010003208DF802000120EA
:1005A0008DF80300684609F040FC012188070BF034
:1005B0008FFA1FBD1FB5012110200AF0FAFDB148C6
:1005C0000AF056FE48F6A040ADF808000120ADF84C
:1005D00004000020ADF80A00ADF8060001A9A94802
:1005E0000AF01AFF0121A7480BF038FD012211463D
:1005F000A4480BF088FA4FF4A06009F011FC3620F3
:100600008DF8000000208DF8010005208DF8020013
:1006100001208DF80300684609F007FC0121994884
:100620000BF056FA1FBD00B587B0012102200AF079
:10063000C0FD95480AF01CFE4FF4E150ADF81400DF
:100640000020ADF81000ADF81600ADF8120004A9B6
:100650008D480AF0E1FE6020ADF800000120ADF801
:1006600002000020ADF80400ADF80600ADF8080067
:100670004FF48070ADF80C00694683480AF009FF1A
:10068000694681480AF047FF69467F480AF090FFB3
:1006900069467D480AF0D7FF01217B480BF0DEFC5C
:1006A000012179480BF014FA07B000BD00B589B0FC
:1006B000012104200AF07DFD74480AF0D9FD41F2C1
:1006C000AF30ADF81C000020ADF81800ADF81E00EA
:1006D000ADF81A0006A96D480AF09EFE6020ADF83C
:1006E00008000120ADF80A000020ADF80C00ADF8BC
:1006F0000E00ADF81000ADF8140002A963480AF02E
:10070000C8FE02A961480AF006FF02A95F480AF084
:100710004FFF02A95D480AF096FF01215B480BF0EC
:100720009DFC012159480BF0F7F901221146574869
:100730000BF0E9F94FF4A06009F072FB1E208DF870
:10074000040000208DF8050004208DF8060001202B
:100750008DF8070001A809F068FB01214B480BF058
:10076000B7F909B000BD0EB5012108460AF014FD25
:10077000012104200AF014F9032104200AF010F9E1
:10078000052101200AF00CF9022101200AF008F9E4
:100790000C2104200AF004F90D2104200AF000F9CC
:1007A0000E2104200AF0FCF80F2104200AF0F8F8CA
:1007B000022009F078FF042009F075FF082009F0F5
:1007C00072FF202009F06FFF4FF4805009F06BFF9B
:1007D0004FF4005009F067FF4FF4804009F063FFC9
:1007E0004FF4004009F05FFF00208DF80800102052
:1007F0008DF809002220019001208DF80A0001A83F
:1008000009F0DAFE00208DF808000C208DF80900B0
:100810000820019001208DF80A0001A809F0CCFE03
:1008200000208DF8080010208DF809004FF2040018
:10083000019001208DF80A0001A809F0BDFE4FF4D7
:10084000A06009F0EDFA08208DF8000000208DF876
:10085000010001208DF802008DF80300684609F0C0
:10086000E4FA4FF4A06009F0DBFA17208DF80000DD
:1008700000200DE0E8F7FF1F540D00200014004099
:10088000002C01400010004000040040000800401F
:100890008DF8010002208DF8020001208DF8030080
:1008A000684609F0C2FA4FF4A06009F0B9FA0720CF
:1008B0008DF8000000208DF8010003208DF8020063
:1008C00001208DF80300684609F0AFFA4FF4A060EC
:1008D00009F0A6FA09208DF8000001208DF801002A
:1008E00000208DF8020001208DF80300684609F011
:1008F0009CFA4FF4A06009F093FA28208DF80000CC
:1009000001208DF8010002208DF8020001208DF8F1
:100910000300684609F089FA0EBD08B501217D2063
:100920000AF03AFC7720ADF8000000208DF80300B3
:100930006946FE4809F020FF49F68810ADF800002E
:1009400003208DF8020010208DF803006946F74857
:1009500009F012FF4FF40070ADF8000018208DF878
:10096000030003208DF802006946F04809F004FFF7
:100970004FF48060ADF8000048208DF8030003209C
:100980008DF802006946E94809F0F6FE3720ADF817
:10099000000048208DF803006946E54809F0ECFEA8
:1009A0004FF20800ADF8000003208DF8020010207F
:1009B0008DF803006946DE4809F0DEFE4FF47070E2
:1009C000ADF8000003208DF8020018208DF8030018
:1009D0006946D74809F0D0FE4FF44060ADF80000FA
:1009E00003208DF802001C208DF803006946D048D2
:1009F00009F0C2FE0F20ADF8000000208DF80300C2
:100A00006946CC4809F0B8FE3020ADF8000003205C
:100A10008DF8020010208DF803006946C54809F0E2
:100A2000ABFE4FF47070ADF8000003208DF80200AB
:100A300018208DF803006946BE4809F09DFE01218B
:100A4000BD4809F068FF4FF47040ADF80000032086
:100A50008DF8020010208DF803006946B74809F0B0
:100A60008BFE40F6CC70ADF8000048208DF80300F6
:100A70006946B24809F080FE2020ADF8000003204E
:100A80008DF8020018208DF803006946AB4809F084
:100A900073FE0121082009F03EFF4FF44860ADF8D5
:100AA000000003208DF8020010208DF80300694635
:100AB000A34809F061FE4FF20B10ADF8000048208A
:100AC0008DF8030069469E4809F056FE0220ADF8F5
:100AD000000004208DF803006946994809F04CFE97
:100AE0004FF40070ADF8000003208DF802001820CC
:100AF0008DF803006946924809F03EFE01219148B5
:100B000009F009FF08BD10B5FFF7FAFBFFF705FF75
:100B100001229103894809F0DEFE01225103874832
:100B200009F0D9FE06F03CF801225102844809F090
:100B3000D2FEFFF718FEFFF7B9FDFFF774FDFFF7D0
:100B400039FDFFF7FCFCFFF7C1FCFFF7A2FC00F04A
:100B500027FA02F05FFA00F0D1FC00F07DFB04F010
:100B6000DBFD05F0D5FB05F093FD04F048FD0BF02F
:100B70004BFF0020744908607449087010BD08B527
:100B80004FF6FF70ADF8000004208DF803006946B1
:100B9000664809F0F1FD6946654809F0EDFD6946D2
:100BA000644809F0E9FD6946644809F0E5FD6946D5
:100BB000634809F0E1FD4FF48070ADF80000482073
:100BC0008DF8030069465E4809F0D6FD4FF40070C9
:100BD000ADF8000048208DF803006946574809F039
:100BE000CBFD08BD0EB50821042009F0D9FE09216E
:100BF000032009F0D5FE00208DF8080010208DF8A4
:100C000009004FF6FE40019000208DF80A0001A86F
:100C100009F0D2FC00208DF808000C208DF80900A6
:100C20004FF48070019001208DF80A0001A809F0AE
:100C3000C3FC00208DF808000C208DF809004FF44B
:100C40000070019001208DF80A0001A809F0B4FCA1
:100C50004FF4E06009F0E4F817208DF80000002060
:100C60008DF801008DF8020001208DF80300684620
:100C700009F0DBF80EBD10B5012135480BF0F1F994
:100C800020B1012132480BF0FDF900BF10BD10B5B5
:100C9000012130480BF0E5F900287DD001212D48D5
:100CA0000BF0F0F92C480078401CC0B22A490870BB
:100CB00032280ADB002008700120284908702849E2
:100CC0000870284908702849087028480078401C96
:100CD000C0B22649087026490988884207DB0020EF
:100CE00022490870012023490870234908702348CD
:100CF0000078401CC0B22149087014280CDB002089
:100D0000087001201E4908701E4908701E490870AD
:100D10001E4908701E4908701E480078401CC0B269
:100D20001C49087005283EDB002036E00008014021
:100D3000000C014000100140000C1A00001401409A
:100D400000180140C00016001C00002020000020F8
:100D50000008004000100040140000208100002026
:100D60000402002059010020DB02002017000020AF
:100D7000F4000020E4000020E50000201500002021
:100D800058010020D9010020C8020020D80100200D
:100D9000D60000201600002082E0087001206A4979
:100DA00008706A4908706A480078401CC0B26849F7
:100DB000087068490978884205DB0020644908709A
:100DC00001206549087065480088401C80B263496D
:100DD0000880B0F57A7F08DB002008806049088031
:100DE0000120604908706049087060480078401C24
:100DF000C0B25E4908701E2807DB00200870012081
:100E00005B49087000205B4908705B48007820B19E
:100E100053480088401C5249088058480088401CAC
:100E20005649088001205649087056480068401C01
:100E30005449086001205449087002F058FF01200D
:100E400052490870524908705248C07F90B15148C9
:100E5000C07F03280ED04F48C07F01280AD04D48DC
:100E6000C08A401C4B49C8820846C08A322801DD2E
:100E70000420C8774848C07F90B14748C07F032806
:100E80000ED04548C07F01280AD04348C08A401C84
:100E90004149C8820846C08A322801DD0420C8774B
:100EA00010BD10B54FF4805009F0ECFB90B14FF439
:100EB000805009F0F8FB4FF48051384809F0EDFC00
:100EC00020B10121032005F0FAF803E000210320FE
:100ED00005F0F5F84FF4005009F0D4FB90B14FF451
:100EE000005009F0E0FB4FF400512C4809F0D5FC0C
:100EF00020B10121022005F0E2F803E000210220E8
:100F000005F0DDF84FF4804009F0BCFB18B14FF458
:100F1000804009F0C8FB4FF4004009F0B3FB90B1EA
:100F20004FF4004009F0BFFB4FF400411B4809F0AB
:100F3000B4FC20B10121084605F0C1F803E000210E
:100F4000012005F0BCF810BD660000203000002034
:100F5000190000206E000020640000201A0000200C
:100F6000DC010020E60000207902002018000020AB
:100F700087010020FC020020D8010020240200206C
:100F8000650000201C00002082000020830000205B
:100F900083010020580E0020340E0020000C014078
:100FA00010B590B0012108460AF0E9F8012140F29D
:100FB00001200AF0F1F89E4809F0C8F99D48009018
:100FC0009D480190002002900A2003900020049088
:100FD0008020059040000690800007902020089017
:100FE0000002099000200A906946914809F050FAE1
:100FF00001218F4809F077FA00200B9001208DF82D
:10100000300000208DF831004FF460200D9000205A
:101010000E900A208DF83C000BA986484C3808F049
:1010200094FF00230122022182484C3809F025F860
:101030000023022201217F484C3809F01EF80023CA
:10104000032206217B484C3809F017F800230422BC
:101050000A2178484C3809F010F8002305220B21AA
:1010600074484C3809F009F8002306220C21714815
:101070004C3809F002F8002307220D216D484C3846
:1010800008F0FBFF0023082219466A484C3808F094
:10109000F4FF00230922042166484C3808F0EDFFD4
:1010A00000230A22052163484C3808F0E6FF01219D
:1010B00060484C3808F080FF01215E484C3808F049
:1010C00070FF5C484C3808F08EFF00BF59484C3820
:1010D00008F08EFF0028F9D156484C3808F092FFEE
:1010E00000BF54484C3808F092FF0028F9D1012184
:1010F00050484C3808F095FF002404E000204F4988
:101100000855601CC4B20A2CF8DB00204C4908705A
:1011100010B010BD02468A4202DD501A80B27047FC
:10112000881A80B2FBE7F0B502460B4600254FF661
:10113000FF760024022B01DC0020F0BD002110E02E
:1011400032F81100A84201DD32F8115032F81100D6
:10115000B04201DA32F8116032F811000444481C40
:10116000C1B29942ECDBA41B641B981EB4FBF0F0E7
:1011700087B23846E1E770B53248007800B970BDF3
:10118000002030490870002411E000250BE02A48B7
:1011900030F8150005EB45012B4A02EB810121F8DF
:1011A0001400681CC5B20A2DF1DB601CC4B2062C09
:1011B000EBDB002433E004EB4401234A02EB810023
:1011C0000621FFF7B0FF214921F81400204A32F828
:1011D00014101E4A32F81400FFF79CFF0646962EA4
:1011E00015DC1A4830F814001A4921F81400084692
:1011F00030F8140028B11248007810B901201049C5
:1012000008700F480078012801D10C4908550F4893
:1012100030F814000E4921F81400601CC4B20A2CE6
:10122000C9DB012103484C3808F0FBFE00BFA6E7EC
:10123000080002404C2401406A0D0020600D00208F
:1012400031000020300000207E0D0020F60D00202F
:101250000A0E00201E0E00200020FE490870FE49E4
:101260000870FE490870FE490870FE490870FE4982
:1012700008700520FD4908700020FD490880FD49DF
:101280000880FD490880FD490880FD490860FD4946
:101290000860FD498882FD498882FD490870FD4942
:1012A0000860FD490880704710B5F748C07F18B145
:1012B000F548C07F042817D10120F34908770020A2
:1012C000487788770880F5490860F5490870F5493E
:1012D00088704FF080400AF0B2FEF249088000208A
:1012E000C8720120E849C87710BD70B50446012CCA
:1012F00000DD0124FFF7D8FF002003F0ABFD4FF421
:101300002F60E1494883084680F8204084B90021D5
:10131000E5480AF07BFEDC48408B00EBC005E8178F
:1013200005EB5070C0F3CF01DF480AF06DFE0FE00F
:101330000021DD480AF068FED348408B00EBC00571
:10134000E81705EB5070C0F3CF01D7480AF05EFEF6
:1013500070BD10B5CD48C07F18B1CC48C07F0428FF
:1013600018D10120C949087700204877887708807C
:10137000CE490860CE490870CE4988704FF0804051
:101380000AF05DFECB4908800120C049C8770020E3
:10139000C849C87210BD70B50446012C00DD012497
:1013A000FFF7D7FF012003F055FD4FF42F60B74939
:1013B0004883084680F8204084B90021BA480AF0E2
:1013C0001FFEB248408B00EBC005E81705EB5070DC
:1013D000C0F3CF01B4480AF015FE0FE00021B24877
:1013E0000AF010FEA948408B00EBC005E81705EB9A
:1013F0005070C0F3CF01AC480AF002FE70BD10B5CA
:10140000AD48007800B910BD0020AB4908709F4876
:10141000C07FB8B99C48C07FA0B98E48007888B119
:1014200000208C490870A5490860A5490860A549B5
:101430000860A548007828B9A448007810B90020B1
:10144000A34908708348007890B9A2480078012821
:101450000ED1A148007840B900209E4908706E2244
:101460000221462003F02AF802E000209B49087080
:101470007848007850B99748007838B9984800788B
:1014800020B9012096490870944908707248007884
:10149000012816D18D480078012812D17B48C07FE1
:1014A00078B990480078FFF776FF8F480088774931
:1014B000C880002085490870012066490870664987
:1014C000087065480078012816D17F480078012807
:1014D00012D16D48C07F78B984480078FFF705FFC6
:1014E000834800886849C880002077490870012037
:1014F000584908705849087000BF84E700206249C5
:10150000C8776249C87760494883604948835E4923
:1015100088805E4988807749086077490860774904
:10152000086077490860564908605649086068496C
:10153000087070475B49097A71B30021594A1172EA
:10154000114649686F4AB2FBF1F188B254490978F3
:1015500010290CDA514909680144504A11604A497E
:1015600088804F490978491C4D4A117010E04B4959
:101570000968C1F30F11444A918048490968014440
:10158000464A1160404989881268511A434A1160DD
:101590000121444A917251724649097A71B300217E
:1015A000444A117211464968564AB2FBF1F188B2B9
:1015B0003F49097810290CDA3C49096801443B4A43
:1015C0001160324988803A490978491C384A1170BB
:1015D00010E036490968C1F30F112C4A9180334954
:1015E00009680144314A1160284989881268511AF2
:1015F0002E4A116001212F4A9172517270472DE9D4
:10160000F04F85B082468B464FF491700490049859
:101610000BF0EDFC06460F46ABEB0A000BF0E7FCC7
:1016200080464FF03332384B0BF048FD0022374BE9
:10163000CDE900010BF042FD32463B46CDE9020107
:101640000BF020FB04460BF075FC00B205B0BDE8C2
:10165000F08F0000A0000020A1000020A2000020C8
:10166000A300002065000020C80000206E000020BC
:10167000CE000020D0000020CA000020CC000020B6
:101680009000002094000020580E0020340E00200E
:10169000AC000020B40000206A000020C40000203C
:1016A000BF000020880E002000080040C00000207D
:1016B000BE0000207C0E002083000020B00000202F
:1016C0002C01002030010020A5000020A4000020F3
:1016D0008000002084010020B60200208601002046
:1016E00085010020AA000020A6000020AB000020F9
:1016F000A80000207800002074000020880000204E
:101700008C000020703839003333AB3F00408F40ED
:1017100010B5FE48007800B910BDFD48007838B11A
:10172000FB480078012804D1FA480078012800D04D
:10173000F2E70020F5490870F748C07F01282FD153
:10174000F548408B41F2FE01884204DCF248408BB0
:101750003230F1494883F04890F8200080B90021E8
:10176000EE480AF04DFCEC48408B00EBC004E0175B
:1017700004EB5070C0F3CF01E8480AF043FC0FE0DF
:101780000021E6480AF03EFCE348408B00EBC00431
:10179000E01704EB5070C0F3CF01E0480AF030FCD2
:1017A000DF48C07F01282FD1DD48408B41F2FE0188
:1017B000884204DCDA48408B3230D9494883D84823
:1017C00090F8200080B90021D4480AF01FFCD448CA
:1017D000408B00EBC004E01704EB5070C0F3CF0166
:1017E000CE480AF011FC0FE00021CC480AF00CFCB6
:1017F000CB48408B00EBC004E01704EB5070C0F303
:10180000CF01C6480AF002FC00BF85E72DE9F04190
:10181000C348C07F022805D0BF48C07F022801D03E
:10182000BDE8F081BF48007800B9F9E70020BD4964
:101830000870BD48007800285BD0BC48007898BB91
:101840000120BA490870B6480089B9490880B448EF
:101850008088B0F52F7F0BDCAF488088B0F52F7FF4
:1018600006DC4FF42F70AE490881AB49088118E0BF
:10187000AB488088A84989880144A9480089B1EB10
:10188000400F0EDCA6498988A34A9288881800EB8D
:10189000D071C1F34F01A24A1181104600899E49BF
:1018A00008810A20A34908709D4800899C49C9689D
:1018B00008449F49098888420EDA99480089984966
:1018C0008989084496490881934800899249898901
:1018D0000844914908810CE09548008890490881A6
:1018E000934800888C49088100208F4908708F49EF
:1018F00008709148007800287DD090480078002832
:101900004DD101208D4908708D48B0F900008D49F6
:1019100008800A20874908708A48B0F9000000282A
:101920003EDD8948B0F90000B0F5E16F04DA4FF40C
:10193000E160834908800CE08348B0F900008049E9
:10194000B1F90010884204DC7F48B0F900007C49FE
:1019500008807B48B0F900007A49B1F9001088424C
:101960005EDA6F48B0F914007549B1F900104843C8
:101970007449B1F9001090FBF1F000B26849888217
:101980006548B0F914006E49B1F9001048436D493B
:10199000B1F9001090FBF1F000B25F4988823FE09E
:1019A0006948B0F9000010F5E16F04DD4FF6F8006A
:1019B000634908800CE06448B0F900006049B1F95F
:1019C0000010884204DD6048B0F900005C490880DE
:1019D0005B48B0F900005B49B1F9001088421FDD97
:1019E0004F48B0F914005649B1F900104843554921
:1019F000B1F9001000E03EE090FBF1F000B2484980
:101A000088824548B0F914004D49B1F900104843A7
:101A10004C49B1F9001090FBF1F000B23E498882C8
:101A20004848B0F900000BF0E2FA21F00045044606
:101A30003B490969424AB2F9002088180BF0D7FAED
:101A400021F00041064622462B460BF0FBFA08D255
:101A50003348008A3A490988084400B23849088066
:101A600009E03848B0F900003549088000203249C3
:101A700008703249087000BFD2E670B5244800787B
:101A800038B123480078012804D122480078012881
:101A900000D070BD2D48007800B9FAE700202B492E
:101AA00008701D48C08840F2DC51884207DB1C48A2
:101AB000C088884203DB0520254908700CE01648E1
:101AC000C08840F21451884203DB1548C088884220
:101AD00002DA0A201E4908700F48C07F02286FD121
:101AE0001C48807A01286BD100201A4988720A4A62
:101AF000928811B2084AD28810B2012203F0F8F994
:101B000004B2002C2CDD0448408B25E0810000202D
:101B1000A0000020A1000020340E0020000800409A
:101B2000580E0020660000208400002034000020B1
:101B300040000020C8000020850000203500002063
:101B40006A000020420000206E0200206400002095
:101B50006E0000207C0E00202044FE49488311E0E6
:101B6000604204B2FB48418B04F5FA70814205DD06
:101B7000F848408B001BF749488303E04FF4FA70A4
:101B8000F4494883F348408BB0F58C5F03DD4FF494
:101B90008C50F0494883EF4890F8200088B9002124
:101BA000ED480AF02DFAEB48408B00EBC006F01729
:101BB00006EB5070C0F3CF01E7480AF023FA10E0BB
:101BC00020E00021E4480AF01DFAE248408B00EBD7
:101BD000C006F01706EB5070C0F3CF01DE480AF0E4
:101BE0000FFADC48C088C0EBC00085B2ED10D948C0
:101BF0008088A84203DD0120D649887702E00020D2
:101C0000D4498877D548C07F022869D1D448807AE2
:101C1000012865D10020D2498872D04A928811B239
:101C2000CE4AD28810B2002203F062F904B2002C2E
:101C300005DDCA48408B2044C849488311E0604212
:101C400004B2C648418B04F5FA70814205DDC348F1
:101C5000408B001BC149488303E04FF4FA70BF4931
:101C60004883BE48408BB0F58C5F03DD4FF48C5049
:101C7000BA494883B94890F8200080B90021B64895
:101C80000AF0C4F9B548408B00EBC006F01706EB2C
:101C90005070C0F3CF01B0480AF0B6F90FE0002150
:101CA000AD480AF0B1F9AD48408B00EBC006F01723
:101CB00006EB5070C0F3CF01A7480AF0A7F9A74878
:101CC000C088C0EBC00085B2ED10A4488088A8424F
:101CD00003DD0120A149887702E000209F49887731
:101CE00000BFD6E69D48C07F10B103209B49C8774E
:101CF00070479848C07F10B103209649C877704755
:101D000002460B46D11A002903DA48F6A0400144E6
:101D100004E048F6A040814200DD091A88B270470D
:101D20002DE9F04F89B08F48007810B909B0BDE8AF
:101D3000F08F00208B4908708B480078012807D16C
:101D40008A480078012803D189480078012800D00A
:101D5000ECE78848007800B9E8E787480078401C3D
:101D6000854908707D48C07F00287DD07B48C07FB2
:101D70000328FAD08148016881480068801C8142AC
:101D800007D880480078032803D07E4800780128CF
:101D90006BD17C48007858B17A480078022807D087
:101DA00078480078032803D07648007801285BD172
:101DB000714800780A2857DB00206F490870724884
:101DC0000078401C704908706E48007890B9084649
:101DD000007802281CDB0020087003226B48B0F951
:101DE00000106B48B0F9000003F082F800B26949B6
:101DF00008800DE063480078022809D16248007825
:101E0000022805DB002060490870012007F01DFD55
:101E10006048B0F9000044F62061884203DD0846BE
:101E20005C49088009E05B48B0F900005A498842E3
:101E300003DA4BF2E0105749088002225748B0F904
:101E400000105448B0F9000003F052F805B24348BE
:101E5000B0F9140042F6E061884201DB002D27DC76
:101E60003E48B0F9140001E0B2E1B2E14C498842C9
:101E700001DC002D1CDB4B48007801280CD13748D1
:101E8000808A284400B2354988823248808A401BC3
:101E900000B2304988820BE03048808A401B00B293
:101EA0002E4988822B48808A284400B2294988829A
:101EB0002A48008906B22948B0F9140030440028A5
:101EC00037DD2648B0F91400304441F664118842E9
:101ED00007DC224800892149898A08441F49C880B3
:101EE00011E041F664101D49C8800846008941F69A
:101EF0006411081A00B2194988820846808A404253
:101F000000B2144988822748007840B9002013495C
:101F100081F82100084680880FFA80FA70E00120DD
:101F20000E4981F821000846808840420FFA80FA65
:101F300066E00A4800890949B1F914100844404292
:101F400041F66411884233DC044800890349898AD8
:101F5000084429E0340E002000080040580E0020FC
:101F6000880E002065000020A0000020A1000020B5
:101F7000A200002080000020C80000207000002087
:101F800078000020A3000020440000206C02002004
:101F9000680000206A000020E0B1FFFF6E02002010
:101FA00020D1FFFFAC0000204042FD49C88012E074
:101FB00041F66410FA49C8800846008941F6641168
:101FC0000844404200B2F64988820846808A40426E
:101FD00000B2F4498882F448007848B90120F049F9
:101FE00081F821000846808840420FFA80FA07E015
:101FF0000020EB4981F82100084680880FFA80FA1A
:10200000E74890F82000E64991F82110884216D060
:10201000E348C07F022812D1E148C088B0F52F7F85
:102020000DDBFFF75FFE0120E0490870DC48C08847
:10203000DF490880DA4890F82100DE490870D94865
:10204000008906B2D748B0F914003044002837DDC3
:10205000D448B0F91400304441F66411884207DCDA
:10206000D0480089CF49898A0844CE49C88011E008
:1020700041F66410CB49C8800846008941F66411D6
:10208000081A00B2C74988820846808A404200B2D6
:10209000C3498882C448007840B90020C14981F80A
:1020A0002100084680880FFA80F945E00120BD49EB
:1020B00081F821000846808840420FFA80F93BE011
:1020C000B8480089B749B1F914100844404241F6B4
:1020D0006411884208DCB3480089B249898A0844FF
:1020E0004042B049C88012E041F66410AD49C88052
:1020F0000846008941F664110844404200B2A949EB
:1021000088820846808A404200B2A5498882A64853
:10211000007848B90120A34981F821000846808849
:1021200040420FFA80F907E000209E4981F8210023
:10213000084680880FFA80F99A4890F8200099495B
:1021400091F82110884216D09648C07F022812D1FB
:102150009448C088B0F52F7F0DDBFFF7CAFD012042
:10216000954908708F48C088944908808D4890F838
:1021700021009349087009EB0A0000EBD071491067
:10218000904A11608648C08841F66411884203DD98
:1021900008468349C88008E08148C08840F28A2107
:1021A000884202DA08467E49C8807E48C08841F6E7
:1021B0006411884203DD08467A49C88012E07948F4
:1021C000C08840F28A2188420CDA08467549C880E6
:1021D00008E0FFF787FDFFF78CFD002076490870C7
:1021E000724908706F48C07FD8B16E48C07F03281D
:1021F00017D075480078012813D0744801687448D6
:102200000068801C81420CD86F480078032808D0F1
:10221000FFF76FFDFFF766FD00206749087063490F
:1022200008706948007801287DD16A48B0F900003B
:10223000002809DD6848B0F900106848B0F90000CE
:10224000FFF75EFD04460DE06248B0F9000000288B
:1022500008DA6248B0F900105F48B0F90000FFF7F3
:102260004FFD044644F25060844206DD48F6B80053
:10227000844202DA01205A4908705A48007800283E
:102280000EDD57480078012809D1C82C07DC002052
:102290005349087053480078401E524908706DE158
:1022A0005148008848F6B801884203DB4C48007862
:1022B00000B93BE54C48008848F6B801884204DA8A
:1022C0000846844201DA49480480494800780328D6
:1022D00006D04848006818B14548007804285ED107
:1022E000414800880AF09AFECDE906014248B0F95B
:1022F00000000AF07CFE21F00041074600224FF06A
:1023000080430AF0BFFCCDE9020120460AF086FEB8
:10231000CDE90001DDE902230AF000FCCDE904016A
:10232000DDE9062300E05AE10AF0C6FF6CD8334825
:102330000078401CC0B2314908700A286EDB0020CA
:1023400008702D48B0F900000AF051FE21F000415C
:10235000074600222A4B0AF0AFFF09D82648B0F9F9
:102360000000032190FBF1F000B22349088055E002
:102370002148B0F900000AF03AFE21F0004107467A
:102380000022204B0AF098FF48D21B48B0F9000009
:1023900000283ADD4FF4E160174908803EE09CE0F8
:1023A000580E0020340E0020AC000020A5000020B4
:1023B000A8000020AB000020A4000020A600002000
:1023C000AA000020B0000020A30000207000002020
:1023D000740000206E020020680000206C020020C3
:1023E00045000020980000209A0000209C0000205A
:1023F000B60200207C0000206A0000204600002079
:102400000018B54000209C403CE0F648B0F90000C0
:10241000002803DA4FF6F800F2490880F2480088F5
:10242000B0F5C87F17DBF0480088C838A04211DC3F
:10243000ED480088C83084420CDCFFF753FCFFF7FE
:1024400058FC0020E9490870E9490870E94908701A
:10245000E949087092E0E4480088844211DBE248D0
:102460000088C83084420CDCFFF73CFCFFF741FCDD
:102470000020DE490870DE490870DE490870DE4938
:1024800008707BE0D84800880AF0C8FDCDE9060155
:10249000DA48B0F900000AF0AAFD21F00041074631
:1024A00000224FF080430AF0EDFBCDE90201204607
:1024B0000AF0B4FDCDE90001DDE902230AF02EFBAC
:1024C000CDE90401DDE906230AF0BCFD56D2CB4874
:1024D000B0F90000C349088050E0C3480088B0F557
:1024E000C87F26DBC0480088C838A04246DCBE480A
:1024F0000088C830844241DCBA48B0F90000B0F529
:102500007A7F03DD4FF47A70B6490880BC480068D2
:10251000A0B3BC48B0F91400C010BA498882BA48C8
:10252000B0F91400C010B84988820020B44908608E
:1025300024E0AD480088844220DBAB480088C830E6
:1025400084421BDCA748B0F90000B0F57A7F03DDB8
:102550004FF47A70A3490880A948006870B1A9486F
:10256000B0F91400C010A7498882A748B0F9140038
:10257000C010A54988820020A1490860A3480068CE
:1025800060B3A04890F820009F4991F8201088423D
:1025900007D19F4800689F49096808444FEA500BDB
:1025A0000EE09B4909689B4A1268881A0AF01FFDD1
:1025B00021F0004107460AF0EDFC83464FEA5B0B31
:1025C00092480068801C834508D3FFF792FBFFF711
:1025D00089FB0020874908708749087000BF00BF49
:1025E00067E62DE9F04107460C4615461E460A2FC0
:1025F00000DD0A270A2D00DD0A25012C00DD01245B
:10260000012E00DD0126002F01DDFEF7A2FE002DC8
:1026100001DDFEF749FE3046FEF767FE2046FEF775
:10262000BAFEBDE8F08110B57648C07F042804D119
:10263000744991F82000FEF758FE7348C07F0428C3
:1026400004D1714991F82000FEF7A5FE10BD10B528
:102650007148007800B910BD00206F4908706948C2
:10266000C07F30B900206749087748778880488361
:1026700033E06448C07F03282FD141F224616748CA
:1026800009F0C4FC41F22461644809F0BDFC00205B
:102690005C49488341F2AF30488300200877084600
:1026A000407F70B90020C877888000215B4809F01E
:1026B000ADFC0021594809F0A7FC0020514948838E
:1026C0000BE05048008B401C4E4908830846008BA5
:1026D000322802DD0020487708834B48C07F28B9A4
:1026E000002049490877487788802CE04648C07F19
:1026F000032828D141F22461484809F083FC41F2C3
:102700002461464809F07CFC00203F494883087753
:102710000846407F58B90020C877888000213F488C
:1027200009F070FC00213D4809F06AFC0BE03648D6
:10273000008B401C344908830846008B322802DD98
:1027400000204877088300BF85E700B5FFF7D1FA7E
:10275000FFF7C8FA00BD10B53148007800B910BDC8
:1027600000202F4908702F480078B0B901202D496A
:10277000087000202C4908702C4908702C490870FA
:102780002C4908702C4908702C4908804FF6FF70BE
:102790002B49088000202B4908701A48C07F022866
:1027A00009D11948C07F022805D127480088401C5C
:1027B0002549088002E0002023490880224800883B
:1027C000322800DACBE733201F4908800D4890F803
:1027D000200018B90C4890F82000C8B300201B490D
:1027E0000870BCE76A0000209A0000204600002024
:1027F00045000020A4000020A50000206C0000205F
:1028000034010020580E0020340E00207C000020EF
:1028100074000020780000208200002000080040A2
:10282000D600002047000020D5000020D400002062
:10283000D7000020D8000020D9000020DC000020B4
:10284000DE000020480000204A0000203C0000205C
:10285000FFE7FA480078FA280CDAF8480078401CBC
:10286000F649087008460078C82811D10120F449BB
:1028700008700DE00020F1490870F2490870F24933
:1028800008804FF6FF70F14908800020EC4908707D
:10289000EF48008800F5FA70EE490988884226DD85
:1028A000EB480188EB48008800F5FA7081421EDA97
:1028B000E7480088E84909680844E7490860E748AC
:1028C0000078401CE54908700846007840281EDB67
:1028D000E1480068C0F38F10E14908800020DF491B
:1028E0000870DD4908600120DE4908700FE0002013
:1028F000DA490870D8490860D248007810B9002039
:10290000CE490870CF480078401CCE490870D048A6
:102910000088CD490988884203DDCD480088CA492E
:102920000880CB480088C9490988884203DAC8482A
:102930000088C6490880C6480088C6490880CA4839
:10294000B0F90600B0F5FA6F05DCC748B0F906002B
:1029500010F5FA6F05DA0120C44908700020C44957
:102960000870C248007860B1C1480078401CC04976
:102970000870084600781E2803DD00200870BB4957
:102980000870BC48B0F90010BB48B0F90000FFF770
:10299000B7F90446B948048044F2506084420FDD20
:1029A00048F6284084420BDAB048007840B1022053
:1029B000B34908700020AB490870B24908703CE088
:1029C000782C10DD44F2506084420CDAA74800787D
:1029D00048B10120AA49087000209A4908700120D6
:1029E000A849087029E0A148007830BBA6480068D3
:1029F000A149B1F900100844A3490860A348008820
:102A0000FF280DDCA1480088401CA04908809E4892
:102A10000068098890FBF1F000B2964908800CE04C
:102A200099480068001200B29249088096480068F0
:102A3000B1F90010401A94490860914800780128C3
:102A400002D08F48007818BB7E480078122803DB3C
:102A50007A480078FA2810DD7B48008840F6B831C3
:102A6000884242DD7848008878490988401AB0F5E4
:102A7000FA6F3ADD72480078B8B3022080490870D6
:102A80000020784908707F4908706D4908702CE073
:102A90007B480078022802D07948007828BB71482A
:102AA000007828B16E48008840F2DC51884210DB83
:102AB00065480088B0F5FA6F17DA63480088634903
:102AC0000988401A40F2DC5188420EDA5C480078EE
:102AD00058B101206A49087000205A490870012045
:102AE0006849087000205649087000BF37E630B5C5
:102AF000674C6488B4F5967F7EDD654CA488B4F598
:102B0000967FF9DD624C6488614DAD88AC4256DB3E
:102B10005F4C64885E4DAD88641B21B2B1F52F7F98
:102B200001DD002205E064244C430F2594FBF5F4FD
:102B300022B2C1EBC10421B2052491FBF4F421B20D
:102B4000534C658801F59674A5421DDD642492FB03
:102B5000F4F4A3B2282B00DD28234E4CE35C4C4C4C
:102B60006488641AA4F596744B4D2C602C46246836
:102B70005C432C602C46246804EB84042C602C46B7
:102B80002468A4112C6002E00024434D2C60424CC8
:102B90002468B4F57A6F03DD4FF47A643E4D2C60FF
:102BA0003E4C248814443C4D2D882C4420B244F2E1
:102BB0005064A04202DDA0EB440420B230BD344C8E
:102BC000A488334D6D88641B21B2B1F52F7F01DDE0
:102BD000002205E064244C430F2594FBF5F422B257
:102BE000C1EBC10421B2052491FBF4F421B2284CBD
:102BF000658801F5967400E075E0A54250DD642417
:102C000092FBF4F4A3B2282B00DD2823214CE35CD3
:102C10001F4C6488641AA4F596741F4D2C602C46D2
:102C200024685C432C602C46246804EB84042C60EC
:102C30002C462468A4112C6035E000003F000020E1
:102C4000480000203C000020DC000020DE000020C6
:102C50001E0E00204C000020380000203D00002007
:102C6000DA0000203E000020A3150020D70000203D
:102C7000D800002074020020720200200E01002003
:102C8000D5000020E4140020540000204E00002055
:102C9000A6010020FDDB0008580000206C02002087
:102CA0000024CA4D2C60C94C2468B4F57A6F03DD4A
:102CB0004FF47A64C54D2C60C54C2488A41AC34DCA
:102CC0002D882C4420B244F25064A04203DDA0EBD6
:102CD000440420B206E0BF4CA04203DA48F6A04408
:102CE000044420B26AE7BC4C6488BB4DAD88641BC9
:102CF00021B264244C430E2594FBF5F2B44C248895
:102D0000144420B200BF59E710B50121880709F02B
:102D1000A8F968B10121880709F0B4F9AF488078B3
:102D2000401CAE498870AE488078401CAC49887021
:102D300010BD70B5022007F0A5FC002873D002205A
:102D400007F0B1FCA748007F012807D1A548407FC4
:102D5000012803D0A2480088A34908604FF08040B2
:102D600009F06DF90446A0480068844203D39E48E8
:102D70000068251A05E09C4800684FF6FF71081AA4
:102D800005199848807F08B1962600E09626964857
:102D90000460B54200D270BD9148C07A401C904991
:102DA000C8720846C07A022802DB0020C872F2E727
:102DB0008C48007F01280CD18A48407F012808D028
:102DC0000120884948770846C07F012801D10220A8
:102DD000C877844890F8200028B984480068401CCF
:102DE0008249086009E07F4890F82000012804D15A
:102DF0007E480068401E7D4908607D48007820B10B
:102E00007C480068401C7B490860002075490883A5
:102E1000C88273480088A04206D271480088201AF0
:102E20006F49486008E00BE06D4800884FF6FF717D
:102E30002144081A6A4948600120694908720C80D7
:102E400000BFA8E770B5202007F01CFC002878D050
:102E5000202007F028FC4FF0804009F0F0F80446ED
:102E60006548007F012807D16348407F012803D0CF
:102E70005A4800886149086060480068844203D36A
:102E80005E480068251A05E05C4800684FF6FF714F
:102E9000081A05195848807F08B1962600E0962642
:102EA00056480460B54200D270BD4C48C07A401C00
:102EB0004A49C8720846C07A022802D10020C87266
:102EC000F2E74D48007F01280CD14B48407F012894
:102ED00008D00120484948770846C07F012801D121
:102EE0000220C87744480088401C434908800846AF
:102EF00090F8200028B942480068401C404908600A
:102F000009E03D4890F82000012804D13C480068C1
:102F1000401E3B4908603648007820B139480068B7
:102F2000401C38490860002033490883C8822B4878
:102F30000088A04206D229480088201A2749486004
:102F400008E00BE0254800884FF6FF712144081A7D
:102F5000224948600120214908720C804FF480709A
:102F600007F090FB58B14FF4807007F09CFB2648A7
:102F7000007820B1012000F015F800F018F84FF4A7
:102F8000007007F07FFB58B14FF4007007F08BFB27
:102F90001D48007820B1012000F004F800F007F887
:102FA00000BF81E700F0010181F313887047BFF390
:102FB0004F8F1648006800F4E06015490843001D73
:102FC00012490860BFF34F8F00BFFEE75800002092
:102FD0006C020020B0B9FFFFA60100207C0E00208B
:102FE000880E0020580E00205C0000208C0000207D
:102FF0008000002078000020340E002060000020B7
:103000008800002074000020200000200CED00E06B
:103010000000FA0500B585B00121880308F0BCF86E
:103020000121480408F0C5F84FF4E1300190002078
:10303000ADF80800ADF80A00ADF80C00ADF81000CE
:103040000C20ADF80E0001A9FE4809F062F801A9B4
:10305000FD4809F05EF8012240F22551F94809F0D7
:10306000F0F8012240F22661F64809F0EAF8012260
:1030700040F22551F44809F0E4F8012240F22661BB
:10308000F14809F0DEF84FF4A06006F0C9FE2520F3
:103090008DF8000001208DF8010002208DF802005B
:1030A00001208DF80300684606F0BFFE4FF4A060D3
:1030B00006F0B6FE26208DF8000001208DF80100F4
:1030C00003208DF8020001208DF80300684606F009
:1030D000ACFE0121DB4809F0A8F80121DA4809F02B
:1030E000A4F80020D9490870D9490870D949087056
:1030F000D94908701420D94908800120D84908709E
:10310000D84908700020D84908706420D749088041
:103110000020D7490880D74908800120D649087087
:103120000020D6490870D6490870D6490870362064
:10313000D54981F836000020D4490870D449086088
:10314000D4490860D4490860D44908704870042004
:1031500008710020D249087005B000BD10B5D148F3
:10316000D1490860084600680178B64809F0CAF8F5
:1031700010BD10B5CD48CE490860084600680178FA
:10318000B14809F0BFF810BD10B540F22551AD4867
:1031900009F03CF900286DD040F22551A94809F00A
:1031A0005FF9A84809F0B2F8C4B2B3480078012822
:1031B00024D1AA2C18D1BF480078AA2814D1012004
:1031C000AF4908700020AF490870AB490870012072
:1031D000AA4908700020B7490870B7490870B74974
:1031E0000870B749087009E0B2480078A52802D0F5
:1031F000B048047002E00020AE4908700020B149D8
:103200000880B1490870B148AC4909784454AB48CA
:103210000078401CA9490870A9480078401CA849BA
:10322000087096480078012823D1552C17D1A24860
:103230000078552813D10120924908700020904948
:10324000087001208C49087000208C4908709A4948
:1032500008709849087001209D49087009E0964857
:103260000078A52803D100209349087001E0924816
:10327000047000BF40F22661724809F0C7F8D8B167
:1032800040F226616F4809F0EBF887480068401C5F
:10329000854908608F480078401EC0B28D4908708B
:1032A000002806DD804800680178664809F02AF8A1
:1032B00002E001206A49087010BD10B540F22551A6
:1032C000614809F0A3F8D0B140F225515E4809F0F9
:1032D000C7F85D4809F01AF8C4B27F487F490978F9
:1032E00044547E480078401C7C4908707C48007833
:1032F000401C7B49087000207A49087000BF40F2EA
:103300002661514809F082F8D8B140F226614E4852
:1033100009F0A6F866480068401C654908607248D4
:103320000078401EC0B270490870002806DD604871
:1033300000680178444808F0E5FF02E001204949AF
:10334000087010BD70B56948007800B970BD0020E4
:1033500066490870554CAA20207001206070262014
:10336000A07063480078E07062480178217162487B
:103370000178617161480178A17161480178E1715A
:1033800060480178217260488088011261725E484D
:103390000179A1725D4880880112E1725B48017970
:1033A00021735B480088010A617359480178A17351
:1033B000584800880112E173564801782174564834
:1033C00000880112617454480178A174534801784F
:1033D000E1745348008801122175514801786175E4
:1033E00050480088010AA1754E480178E1754E48A1
:1033F000017821764D48C088010A61764B48817971
:10340000A1764B4800880112E1764948017821777E
:103410004848017861774848C0880112A17746483A
:103420008179E1773848408B0112202001553648D8
:10343000817E212001553548408B01122220015503
:1034400032487BE000380140004400402201002067
:10345000230100202401002025010020F400002089
:10346000F2000020F3000020E600002044010020CC
:103470004601002048010020FD000020FE00002041
:10348000FF00002000010020EC1000202A01002095
:103490002C010020300100207C00002001010020D0
:1034A000F6000020940E0020E80000208E0F00207F
:1034B000EC000020E0000020E1000020FB000020E4
:1034C000FC000020E200002021010020F20F00207B
:1034D00020010020F000002088130020410100207E
:1034E0004001002042010020F1000020E500002002
:1034F000A00000208C020020B7020020A3000020C2
:103500007601002077010020580E0020340E0020A4
:1035100074020020DE000020DC000020A500002056
:103520000E01002072020020D5000020A31500200B
:10353000DA0000203E0000201E0E0020817E84F86C
:103540002310F8480088011284F82410F548017807
:1035500084F825104088011284F82610F1488178FB
:1035600084F82710F048017884F8281000260025F8
:1035700005E0EE48405D3044C6B2681CC5B2A07894
:10358000C01CA842F5DCE9484655A078001DE84972
:103590000870FFF7EEFD0020E649087000BFD5E691
:1035A00030B503464C1EE1B28A4200DD30BD08460C
:1035B00004E01D5C441C1D55441EE0B29042F8DA44
:1035C000A5249C5400BFF1E72DE9F04F87B0DA48FD
:1035D000007810B907B0BDE8F08FD848007800B97E
:1035E000F8E70020D4490870D54CAA2020706070FC
:1035F0001220A0708320E0700020A0807120C4F809
:103600000600002507E0002104F10A0000EB450058
:103610000180681CC5B2082DF5DBCA48817A807E1E
:1036200041EA4000A076C848017804F10A00A4F8F5
:103630001B10C648007810B9C548007818B9C548AD
:103640000178617706E0C4480078C449097840EA07
:1036500041006077C248007818B1607F40F00301F4
:103660006177C04800680AF0DFF8019009F044FF74
:103670004FF03332BC4BCDE9020109F01FFDCDE91B
:10368000040109F057FC8046B848B0F900004042F8
:103690000AF0CAF8019009F02FFFB54AB54BCDE901
:1036A000020109F00BFDCDE9040109F043FC0646D7
:1036B000B148B0F9000040420AF0B6F8019009F0B4
:1036C0001BFFAB4AAB4BCDE9020109F0F7FCCDE99A
:1036D000040109F02FFC0FFA80F9C4F81E90A748E6
:1036E00000680AF0A1F8019009F006FF0022A44B3F
:1036F000CDE9020109F0E2FCCDE9040109F01AFC70
:10370000C4F822009F4800680AF08EF8019009F082
:10371000F3FE00229A4BCDE9020109F0CFFCCDE97E
:10372000040109F007FCC4F82600C4F82A80C4F894
:103730002E609548017884F832109448017884F816
:103740003310002184F8341004F10A00A4F8351075
:103750008F48018804F10A00A4F837108D480068EA
:103760008D4909680843C4F839008C49B1F906004D
:103770000AF05AF88A4900900AF0B6F8019009F068
:10378000BBFE4FF03332874BCDE9020109F096FCC6
:10379000CDE9040109F0CEFB4FEA204A7F49B1F997
:1037A00008000AF041F87E4900900AF09DF8019067
:1037B00009F0A2FE4FF033327A4BCDE9020109F055
:1037C0007DFCCDE9040109F0B5FB4FEA204B04F183
:1037D0000A00A4F83DA0A4F83FB031B2A4F841100B
:1037E0006E48018804F10A00A4F843106B48418830
:1037F00004F10A00A4F845106848818804F10A0021
:10380000A4F84710002184F84910A4F84A10A4F83D
:103810004C10A4F84E10A4F85010A4F852106248AE
:10382000008800EB8000400041F2A86101EBE0005D
:103830005E490978484381B204F10A00A4F85410A3
:10384000002184F8561084F8571084F8581084F832
:1038500059105748007810B984F85A1002E0012135
:1038600084F85A10534890F8200038B9514881889C
:10387000C4F85B10418BC4F863100EE04D4890F81B
:103880002000012809D14B4880884142C4F85B10D0
:103890004848408B4142C4F86310474890F82000E4
:1038A00038B945488188C4F85F10418BC4F8671067
:1038B0000EE0414890F82000012809D13E48808858
:1038C0004142C4F85F103C48408B4142C4F8671045
:1038D000002184F86B1084F86C1084F86D102B486C
:1038E000017884F86E103548008848F6CC5148437A
:1038F000C0F38F2104F10A00A4F86F10B4F85F2020
:1039000011B2B4F85B2010B2FDF779FE2C490880A3
:1039100008460088801B01B204F10A00A4F8711067
:10392000002555E01E0E00203C0000208E0F0020D8
:10393000F1000020F3000020E4000020F20000204D
:10394000940E002070140020B30100208401002098
:1039500085010020790100207601002077010020F8
:10396000B2010020B00000203333AB3F6E020020D4
:10397000BC7493180456C63F6C02002088000020D7
:103980000080C93F8C000020D0010020CF01002022
:10399000B40100203401002038010020A3150020CC
:1039A0000000FA4333733140160200200602002063
:1039B000B6020020340E0020580E0020EE01002038
:1039C000BC000020002104F173004155681CC5B201
:1039D000082DF7DB002084F87B00A0790B30FC4930
:1039E00008700027022505E0FA48405D3844C7B258
:1039F000681CC5B2F64800788542F5DB84F87C7017
:103A0000F3480078401CF24908700A251AE0F14892
:103A1000405DAA2807D0EF48405D552803D0ED4807
:103A2000405DA5280CD12A46E9480178E948FFF70E
:103A3000B7FDE7480078401CE5490870681CC5B22E
:103A4000681CC5B2E24800788542E0DB5520E149B8
:103A500048555521DF4A681C1154DD480078801C08
:103A6000DB490870FFF77AFB0020DB49087000BFD4
:103A7000B0E52DE9F0410024B7E004EB041000EBC1
:103A80004410D649084490F83000002879D0D24834
:103A900000780028FAD0002004EB041101EB441157
:103AA000CE4A114481F83000CA4EAA20307070709E
:103AB00004EB041000EB44101146085CB07004EBFA
:103AC000041000EB441008444088B08004EB04105C
:103AD00000EB441008444068C6F80600012C09D1E8
:103AE0004FF0180804EB041000EB44100844407831
:103AF000F07010E004EB041000EB4410B7490844E8
:103B000090F8048004EB041000EB44100844407863
:103B100040F08000F07000250CE004EB041000EB96
:103B20004410AE4908440830415D06F10A00415591
:103B3000681CC5B24545F0DB012C08D0002106F118
:103B40000A00415508F10B00A149087003E008F193
:103B50000A009F4908700027022505E09D48405D46
:103B60003844C7B2681CC5B2994800788542F5DB75
:103B70009848475596480078401C954908700A2592
:103B80001BE030E09348405DAA2807D09148405D93
:103B9000552803D08F48405DA5280CD12A468C4873
:103BA00001788C48FFF7FCFC89480078401C884964
:103BB0000870681CC5B2681CC5B28548007885428B
:103BC000E0DB5520834948555521824A681C115431
:103BD0007F480078801C7E490870FFF7BFFA0020FC
:103BE0007D49087004E0601CC4B2072CFFF645AFA5
:103BF00000BF7B4890F8E800002876D0764800782F
:103C0000002872D00020764981F8E800714EAA2081
:103C1000307070701220B0700846407840F080001C
:103C2000F07008464088B08008464068C6F8060034
:103C3000002407E06A480830015D06F10A000155DA
:103C4000601CC4B266484068A042F3D8002106F167
:103C50000A000155624800790B305D490870002761
:103C6000022405E05B48005D3844C7B2601CC4B262
:103C7000574800788442F5DB564807555448007889
:103C8000401C534908700A241AE05248005DAA28D3
:103C900007D05048005D552803D04E48005DA52848
:103CA0000CD122464A4801784A48FFF779FC484837
:103CB0000078401C46490870601CC4B2601CC4B245
:103CC000434800788442E0DB55204249085555219D
:103CD000404A601C11543E480078801C3C490870E2
:103CE000FFF73CFA00203C490870BDE8F0813D48F0
:103CF00000884FF6FF7188421FDA3A480088401C5E
:103D0000384908800846008864280EDB00203649C0
:103D1000087036490870012035490870002035497F
:103D2000087035490870354908702E480088B0F58C
:103D30007A7F02DB01203249087032480078FF2880
:103D400012DA30480078401C2E4908700846007886
:103D50000A2809DD2C480078002802DD01202B49C3
:103D6000087000202A490870704710B5274B1B784F
:103D700003B910BD0023254C237026480378AA2BD5
:103D800003D00023204C2370F3E70022002105E03C
:103D9000204B5B5C1344DAB24B1CD9B28378DB1C3A
:103DA0008B42F5DC1B4B5B5C934203D00023164C2B
:103DB0002370DEE70123184C23704378012B2FD1A9
:103DC0008378002B02DDC378144C237029E00000B7
:103DD000F0000020940E0020F200002023110020AB
:103DE0007A120020E200002000010020FF000020E5
:103DF000FD000020FE000020E0000020E100002087
:103E00002101002042010020400100204301002048
:103E10004101002088130020D8020020D702002092
:103E200000BF00BF0023FE4C237000BFA1E710B508
:103E3000014609B9042004E0012901D1062000E06F
:103E400010BD002200EB001303EB4013F54C23449C
:103E50005A70202200EB001303EB4013E2540022BF
:103E600000EB001303EB401323445A80012200EBC4
:103E7000001303EB401323445A6000EB001202EBE3
:103E8000401223461A441172012200EB001303EB87
:103E90004013234483F8302000BFD1E710B5E24837
:103EA000007800B910BD0020DF490870DD4862309D
:103EB00008F088FD20B10121DA4880F8921003E073
:103EC0000021D84880F892100020FFF7B0FF00BF13
:103ED000E8E72DE9F04104460D4616461F462079D5
:103EE000A84203DDA8192179884202DD0020BDE83F
:103EF000F08160193246394608F016FB0120F6E7DA
:103F000001460A46002A02DA484202B200E00A46A6
:103F100090B270472DE9F0478046894644464D46A9
:103F200074B96DB9C148007840B1FDF7DBFEFDF70B
:103F3000E0FE0020BE490870BE490870BDE8F08769
:103F4000002C01DB002602E0002C00DA01262046CE
:103F5000FFF7D6FF04B2002D01DB002702E0002DA1
:103F600000DA01272846FFF7CBFF05B23CB9FDF781
:103F7000C0FE0020B049C880AD49087031E041F270
:103F80007070844201DD044606E0B4F52F7F02DA4A
:103F90004FF42F7400E000BFA74890F82000B04213
:103FA00002D0A548C07F40B9A34890F82000B04295
:103FB0000FD1A148C07F03280BD1FDF79AFE012045
:103FC0009B4908709D490C809D4806709A49CC8099
:103FD00007E09949CC800846C07F10B93046FDF70C
:103FE000DAF92DB9FDF77EFE00209649C88031E050
:103FF00041F27070854201DD054606E0B5F52F7F80
:1040000002DA4FF42F7500E000BF8E4890F82000D0
:10401000B84202D08B48C07F40B98A4890F820004F
:10402000B8420FD18748C07F03280BD1FDF75AFE55
:1040300001208049087084490D808249CD808348E1
:10404000077007E07F49CD800846C07F10B9384629
:10405000FDF74BF90120754908707D490870002073
:104060007C49087000BF69E72DE9FF5F04468A4676
:10407000504609F0D9FB8346584609F03DFA764A86
:10408000764BCDE9020109F019F8074608F052FF16
:1040900005B2601906B2601B0FFA80F9C82E03DA68
:1040A00016F1C80F00DD0026B9F1C80F04DA19F1C6
:1040B000C80F01DD4FF0000949463046FFF72AFFDF
:1040C000002E07DB00205C4981F821000846C088EB
:1040D00006B207E00120584981F821000846C0884F
:1040E000404206B2B9F1000F08DB0020554981F8C3
:1040F00021000846C0880FFA80F908E001205149E4
:1041000081F821000846C08840420FFA80F906EB8A
:10411000090000EBD07149100CB2A6EB090000EBCE
:10412000D07149100DB2002C0CDB43490C8145497C
:104130000C81684200B288823F488582002048494D
:1041400008700EE060423C49088160423D490881A8
:1041500008468582684200B237498882012040497A
:104160000870284609F060FB019009F0C5F93D4A46
:104170003D4BCDE9020108F0A1FF074608F09CFC89
:104180008346584609F014FB00B2384908800220E3
:1041900000F060FE032000F05DFE3548B0F900003D
:1041A00034490880012034490870204908702849A2
:1041B000087028490870032030490870BDE8FF9F47
:1041C0002DE9F0470446204609F02EFB824609F00F
:1041D00093F907464FF01432294B08F06FFF05465C
:1041E00008F0A8FE81464846BDE8F0872DE9F04179
:1041F00006460F4614461D4648F6A04094FBF0F0D4
:10420000204908700846007848F6A04101FB10409C
:104210001D4908802846FFF7D3FF1C49086037E096
:104220004001002023110020E6000020A000002013
:10423000A4000020A5000020340E0020A6000020CD
:10424000AA000020580E0020A8000020AB0000208B
:10425000A1000020A2000020639AD693E67CDE3FF6
:10426000AC00002038732B2D26CB00406A000020C4
:104270006C0200206800002080000020A3000020C5
:1042800014141440980000209A0000207C000020A4
:1042900039463046FFF7E8FE0020F7490860F74945
:1042A0000860F7490880F748B0F90000F64908802F
:1042B0000120F6490870BDE8F0812DE9F047044679
:1042C000204609F0B1FA824609F016F90746F04A8D
:1042D000F04B08F0F3FE054608F02CFE81464846F8
:1042E000BDE8F0872DE9FF4F87B09B46DDF81C80C5
:1042F000099C089806905F46022F00DD0027B8F160
:10430000000F70DD4FF4B47098FBF0F0E2490870D4
:104310004FF4B47098FBF0F100FB1180DF49088086
:104320000846008800EBC00101EB00104FF6FF715A
:1043300001EA8000D94908804046FFF7BEFF1FFA16
:1043400080F82046FFF7B9FFC0EB0010C0F38D04E2
:104350001FB14FF6FF7000EA440441F270708442CE
:1043600001DD044606E0B4F52F7F02DA4FF42F7426
:1043700000E000BF0698012811D127B926B225B266
:10438000684205B21FE0012F02D126B200251AE0D3
:10439000022F18D125B2684205B2002613E0069814
:1043A000022810D127B925B226B2704206B20AE01F
:1043B000012F02D1002625B205E0022F03D126B23B
:1043C000704206B20025022000F044FD032000F0F8
:1043D00041FDB348B0F90000B249088027B9B2489E
:1043E000C0F8008004E066E04FEA4800AE4908608B
:1043F00031462846FFF78EFDA81900EBD071491011
:104400000FFA81F9A81B00EBD07149100FFA81FA5D
:10441000504609F009FA019009F06EF8A34AA44B3E
:10442000CDE9020108F04AFECDE9040108F082FD61
:1044300000B2944908800846B0F90000924908800B
:10444000B9F1000F10DB9B49A1F808909A49A1F837
:104450000890CAF1000000B288829648A0F814A023
:1044600000209649087012E0C9F1000091490881C6
:10447000C9F10000904908810846A0F814A0CAF1CB
:10448000000000B28B49888201208C49087000200E
:104490007949086079490860894908607849088045
:1044A000012088490870884908708849087088493F
:1044B0000870764908700BB0BDE8F08F2DE9F04721
:1044C00006468846914637464C46C246002F62DD76
:1044D0003846FFF775FE87B22046FFF771FEC0EB46
:1044E0000010C0F38F0441F27070844201DD044675
:1044F00006E0B4F52F7F02DA4FF42F7400E000BF1E
:10450000BAF1010F0AD125B200206B4981F82100D0
:10451000684981F82100694908700EE0BAF1020F7C
:104520000BD125B2684205B20120634981F8210010
:10453000604981F821006149087029462846FFF743
:10454000E9FC5C4804815C48048100205A49888267
:1045500058498882022000F07DFC032000F07AFC9C
:104560000020484908804E48B0F900004D490880B5
:104570004D4807600020404908604049086001201C
:1045800050490870504908705049087050490870E7
:1045900000203E490870BDE8F0872DE9F0478246CB
:1045A000BAF1000F1CD0504608F021FD0646494ADA
:1045B000494B08F083FD04460022484B08F062FB9B
:1045C000804608F0B7FC3C49C8600846C0683949D5
:1045D000C86001204249087000204249087004E088
:1045E00000203F4908703F490870BDE8F0872DE979
:1045F000F04104460D4616461F4694F83600A84280
:1046000004DDA81994F83610884202DD0020BDE8C8
:10461000F08160193246394607F086FF0120F6E73F
:1046200010B503464C1EE1B28A4200DB10BD1046B5
:1046300004E0441C1C5D1C54441CE0B28842F8DBBE
:1046400000BFF3E72DE9FC5F2748007840B1274819
:10465000007810B92648007808B9BDE8FC9FFCE74F
:104660002448007800B9F8E7002022490870224C5D
:104670002078AA2842D079E3740000207800002036
:104680009E0000206A0000206C000020A300002093
:10469000FDD5327B15682940980000209A00002043
:1046A0006C020020680000207000002038732B2D61
:1046B00026CB0040340E0020580E0020AC00002015
:1046C0007C00002080000020A0000020A10000202D
:1046D000A2000020D3D2D2D2D2D232400000694010
:1046E00084000020340000202101002084010020EB
:1046F0008501002020010020F20F00204FF0010969
:1047000017E0FE4810F80900A5280ED14A46FC48DB
:104710000178FA48FFF784FFF9480078401EF8490D
:10472000087009F1010000F0FF0909F1010000F033
:10473000FF09F3480078801E4845E2DC4FF0000A8C
:104740004FF0010909E0ED4810F80900504400F06D
:10475000FF0A09F1010000F0FF09E9480078001F95
:104760004845F0DAE54810F80900504500D0FDE270
:10477000E3480078401EE149085C552800D0F5E286
:10478000607812287ED1A07808287CD2DFE800F07B
:104790007B0464EFEE7B7BED0120DA4981F8300089
:1047A000487012200870B4F803004880D4F805005F
:1047B0004860D548006809F037F8009008F09CFE82
:1047C00007464FF03332D14B08F078FC054608F02D
:1047D000B1FB8346CE48B0F90000404209F024F80E
:1047E000009008F089FE0746CA4ACB4B08F066FCE9
:1047F000054608F09FFB0190C2484088C1494968BE
:104800000844082827D8BF4988781CE004280CDA17
:10481000C0F10301C9004BFA01F1CAB2B949498894
:10482000431AB8490831CA540BE0C0F10701CA0065
:1048300001991141CAB2B3494988431AB1490831B3
:10484000CA54411CC8B2AF494968AE4A52881144A3
:104850008142DBD800BF7AE26279E17804F1090392
:10486000AE48FFF7C4FE00287ED0AC49086808F0C7
:10487000DBFF834608F040FE0746A94AA94B08F033
:104880001DFC01E064E261E2054608F053FBA64925
:104890000860A2494968484208F0C6FF834608F00C
:1048A0002BFE0746A14AA24B08F008FC054608F07B
:1048B00041FBA04908609949B1F91510484208F038
:1048C000B3FF834608F018FE0746984A984B08F055
:1048D000F5FB054608F02EFB974908608F48C07E1F
:1048E0009649097888421FD09448007820B9012061
:1048F00093490870934908708848C07E502803DAAD
:104900000A209149088003E04FF461608E490880D5
:104910008248C07E20B90020894908708949087002
:104920007E48C07E854908707C4890F825008749FC
:104930000978884211D08548007810B9012084494F
:104940000870764890F8250010B90020804908705A
:10495000724890F825007D490870704890F824004E
:104960007C490978884203E0B6E1DEE1B6E1B4E1D2
:1049700004D06A4890F82400764908707648007898
:1049800010B97648007800B967E66448007A20B12B
:1049900001286FD003286BD178E07148007878B98E
:1049A0006F480078002863D16E4800686149096843
:1049B000884205D15C4800686B490968884257D035
:1049C0005C48008801B25848008800B2FFF74CFBF1
:1049D00000206649087066490870664908606049A9
:1049E00008704E49D1F8090008F001FB4C4A4D4BC4
:1049F000CDE9000108F062FB054600225E4B08F09D
:104A000041F9074608F096FA5C49C8600846C06854
:104A10005B49C8604149D1F80D10484208F004FFD5
:104A2000834608F069FD414A414BCDE9000108F099
:104A300045FB05460022504B08F024F9074608F0D4
:104A400079FA4E490861084600694D4908614B48AA
:104A5000C06828B101204B49087000204A490870FD
:104A6000344800683F4908602F4800683E490860A4
:104A700031E1FFE703203D49087000203C49087000
:104A80003C49086001203649087024E13848007824
:104A900060B13E48007840B93D48007828B93D48AB
:104AA000007810B90020334908605FE10020FFF76B
:104AB00074FD01202E49087000202C490870032045
:104AC0002749087001202B4908601B48006898B9E5
:104AD0001248D0F8110078B11049D1F8110008F04F
:104AE00086FA21F00041054608F024FA0B49C1F886
:104AF00011000D4800684FE07EE00000F20F00203A
:104B0000FC00002023110020B00000203333AB3F15
:104B10006E020020BC7493180456C63FEC100020AF
:104B2000D3D2D2D2D2D23240B4000020EC51B81E3F
:104B300085EB1640B8000020080100201802002074
:104B400006020020E4140020160200201A020020B1
:104B500005020020190200208401002085010020A8
:104B60002A010020300100202C010020B602002084
:104B7000290100203401002000006940580E002067
:104B8000340E00208400002034000020A00000200B
:104B9000A5000020A4000020002811DD086808F00E
:104BA00026FA21F00041054608F0F4F987B29A4947
:104BB000B1F8111088B23A460121FFF77FFC89E075
:104BC00096480068002812DA9349086808F00FFA3E
:104BD00021F00041054608F0DDF987B28E49B1F8B1
:104BE000111088B23A460221FFF768FC72E00021FA
:104BF0000846FFF78FF96DE089480068E8B38648FA
:104C0000D0F81100C8BB8648006808F0F0F921F020
:104C10000041054608F08EF9814908608148006826
:104C2000002812DD7F48008880B2642190FBF1F0FB
:104C300085B27B48006890FBF1F086B200232A46DB
:104C400002213046FFF74EFB44E07648006800281A
:104C500014DA74480088404280B2642190FBF1F07D
:104C600085B26F48006890FBF1F086B200232A46B7
:104C700001213046FFF736FB2CE004E00021084616
:104C8000FFF748F926E06648006818B36248D0F894
:104C90001100F8B16049D1F8110008F0A8F921F02D
:104CA0000041054608F076F907465D48006808F0BF
:104CB0009EF921F00041054608F06CF91FFA80F8D2
:104CC0003B4642465748008801B25448008800B22B
:104CD000FFF78CFA00BF00BF39E038E004205249EA
:104CE000487012200870B4F803004880D4F805001A
:104CF00048600846408849680844E02814D84A4972
:104D0000887809E049490A5C47494988431A464975
:104D10000831CA54411CC8B243494988424A5268C2
:104D200011448142EED800BF11E04149601C07F0F8
:104D30001FFE28B101213E48313880F8611004E09F
:104D400000213B48313880F8611000E000BF0CE0E2
:104D50006078202809D1A078012806D16279E1780D
:104D600004F109033348FFF7B4F800BF00203249CB
:104D7000087000BF71E400222D49313981F8942078
:104D8000FD212B4A313A82F893100022284931390B
:104D9000A1F895200422C1F8972081F89B00021207
:104DA00081F89C20021481F89D20021681F89E2033
:104DB000012281F8C320704701211D48313880F855
:104DC000F61020201A49313981F8F50000211848E1
:104DD0003138A0F8F7100121C0F8F9101748017810
:104DE0001348313880F8FD10012180F825117047F3
:104DF00058B1C82190FBF1F1114A11610121114A0A
:104E000011700021104A117004E000210F4A117046
:104E10000F4A117070470000EC100020B400002011
:104E200008010020B80000207A12002026DC0008CB
:104E30005411002001010020FC000020F600002099
:104E4000580E00208400002034000020850000203F
:104E500035000020042800DD70470021984A42F800
:104E60002010984A22F8101002280CDA9649974A26
:104E700042F820109649974A42F820109649974ADE
:104E800042F8201032E002280CD195498F4A42F8AE
:104E9000201094498F4A42F8201000218F4A42F88E
:104EA000201023E003280DD14FF07F51874A42F8AC
:104EB00020108D49874A42F820100021874A42F885
:104EC000201013E0042811D18849804A42F82010AC
:104ED0008749804A42F820100021804A42F8201079
:104EE0008449098809B2774A22F8101000BFB3E755
:104EF0002DE9F74F82B089461446042C03DD0020CB
:104F000005B0BDE8F08F0298A0EB0905032C0CD189
:104F100044F25060854202DDA5EB400505E076488D
:104F2000854202DA48F6A040054440F2DC5B2846A0
:104F300008F07AFC8246654850F82410504608F084
:104F4000D3FC824657465D451BDCCBF10000854211
:104F500017DB5B4850F824002844594941F82400E5
:104F600051F8240008F060FC01905C4850F82410CF
:104F7000019808F0B9FC82465146384608F0E8FA34
:104F80000746504830F91400A0EB0905284608F000
:104F90004BFC82464F4850F82410504608F0A4FCC1
:104FA00082465146384608F0D3FA0746454820F86D
:104FB0001490032C06DA32264549384608F036FBB1
:104FC000074608E0032C02D143F6982603E0042CA0
:104FD00001D143F698260021384608F051FD0FD83C
:104FE000304608F021FC3946019008F049FC01D216
:104FF000B04615E0384608F0DBFB0FFA80F80FE00A
:10500000704208F011FC3946019008F039FD02D2D7
:10501000C6F1000804E0384608F0CAFB0FFA80F831
:1050200040466DE770B505463448B0F9000008F019
:10503000FBFB04463249204608F056FC044626464F
:10504000284608F0F1FB04462E49204608F04CFCA7
:1050500004462146304608F07BFA06462A48B0F955
:10506000000008F0E1FB04462849204608F03CFC1B
:1050700004462146304608F06BFA06462448B0F94B
:10508000000008F0D1FB04462249204608F02CFC21
:1050900004462146304608F05BFA06461A48B0F945
:1050A00000001B49088018480580304608F080FB46
:1050B00000B212490880304608F07AFB00B270BD99
:1050C000EC1300200014002000007041B0130020F9
:1050D0000000C842C4130020CDCCCC3DD813002022
:1050E0000000A03F00004841000090410000A040A7
:1050F0000000C843B4010020B0B9FFFF4A010020FE
:105100006F12833A1F85EB3F4C0100207B14EE3F6A
:105110004E010020B29DEF3E10B5F74800780928F7
:105120007ED2DFE800F0E2050AE23D42E2E2500012
:1051300040F6B830FFF71FFED8E0F048007838B3EB
:10514000EF480078E0B980220021032001F028FE1A
:10515000FBF715FDFBF746FD0021EA4804F021FFAF
:105160000021481E06F025F800216FF0410006F0EE
:1051700013F80121084605F05CFE0120E0490870A3
:10518000DF48007858B1012000F098FA00F09BFA4F
:10519000DD48007818B140F6BA30FFF7ECFDA5E025
:1051A00040F6B930FFF7E7FDA0E0D448007848B1F9
:1051B000D648007830B90120D449087040F6BC3098
:1051C000FFF7D9FD92E0CD48007840B3CC48007895
:1051D000E0B980220021032001F0E2FDFBF7CFFCC3
:1051E000FBF700FD0021C74804F0DBFE0021481E4C
:1051F00005F0DFFF00216FF0410005F0CDFF012138
:10520000084605F016FE0120BD490870BC4800782C
:10521000002869D0012000F051FA00F054FA00E0B3
:1052200063E0B948007800285ED0B9480078F8B942
:105230000420B74908700020B6490870B6490870C4
:105240004FF6FF70B54908800020B5490870B54891
:10525000B0F90000B44908800020B449087001206A
:10526000B3490870B348B0F90000B34908800DE0B5
:105270000020A7490870A7490870A94908700021B3
:105280000846FEF747FE0020A9490870A8480078A4
:1052900098B100209F4908704FF6FF709F49088021
:1052A0000020A24908700120A1490870A349087094
:1052B000A3490870A349087016E0002094490870BB
:1052C0009449087000210846FEF724FE00209B49FF
:1052D00008709B4908709C4908709C490870944963
:1052E000087002209749087000BF00BF00BF10BDC2
:1052F00010B59748007800B910BD00209449087097
:105300008148007800B9F7E74FF48071914805F0C3
:10531000C4FA30B19048007820F001008E4908703E
:1053200005E08D48007840F001008B4908704FF48B
:105330000071884805F0B1FA30B18748007820F054
:1053400002008549087005E08348007840F00200BB
:10535000814908704FF480617E4805F09EFA30B1B3
:105360007D48007820F004007B49087005E07A4809
:10537000007840F00400784908704FF48071774855
:1053800005F08BFA30B17448007820F008007249BB
:10539000087005E07048007840F008006E49087019
:1053A0006D4800786E4908706E48007820B1012879
:1053B00017D002285AD127E000206B4908706B49AA
:1053C00008704E49087066480078002805DD4A4894
:1053D000007810B901206349087000204B4908701B
:1053E00048E05F48007844490978084208D0022024
:1053F0005C4908705C480078401C5B49087002E01A
:1054000000205849087035E05548007848B93A48B6
:105410000078002805DD002052490870FFF77CFE67
:1054200023E04F48007800B333480078E8B14E4895
:105430000078401C4C49087008460078282814DB86
:1054400001202E49087049480078401C47490870DF
:1054500008460078092801DD0920087043480078D3
:105460001E3041490870FFF757FE03E000203D4918
:10547000087000BF00BF3A4800781F49087000BF9D
:105480003AE770B50446002532E014F0010F05D06C
:1054900001221021364805F01EFA04E000221021F6
:1054A000334805F018FA00222021314805F013FA9C
:1054B00000BF00BF00BF00BF00BF00BF00BF00BFF4
:1054C00000BF00BF00BF00BF00BF00BF00BF00BFE4
:1054D00000BF00BF00BF00BF00BF00BF00BF00BFD4
:1054E00001222021224805F0F6F96410681CC5B29B
:1054F000082DCADB70BD00005D0100205A010020AC
:105500002000002000240140770200205B010020E1
:10551000B6020020B70200208C0200208E0200207C
:10552000900200206C020020BA020020CC02002071
:10553000E414002072020020740200200502002002
:1055400006020020DA0200200702002003020020E9
:1055500058010020001401405001002000180140B3
:105560005C01002051010020520100205E0100205A
:105570000010014010B5044601221146594805F0BB
:10558000AAF900220121574805F0A5F92046FFF7A6
:1055900078FF10BD30B5024652B949B90024524DCA
:1055A0002C706C70AC70EC70504C24782C7130BD49
:1055B00004200FE00A2492FBF4F504FB1524A3B2A7
:1055C0004A4CE45C484D2C540A2492FBF4F4A2B2F9
:1055D000441EA0B20A28EDDB79B900200AE0424C53
:1055E000245C5F2C03D100243F4D2C5400E003E0E9
:1055F000441CA0B20528F2DB00BF00BFD7E770470C
:1056000010B5002400212046FFF7C4FF10BD10B5DF
:105610003748007800B910BD00203549087035487A
:10562000007828B14FF4E151334806F0E9FC25E059
:1056300032480188304806F0E3FC3148008870B9F0
:105640002E480088B0F57A7F05DD2C480088FA38AE
:105650002A49088012E00120294908800EE02748E5
:10566000008841F27071884205DA24480088FA30D7
:105670002249088002E00020214908802148007862
:1056800028B101229102204805F025F905E0002209
:105690004FF480611C4805F01EF91C48007828B1C1
:1056A0000122D102184805F016F905E000224FF456
:1056B0000061154805F00FF900BFACE700F00101EB
:1056C00081F313887047BFF34F8F1148006800F4CF
:1056D000E06010490843001D0D490860BFF34F8F7B
:1056E00000BFFEE7000C01400A14002006DD0008A0
:1056F0005901002077020020002C014054010020B5
:10570000560100207701002000180140760100209A
:105710000CED00E00000FA050021FE4A1170FE4A7F
:105720001170FE4A1170FE4A1170FE4A1170FE4A55
:105730001170FE4A1170FE4A11700121FD4A11706C
:105740000021FD4A1170FD4A1170FD4A1170FD4A99
:105750001170FD4A1170FD4A1170FD4A1170FD4A29
:1057600011801021FC4A116000201AE00021FB4A40
:1057700002EB00129180F94A02EB00121160F74A25
:1057800002EB00129172F54A02EB00125172F34AD9
:1057900002EB00121172F14A02EB0012D180411C9F
:1057A000C8B20528E2DB002020E04FF6FF71EC4A8A
:1057B00002EB001291800021E94A02EB0012116015
:1057C000E74A02EB00129172E54A02EB00125172B5
:1057D000E34A02EB00121172E14A02EB0012D1809F
:1057E000DF4A02EB00129181411CC8B20228DCDBC7
:1057F00070470146DB4AB1F53C6F04DCB2FBF1F0C7
:10580000A0F1D80200E0002290B270472DE9FC41DF
:10581000D548007808B9BDE8FC810020D24908705D
:10582000BD480678BB480578BF480778002407E0E4
:10583000CA4800EB0410807A0DF80400601CC4B262
:10584000052CF5DB0121C94805F027F818B1002027
:10585000B149087002E00120AF4908700221C34835
:1058600005F01BF818B10020AA49087002E00120D9
:10587000A8490870A8480078B0421AD0A648007815
:10588000012816D1FCF72EFAFCF733FA0020B849AC
:105890000870B84908700120AB4908700020A5497C
:1058A0000870A5490870A948007840F00200A7498F
:1058B000087098480078A8421AD0964800780128C5
:1058C00016D1FCF70FFAFCF714FA0020A84908706B
:1058D000A849087001209C4908700020954908706B
:1058E000954908709948007840F001009749087080
:1058F0000421A14804F0D1FF18B100208B490870A1
:1059000002E001208949087008219B4804F0C5FF86
:1059100018B100209949087002E0012097490870E9
:105920000121974804F0B9FF18B101207D490870A2
:1059300002E000207B49087020218C4804F0ADFF74
:1059400018B101207649087002E0002074490870FF
:1059500074480078012806D171480078012802D1E6
:105960007149087002E000206F4908706E480078A5
:10597000B84202D00120714908708248C079C0B194
:1059800000208049C8718048008807F065FF804684
:105990007E49C8897E490B7842467E49098804F0D1
:1059A0004FF87C49088008460088FFF722FF6949C4
:1059B000088000240CE0694800EB0410807A1DF890
:1059C0000410884202D001205D490870601CC4B2F6
:1059D000052CF0DB70480078A0B370480088B0F563
:1059E000E17F18DC6E480088401C80B26C4908805A
:1059F000B0F5FA6F14DB5648007840B9FCF772F93D
:105A0000FCF777F900205A4908705A4908700120BC
:105A10004F49087004E00020614908804C49087033
:105A20005E48008840F24E2188420CDC5D480088C8
:105A3000401C80B25B490880C8280FDB01205A490E
:105A400008700BE005E000205649088056490870B0
:105A500004E0002052490880524908804FF4006158
:105A6000454804F01AFF28B10120504908705049F8
:105A7000087004E000204D4908704D4908704D48F9
:105A8000007B401C4B4908730846807E401CC1B215
:105A90004848817690F82800401CC1B2454880F8FB
:105AA000281090F83600401CC1B2424880F83610E9
:105AB000007B0A2802DB00203E4948723D48807E78
:105AC0000A2802DB00213B48C1753A4890F82800BB
:105AD0000A2803DB0021374880F82510354890F864
