:020000040800F2
:10000000B02500207DA0000885A0000887A000087A
:1000100089A000088BA000088DA000080000000047
:100020000000000000000000000000008FA0000899
:1000300091A000080000000093A0000895A000080F
:1000400097A0000897A0000897A0000897A00008B4
:1000500097A0000897A000080F730008C32F00089E
:1000600041650008ED72000897A0000897A00008FD
:1000700097A0000897A0000897A0000897A0000884
:1000800097A0000897A0000897A0000897A0000874
:1000900097A0000897A0000897A00008D530000896
:1000A00097A0000897A0000897A0000897A0000854
:1000B000992F000897A00008070F000897A00008D4
:1000C00097A000088173000897A0000897A0000877
:1000D00097A00008193400084B35000897A00008C5
:1000E0003111000897A0000897A0000897A0000809
:1000F00097A0000897A0000897A0000897A0000804
:1001000097A0000897A0000897A0000897A00008F3
:1001100097A0000897A000081F0F000897A00008EC
:1001200097A0000897A0000897A0000897A00008D3
:1001300000F002F800F05CF80AA090E8000C82449D
:100140008344AAF10107DA4501D100F051F8AFF27A
:10015000090EBAE80F0013F0010F18BFFB1A43F0A5
:100160000103184740290100602901000A444FF0AB
:10017000000C10F8013B13F0070408BF10F8014B06
:100180001D1108BF10F8015B641E05D010F8016B4B
:10019000641E01F8016BF9D113F0080F1EBF10F8AF
:1001A000014BAD1C0C1B09D16D1E58BF01F801CBD2
:1001B000FAD505E014F8016B01F8016B6D1EF9D555
:1001C0009142D6D37047000000230024002500266A
:1001D000103A28BF78C1FBD8520728BF30C148BFAA
:1001E0000B6070471FB510F0A6FF1FBD10B510BD06
:1001F00011F0A0F81146FFF7F5FF00F04FFA11F0EB
:10020000BEF803B4FFF7F2FF03BC11F0BFF8000023
:100210000B49D1F800C04A685CF8043B10681844E8
:1002200042F8040B8C4528BFA1F1DC0C8A4228BFA0
:10023000A1F1DC02C1F800C04A6020F00040704724
:10024000481F00200CB50020019000906B4800680A
:1002500040F480306949086000BF6848006800F4D5
:10026000003000900198401C0190009818B9019846
:10027000B0F5A06FF1D16148006810F4003F02D0E2
:100280000120009001E0002000900098012842D158
:100290005B48006840F01000594908600846006853
:1002A00020F0030008600846006840F00200086083
:1002B00052484068514948600846406848600846CE
:1002C000406840F4806048600846406820F47C1034
:1002D00048600846406840F4881048600846006856
:1002E00040F08070086000BF4448006810F0007F54
:1002F000FAD04248406820F0030040494860084670
:10030000406840F00200486000BF3C48406800F090
:100310000C000828F9D10CBD10B5FFF793FF10BDF4
:1003200010B53648006840F00100344908600846BE
:1003300040683449084031494860084600683249FD
:1003400008402E4908600846006820F480200860B4
:100350000846406820F4FE0048604FF41F008860A3
:10036000FFF7DAFF4FF000602849086010BD10B5B4
:10037000002100200022214B5B6803F00C0121B119
:10038000042906D0082928D107E0214B214C2360FD
:1003900027E0214B1F4C236023E0184B5B6803F4DC
:1003A0007010164B5B6803F48032022303EB90401D
:1003B00022B91A4B4343174C23600DE00F4B5B6887
:1003C00013F4003F04D0164B4343124C236003E068
:1003D000114B43430F4C236003E00D4B0D4C236046
:1003E00000BF00BF054B5B68C3F303130D4CE15C1A
:1003F000084B1B68CB40074C236010BD0010024027
:10040000002002400000FFF8FFFFF6FE08ED00E0CC
:1004100000127A0000000020001BB70000093D0018
:10042000808D5B000400002010B588B0044669464A
:1004300020460CF0DAF908B010BD30B589B004469A
:10044000257E01A928460CF0C5F909B030BDF8B5E4
:100450000646002500200090CDB9002400BF694663
:1004600030460DF0BFFB05469DF80000012800D086
:1004700005B106E0641C304610F041FEB4F5FA6F99
:10048000EDD300BFB4F5FA6F01D36FF0060528462F
:10049000F8BDF8B50646002500200090BDB900243F
:1004A00000BF694630460DF037FD0546009800B1A3
:1004B00005B106E0641C304610F021FEB4F5FA6F79
:1004C000EFD300BFB4F5FA6F01D36FF006052846ED
:1004D000F8BD2DE9F0418CB0804605AE002434B95A
:1004E00040460CF035FC04462046FFF79DFF44B91A
:1004F00001AA02A940460DF0F7FA04462046FFF78C
:1005000093FF44B903AA04A940460DF0DAFD04465E
:100510002046FFF789FF3CB9012140460CF0A3FFBC
:1005200004462046FFF780FF34B940460DF034FA08
:1005300004462046FFF778FF1CBB2027002516E065
:100540004046FFF784FF04467CB9314640460DF033
:1005500078FB0446308929F81500042140460CF048
:100560001BFB404610F0CBFD00E002E06D1CBD42DD
:10057000E6D300BF24B9002500E06D1CBD42FCD3CA
:1005800000BF1CB940460DF0E2FA04461CB94046D3
:10059000FFF77FFF044624B9042140460CF0FCFA23
:1005A000044620460CB0BDE8F0811FB5002452205F
:1005B0003549096881F85C0101203349096881F8EF
:1005C00070014FF4C87030490968A1F8720124B96C
:1005D0002D4800680CF0BFFD044624B92A48006885
:1005E0000CF0B6FB044634B96A4601A926480068F7
:1005F0000DF07AFA044634B902AA03A92248006829
:100600000DF05FFD04462CB901211F4800680CF075
:100610002AFF044624B91C4800680DF0BDF90446C1
:10062000E0B204B010BD10B500241848007800B93D
:1006300010BD0020154908701548007830B9FFF743
:10064000B4FF10B9012012490870F1E70E480068A4
:10065000FFF7FDFE0446A4B90E4801680A48006889
:100660000DF0EFFA04460B48006800890A4908803B
:100670000421054800680CF08FFA0348006810F068
:100680003EFD00BFD4E70000140000201C00002045
:100690001D000020180000201E00002000F07BFB41
:1006A00031E003F0D9F802F095FF03F03FFD04F0CC
:1006B00011F903F0A2FC01F085F801F071F901F0E5
:1006C000EDF901F075FC01F020FB02F0F4F804F004
:1006D00057FF05F0E4F800F096FE02F084F905F00B
:1006E000B3FF06F04CF902F0FAF800F0D0FF05F085
:1006F000D5F905F011FC07F0C2FF07F093F8FFF7FA
:1007000092FF06F05BFDCCE7FE480068FE490860FA
:10071000FC48001D00684860FA480830006888609E
:1007200070470EB5012120200AF091FEF7480AF02B
:10073000EDFE4FF6FF70ADF804004720ADF8000065
:100740000020ADF80600ADF802006946EF480AF057
:10075000B1FF0121ED480BF009FB0EBD00B587B0DC
:100760000121C8020AF066FEE9480AF0CFFE4FF404
:10077000E150ADF814000020ADF81000ADF81600FF
:10078000ADF8120004A9E2480AF094FF6020ADF829
:1007900000000120ADF802000020ADF80400ADF823
:1007A0000600ADF80800ADF80A004FF48070ADF80F
:1007B0000C006946D6480AF0BAFF0121D4480BF074
:1007C000E1FA0121D2480BF0D1FA07B000BD1FB504
:1007D000012108460AF03BFE4FF080400AF096FEE9
:1007E0004FF6FF70ADF808004720ADF80400002078
:1007F000ADF80A00ADF8060001A94FF080400AF0FC
:1008000059FF012188070BF077FD0122114690075F
:100810000BF0C7FA4FF4A06009F050FC1C208DF8D3
:10082000000000208DF8010003208DF80200012057
:100830008DF80300684609F046FC012188070BF09B
:1008400095FA1FBD1FB5012110200AF000FEB14826
:100850000AF05CFE48F6A040ADF808000120ADF8B3
:1008600004000020ADF80A00ADF8060001A9A9486F
:100870000AF020FF0121A7480BF03EFD012211469E
:10088000A4480BF08EFA4FF4A06009F017FC362054
:100890008DF8000000208DF8010005208DF8020081
:1008A00001208DF80300684609F00DFC01219948EC
:1008B0000BF05CFA1FBD00B587B0012102200AF0E1
:1008C000C6FD95480AF022FE4FF4E150ADF8140041
:1008D0000020ADF81000ADF81600ADF8120004A924
:1008E0008D480AF0E7FE6020ADF800000120ADF869
:1008F00002000020ADF80400ADF80600ADF80800D5
:100900004FF48070ADF80C00694683480AF00FFF81
:10091000694681480AF04DFF69467F480AF096FF14
:1009200069467D480AF0DDFF01217B480BF0E4FCBD
:10093000012179480BF01AFA07B000BD00B589B063
:10094000012104200AF083FD74480AF0DFFD41F222
:10095000AF30ADF81C000020ADF81800ADF81E0057
:10096000ADF81A0006A96D480AF0A4FE6020ADF8A3
:1009700008000120ADF80A000020ADF80C00ADF829
:100980000E00ADF81000ADF8140002A963480AF09B
:10099000CEFE02A961480AF00CFF02A95F480AF0E6
:1009A00055FF02A95D480AF09CFF01215B480BF04E
:1009B000A3FC012159480BF0FDF9012211465748CB
:1009C0000BF0EFF94FF4A06009F078FB1E208DF8D2
:1009D000040000208DF8050004208DF80600012099
:1009E0008DF8070001A809F06EFB01214B480BF0C0
:1009F000BDF909B000BD0EB5012108460AF01AFD87
:100A0000012104200AF01AF9032104200AF016F942
:100A1000052101200AF012F9022101200AF00EF945
:100A20000C2104200AF00AF90D2104200AF006F92D
:100A30000E2104200AF002F90F2104200AF0FEF82A
:100A4000022009F07EFF042009F07BFF082009F056
:100A500078FF202009F075FF4FF4805009F071FFF6
:100A60004FF4005009F06DFF4FF4804009F069FF2A
:100A70004FF4004009F065FF00208DF808001020B9
:100A80008DF809002220019001208DF80A0001A8AC
:100A900009F0E0FE00208DF808000C208DF8090018
:100AA0000820019001208DF80A0001A809F0D2FE6B
:100AB00000208DF8080010208DF809004FF2040086
:100AC000019001208DF80A0001A809F0C3FE4FF43F
:100AD000A06009F0F3FA08208DF8000000208DF8DE
:100AE000010001208DF802008DF80300684609F02E
:100AF000EAFA4FF4A06009F0E1FA17208DF800003F
:100B000000200DE0E8F7FF1FB8110020001400409E
:100B1000002C01400010004000040040000800408C
:100B20008DF8010002208DF8020001208DF80300ED
:100B3000684609F0C8FA4FF4A06009F0BFFA072030
:100B40008DF8000000208DF8010003208DF80200D0
:100B500001208DF80300684609F0B5FA4FF4A06053
:100B600009F0ACFA09208DF8000001208DF8010091
:100B700000208DF8020001208DF80300684609F07E
:100B8000A2FA4FF4A06009F099FA28208DF800002D
:100B900001208DF8010002208DF8020001208DF85F
:100BA0000300684609F08FFA0EBD08B501217D20CB
:100BB0000AF040FC7720ADF8000000208DF803001B
:100BC0006946FE4809F026FF49F68810ADF8000096
:100BD00003208DF8020010208DF803006946F748C5
:100BE00009F018FF4FF40070ADF8000018208DF8E0
:100BF000030003208DF802006946F04809F00AFF5F
:100C00004FF48060ADF8000048208DF80300032009
:100C10008DF802006946E94809F0FCFE3720ADF87E
:100C2000000048208DF803006946E54809F0F2FE0F
:100C30004FF20800ADF8000003208DF802001020EC
:100C40008DF803006946DE4809F0E4FE4FF4707049
:100C5000ADF8000003208DF8020018208DF8030085
:100C60006946D74809F0D6FE4FF44060ADF8000061
:100C700003208DF802001C208DF803006946D0483F
:100C800009F0C8FE0F20ADF8000000208DF8030029
:100C90006946CC4809F0BEFE3020ADF800000320C4
:100CA0008DF8020010208DF803006946C54809F050
:100CB000B1FE4FF47070ADF8000003208DF8020013
:100CC00018208DF803006946BE4809F0A3FE0121F3
:100CD000BD4809F06EFF4FF47040ADF800000320EE
:100CE0008DF8020010208DF803006946B74809F01E
:100CF00091FE40F6CC70ADF8000048208DF803005E
:100D00006946B24809F086FE2020ADF800000320B5
:100D10008DF8020018208DF803006946AB4809F0F1
:100D200079FE0121082009F044FF4FF44860ADF836
:100D3000000003208DF8020010208DF803006946A2
:100D4000A34809F067FE4FF20B10ADF800004820F1
:100D50008DF8030069469E4809F05CFE0220ADF85C
:100D6000000004208DF803006946994809F052FEFE
:100D70004FF40070ADF8000003208DF80200182039
:100D80008DF803006946924809F044FE012191481C
:100D900009F00FFF08BD10B5FFF7C2FAFFF705FF16
:100DA00001229103894809F0E4FE0122510387489A
:100DB00009F0DFFE06F03CF801225102844809F0F8
:100DC000D8FEFFF718FEFFF7B9FDFFF774FDFFF738
:100DD00039FDFFF7FCFCFFF7C1FCFFF7A2FC00F0B8
:100DE00027FA02F05FFA00F0D1FC00F07DFB04F07E
:100DF000DBFD05F0D5FB05F093FD04F048FD10F098
:100E00008BFC0020744908607449087010BD08B557
:100E10004FF6FF70ADF8000004208DF8030069461E
:100E2000664809F0F7FD6946654809F0F3FD694633
:100E3000644809F0EFFD6946644809F0EBFD694636
:100E4000634809F0E7FD4FF48070ADF800004820DA
:100E50008DF8030069465E4809F0DCFD4FF4007030
:100E6000ADF8000048208DF803006946574809F0A6
:100E7000D1FD08BD0EB50821042009F0DFFE0921CF
:100E8000032009F0DBFE00208DF8080010208DF80B
:100E900009004FF6FE40019000208DF80A0001A8DD
:100EA00009F0D8FC00208DF808000C208DF809000E
:100EB0004FF48070019001208DF80A0001A809F01C
:100EC000C9FC00208DF808000C208DF809004FF4B3
:100ED0000070019001208DF80A0001A809F0BAFC09
:100EE0004FF4E06009F0EAF817208DF800000020C8
:100EF0008DF801008DF8020001208DF8030068468E
:100F000009F0E1F80EBD10B5012135480BF0F7F9F5
:100F100020B1012132480BF003FA00BF10BD10B51B
:100F2000012130480BF0EBF900287DD001212D483C
:100F30000BF0F6F92C480078401CC0B22A49087022
:100F400032280ADB0020087001202849087028494F
:100F50000870284908702849087028480078401C03
:100F6000C0B22649087026490988884207DB00205C
:100F7000224908700120234908702349087023483A
:100F80000078401CC0B22149087014280CDB0020F6
:100F9000087001201E4908701E4908701E4908701B
:100FA0001E4908701E4908701E480078401CC0B2D7
:100FB0001C49087005283EDB002036E0000801408F
:100FC000000C014000100140000C1A000014014008
:100FD00000180140C0001600280000202C0000204E
:100FE0000008004000100040200000208D0000207C
:100FF0001002002065010020E702002023000020ED
:1010000000010020F0000020F1000020210000205D
:1010100064010020E5010020D4020020E40100204A
:10102000E20000202200002081E0087001206A49CF
:1010300008706A4908706A480078401CC0B2684964
:10104000087068490978884205DB00206449087007
:1010500001206549087065480088401C80B26349DA
:101060000880B0F57A7F08DB00200880604908809E
:101070000120604908706049087060480078401C91
:10108000C0B25E4908701E2806DB002008700120EF
:101090005B4908705B4908705B48007820B1544890
:1010A0000088401C5249088058480088401C574915
:1010B000088001205649087056480068401C554970
:1010C000086001205449087002F059FF012053497B
:1010D0000870534908705348C07F90B15148C07F91
:1010E00003280ED04F48C07F01280AD04D48C08A3F
:1010F000401C4C49C8820846C08A322801DD0420C1
:10110000C8774948C07F90B14748C07F03280ED0B8
:101110004548C07F01280AD04348C08A401C424944
:10112000C8820846C08A322801DD0420C87710BD75
:1011300010B54FF4805009F0F3FB90B14FF480509C
:1011400009F0FFFB4FF48051384809F0F4FC20B15E
:101150000121032005F0FBF803E00021032005F046
:10116000F6F84FF4005009F0DBFB90B14FF400505B
:1011700009F0E7FB4FF400512C4809F0DCFC20B1EA
:101180000121022005F0E3F803E00021022005F030
:10119000DEF84FF4804009F0C3FB18B14FF48040F3
:1011A00009F0CFFB4FF4004009F0BAFB90B14FF4C7
:1011B000004009F0C6FB4FF400411C4809F0BBFC9D
:1011C00020B10121084605F0C2F803E0002101200A
:1011D00005F0BDF810BD0000720000203C000020AA
:1011E000250000207A00002070000020260000204A
:1011F000E8010020F20000208502002024000020E9
:10120000930100201C000020E40100203002002097
:1012100071000020280000208E0000208F00002098
:101220008F010020BC12002098120020000C014009
:1012300010B590B0012108460AF0EFF8012140F204
:1012400001200AF0F7F89E4809F0CEF99D48009079
:101250009D480190002002900A20039000200490F5
:101260008020059040000690800007902020089084
:101270000002099000200A906946914809F056FA48
:1012800001218F4809F07DFA00200B9001208DF894
:10129000300000208DF831004FF460200D900020C8
:1012A0000E900A208DF83C000BA986484C3808F0B7
:1012B0009AFF00230122022182484C3809F02BF8C2
:1012C0000023022201217F484C3809F024F8002332
:1012D000032206217B484C3809F01DF80023042224
:1012E0000A2178484C3809F016F8002305220B2112
:1012F00074484C3809F00FF8002306220C2171487D
:101300004C3809F008F8002307220D216D484C38AD
:1013100009F001F80023082219466A484C3808F001
:10132000FAFF00230922042166484C3808F0F3FF35
:1013300000230A22052163484C3808F0ECFF012104
:1013400060484C3808F086FF01215E484C3808F0B0
:1013500076FF5C484C3808F094FF00BF59484C3881
:1013600008F094FF0028F9D156484C3808F098FF4F
:1013700000BF54484C3808F098FF0028F9D10121EB
:1013800050484C3808F09BFF002404E000204F49EF
:101390000855601CC4B20A2CF8DB00204C490870C8
:1013A00010B010BD02468A4202DD501A80B270476A
:1013B000881A80B2FBE7F0B502460B4600254FF6CF
:1013C000FF760024022B01DC0020F0BD002110E09C
:1013D00032F81100A84201DD32F8115032F8110044
:1013E000B04201DA32F8116032F811000444481CAE
:1013F000C1B29942ECDBA41B641B981EB4FBF0F055
:1014000087B23846E1E770B53248007800B970BD60
:10141000002030490870002411E000250BE02A4824
:1014200030F8150005EB45012B4A02EB810121F84C
:101430001400681CC5B20A2DF1DB601CC4B2062C76
:10144000EBDB002433E004EB4401234A02EB810090
:101450000621FFF7B0FF214921F81400204A32F895
:1014600014101E4A32F81400FFF79CFF0646962E11
:1014700015DC1A4830F814001A4921F814000846FF
:1014800030F8140028B11248007810B90120104932
:1014900008700F480078012801D10C4908550F4801
:1014A00030F814000E4921F81400601CC4B20A2C54
:1014B000C9DB012103484C3808F001FF00BFA6E753
:1014C000080002404C240140CE110020C41100202D
:1014D0003D0000203C000020E21100205A120020B4
:1014E0006E120020821200200020FE490870FE4982
:1014F0000870FE490870FE490870FE490870FE49F0
:1015000008700520FD4908700020FD490880FD494C
:101510000880FD490880FD490880FD490860FD49B3
:101520000860FD498882FD498882FD490870FD49AF
:101530000860FD490880704710B5F748C07F18B1B2
:10154000F548C07F042817D10120F349087700200F
:10155000487788770880F5490860F5490870F549AB
:1015600088704FF080400AF0B8FEF24908800020F1
:10157000C8720120E849C87710BD70B50446012C37
:1015800000DD0124FFF7D8FF002003F0ABFD4FF48E
:101590002F60E1494883084680F8204084B9002143
:1015A000E5480AF081FEDC48408B00EBC005E817F7
:1015B00005EB5070C0F3CF01DF480AF073FE0FE077
:1015C0000021DD480AF06EFED348408B00EBC005D9
:1015D000E81705EB5070C0F3CF01D7480AF064FE5E
:1015E00070BD10B5CD48C07F18B1CC48C07F04286D
:1015F00018D10120C94908770020487788770880EA
:10160000CE490860CE490870CE4988704FF08040BE
:101610000AF063FECB4908800120C049C87700204A
:10162000C849C87210BD70B50446012C00DD012404
:10163000FFF7D7FF012003F055FD4FF42F60B749A6
:101640004883084680F8204084B90021BA480AF04F
:1016500025FEB248408B00EBC005E81705EB507043
:10166000C0F3CF01B4480AF01BFE0FE00021B248DE
:101670000AF016FEA948408B00EBC005E81705EB01
:101680005070C0F3CF01AC480AF008FE70BD10B531
:10169000AD48007800B910BD0020AB4908709F48E4
:1016A000C07FB8B99C48C07FA0B98E48007888B187
:1016B00000208C490870A5490860A5490860A54923
:1016C0000860A548007828B9A448007810B900201F
:1016D000A34908708348007890B9A248007801288F
:1016E0000ED1A148007840B900209E4908706E22B2
:1016F0000221462003F02AF802E000209B490870EE
:101700007848007850B99748007838B998480078F8
:1017100020B90120964908709449087072480078F1
:10172000012816D18D480078012812D17B48C07F4E
:1017300078B990480078FFF776FF8F48008877499E
:10174000C8800020854908700120664908706649F4
:10175000087065480078012816D17F480078012874
:1017600012D16D48C07F78B984480078FFF705FF33
:10177000834800886849C8800020774908700120A4
:10178000584908705849087000BF84E70020624932
:10179000C8776249C87760494883604948835E4991
:1017A00088805E4988807749086077490860774972
:1017B00008607749086056490860564908606849DA
:1017C000087070475B49097A71B30021594A117258
:1017D000114649686F4AB2FBF1F188B25449097861
:1017E00010290CDA514909680144504A11604A49EC
:1017F00088804F490978491C4D4A117010E04B49C7
:101800000968C1F30F11444A9180484909680144AD
:10181000464A1160404989881268511A434A11604A
:101820000121444A917251724649097A71B30021EB
:10183000444A117211464968564AB2FBF1F188B226
:101840003F49097810290CDA3C49096801443B4AB0
:101850001160324988803A490978491C384A117028
:1018600010E036490968C1F30F112C4A91803349C1
:1018700009680144314A1160284989881268511A5F
:101880002E4A116001212F4A9172517270472DE941
:10189000F04F85B082468B464FF4917004900498C7
:1018A00010F02DFA06460F46ABEB0A0010F027FAAF
:1018B00080464FF03332384B10F088FA0022374B15
:1018C000CDE9000110F082FA32463B46CDE9020133
:1018D00010F060F8044610F0B5F900B205B0BDE8AC
:1018E000F08F0000AC000020AD000020AE00002012
:1018F000AF00002071000020D40000207A000020FA
:10190000DA000020DC000020D6000020D8000020F3
:101910009C000020A0000020BC1200209812002093
:10192000B8000020C000002076000020D000002079
:10193000CB000020EC12002000080040CC0000206A
:10194000CA000020E01200208F000020BC00002010
:10195000380100203C010020B1000020B000002030
:101960008C00002090010020C20200209201002083
:1019700091010020B6000020B2000020B700002036
:10198000B40000208400002080000020940000208B
:1019900098000020703839003333AB3F00408F404F
:1019A00010B5FE48007800B910BDFD48007838B188
:1019B000FB480078012804D1FA480078012800D0BB
:1019C000F2E70020F5490870F748C07F01282FD1C1
:1019D000F548408B41F2FE01884204DCF248408B1E
:1019E0003230F1494883F04890F8200080B9002156
:1019F000EE480AF053FCEC48408B00EBC004E017C3
:101A000004EB5070C0F3CF01E8480AF049FC0FE046
:101A10000021E6480AF044FCE348408B00EBC00498
:101A2000E01704EB5070C0F3CF01E0480AF036FC39
:101A3000DF48C07F01282FD1DD48408B41F2FE01F5
:101A4000884204DCDA48408B3230D9494883D84890
:101A500090F8200080B90021D4480AF025FCD44831
:101A6000408B00EBC004E01704EB5070C0F3CF01D3
:101A7000CE480AF017FC0FE00021CC480AF012FC17
:101A8000CB48408B00EBC004E01704EB5070C0F370
:101A9000CF01C6480AF008FC00BF85E72DE9F041F8
:101AA000C348C07F022805D0BF48C07F022801D0AC
:101AB000BDE8F081BF48007800B9F9E70020BD49D2
:101AC0000870BD48007800285BD0BC48007898BBFF
:101AD0000120BA490870B6480089B9490880B4485D
:101AE0008088B0F52F7F0BDCAF488088B0F52F7F62
:101AF00006DC4FF42F70AE490881AB49088118E02D
:101B0000AB488088A84989880144A9480089B1EB7D
:101B1000400F0EDCA6498988A34A9288881800EBFA
:101B2000D071C1F34F01A24A1181104600899E492C
:101B300008810A20A34908709D4800899C49C9680A
:101B400008449F49098888420EDA994800899849D3
:101B5000898908449649088193480089924989896E
:101B60000844914908810CE0954800889049088113
:101B7000934800888C49088100208F4908708F495C
:101B800008709148007800287DD09048007800289F
:101B90004DD101208D4908708D48B0F900008D4964
:101BA00008800A20874908708A48B0F90000002898
:101BB0003EDD8948B0F90000B0F5E16F04DA4FF47A
:101BC000E160834908800CE08348B0F90000804957
:101BD000B1F90010884204DC7F48B0F900007C496C
:101BE00008807B48B0F900007A49B1F900108842BA
:101BF0005EDA6F48B0F914007549B1F90010484336
:101C00007449B1F9001090FBF1F000B26849888284
:101C10006548B0F914006E49B1F9001048436D49A8
:101C2000B1F9001090FBF1F000B25F4988823FE00B
:101C30006948B0F9000010F5E16F04DD4FF6F800D7
:101C4000634908800CE06448B0F900006049B1F9CC
:101C50000010884204DD6048B0F900005C4908804B
:101C60005B48B0F900005B49B1F9001088421FDD04
:101C70004F48B0F914005649B1F90010484355498E
:101C8000B1F9001000E03EE090FBF1F000B24849ED
:101C900088824548B0F914004D49B1F90010484315
:101CA0004C49B1F9001090FBF1F000B23E49888236
:101CB0004848B0F9000010F022F821F00045044631
:101CC0003B490969424AB2F90020881810F017F818
:101CD00021F00041064622462B4610F03BF808D280
:101CE0003348008A3A490988084400B238490880D4
:101CF00009E03848B0F90000354908800020324931
:101D000008703249087000BFD2E670B524480078E8
:101D100038B123480078012804D1224800780128EE
:101D200000D070BD2D48007800B9FAE700202B499B
:101D300008701D48C08840F2DC51884207DB1C480F
:101D4000C088884203DB0520254908700CE016484E
:101D5000C08840F21451884203DB1548C08888428D
:101D600002DA0A201E4908700F48C07F02286FD18E
:101D70001C48807A01286BD100201A4988720A4ACF
:101D8000928811B2084AD28810B2012203F0F8F901
:101D900004B2002C2CDD0448408B25E08D0000208F
:101DA000AC000020AD000020981200200008004088
:101DB000BC12002072000020900000204000002093
:101DC0004C000020D40000209100002041000020A1
:101DD000760000204E0000207A02002070000020D3
:101DE0007A000020E01200202044FE49488311E0E0
:101DF000604204B2FB48418B04F5FA70814205DD74
:101E0000F848408B001BF749488303E04FF4FA7011
:101E1000F4494883F348408BB0F58C5F03DD4FF401
:101E20008C50F0494883EF4890F8200088B9002191
:101E3000ED480AF033FAEB48408B00EBC006F01790
:101E400006EB5070C0F3CF01E7480AF029FA10E022
:101E500020E00021E4480AF023FAE248408B00EB3E
:101E6000C006F01706EB5070C0F3CF01DE480AF051
:101E700015FADC48C088C0EBC00085B2ED10D94827
:101E80008088A84203DD0120D649887702E000203F
:101E9000D4498877D548C07F022869D1D448807A50
:101EA000012865D10020D2498872D04A928811B2A7
:101EB000CE4AD28810B2002203F062F904B2002C9C
:101EC00005DDCA48408B2044C849488311E0604280
:101ED00004B2C648418B04F5FA70814205DDC3485F
:101EE000408B001BC149488303E04FF4FA70BF499F
:101EF0004883BE48408BB0F58C5F03DD4FF48C50B7
:101F0000BA494883B94890F8200080B90021B64802
:101F10000AF0CAF9B548408B00EBC006F01706EB93
:101F20005070C0F3CF01B0480AF0BCF90FE00021B7
:101F3000AD480AF0B7F9AD48408B00EBC006F0178A
:101F400006EB5070C0F3CF01A7480AF0ADF9A748DF
:101F5000C088C0EBC00085B2ED10A4488088A842BC
:101F600003DD0120A149887702E000209F4988779E
:101F700000BFD6E69D48C07F10B103209B49C877BB
:101F800070479848C07F10B103209649C8777047C2
:101F900002460B46D11A002903DA48F6A040014454
:101FA00004E048F6A040814200DD091A88B270477B
:101FB0002DE9F04F89B08F48007810B909B0BDE81D
:101FC000F08F00208B4908708B480078012807D1DA
:101FD0008A480078012803D189480078012800D078
:101FE000ECE78848007800B9E8E787480078401CAB
:101FF000854908707D48C07F00287DD07B48C07F20
:102000000328FAD08148016881480068801C814219
:1020100007D880480078032803D07E48007801283C
:102020006BD17C48007858B17A480078022807D0F4
:1020300078480078032803D07648007801285BD1DF
:10204000714800780A2857DB00206F4908707248F1
:102050000078401C704908706E48007890B90846B6
:10206000007802281CDB0020087003226B48B0F9BE
:1020700000106B48B0F9000003F082F800B2694923
:1020800008800DE063480078022809D16248007892
:10209000022805DB002060490870012007F023FDBD
:1020A0006048B0F9000044F62061884203DD08462C
:1020B0005C49088009E05B48B0F900005A49884251
:1020C00003DA4BF2E0105749088002225748B0F972
:1020D00000105448B0F9000003F052F805B243482C
:1020E000B0F9140042F6E061884201DB002D27DCE4
:1020F0003E48B0F9140001E0B2E1B2E14C49884237
:1021000001DC002D1CDB4B48007801280CD137483E
:10211000808A284400B2354988823248808A401B30
:1021200000B2304988820BE03048808A401B00B200
:102130002E4988822B48808A284400B22949888207
:102140002A48008906B22948B0F914003044002812
:1021500037DD2648B0F91400304441F66411884256
:1021600007DC224800892149898A08441F49C88020
:1021700011E041F664101D49C8800846008941F607
:102180006411081A00B2194988820846808A4042C0
:1021900000B2144988822748007840B900201349CA
:1021A00081F82100084680880FFA80FA70E001204B
:1021B0000E4981F821000846808840420FFA80FAD3
:1021C00066E00A4800890949B1F914100844404200
:1021D00041F66411884233DC044800890349898A46
:1021E000084429E09812002000080040BC1200209A
:1021F000EC12002071000020AC000020AD00002097
:10220000AE0000208C000020D40000207C000020C4
:1022100084000020AF000020500000207802002041
:102220007400002076000020E0B1FFFF7A02002059
:1022300020D1FFFFB80000204042FD49C88012E0D5
:1022400041F66410FA49C8800846008941F66411D5
:102250000844404200B2F64988820846808A4042DB
:1022600000B2F4498882F448007848B90120F04966
:1022700081F821000846808840420FFA80FA07E082
:102280000020EB4981F82100084680880FFA80FA87
:10229000E74890F82000E64991F82110884216D0CE
:1022A000E348C07F022812D1E148C088B0F52F7FF3
:1022B0000DDBFFF75FFE0120E0490870DC48C088B5
:1022C000DF490880DA4890F82100DE490870D948D3
:1022D000008906B2D748B0F914003044002837DD31
:1022E000D448B0F91400304441F66411884207DC48
:1022F000D0480089CF49898A0844CE49C88011E076
:1023000041F66410CB49C8800846008941F6641143
:10231000081A00B2C74988820846808A404200B243
:10232000C3498882C448007840B90020C14981F877
:102330002100084680880FFA80F945E00120BD4958
:1023400081F821000846808840420FFA80F93BE07E
:10235000B8480089B749B1F914100844404241F621
:102360006411884208DCB3480089B249898A08446C
:102370004042B049C88012E041F66410AD49C880BF
:102380000846008941F664110844404200B2A94958
:1023900088820846808A404200B2A5498882A648C1
:1023A000007848B90120A34981F8210008468088B7
:1023B00040420FFA80F907E000209E4981F8210091
:1023C000084680880FFA80F99A4890F820009949C9
:1023D00091F82110884216D09648C07F022812D169
:1023E0009448C088B0F52F7F0DDBFFF7CAFD0120B0
:1023F000954908708F48C088944908808D4890F8A6
:1024000021009349087009EB0A0000EBD0714910D4
:10241000904A11608648C08841F66411884203DD05
:1024200008468349C88008E08148C08840F28A2174
:10243000884202DA08467E49C8807E48C08841F654
:102440006411884203DD08467A49C88012E0794861
:10245000C08840F28A2188420CDA08467549C88053
:1024600008E0FFF787FDFFF78CFD00207649087034
:10247000724908706F48C07FD8B16E48C07F03288A
:1024800017D075480078012813D074480168744843
:102490000068801C81420CD86F480078032808D05F
:1024A000FFF76FFDFFF766FD00206749087063497D
:1024B00008706948007801287DD16A48B0F90000A9
:1024C000002809DD6848B0F900106848B0F900003C
:1024D000FFF75EFD04460DE06248B0F900000028F9
:1024E00008DA6248B0F900105F48B0F90000FFF761
:1024F0004FFD044644F25060844206DD48F6B800C1
:10250000844202DA01205A4908705A4800780028AB
:102510000EDD57480078012809D1C82C07DC0020BF
:102520005349087053480078401E524908706DE1C5
:102530005148008848F6B801884203DB4C480078CF
:1025400000B93BE54C48008848F6B801884204DAF7
:102550000846844201DA4948048049480078032843
:1025600006D04848006818B14548007804285ED174
:10257000414800880FF0DAFBCDE906014248B0F986
:1025800000000FF0BCFB21F00041074600224FF095
:1025900080430FF0FFF9CDE9020120460FF0C6FBA2
:1025A000CDE90001DDE902230FF040F9CDE9040196
:1025B000DDE9062300E05AE10FF006FD6CD8334850
:1025C0000078401CC0B2314908700A286EDB002038
:1025D00008702D48B0F900000FF091FB21F0004188
:1025E000074600222A4B0FF0EFFC09D82648B0F925
:1025F0000000032190FBF1F000B22349088055E070
:102600002148B0F900000FF07AFB21F000410746A5
:102610000022204B0FF0D8FC48D21B48B0F9000034
:1026200000283ADD4FF4E160174908803EE09CE065
:10263000BC12002098120020B8000020B100002039
:10264000B4000020B7000020B0000020B20000203D
:10265000B6000020BC000020AF0000207C0000205D
:10266000800000207A020020740000207802002000
:1026700051000020A4000020A6000020A800002097
:10268000C2020020880000207600002052000020B6
:102690000018B54000209C403CE0F648B0F900002E
:1026A000002803DA4FF6F800F2490880F248008863
:1026B000B0F5C87F17DBF0480088C838A04211DCAD
:1026C000ED480088C83084420CDCFFF753FCFFF76C
:1026D00058FC0020E9490870E9490870E949087088
:1026E000E949087092E0E4480088844211DBE2483E
:1026F0000088C83084420CDCFFF73CFCFFF741FC4B
:102700000020DE490870DE490870DE490870DE49A5
:1027100008707BE0D84800880FF008FBCDE906017F
:10272000DA48B0F900000FF0EAFA21F0004107465C
:1027300000224FF080430FF02DF9CDE90201204631
:102740000FF0F4FACDE90001DDE902230FF06EF895
:10275000CDE90401DDE906230FF0FCFA56D2CB489F
:10276000B0F90000C349088050E0C3480088B0F5C4
:10277000C87F26DBC0480088C838A04246DCBE4877
:102780000088C830844241DCBA48B0F90000B0F596
:102790007A7F03DD4FF47A70B6490880BC48006840
:1027A000A0B3BC48B0F91400C010BA498882BA4836
:1027B000B0F91400C010B84988820020B4490860FC
:1027C00024E0AD480088844220DBAB480088C83054
:1027D00084421BDCA748B0F90000B0F57A7F03DD26
:1027E0004FF47A70A3490880A948006870B1A948DD
:1027F000B0F91400C010A7498882A748B0F91400A6
:10280000C010A54988820020A1490860A34800683B
:1028100060B3A04890F820009F4991F820108842AA
:1028200007D19F4800689F49096808444FEA500B48
:102830000EE09B4909689B4A1268881A0FF05FFAFC
:1028400021F0004107460FF02DFA83464FEA5B0B5B
:1028500092480068801C834508D3FFF792FBFFF77E
:1028600089FB0020874908708749087000BF00BFB6
:1028700067E62DE9F04107460C4615461E460A2F2D
:1028800000DD0A270A2D00DD0A25012C00DD0124C8
:10289000012E00DD0126002F01DDFEF7A2FE002D36
:1028A00001DDFEF749FE3046FEF767FE2046FEF7E3
:1028B000BAFEBDE8F08110B57648C07F042804D187
:1028C000744991F82000FEF758FE7348C07F042831
:1028D00004D1714991F82000FEF7A5FE10BD10B596
:1028E0007148007800B910BD00206F490870694830
:1028F000C07F30B9002067490877487788804883CF
:1029000033E06448C07F03282FD141F22461674837
:1029100009F0CAFC41F22461644809F0C3FC0020BC
:102920005C49488341F2AF3048830020087708466D
:10293000407F70B90020C877888000215B4809F08B
:10294000B3FC0021594809F0ADFC002051494883EF
:102950000BE05048008B401C4E4908830846008B12
:10296000322802DD0020487708834B48C07F28B911
:10297000002049490877487788802CE04648C07F86
:10298000032828D141F22461484809F089FC41F22A
:102990002461464809F082FC00203F4948830877BB
:1029A0000846407F58B90020C877888000213F48FA
:1029B00009F076FC00213D4809F070FC0BE0364838
:1029C000008B401C344908830846008B322802DD06
:1029D00000204877088300BF85E700B5FFF7D1FAEC
:1029E000FFF7C8FA00BD10B53148007800B910BD36
:1029F00000202F4908702F480078B0B901202D49D8
:102A0000087000202C4908702C4908702C49087067
:102A10002C4908702C4908702C4908804FF6FF702B
:102A20002B49088000202B4908701A48C07F0228D3
:102A300009D11948C07F022805D127480088401CC9
:102A40002549088002E000202349088022480088A8
:102A5000322800DACBE733201F4908800D4890F870
:102A6000200018B90C4890F82000C8B300201B497A
:102A70000870BCE776000020A6000020520000206D
:102A800051000020B0000020B1000020780000209C
:102A900040010020BC120020981200208800002075
:102AA00080000020840000208E00002000080040EC
:102AB000E200002053000020E1000020E0000020A0
:102AC000E3000020E4000020E5000020E8000020F2
:102AD000EA0000205400002056000020480000209A
:102AE000FFE7FA480078FA280CDAF8480078401C2A
:102AF000F649087008460078C82811D10120F44929
:102B000008700DE00020F1490870F2490870F249A0
:102B100008804FF6FF70F14908800020EC490870EA
:102B2000EF48008800F5FA70EE490988884226DDF2
:102B3000EB480188EB48008800F5FA7081421EDA04
:102B4000E7480088E84909680844E7490860E74819
:102B50000078401CE54908700846007840281EDBD4
:102B6000E1480068C0F38F10E14908800020DF4988
:102B70000870DD4908600120DE4908700FE0002080
:102B8000DA490870D8490860D248007810B90020A6
:102B9000CE490870CF480078401CCE490870D04814
:102BA0000088CD490988884203DDCD480088CA499C
:102BB0000880CB480088C9490988884203DAC84898
:102BC0000088C6490880C6480088C6490880CA48A7
:102BD000B0F90600B0F5FA6F05DCC748B0F9060099
:102BE00010F5FA6F05DA0120C44908700020C449C5
:102BF0000870C248007860B1C1480078401CC049E4
:102C00000870084600781E2803DD00200870BB49C4
:102C10000870BC48B0F90010BB48B0F90000FFF7DD
:102C2000B7F90446B948048044F2506084420FDD8D
:102C300048F6284084420BDAB048007840B10220C0
:102C4000B34908700020AB490870B24908703CE0F5
:102C5000782C10DD44F2506084420CDAA7480078EA
:102C600048B10120AA49087000209A490870012043
:102C7000A849087029E0A148007830BBA648006840
:102C8000A149B1F900100844A3490860A34800888D
:102C9000FF280DDCA1480088401CA04908809E4800
:102CA0000068098890FBF1F000B2964908800CE0BA
:102CB00099480068001200B292490880964800685E
:102CC000B1F90010401A9449086091480078012831
:102CD00002D08F48007818BB7E480078122803DBAA
:102CE0007A480078FA2810DD7B48008840F6B83131
:102CF000884242DD7848008878490988401AB0F552
:102D0000FA6F3ADD72480078B8B302208049087043
:102D10000020784908707F4908706D4908702CE0E0
:102D20007B480078022802D07948007828BB714897
:102D3000007828B16E48008840F2DC51884210DBF0
:102D400065480088B0F5FA6F17DA63480088634970
:102D50000988401A40F2DC5188420EDA5C4800785B
:102D600058B101206A49087000205A4908700120B2
:102D70006849087000205649087000BF37E630B532
:102D8000674C6488B4F5967F7EDD654CA488B4F505
:102D9000967FF9DD624C6488614DAD88AC4256DBAC
:102DA0005F4C64885E4DAD88641B21B2B1F52F7F06
:102DB00001DD002205E064244C430F2594FBF5F46B
:102DC00022B2C1EBC10421B2052491FBF4F421B27B
:102DD000534C658801F59674A5421DDD642492FB71
:102DE000F4F4A3B2282B00DD28234E4CE35C4C4CBA
:102DF0006488641AA4F596744B4D2C602C462468A4
:102E00005C432C602C46246804EB84042C602C4624
:102E10002468A4112C6002E00024434D2C60424C35
:102E20002468B4F57A6F03DD4FF47A643E4D2C606C
:102E30003E4C248814443C4D2D882C4420B244F24E
:102E40005064A04202DDA0EB440420B230BD344CFB
:102E5000A488334D6D88641B21B2B1F52F7F01DD4D
:102E6000002205E064244C430F2594FBF5F422B2C4
:102E7000C1EBC10421B2052491FBF4F421B2284C2A
:102E8000658801F5967400E075E0A54250DD642484
:102E900092FBF4F4A3B2282B00DD2823214CE35C41
:102EA0001F4C6488641AA4F596741F4D2C602C4640
:102EB00024685C432C602C46246804EB84042C605A
:102EC0002C462468A4112C6035E000004B00002043
:102ED0005400002048000020E8000020EA00002004
:102EE00082120020580000204400002049000020E9
:102EF000E60000204A000020FB190020E30000202B
:102F0000E4000020800200207E0200201A01002040
:102F1000E100002048190020600000205A00002035
:102F2000B20100200D290108640000207802002071
:102F30000024CA4D2C60C94C2468B4F57A6F03DDB7
:102F40004FF47A64C54D2C60C54C2488A41AC34D37
:102F50002D882C4420B244F25064A04203DDA0EB43
:102F6000440420B206E0BF4CA04203DA48F6A04475
:102F7000044420B26AE7BC4C6488BB4DAD88641B36
:102F800021B264244C430E2594FBF5F2B44C248802
:102F9000144420B200BF59E710B50121880709F099
:102FA000AEF968B10121880709F0BAF9AF48807815
:102FB000401CAE498870AE488078401CAC4988708F
:102FC00010BD70B5022007F0ABFC002873D00220C2
:102FD00007F0B7FCA748007F012807D1A548407F2C
:102FE000012803D0A2480088A34908604FF0804020
:102FF00009F073F90446A0480068844203D39E4850
:103000000068251A05E09C4800684FF6FF71081A11
:1030100005199848807F08B1962600E096269648C4
:103020000460B54200D270BD9148C07A401C9049FE
:10303000C8720846C07A022802DB0020C872F2E794
:103040008C48007F01280CD18A48407F012808D095
:103050000120884948770846C07F012801D1022015
:10306000C877844890F8200028B984480068401C3C
:103070008249086009E07F4890F82000012804D1C7
:103080007E480068401E7D4908607D48007820B178
:103090007C480068401C7B49086000207549088313
:1030A000C88273480088A04206D271480088201A5E
:1030B0006F49486008E00BE06D4800884FF6FF71EB
:1030C0002144081A6A4948600120694908720C8045
:1030D00000BFA8E770B5202007F022FC002878D0B8
:1030E000202007F02EFC4FF0804009F0F6F804464F
:1030F0006548007F012807D16348407F012803D03D
:103100005A4800886149086060480068844203D3D7
:103110005E480068251A05E05C4800684FF6FF71BC
:10312000081A05195848807F08B1962600E09626AF
:1031300056480460B54200D270BD4C48C07A401C6D
:103140004A49C8720846C07A022802D10020C872D3
:10315000F2E74D48007F01280CD14B48407F012801
:1031600008D00120484948770846C07F012801D18E
:103170000220C87744480088401C4349088008461C
:1031800090F8200028B942480068401C4049086077
:1031900009E03D4890F82000012804D13C4800682F
:1031A000401E3B4908603648007820B13948006825
:1031B000401C38490860002033490883C8822B48E6
:1031C0000088A04206D229480088201A2749486072
:1031D00008E00BE0254800884FF6FF712144081AEB
:1031E000224948600120214908720C804FF4807008
:1031F00007F096FB58B14FF4807007F0A2FB264809
:10320000007820B1012000F015F800F018F84FF414
:10321000007007F085FB58B14FF4007007F091FB88
:103220001D48007820B1012000F004F800F007F8F4
:1032300000BF81E700F0010181F313887047BFF3FD
:103240004F8F1648006800F4E06015490843001DE0
:1032500012490860BFF34F8F00BFFEE764000020F3
:1032600078020020B0B9FFFFB2010020E012002078
:10327000EC120020BC120020680000209800002002
:103280008C00002084000020981200206C00002098
:1032900094000020800000202C0000200CED00E0B5
:1032A0000000FA0500B585B00121880308F0C2F8D6
:1032B0000121480408F0CBF84FF4E13001900020E0
:1032C000ADF80800ADF80A00ADF80C00ADF810003C
:1032D0000C20ADF80E0001A9FE4809F068F801A91C
:1032E000FD4809F064F8012240F22551F94809F03F
:1032F000F6F8012240F22661F64809F0F0F80122C2
:1033000040F22551F44809F0EAF8012240F2266122
:10331000F14809F0E4F84FF4A06006F0CFFE252054
:103320008DF8000001208DF8010002208DF80200C8
:1033300001208DF80300684606F0C5FE4FF4A0603A
:1033400006F0BCFE26208DF8000001208DF801005B
:1033500003208DF8020001208DF80300684606F076
:10336000B2FE0121DB4809F0AEF80121DA4809F08C
:10337000AAF80020D9490870D9490870D9490870BD
:10338000D94908701420D94908800120D84908700B
:10339000D84908700020D84908706420D7490880AF
:1033A0000020D7490880D74908800120D6490870F5
:1033B0000020D6490870D6490870D64908703620D2
:1033C000D54981F836000020D4490870D4490860F6
:1033D000D4490860D4490860D44908704870042072
:1033E00008710020D249087005B000BD10B5D14861
:1033F000D1490860084600680178B64809F0D0F85D
:1034000010BD10B5CD48CE49086008460068017867
:10341000B14809F0C5F810BD10B540F22551AD48CE
:1034200009F042F900286DD040F22551A94809F071
:1034300065F9A84809F0B8F8C4B2B3480078012883
:1034400024D1AA2C18D1BF480078AA2814D1012071
:10345000AF4908700020AF490870AB4908700120DF
:10346000AA4908700020B7490870B7490870B749E1
:103470000870B749087009E0B2480078A52802D062
:10348000B048047002E00020AE4908700020B14945
:103490000880B1490870B148AC4909784454AB4838
:1034A0000078401CA9490870A9480078401CA84928
:1034B000087096480078012823D1552C17D1A248CE
:1034C0000078552813D101209249087000209049B6
:1034D000087001208C49087000208C4908709A49B6
:1034E00008709849087001209D49087009E09648C5
:1034F0000078A52803D100209349087001E0924884
:10350000047000BF40F22661724809F0CDF8D8B1CE
:1035100040F226616F4809F0F1F887480068401CC6
:10352000854908608F480078401EC0B28D490870F8
:10353000002806DD804800680178664809F030F808
:1035400002E001206A49087010BD10B540F2255113
:10355000614809F0A9F8D0B140F225515E4809F060
:10356000CDF85D4809F020F8C4B27F487F4909785A
:1035700044547E480078401C7C4908707C480078A0
:10358000401C7B49087000207A49087000BF40F257
:103590002661514809F088F8D8B140F226614E48BA
:1035A00009F0ACF866480068401C6549086072483C
:1035B0000078401EC0B270490870002806DD6048DF
:1035C00000680178444808F0EBFF02E00120494917
:1035D000087010BD70B56948007800B970BD002052
:1035E00066490870554CAA20207001206070262082
:1035F000A07063480078E0706248017821716248E9
:103600000178617161480178A17161480178E171C7
:1036100060480178217260488088011261725E48BA
:103620000179A1725D4880880112E1725B480179DD
:1036300021735B480088010A617359480178A173BE
:10364000584800880112E1735648017821745648A1
:1036500000880112617454480178A17453480178BC
:10366000E174534800880112217551480178617551
:1036700050480088010AA1754E480178E1754E480E
:10368000017821764D48C088010A61764B488179DE
:10369000A1764B4800880112E176494801782177EC
:1036A0004848017861774848C0880112A1774648A8
:1036B0008179E1773848408B011220200155364846
:1036C000817E212001553548408B01122220015571
:1036D00032487BE000380140004400402E010020C9
:1036E0002F010020300100203101002000010020C6
:1036F000FE000020FF000020F2000020500100200A
:103700005201002054010020090100200A0100207C
:103710000B0100200C010020501500203601002074
:10372000380100203C010020880000200D0100200D
:1037300002010020F8120020F4000020F213002003
:10374000F8000020EC000020ED0000200701002020
:1037500008010020EE0000202D010020561400205A
:103760002C010020FC000020EC1700204D0100205F
:103770004C0100204E010020FD000020F10000203F
:10378000AC00002098020020C3020020AF000020FF
:103790008201002083010020BC120020981200202A
:1037A00080020020EA000020E8000020B100002094
:1037B0001A0100207E020020E1000020FB190020F9
:1037C000E60000204A00002082120020817E84F85A
:1037D0002310F8480088011284F82410F548017875
:1037E00084F825104088011284F82610F148817869
:1037F00084F82710F048017884F828100026002566
:1038000005E0EE48405D3044C6B2681CC5B2A07801
:10381000C01CA842F5DCE9484655A078001DE849DF
:103820000870FFF7EEFD0020E649087000BFD5E6FE
:1038300030B503464C1EE1B28A4200DD30BD084679
:1038400004E01D5C441C1D55441EE0B29042F8DAB1
:10385000A5249C5400BFF1E72DE9F04F87B0DA486A
:10386000007810B907B0BDE8F08FD848007800B9EB
:10387000F8E70020D4490870D54CAA202070607069
:103880001220A0708320E0700020A0807120C4F876
:103890000600002507E0002104F10A0000EB4500C6
:1038A0000180681CC5B2082DF5DBCA48817A807E8C
:1038B00041EA4000A076C848017804F10A00A4F863
:1038C0001B10C648007810B9C548007818B9C5481B
:1038D0000178617706E0C4480078C449097840EA75
:1038E00041006077C248007818B1607F40F0030162
:1038F0006177C04800680EF01FFE01900EF084FC56
:103900004FF03332BC4BCDE902010EF05FFACDE946
:1039100004010EF097F98046B848B0F90000404223
:103920000EF00AFE01900EF06FFCB54AB54BCDE9E2
:1039300002010EF04BFACDE904010EF083F90646C0
:10394000B148B0F9000040420EF0F6FD01900EF0D3
:103950005BFCAB4AAB4BCDE902010EF037FACDE987
:1039600004010EF06FF90FFA80F9C4F81E90A74811
:1039700000680EF0E1FD01900EF046FC0022A44B21
:10398000CDE902010EF022FACDE904010EF05AF958
:10399000C4F822009F4800680EF0CEFD01900EF0A2
:1039A00033FC00229A4BCDE902010EF00FFACDE96B
:1039B00004010EF047F9C4F82600C4F82A80C4F8C0
:1039C0002E609548017884F832109448017884F884
:1039D0003310002184F8341004F10A00A4F83510E3
:1039E0008F48018804F10A00A4F837108D48006858
:1039F0008D4909680843C4F839008C49B1F90600BB
:103A00000EF09AFD8A4900900EF0F6FD01900EF03E
:103A1000FBFB4FF03332874BCDE902010EF0D6F9B4
:103A2000CDE904010EF00EF94FEA204A7F49B1F9C1
:103A300008000EF081FD7E4900900EF0DDFD019042
:103A40000EF0E2FB4FF033327A4BCDE902010EF07B
:103A5000BDF9CDE904010EF0F5F84FEA204B04F171
:103A60000A00A4F83DA0A4F83FB031B2A4F8411078
:103A70006E48018804F10A00A4F843106B4841889D
:103A800004F10A00A4F845106848818804F10A008E
:103A9000A4F84710002184F84910A4F84A10A4F8AB
:103AA0004C10A4F84E10A4F85010A4F8521062481C
:103AB000008800EB8000400041F2A86101EBE000CB
:103AC0005E490978484381B204F10A00A4F8541011
:103AD000002184F8561084F8571084F8581084F8A0
:103AE00059105748007810B984F85A1002E00121A3
:103AF00084F85A10534890F8200038B9514881880A
:103B0000C4F85B10418BC4F863100EE04D4890F888
:103B10002000012809D14B4880884142C4F85B103D
:103B20004848408B4142C4F86310474890F8200051
:103B300038B945488188C4F85F10418BC4F86710D4
:103B40000EE0414890F82000012809D13E488088C5
:103B50004142C4F85F103C48408B4142C4F86710B2
:103B6000002184F86B1084F86C1084F86D102B48D9
:103B7000017884F86E103548008848F6CC514843E7
:103B8000C0F38F2104F10A00A4F86F10B4F85F208D
:103B900011B2B4F85B2010B2FDF779FE2C49088011
:103BA00008460088801B01B204F10A00A4F87110D5
:103BB000002555E08212002048000020F21300206A
:103BC000FD000020FF000020F0000020FE0000208B
:103BD000F8120020D4180020BF010020900100201E
:103BE0009101002085010020820100208301002036
:103BF000BE010020BC0000203333AB3F7A0200201E
:103C0000BC7493180456C63F78020020940000202C
:103C10000080C93F98000020DC010020DB0100206B
:103C2000C00100204001002044010020FB190020B9
:103C30000000FA43337331402202002012020020B8
:103C4000C202002098120020BC120020FA010020BD
:103C5000C8000020002104F173004155681CC5B262
:103C6000082DF7DB002084F87B00A0790B30FC499D
:103C700008700027022505E0FA48405D3844C7B2C5
:103C8000681CC5B2F64800788542F5DB84F87C7084
:103C9000F3480078401CF24908700A251AE0F14800
:103CA000405DAA2807D0EF48405D552803D0ED4875
:103CB000405DA5280CD12A46E9480178E948FFF77C
:103CC000B7FDE7480078401CE5490870681CC5B29C
:103CD000681CC5B2E24800788542E0DB5520E14926
:103CE00048555521DF4A681C1154DD480078801C76
:103CF000DB490870FFF77AFB0020DB49087000BF42
:103D0000B0E52DE9F0410024B7E004EB041000EB2E
:103D10004410D649084490F83000002879D0D248A1
:103D200000780028FAD0002004EB041101EB4411C4
:103D3000CE4A114481F83000CA4EAA20307070700B
:103D400004EB041000EB44101146085CB07004EB67
:103D5000041000EB441008444088B08004EB0410C9
:103D600000EB441008444068C6F80600012C09D155
:103D70004FF0180804EB041000EB4410084440789E
:103D8000F07010E004EB041000EB4410B749084455
:103D900090F8048004EB041000EB441008444078D1
:103DA00040F08000F07000250CE004EB041000EB04
:103DB0004410AE4908440830415D06F10A004155FF
:103DC000681CC5B24545F0DB012C08D0002106F186
:103DD0000A00415508F10B00A149087003E008F101
:103DE0000A009F4908700027022505E09D48405DB4
:103DF0003844C7B2681CC5B2994800788542F5DBE3
:103E00009848475596480078401C954908700A25FF
:103E10001BE030E09348405DAA2807D09148405D00
:103E2000552803D08F48405DA5280CD12A468C48E0
:103E300001788C48FFF7FCFC89480078401C8849D1
:103E40000870681CC5B2681CC5B2854800788542F8
:103E5000E0DB5520834948555521824A681C11549E
:103E60007F480078801C7E490870FFF7BFFA002069
:103E70007D49087004E0601CC4B2072CFFF645AF12
:103E800000BF7B4890F8E800002876D0764800789C
:103E9000002872D00020764981F8E800714EAA20EF
:103EA000307070701220B0700846407840F080008A
:103EB000F07008464088B08008464068C6F80600A2
:103EC000002407E06A480830015D06F10A00015548
:103ED000601CC4B266484068A042F3D8002106F1D5
:103EE0000A000155624800790B305D4908700027CF
:103EF000022405E05B48005D3844C7B2601CC4B2D0
:103F0000574800788442F5DB5648075554480078F6
:103F1000401C534908700A241AE05248005DAA2840
:103F200007D05048005D552803D04E48005DA528B5
:103F30000CD122464A4801784A48FFF779FC4848A4
:103F40000078401C46490870601CC4B2601CC4B2B2
:103F5000434800788442E0DB55204249085555210A
:103F6000404A601C11543E480078801C3C4908704F
:103F7000FFF73CFA00203C490870BDE8F0813D485D
:103F800000884FF6FF7188421FDA3A480088401CCB
:103F9000384908800846008864280EDB002036492E
:103FA00008703649087001203549087000203549ED
:103FB000087035490870354908702E480088B0F5FA
:103FC0007A7F02DB01203249087032480078FF28EE
:103FD00012DA30480078401C2E49087008460078F4
:103FE0000A2809DD2C480078002802DD01202B4931
:103FF000087000202A490870704710B5274B1B78BD
:1040000003B910BD0023254C237026480378AA2B42
:1040100003D00023204C2370F3E70022002105E0A9
:10402000204B5B5C1344DAB24B1CD9B28378DB1CA7
:104030008B42F5DC1B4B5B5C934203D00023164C98
:104040002370DEE70123184C23704378012B2FD116
:104050008378002B02DDC378144C237029E0000024
:10406000FC000020F8120020FE0000208715002030
:10407000DE160020EE0000200C0100200B010020C5
:10408000090100200A010020EC000020ED000020C2
:104090002D0100204E0100204C0100204F01002086
:1040A0004D010020EC170020E4020020E302002074
:1040B00000BF00BF0023FE4C237000BFA1E710B576
:1040C000014609B9042004E0012901D1062000E0DD
:1040D00010BD002200EB001303EB4013F54C23440A
:1040E0005A70202200EB001303EB4013E25400222D
:1040F00000EB001303EB401323445A80012200EB32
:10410000001303EB401323445A6000EB001202EB50
:10411000401223461A441172012200EB001303EBF4
:104120004013234483F8302000BFD1E710B5E248A4
:10413000007800B910BD0020DF490870DD4862300A
:104140000DF0C8FA20B10121DA4880F8921003E09E
:104150000021D84880F892100020FFF7B0FF00BF80
:10416000E8E72DE9F04104460D4616461F46207942
:10417000A84203DDA8192179884202DD0020BDE8AC
:10418000F0816019324639460DF02EF80120F6E72D
:1041900001460A46002A02DA484202B200E00A4614
:1041A00090B270472DE9F0478046894644464D4617
:1041B00074B96DB9C148007840B1FDF7DBFEFDF779
:1041C000E0FE0020BE490870BE490870BDE8F087D7
:1041D000002C01DB002602E0002C00DA012620463C
:1041E000FFF7D6FF04B2002D01DB002702E0002D0F
:1041F00000DA01272846FFF7CBFF05B23CB9FDF7EF
:10420000C0FE0020B049C880AD49087031E041F2DD
:104210007070844201DD044606E0B4F52F7F02DAB7
:104220004FF42F7400E000BFA74890F82000B04280
:1042300002D0A548C07F40B9A34890F82000B04202
:104240000FD1A148C07F03280BD1FDF79AFE0120B2
:104250009B4908709D490C809D4806709A49CC8006
:1042600007E09949CC800846C07F10B93046FDF779
:10427000DAF92DB9FDF77EFE00209649C88031E0BD
:1042800041F27070854201DD054606E0B5F52F7FED
:1042900002DA4FF42F7500E000BF8E4890F820003E
:1042A000B84202D08B48C07F40B98A4890F82000BD
:1042B000B8420FD18748C07F03280BD1FDF75AFEC3
:1042C00001208049087084490D808249CD8083484F
:1042D000077007E07F49CD800846C07F10B9384697
:1042E000FDF74BF90120754908707D4908700020E1
:1042F0007C49087000BF69E72DE9FF5F04468A46E4
:1043000050460EF019F9834658460DF07DFF764A67
:10431000764BCDE902010DF059FD07460DF092FCF8
:1043200005B2601906B2601B0FFA80F9C82E03DAD5
:1043300016F1C80F00DD0026B9F1C80F04DA19F133
:10434000C80F01DD4FF0000949463046FFF72AFF4C
:10435000002E07DB00205C4981F821000846C08858
:1043600006B207E00120584981F821000846C088BC
:10437000404206B2B9F1000F08DB0020554981F830
:1043800021000846C0880FFA80F908E00120514951
:1043900081F821000846C08840420FFA80F906EBF8
:1043A000090000EBD07149100CB2A6EB090000EB3C
:1043B000D07149100DB2002C0CDB43490C814549EA
:1043C0000C81684200B288823F48858200204849BB
:1043D00008700EE060423C49088160423D49088116
:1043E00008468582684200B23749888201204049E8
:1043F000087028460EF0A0F801900DF005FF3D4A28
:104400003D4BCDE902010DF0E1FC07460DF0DCF972
:10441000834658460EF054F800B23849088002200E
:1044200000F060FE032000F05DFE3548B0F90000AA
:10443000344908800120344908702049087028490F
:10444000087028490870032030490870BDE8FF9FB4
:104450002DE9F047044620460EF06EF882460DF036
:10446000D3FE07464FF01432294B0DF0AFFC054642
:104470000DF0E8FB81464846BDE8F0872DE9F041A4
:1044800006460F4614461D4648F6A04094FBF0F041
:10449000204908700846007848F6A04101FB10400A
:1044A0001D4908802846FFF7D3FF1C49086037E004
:1044B0004C01002087150020F2000020AC000020F5
:1044C000B0000020B100002098120020B2000020AF
:1044D000B6000020BC120020B4000020B70000206D
:1044E000AD000020AE000020639AD693E67CDE3F4C
:1044F000B800002038732B2D26CB0040760000201A
:1045000078020020740000208C000020AF00002002
:1045100014141440A4000020A600002088000020ED
:1045200039463046FFF7E8FE0020F7490860F749B2
:104530000860F7490880F748B0F90000F64908809C
:104540000120F6490870BDE8F0812DE9F0470446E6
:1045500020460DF0F1FF82460DF056FE0746F04A68
:10456000F04B0DF033FC05460DF06CFB81464846E0
:10457000BDE8F0872DE9FF4F87B09B46DDF81C8032
:10458000099C089806905F46022F00DD0027B8F1CD
:10459000000F70DD4FF4B47098FBF0F0E249087042
:1045A0004FF4B47098FBF0F100FB1180DF490880F4
:1045B0000846008800EBC00101EB00104FF6FF71C8
:1045C00001EA8000D94908804046FFF7BEFF1FFA84
:1045D00080F82046FFF7B9FFC0EB0010C0F38D0450
:1045E0001FB14FF6FF7000EA440441F2707084423C
:1045F00001DD044606E0B4F52F7F02DA4FF42F7494
:1046000000E000BF0698012811D127B926B225B2D3
:10461000684205B21FE0012F02D126B200251AE040
:10462000022F18D125B2684205B2002613E0069881
:10463000022810D127B925B226B2704206B20AE08C
:10464000012F02D1002625B205E0022F03D126B2A8
:10465000704206B20025022000F044FD032000F065
:1046600041FDB348B0F90000B249088027B9B2480B
:10467000C0F8008004E066E04FEA4800AE490860F8
:1046800031462846FFF78EFDA81900EBD07149107E
:104690000FFA81F9A81B00EBD07149100FFA81FACB
:1046A00050460DF049FF01900DF0AEFDA34AA44B1A
:1046B000CDE902010DF08AFBCDE904010DF0C2FA4B
:1046C00000B2944908800846B0F900009249088079
:1046D000B9F1000F10DB9B49A1F808909A49A1F8A5
:1046E0000890CAF1000000B288829648A0F814A091
:1046F00000209649087012E0C9F100009149088134
:10470000C9F10000904908810846A0F814A0CAF138
:10471000000000B28B49888201208C49087000207B
:1047200079490860794908608949086078490880B2
:1047300001208849087088490870884908708849AC
:104740000870764908700BB0BDE8F08F2DE9F0478E
:1047500006468846914637464C46C246002F62DDE3
:104760003846FFF775FE87B22046FFF771FEC0EBB3
:104770000010C0F38F0441F27070844201DD0446E2
:1047800006E0B4F52F7F02DA4FF42F7400E000BF8B
:10479000BAF1010F0AD125B200206B4981F821003E
:1047A000684981F82100694908700EE0BAF1020FEA
:1047B0000BD125B2684205B20120634981F821007E
:1047C000604981F821006149087029462846FFF7B1
:1047D000E9FC5C4804815C48048100205A498882D5
:1047E00058498882022000F07DFC032000F07AFC0A
:1047F0000020484908804E48B0F900004D49088023
:104800004D48076000204049086040490860012089
:104810005049087050490870504908705049087054
:1048200000203E490870BDE8F0872DE9F047824638
:10483000BAF1000F1CD050460DF061FA0646494A05
:10484000494B0DF0C3FA04460022484B0DF0A2F884
:1048500080460DF0F7F93C49C8600846C068394900
:10486000C86001204249087000204249087004E0F5
:1048700000203F4908703F490870BDE8F0872DE9E6
:10488000F04104460D4616461F4694F83600A842ED
:1048900004DDA81994F83610884202DD0020BDE836
:1048A000F0816019324639460CF09EFC0120F6E793
:1048B00010B503464C1EE1B28A4200DB10BD104623
:1048C00004E0441C1C5D1C54441CE0B28842F8DB2C
:1048D00000BFF3E72DE9FC5F2748007840B1274887
:1048E000007810B92648007808B9BDE8FC9FFCE7BD
:1048F0002448007800B9F8E7002022490870224CCB
:104900002078AA2842D079E380000020840000208B
:10491000AA0000207600002078000020AF000020D0
:10492000FDD5327B15682940A4000020A600002098
:1049300078020020740000207C00002038732B2DAA
:1049400026CB004098120020BC120020B8000020A6
:10495000880000208C000020AC000020AD0000206A
:10496000AE000020D3D2D2D2D2D232400000694071
:1049700090000020400000202D0100209001002028
:10498000910100202C010020561400204FF0010955
:1049900017E0FE4810F80900A5280ED14A46FC4849
:1049A0000178FA48FFF784FFF9480078401EF8497B
:1049B000087009F1010000F0FF0909F1010000F0A1
:1049C000FF09F3480078801E4845E2DC4FF0000AFA
:1049D0004FF0010909E0ED4810F80900504400F0DB
:1049E000FF0A09F1010000F0FF09E9480078001F03
:1049F0004845F0DAE54810F80900504500D0FDE2DE
:104A0000E3480078401EE149085C552800D0F5E2F3
:104A1000607812287ED1A07808287CD2DFE800F0E8
:104A20007B0464EFEE7B7BED0120DA4981F83000F6
:104A3000487012200870B4F803004880D4F80500CC
:104A40004860D54800680DF077FD00900DF0DCFB64
:104A500007464FF03332D14B0DF0B8F905460DF053
:104A6000F1F88346CE48B0F9000040420DF064FDF5
:104A700000900DF0C9FB0746CA4ACB4B0DF0A6F9D2
:104A800005460DF0DFF80190C2484088C1494968E9
:104A90000844082827D8BF4988781CE004280CDA85
:104AA000C0F10301C9004BFA01F1CAB2B949498802
:104AB000431AB8490831CA540BE0C0F10701CA00D3
:104AC00001991141CAB2B3494988431AB149083121
:104AD000CA54411CC8B2AF494968AE4A5288114411
:104AE0008142DBD800BF7AE26279E17804F1090300
:104AF000AE48FFF7C4FE00287ED0AC4908680DF030
:104B00001BFD83460DF080FB0746A94AA94B0DF01B
:104B10005DF901E064E261E205460DF093F8A64913
:104B20000860A249496848420DF006FD83460DF031
:104B30006BFB0746A14AA24B0DF048F905460DF064
:104B400081F8A04908609949B1F9151048420DF063
:104B5000F3FC83460DF058FB0746984A984B0DF03E
:104B600035F905460DF06EF8974908608F48C07E0C
:104B70009649097888421FD09448007820B90120CE
:104B800093490870934908708848C07E502803DA1A
:104B90000A209149088003E04FF461608E49088043
:104BA0008248C07E20B90020894908708949087070
:104BB0007E48C07E854908707C4890F8250087496A
:104BC0000978884211D08548007810B901208449BD
:104BD0000870764890F8250010B9002080490870C8
:104BE000724890F825007D490870704890F82400BC
:104BF0007C490978884203E0B6E1DEE1B6E1B4E140
:104C000004D06A4890F82400764908707648007805
:104C100010B97648007800B967E66448007A20B198
:104C200001286FD003286BD178E07148007878B9FB
:104C30006F480078002863D16E48006861490968B0
:104C4000884205D15C4800686B490968884257D0A2
:104C50005C48008801B25848008800B2FFF74CFB5E
:104C60000020664908706649087066490860604916
:104C700008704E49D1F809000DF041F84C4A4D4BEF
:104C8000CDE900010DF0A2F8054600225E4B0CF0C4
:104C900081FE07460CF0D6FF5C49C8600846C06834
:104CA0005B49C8604149D1F80D1048420DF044FC01
:104CB00083460DF0A9FA414A414BCDE900010DF0C0
:104CC00085F805460022504B0CF064FE07460CF0B8
:104CD000B9FF4E490861084600694D4908614B48D3
:104CE000C06828B101204B49087000204A4908706B
:104CF000344800683F4908602F4800683E49086012
:104D000031E1FFE703203D49087000203C4908706D
:104D10003C49086001203649087024E13848007891
:104D200060B13E48007840B93D48007828B93D4818
:104D3000007810B90020334908605FE10020FFF7D8
:104D400074FD01202E49087000202C4908700320B2
:104D50002749087001202B4908601B48006898B952
:104D60001248D0F8110078B11049D1F811000CF0B8
:104D7000C6FF21F0004105460CF064FF0B49C1F865
:104D800011000D4800684FE07EE00000561400203E
:104D90000801002087150020BC0000203333AB3F02
:104DA0007A020020BC7493180456C63F50150020A8
:104DB000D3D2D2D2D2D23240C0000020EC51B81EA1
:104DC00085EB1640C40000201401002024020020BE
:104DD0001202002048190020220200202602002092
:104DE00011020020250200209001002091010020E6
:104DF000360100203C01002038010020C2020020C2
:104E0000350100204001002000006940BC12002054
:104E1000981200209000002040000020AC000020EC
:104E2000B1000020B0000020002811DD08680CF05F
:104E300066FF21F0004105460CF034FF87B29A4925
:104E4000B1F8111088B23A460121FFF77FFC89E0E2
:104E500096480068002812DA934908680CF04FFF62
:104E600021F0004105460CF01DFF87B28E49B1F8D4
:104E7000111088B23A460221FFF768FC72E0002167
:104E80000846FFF78FF96DE089480068E8B3864867
:104E9000D0F81100C8BB864800680CF030FF21F044
:104EA000004105460CF0CEFE81490860814800684B
:104EB000002812DD7F48008880B2642190FBF1F069
:104EC00085B27B48006890FBF1F086B200232A4649
:104ED00002213046FFF74EFB44E076480068002888
:104EE00014DA74480088404280B2642190FBF1F0EB
:104EF00085B26F48006890FBF1F086B200232A4625
:104F000001213046FFF736FB2CE004E00021084683
:104F1000FFF748F926E06648006818B36248D0F801
:104F20001100F8B16049D1F811000CF0E8FE21F051
:104F3000004105460CF0B6FE07465D4800680CF0DF
:104F4000DEFE21F0004105460CF0ACFE1FFA80F8B1
:104F50003B4642465748008801B25448008800B298
:104F6000FFF78CFA00BF00BF39E038E00420524957
:104F7000487012200870B4F803004880D4F8050087
:104F800048600846408849680844E02814D84A49DF
:104F9000887809E049490A5C47494988431A4649E3
:104FA0000831CA54411CC8B243494988424A526830
:104FB00011448142EED800BF11E04149601C0CF061
:104FC0005FFB28B101213E48313880F8611004E0D0
:104FD00000213B48313880F8611000E000BF0CE050
:104FE0006078202809D1A078012806D16279E1787B
:104FF00004F109033348FFF7B4F800BF0020324939
:10500000087000BF71E400222D49313981F89420E5
:10501000FD212B4A313A82F8931000222849313978
:10502000A1F895200422C1F8972081F89B00021274
:1050300081F89C20021481F89D20021681F89E20A0
:10504000012281F8C320704701211D48313880F8C2
:10505000F61020201A49313981F8F500002118484E
:105060003138A0F8F7100121C0F8F910174801787D
:105070001348313880F8FD10012180F82511704760
:1050800058B1C82190FBF1F1114A11610121114A77
:1050900011700021104A117004E000210F4A1170B4
:1050A0000F4A11707047000050150020C00000200A
:1050B00014010020C4000020DE160020362901085B
:1050C000B81500200D010020080100200201002079
:1050D000BC12002090000020400000209100002021
:1050E00041000020042800DD70470021984A42F862
:1050F0002010984A22F8101002280CDA9649974A94
:1051000042F820109649974A42F820109649974A4B
:1051100042F8201032E002280CD195498F4A42F81B
:10512000201094498F4A42F8201000218F4A42F8FB
:10513000201023E003280DD14FF07F51874A42F819
:1051400020108D49874A42F820100021874A42F8F2
:10515000201013E0042811D18849804A42F8201019
:105160008749804A42F820100021804A42F82010E6
:105170008449098809B2774A22F8101000BFB3E7C2
:105180002DE9F74F82B089461446042C03DD002038
:1051900005B0BDE8F08F0298A0EB0905032C0CD1F7
:1051A00044F25060854202DDA5EB400505E07648FB
:1051B000854202DA48F6A040054440F2DC5B28460E
:1051C0000DF0BAF98246654850F8241050460DF0AB
:1051D00013FA824657465D451BDCCBF10000854241
:1051E00017DB5B4850F824002844594941F8240053
:1051F00051F824000DF0A0F901905C4850F82410FB
:1052000001980DF0F9F98246514638460DF028F81C
:105210000746504830F91400A0EB090528460DF068
:105220008BF982464F4850F8241050460DF0E4F9AF
:105230008246514638460DF013F80746454820F897
:105240001490032C06DA3226454938460DF076F8DC
:10525000074608E0032C02D143F6982603E0042C0D
:1052600001D143F69826002138460DF091FA0FD867
:1052700030460DF061F9394601900DF089F901D2FF
:10528000B04615E038460DF01BF90FFA80F80FE034
:1052900070420DF051F9394601900DF079FA02D2C1
:1052A000C6F1000804E038460DF00AF90FFA80F85C
:1052B00040466DE770B505463448B0F900000DF082
:1052C0003BF90446324920460DF096F9044626463D
:1052D00028460DF031F904462E4920460DF08CF990
:1052E0000446214630460CF0BBFF06462A48B0F97A
:1052F00000000DF021F90446284920460DF07CF904
:105300000446214630460CF0ABFF06462448B0F96F
:1053100000000DF011F90446224920460DF06CF909
:105320000446214630460CF09BFF06461A48B0F969
:1053300000001B4908801848058030460DF0C0F871
:1053400000B21249088030460DF0BAF800B270BDC4
:10535000501800206418002000007041141800202C
:105360000000C84228180020CDCCCC3D3C180020BD
:105370000000A03F00004841000090410000A04014
:105380000000C843C0010020B0B9FFFF5601002053
:105390006F12833A1F85EB3F580100207B14EE3FCC
:1053A0005A010020B29DEF3E10B5F7480078092859
:1053B0007ED2DFE800F0E2050AE23D42E2E2500080
:1053C00040F6B830FFF71FFED8E0F048007838B359
:1053D000EF480078E0B980220021032001F028FE88
:1053E000FBF715FDFBF746FD0021EA4804F027FF17
:1053F0000021481E06F02BF800216FF0410006F056
:1054000019F80121084605F062FE0120E049087004
:10541000DF48007858B1012000F098FA00F09BFABC
:10542000DD48007818B140F6BA30FFF7ECFDA5E092
:1054300040F6B930FFF7E7FDA0E0D448007848B166
:10544000D648007830B90120D449087040F6BC3005
:10545000FFF7D9FD92E0CD48007840B3CC48007802
:10546000E0B980220021032001F0E2FDFBF7CFFC30
:10547000FBF700FD0021C74804F0E1FE0021481EB3
:1054800005F0E5FF00216FF0410005F0D3FF012199
:10549000084605F01CFE0120BD490870BC48007894
:1054A000002869D0012000F051FA00F054FA00E021
:1054B00063E0B948007800285ED0B9480078F8B9B0
:1054C0000420B74908700020B6490870B649087032
:1054D0004FF6FF70B54908800020B5490870B548FF
:1054E000B0F90000B44908800020B44908700120D8
:1054F000B3490870B348B0F90000B34908800DE023
:105500000020A7490870A7490870A9490870002120
:105510000846FEF747FE0020A9490870A848007811
:1055200098B100209F4908704FF6FF709F4908808E
:105530000020A24908700120A1490870A349087001
:10554000A3490870A349087016E000209449087028
:105550009449087000210846FEF724FE00209B496C
:1055600008709B4908709C4908709C4908709449D0
:10557000087002209749087000BF00BF00BF10BD2F
:1055800010B59748007800B910BD00209449087004
:105590008148007800B9F7E74FF48071914805F031
:1055A000CAFA30B19048007820F001008E490870A6
:1055B00005E08D48007840F001008B4908704FF4F9
:1055C0000071884805F0B7FA30B18748007820F0BC
:1055D00002008549087005E08348007840F0020029
:1055E000814908704FF480617E4805F0A4FA30B11B
:1055F0007D48007820F004007B49087005E07A4877
:10560000007840F00400784908704FF480717748C2
:1056100005F091FA30B17448007820F00800724922
:10562000087005E07048007840F008006E49087086
:105630006D4800786E4908706E48007820B10128E6
:1056400017D002285AD127E000206B4908706B4917
:1056500008704E49087066480078002805DD4A4801
:10566000007810B901206349087000204B49087088
:1056700048E05F48007844490978084208D0022091
:105680005C4908705C480078401C5B49087002E087
:1056900000205849087035E05548007848B93A4824
:1056A0000078002805DD002052490870FFF77CFED5
:1056B00023E04F48007800B333480078E8B14E4803
:1056C0000078401C4C49087008460078282814DBF4
:1056D00001202E49087049480078401C474908704D
:1056E00008460078092801DD092008704348007841
:1056F0001E3041490870FFF757FE03E000203D4986
:10570000087000BF00BF3A4800781F49087000BF0A
:105710003AE770B50446002532E014F0010F05D0D9
:1057200001221021364805F024FA04E0002210215D
:10573000334805F01EFA00222021314805F019FAFD
:1057400000BF00BF00BF00BF00BF00BF00BF00BF61
:1057500000BF00BF00BF00BF00BF00BF00BF00BF51
:1057600000BF00BF00BF00BF00BF00BF00BF00BF41
:1057700001222021224805F0FCF96410681CC5B202
:10578000082DCADB70BD0000690100206601002001
:105790002C0000200024014083020020670100202B
:1057A000C2020020C3020020980200209A020020BA
:1057B0009C02002078020020C6020020D8020020AF
:1057C000481900207E0200208002002011020020E3
:1057D00012020020E6020020130200200F02002027
:1057E00064010020001401405C0100200018014009
:1057F000680100205D0100205E0100206A01002098
:105800000010014010B5044601221146594805F028
:10581000B0F900220121574805F0ABF92046FFF707
:1058200078FF10BD30B5024652B949B90024524D37
:105830002C706C70AC70EC70504C24782C7130BDB6
:1058400004200FE00A2492FBF4F504FB1524A3B214
:105850004A4CE45C484D2C540A2492FBF4F4A2B266
:10586000441EA0B20A28EDDB79B900200AE0424CC0
:10587000245C5F2C03D100243F4D2C5400E003E056
:10588000441CA0B20528F2DB00BF00BFD7E7704779
:1058900010B5002400212046FFF7C4FF10BD10B54D
:1058A0003748007800B910BD0020354908703548E8
:1058B000007828B14FF4E151334806F0EFFC25E0C1
:1058C00032480188304806F0E9FC3148008870B958
:1058D0002E480088B0F57A7F05DD2C480088FA381C
:1058E0002A49088012E00120294908800EE0274853
:1058F000008841F27071884205DA24480088FA3045
:105900002249088002E000202149088021480078CF
:1059100028B101229102204805F02BF905E0002270
:105920004FF480611C4805F024F91C48007828B128
:105930000122D102184805F01CF905E000224FF4BD
:105940000061154805F015F900BFACE700F0010152
:1059500081F313887047BFF34F8F1148006800F43C
:10596000E06010490843001D0D490860BFF34F8FE8
:1059700000BFFEE7000C01406E180020162A010847
:105980006501002083020020002C014060010020FE
:1059900062010020830100200018014082010020E4
:1059A0000CED00E00000FA050021FE4A1170FE4AED
:1059B0001170FE4A1170FE4A1170FE4A1170FE4AC3
:1059C0001170FE4A1170FE4A11700121FD4A1170DA
:1059D0000021FD4A1170FD4A1170FD4A1170FD4A07
:1059E0001170FD4A1170FD4A1170FD4A1170FD4A97
:1059F00011801021FC4A116000201AE00021FB4AAE
:105A000002EB00129180F94A02EB00121160F74A92
:105A100002EB00129172F54A02EB00125172F34A46
:105A200002EB00121172F14A02EB0012D180411C0C
:105A3000C8B20528E2DB002020E04FF6FF71EC4AF7
:105A400002EB001291800021E94A02EB0012116082
:105A5000E74A02EB00129172E54A02EB0012517222
:105A6000E34A02EB00121172E14A02EB0012D1800C
:105A7000DF4A02EB00129181411CC8B20228DCDB34
:105A800070470146DB4AB1F53C6F04DCB2FBF1F034
:105A9000A0F1D80200E0002290B270472DE9FC414D
:105AA000D548007808B9BDE8FC810020D2490870CB
:105AB000BD480678BB480578BF480778002407E052
:105AC000CA4800EB0410807A0DF80400601CC4B2D0
:105AD000052CF5DB0121C94805F02DF818B100208F
